{
  "_format": "hh-sol-artifact-1",
  "contractName": "Blockrent",
  "sourceName": "contracts/Blockrent.sol",
  "abi": [
    {
      "inputs": [
        {
          "internalType": "address",
          "name": "_feeRecipient",
          "type": "address"
        }
      ],
      "stateMutability": "nonpayable",
      "type": "constructor"
    },
    {
      "anonymous": false,
      "inputs": [
        {
          "indexed": true,
          "internalType": "uint256",
          "name": "listingId",
          "type": "uint256"
        },
        {
          "indexed": true,
          "internalType": "address",
          "name": "owner",
          "type": "address"
        },
        {
          "indexed": false,
          "internalType": "bool",
          "name": "isForRent",
          "type": "bool"
        },
        {
          "indexed": false,
          "internalType": "uint256",
          "name": "price",
          "type": "uint256"
        },
        {
          "indexed": false,
          "internalType": "uint256",
          "name": "deposit",
          "type": "uint256"
        },
        {
          "indexed": false,
          "internalType": "string",
          "name": "ipfsHash",
          "type": "string"
        }
      ],
      "name": "ListingCreated",
      "type": "event"
    },
    {
      "anonymous": false,
      "inputs": [
        {
          "indexed": true,
          "internalType": "address",
          "name": "previousOwner",
          "type": "address"
        },
        {
          "indexed": true,
          "internalType": "address",
          "name": "newOwner",
          "type": "address"
        }
      ],
      "name": "OwnershipTransferred",
      "type": "event"
    },
    {
      "anonymous": false,
      "inputs": [
        {
          "indexed": false,
          "internalType": "address",
          "name": "account",
          "type": "address"
        }
      ],
      "name": "Paused",
      "type": "event"
    },
    {
      "anonymous": false,
      "inputs": [
        {
          "indexed": false,
          "internalType": "bool",
          "name": "paused",
          "type": "bool"
        }
      ],
      "name": "PausedStatusChanged",
      "type": "event"
    },
    {
      "anonymous": false,
      "inputs": [
        {
          "indexed": true,
          "internalType": "address",
          "name": "user",
          "type": "address"
        },
        {
          "indexed": true,
          "internalType": "address",
          "name": "rater",
          "type": "address"
        },
        {
          "indexed": false,
          "internalType": "uint8",
          "name": "stars",
          "type": "uint8"
        },
        {
          "indexed": false,
          "internalType": "uint256",
          "name": "transactionId",
          "type": "uint256"
        }
      ],
      "name": "RatingGiven",
      "type": "event"
    },
    {
      "anonymous": false,
      "inputs": [
        {
          "indexed": true,
          "internalType": "uint256",
          "name": "transactionId",
          "type": "uint256"
        },
        {
          "indexed": true,
          "internalType": "address",
          "name": "participant",
          "type": "address"
        },
        {
          "indexed": false,
          "internalType": "uint256",
          "name": "timestamp",
          "type": "uint256"
        }
      ],
      "name": "TransactionCompleted",
      "type": "event"
    },
    {
      "anonymous": false,
      "inputs": [
        {
          "indexed": true,
          "internalType": "uint256",
          "name": "transactionId",
          "type": "uint256"
        },
        {
          "indexed": true,
          "internalType": "uint256",
          "name": "listingId",
          "type": "uint256"
        },
        {
          "indexed": true,
          "internalType": "address",
          "name": "buyerOrRenter",
          "type": "address"
        },
        {
          "indexed": false,
          "internalType": "uint8",
          "name": "transactionType",
          "type": "uint8"
        },
        {
          "indexed": false,
          "internalType": "uint256",
          "name": "pricePaid",
          "type": "uint256"
        },
        {
          "indexed": false,
          "internalType": "uint256",
          "name": "depositPaid",
          "type": "uint256"
        }
      ],
      "name": "TransactionStarted",
      "type": "event"
    },
    {
      "anonymous": false,
      "inputs": [
        {
          "indexed": false,
          "internalType": "address",
          "name": "account",
          "type": "address"
        }
      ],
      "name": "Unpaused",
      "type": "event"
    },
    {
      "inputs": [
        {
          "internalType": "address",
          "name": "_admin",
          "type": "address"
        }
      ],
      "name": "addAdmin",
      "outputs": [],
      "stateMutability": "nonpayable",
      "type": "function"
    },
    {
      "inputs": [
        {
          "internalType": "address",
          "name": "",
          "type": "address"
        }
      ],
      "name": "admins",
      "outputs": [
        {
          "internalType": "bool",
          "name": "",
          "type": "bool"
        }
      ],
      "stateMutability": "view",
      "type": "function"
    },
    {
      "inputs": [
        {
          "internalType": "uint256",
          "name": "_transactionId",
          "type": "uint256"
        }
      ],
      "name": "confirmDelivery",
      "outputs": [],
      "stateMutability": "nonpayable",
      "type": "function"
    },
    {
      "inputs": [
        {
          "internalType": "uint256",
          "name": "_transactionId",
          "type": "uint256"
        }
      ],
      "name": "confirmTransaction",
      "outputs": [],
      "stateMutability": "nonpayable",
      "type": "function"
    },
    {
      "inputs": [
        {
          "internalType": "bool",
          "name": "_isForRent",
          "type": "bool"
        },
        {
          "internalType": "uint256",
          "name": "_price",
          "type": "uint256"
        },
        {
          "internalType": "uint256",
          "name": "_deposit",
          "type": "uint256"
        },
        {
          "internalType": "string",
          "name": "_ipfsHash",
          "type": "string"
        }
      ],
      "name": "createListing",
      "outputs": [
        {
          "internalType": "uint256",
          "name": "",
          "type": "uint256"
        }
      ],
      "stateMutability": "nonpayable",
      "type": "function"
    },
    {
      "inputs": [
        {
          "internalType": "uint256",
          "name": "_listingId",
          "type": "uint256"
        }
      ],
      "name": "createTransaction",
      "outputs": [
        {
          "internalType": "uint256",
          "name": "",
          "type": "uint256"
        }
      ],
      "stateMutability": "payable",
      "type": "function"
    },
    {
      "inputs": [
        {
          "internalType": "uint256",
          "name": "_listingId",
          "type": "uint256"
        }
      ],
      "name": "deleteListing",
      "outputs": [],
      "stateMutability": "nonpayable",
      "type": "function"
    },
    {
      "inputs": [],
      "name": "feeRecipient",
      "outputs": [
        {
          "internalType": "address",
          "name": "",
          "type": "address"
        }
      ],
      "stateMutability": "view",
      "type": "function"
    },
    {
      "inputs": [
        {
          "internalType": "uint256",
          "name": "_listingId",
          "type": "uint256"
        }
      ],
      "name": "getListing",
      "outputs": [
        {
          "components": [
            {
              "internalType": "uint256",
              "name": "id",
              "type": "uint256"
            },
            {
              "internalType": "address",
              "name": "owner",
              "type": "address"
            },
            {
              "internalType": "bool",
              "name": "isForRent",
              "type": "bool"
            },
            {
              "internalType": "uint256",
              "name": "price",
              "type": "uint256"
            },
            {
              "internalType": "uint256",
              "name": "deposit",
              "type": "uint256"
            },
            {
              "internalType": "string",
              "name": "ipfsHash",
              "type": "string"
            },
            {
              "internalType": "bool",
              "name": "isActive",
              "type": "bool"
            },
            {
              "internalType": "uint256",
              "name": "createdAt",
              "type": "uint256"
            },
            {
              "internalType": "uint256",
              "name": "updatedAt",
              "type": "uint256"
            }
          ],
          "internalType": "struct Blockrent.Listing",
          "name": "",
          "type": "tuple"
        }
      ],
      "stateMutability": "view",
      "type": "function"
    },
    {
      "inputs": [],
      "name": "getTotalListings",
      "outputs": [
        {
          "internalType": "uint256",
          "name": "",
          "type": "uint256"
        }
      ],
      "stateMutability": "view",
      "type": "function"
    },
    {
      "inputs": [],
      "name": "getTotalTransactions",
      "outputs": [
        {
          "internalType": "uint256",
          "name": "",
          "type": "uint256"
        }
      ],
      "stateMutability": "view",
      "type": "function"
    },
    {
      "inputs": [
        {
          "internalType": "uint256",
          "name": "_transactionId",
          "type": "uint256"
        }
      ],
      "name": "getTransaction",
      "outputs": [
        {
          "components": [
            {
              "internalType": "uint256",
              "name": "id",
              "type": "uint256"
            },
            {
              "internalType": "uint256",
              "name": "listingId",
              "type": "uint256"
            },
            {
              "internalType": "address",
              "name": "buyerOrRenter",
              "type": "address"
            },
            {
              "internalType": "address",
              "name": "sellerOrLessor",
              "type": "address"
            },
            {
              "internalType": "enum Blockrent.TransactionType",
              "name": "transactionType",
              "type": "uint8"
            },
            {
              "internalType": "uint256",
              "name": "pricePaid",
              "type": "uint256"
            },
            {
              "internalType": "uint256",
              "name": "depositPaid",
              "type": "uint256"
            },
            {
              "internalType": "uint256",
              "name": "startedAt",
              "type": "uint256"
            },
            {
              "internalType": "uint256",
              "name": "endedAt",
              "type": "uint256"
            },
            {
              "internalType": "enum Blockrent.TransactionStatus",
              "name": "status",
              "type": "uint8"
            },
            {
              "internalType": "bool",
              "name": "buyerConfirmed",
              "type": "bool"
            },
            {
              "internalType": "bool",
              "name": "sellerConfirmed",
              "type": "bool"
            }
          ],
          "internalType": "struct Blockrent.Transaction",
          "name": "",
          "type": "tuple"
        }
      ],
      "stateMutability": "view",
      "type": "function"
    },
    {
      "inputs": [
        {
          "internalType": "address",
          "name": "_user",
          "type": "address"
        }
      ],
      "name": "getUserRating",
      "outputs": [
        {
          "components": [
            {
              "internalType": "address",
              "name": "userWallet",
              "type": "address"
            },
            {
              "internalType": "uint256",
              "name": "ratingCount",
              "type": "uint256"
            },
            {
              "internalType": "uint256",
              "name": "totalRating",
              "type": "uint256"
            },
            {
              "internalType": "uint256",
              "name": "averageRating",
              "type": "uint256"
            }
          ],
          "internalType": "struct Blockrent.UserRating",
          "name": "",
          "type": "tuple"
        }
      ],
      "stateMutability": "view",
      "type": "function"
    },
    {
      "inputs": [],
      "name": "isPaused",
      "outputs": [
        {
          "internalType": "bool",
          "name": "",
          "type": "bool"
        }
      ],
      "stateMutability": "view",
      "type": "function"
    },
    {
      "inputs": [
        {
          "internalType": "uint256",
          "name": "",
          "type": "uint256"
        }
      ],
      "name": "listings",
      "outputs": [
        {
          "internalType": "uint256",
          "name": "id",
          "type": "uint256"
        },
        {
          "internalType": "address",
          "name": "owner",
          "type": "address"
        },
        {
          "internalType": "bool",
          "name": "isForRent",
          "type": "bool"
        },
        {
          "internalType": "uint256",
          "name": "price",
          "type": "uint256"
        },
        {
          "internalType": "uint256",
          "name": "deposit",
          "type": "uint256"
        },
        {
          "internalType": "string",
          "name": "ipfsHash",
          "type": "string"
        },
        {
          "internalType": "bool",
          "name": "isActive",
          "type": "bool"
        },
        {
          "internalType": "uint256",
          "name": "createdAt",
          "type": "uint256"
        },
        {
          "internalType": "uint256",
          "name": "updatedAt",
          "type": "uint256"
        }
      ],
      "stateMutability": "view",
      "type": "function"
    },
    {
      "inputs": [],
      "name": "owner",
      "outputs": [
        {
          "internalType": "address",
          "name": "",
          "type": "address"
        }
      ],
      "stateMutability": "view",
      "type": "function"
    },
    {
      "inputs": [],
      "name": "pause",
      "outputs": [],
      "stateMutability": "nonpayable",
      "type": "function"
    },
    {
      "inputs": [],
      "name": "paused",
      "outputs": [
        {
          "internalType": "bool",
          "name": "",
          "type": "bool"
        }
      ],
      "stateMutability": "view",
      "type": "function"
    },
    {
      "inputs": [],
      "name": "platformFee",
      "outputs": [
        {
          "internalType": "uint256",
          "name": "",
          "type": "uint256"
        }
      ],
      "stateMutability": "view",
      "type": "function"
    },
    {
      "inputs": [
        {
          "internalType": "address",
          "name": "_user",
          "type": "address"
        },
        {
          "internalType": "uint8",
          "name": "_stars",
          "type": "uint8"
        },
        {
          "internalType": "uint256",
          "name": "_transactionId",
          "type": "uint256"
        }
      ],
      "name": "rateUser",
      "outputs": [],
      "stateMutability": "nonpayable",
      "type": "function"
    },
    {
      "inputs": [],
      "name": "renounceOwnership",
      "outputs": [],
      "stateMutability": "nonpayable",
      "type": "function"
    },
    {
      "inputs": [
        {
          "internalType": "uint256",
          "name": "_newFee",
          "type": "uint256"
        }
      ],
      "name": "setPlatformFee",
      "outputs": [],
      "stateMutability": "nonpayable",
      "type": "function"
    },
    {
      "inputs": [
        {
          "internalType": "uint256",
          "name": "",
          "type": "uint256"
        }
      ],
      "name": "transactions",
      "outputs": [
        {
          "internalType": "uint256",
          "name": "id",
          "type": "uint256"
        },
        {
          "internalType": "uint256",
          "name": "listingId",
          "type": "uint256"
        },
        {
          "internalType": "address",
          "name": "buyerOrRenter",
          "type": "address"
        },
        {
          "internalType": "address",
          "name": "sellerOrLessor",
          "type": "address"
        },
        {
          "internalType": "enum Blockrent.TransactionType",
          "name": "transactionType",
          "type": "uint8"
        },
        {
          "internalType": "uint256",
          "name": "pricePaid",
          "type": "uint256"
        },
        {
          "internalType": "uint256",
          "name": "depositPaid",
          "type": "uint256"
        },
        {
          "internalType": "uint256",
          "name": "startedAt",
          "type": "uint256"
        },
        {
          "internalType": "uint256",
          "name": "endedAt",
          "type": "uint256"
        },
        {
          "internalType": "enum Blockrent.TransactionStatus",
          "name": "status",
          "type": "uint8"
        },
        {
          "internalType": "bool",
          "name": "buyerConfirmed",
          "type": "bool"
        },
        {
          "internalType": "bool",
          "name": "sellerConfirmed",
          "type": "bool"
        }
      ],
      "stateMutability": "view",
      "type": "function"
    },
    {
      "inputs": [
        {
          "internalType": "address",
          "name": "newOwner",
          "type": "address"
        }
      ],
      "name": "transferOwnership",
      "outputs": [],
      "stateMutability": "nonpayable",
      "type": "function"
    },
    {
      "inputs": [],
      "name": "unpause",
      "outputs": [],
      "stateMutability": "nonpayable",
      "type": "function"
    },
    {
      "inputs": [
        {
          "internalType": "address",
          "name": "",
          "type": "address"
        }
      ],
      "name": "userRatings",
      "outputs": [
        {
          "internalType": "address",
          "name": "userWallet",
          "type": "address"
        },
        {
          "internalType": "uint256",
          "name": "ratingCount",
          "type": "uint256"
        },
        {
          "internalType": "uint256",
          "name": "totalRating",
          "type": "uint256"
        },
        {
          "internalType": "uint256",
          "name": "averageRating",
          "type": "uint256"
        }
      ],
      "stateMutability": "view",
      "type": "function"
    }
  ],
  "bytecode": "0x6080346100e557601f611f6b38819003918201601f19168301916001600160401b038311848410176100ea578084926020946040528339810103126100e557516001600160a01b0390818116908190036100e5576001600081815581546001600160a81b0319811633600881811b610100600160a81b0316929092179094556040519591901c16907f8be0079c531659141344cd1fd0a4f28419497f9722a3daafe3b4186f6b6457e09080a360fa60085560018060a01b031960095416176009553360005260076020526040600020600160ff19825416179055611e6a90816101018239f35b600080fd5b634e487b7160e01b600052604160045260246000fdfe608080604052600436101561001357600080fd5b60003560e01c908163107a274a146117845750806312e8e2c31461172657806326232a2e1461170857806332de5c321461134957806333ea3dc8146111855780633f4ba83a146110c6578063429b62e514611087578063460168c314610fe15780634690484014610fb85780635c975abb146109fd5780635d66bf8114610ca05780637048027514610c5b578063715018a614610bfa5780638456cb5914610b765780638da5cb5b14610b49578063900f58fc14610aea5780639ace38c214610a20578063b187bd26146109fd578063b5c604ff146109df578063c01a8c8414610906578063da165ddb146104f4578063de74e57b14610448578063e6282c6e14610330578063f2fde38b1461025c578063fbf30c351461023e5763fd84cb971461013d57600080fd5b3461023957602036600319011261023957600435610159611b58565b600081815260056020526040902060038101546001600160a01b031633036102035760080190815460ff811660068110156101ed57806101a291159081156101e2575b50611bf6565b62ff0000198116620100001780845560081c60ff16156101ce57506101c79150611c63565b6001600055005b62ff00ff19166201000117909155506101c7565b60019150143861019c565b634e487b7160e01b600052602160045260246000fd5b60405162461bcd60e51b815260206004820152600e60248201526d2737ba103a34329039b2b63632b960911b6044820152606490fd5b600080fd5b34610239576000366003190112610239576020600254604051908152f35b34610239576020366003190112610239576102756119c3565b61027d611ab9565b6001600160a01b038181169182156102dc5760018054610100600160a81b03198116600893841b610100600160a81b031617909155901c167f8be0079c531659141344cd1fd0a4f28419497f9722a3daafe3b4186f6b6457e0600080a3005b60405162461bcd60e51b815260206004820152602660248201527f4f776e61626c653a206e6577206f776e657220697320746865207a65726f206160448201526564647265737360d01b6064820152608490fd5b3461023957602036600319011261023957610349611b58565b6004356000526004602052604060002060018060a01b0380600183015416331490811561042e575b811561041d575b50156103e75760058101805460ff8116156103a25760ff1916905542600791909101556001600055005b60405162461bcd60e51b815260206004820152601860248201527f4c697374696e6720616c726561647920696e61637469766500000000000000006044820152606490fd5b60405162461bcd60e51b815260206004820152600e60248201526d139bdd08185d5d1a1bdc9a5e995960921b6044820152606490fd5b905060015460081c16331482610378565b905033600052600760205260ff6040600020541690610371565b346102395760203660031901126102395760043560005260046020526040600020805460018201549160028101546003820154916104dd61048b60048301611a13565b60ff60058401541694600760068501549401549460ff604051998a998a5260018060a01b03811660208b015260a01c1615156040890152606088015260808701526101208060a08801528601906118d5565b92151560c085015260e08401526101008301520390f35b602036600319011261023957610508611b14565b610510611b58565b600435600052600460205260406000206040519061052d82611915565b8054825260018101546001600160a01b038116602084015260a01c60ff1615156040830152600281015460608301526003810154608083015261057260048201611a13565b60a0830152600760ff6005830154161591821560c0850152600681015460e085015201546101008301526108cc5760208101516001600160a01b031633146108875760408101511561087d576105d16060820151608083015190611bae565b80341061084157600160035401908160035560018060a01b036020840151166040840151151580600014610839576001905b6060860151901561082e576106446080870151925b6040519461062586611932565b8786526004356020870152336040870152606086015260808501611bd1565b60a083015260c08201524260e08201526000610100820152600061012082015260006101408201526000610160820152826000526005602052604060002081518155602082015160018201556002810160018060a01b036040840151166bffffffffffffffffffffffff60a01b825416179055600381019060018060a01b0360608401511691805460808501519360028510156101ed5760089460ff60a01b9060a01b16916affffffffffffffffffffff60a81b161717905560a0830151600482015560c0830151600582015560e08301516006820155610100830151600782015501906101208101519060068210156101ed57825460ff62ff000061016061ff00610140860151151560081b16940151151560101b1693169062ffffff191617171790558034116107f4575b5081604060209301511515806000146107ec576001915b606081015191156107e35760800151905b60ff604051931683528483015260408201523390827f3738bfa4d5b8b8ee563925f2578177975fb0a68ceb47f9ecfc8088d98894b6de606060043593a46001600055604051908152f35b50600090610799565b600091610788565b60008080610803819434611be9565b818115610825575b3390f1156108195782610771565b6040513d6000823e3d90fd5b506108fc61080b565b610644600092610618565b600090610603565b60405162461bcd60e51b8152602060048201526014602482015273125b9cdd59999a58da595b9d081c185e5b595b9d60621b6044820152606490fd5b60608101516105d1565b60405162461bcd60e51b815260206004820152601b60248201527f43616e6e6f742062757920796f7572206f776e206c697374696e6700000000006044820152606490fd5b60405162461bcd60e51b81526020600482015260126024820152714c697374696e67206e6f742061637469766560701b6044820152606490fd5b3461023957602036600319011261023957600435610922611b58565b600081815260056020526040902060028101546001600160a01b031633036109aa5760080190815460ff811660068110156101ed578061096a911590811561099f5750611bf6565b61ff001981166101001780845560101c60ff161561098d57506101c79150611c63565b61ffff191661010117909155506101c7565b60019150148561019c565b60405162461bcd60e51b815260206004820152600d60248201526c2737ba103a343290313abcb2b960991b6044820152606490fd5b34610239576000366003190112610239576020600354604051908152f35b3461023957600036600319011261023957602060ff600154166040519015158152f35b34610239576020366003190112610239576004356000526005602052610180604060002060ff81549160018101549060018060a01b0380600283015416906003830154610aa960048501549160058601549360068701549560086007890154980154986040519b8c5260208c015260408b0152811660608a01528760808a019160a01c166119a9565b60a087015260c086015260e0850152610100840152610ace61012084018383166119b6565b818160081c16151561014084015260101c161515610160820152f35b346102395760203660031901126102395760806001600160a01b0380610b0e6119c3565b166000526006602052604060002090815416906001810154906003600282015491015491604051938452602084015260408301526060820152f35b346102395760003660031901126102395760015460405160089190911c6001600160a01b03168152602090f35b3461023957600036600319011261023957610b8f611ab9565b610b97611b14565b600160ff19815416176001557f62e78cea01bee320cd4e420270b5ea74000d11b0c9f74754ebdbfc544b05a2586020604051338152a17f9a506b30e47f3823b09f67e4c0dfa5c3d8023b71825b7ceaa97677129128c9c5602060405160018152a1005b3461023957600036600319011261023957610c13611ab9565b60018054610100600160a81b0319811690915560009060081c6001600160a01b03167f8be0079c531659141344cd1fd0a4f28419497f9722a3daafe3b4186f6b6457e08280a3005b3461023957602036600319011261023957610c746119c3565b610c7c611ab9565b6001600160a01b03166000908152600760205260409020805460ff19166001179055005b3461023957606036600319011261023957610cb96119c3565b602480359160ff83168093036102395760443590600184101580610fad575b15610f7857816000526020906005825260406000209060405191610cfb83611932565b8054835260018101548484015260018060a01b03928360028301541690604081019182526008600384015493610d4360ff6060850196898116885260a01c1660808501611bd1565b600481015460a0840152600581015460c0840152600681015460e0840152600781015461010084015201549061016060ff610120830193610d8682821686611bdd565b818160081c16151561014085015260101c161515910152516006811015610f6357600203610f1f57839051163381149182610f0f575b8215610eee575b505015610eaa5716928360005260068252604060002090846bffffffffffffffffffffffff60a01b835416178255600182019081549160018301809311610e95578290556002830190610e17888354611bae565b809255606482029180830460641490151715610e81578215610e6d575090600391049101556040519384528301527fe0f1b844b1cbdfe7975a9e07bb900ec797799e17c626a8dc9996eb3bbe715d0460403393a3005b634e487b7160e01b60009081526012600452fd5b634e487b7160e01b60009081526011600452fd5b50634e487b7160e01b60009081526011600452fd5b60405162461bcd60e51b815260048101849052601b818701527f496e76616c696420726174696e67207061727469636970616e747300000000006044820152606490fd5b5184163314915081610f03575b508780610dc3565b90508282161487610efb565b9150838251168484161491610dbc565b60405162461bcd60e51b8152600481018690526019818901527f5472616e73616374696f6e206e6f7420636f6d706c65746564000000000000006044820152606490fd5b87634e487b7160e01b60005260216004526000fd5b60405162461bcd60e51b815260206004820152600e818501526d496e76616c696420726174696e6760901b6044820152606490fd5b506005841115610cd8565b34610239576000366003190112610239576009546040516001600160a01b039091168152602090f35b34610239576020366003190112610239576080610ffc6119c3565b6000606060405161100c8161194f565b828152826020820152826040820152015260018060a01b038091166000526006602052604060002090604051906110428261194f565b82541691828252600181015460208301908152606060036002840154936040860194855201549301928352604051938452516020840152516040830152516060820152f35b34610239576020366003190112610239576001600160a01b036110a86119c3565b166000526007602052602060ff604060002054166040519015158152f35b34610239576000366003190112610239576110df611ab9565b60015460ff8116156111495760ff19166001557f5db9ee0a495bf2e6ff9c91a7834c1ba4fdd244a5e8aa4e537bd38aeae4b073aa6020604051338152a17f9a506b30e47f3823b09f67e4c0dfa5c3d8023b71825b7ceaa97677129128c9c5602060405160008152a1005b60405162461bcd60e51b815260206004820152601460248201527314185d5cd8589b194e881b9bdd081c185d5cd95960621b6044820152606490fd5b346102395760203660031901126102395760006101606040516111a781611932565b8281528260208201528260408201528260608201528260808201528260a08201528260c08201528260e082015282610100820152826101208201528261014082015201526004356000526005602052610180604060002060ff60086040519261120f84611932565b805484526001810154602085015260028101546001600160a01b039081166040860152600382015490811660608601526112519060a01c841660808601611bd1565b600481015460a0850152600581015460c0850152600681015460e08501526007810154610100850152015461128c8282166101208501611bdd565b818160081c16151561014084015260101c16151561016082015261016060405191805183526020810151602084015260018060a01b03604082015116604084015260018060a01b0360608201511660608401526112f1608082015160808501906119a9565b60a081015160a084015260c081015160c084015260e081015160e084015261010081015161010084015261132f6101208201516101208501906119b6565b610140810151151561014084015201511515610160820152f35b346102395760803660031901126102395760043580151581036102395760643567ffffffffffffffff811161023957366023820112156102395780600401356113918161198d565b9161139f604051938461196b565b8183523660248383010111610239578160009260246020930183860137830101526113c8611b14565b6113d0611b58565b602435156116c3578051156116895760016002540190816002556040516113f681611915565b8281523360208201528315156040820152602435606082015260443560808201528160a0820152600160c08201524260e0820152426101008201528260005260046020526040600020815181556001810160018060a01b0360208401511681549060ff60a01b6040860151151560a01b16916affffffffffffffffffffff60a81b1617179055606082015160028201556080820151600382015560a08201519182519267ffffffffffffffff8411611673576114b560048401546119d9565b601f8111611628575b50916020969186938890601f871160011461158e5791867f1fd8b16cf502b97cf63737d65468b4fad7b5000e89a7881d7d8ef3986471e4cb969761010093600795600092611583575b50508160011b916000199060031b1c19161760048501555b6005840160c0820151151560ff8019835416911617905560e08101516006850155015191015560405190151581526024358682015260443560408201526080606082015280611573339560808301906118d5565b0390a36001600055604051908152f35b015190508c80611507565b959060048401600052896000209660005b601f198416811061160e5750827f1fd8b16cf502b97cf63737d65468b4fad7b5000e89a7881d7d8ef3986471e4cb97986007959360019361010096601f198116106115f5575b505050811b01600485015561151f565b015160001960f88460031b161c191690558c80806115e5565b8282015189556001909801978a9750918b01918b0161159f565b600484016000526020600020601f860160051c81019160208710611669575b601f0160051c01905b81811061165d57506114be565b60008155600101611650565b9091508190611647565b634e487b7160e01b600052604160045260246000fd5b60405162461bcd60e51b815260206004820152601260248201527112541194c81a185cda081c995c5d5a5c995960721b6044820152606490fd5b60405162461bcd60e51b815260206004820152601c60248201527f5072696365206d7573742062652067726561746572207468616e2030000000006044820152606490fd5b34610239576000366003190112610239576020600854604051908152f35b3461023957602036600319011261023957600435611742611ab9565b6103e8811161175057600855005b60405162461bcd60e51b815260206004820152600c60248201526b08ccaca40e8dede40d0d2ced60a31b6044820152606490fd5b346102395760209081600319360112610239576117a081611915565b60008152600082820152600060408201526000606082015260006080820152606060a0820152600060c0820152600060e082015260006101008092015260043560005260048252604060002090604051916117fa83611915565b805483526001810154918484019060018060a01b0393848116835260ff604087019160a01c16151581526002840154606087019081526003850154906080880191825261184960048701611a13565b9260a0890193845260ff6005880154169760c08a019815158952600760068901549860e08c01998a52015496868b019788526040519b8c9b818d5251908c0152511660408a015251151560608901525160808801525160a087015251926118be610120948560c08901526101408801906118d5565b9451151560e0870152519085015251908301520390f35b919082519283825260005b848110611901575050826000602080949584010152601f8019910116010190565b6020818301810151848301820152016118e0565b610120810190811067ffffffffffffffff82111761167357604052565b610180810190811067ffffffffffffffff82111761167357604052565b6080810190811067ffffffffffffffff82111761167357604052565b90601f8019910116810190811067ffffffffffffffff82111761167357604052565b67ffffffffffffffff811161167357601f01601f191660200190565b9060028210156101ed5752565b9060068210156101ed5752565b600435906001600160a01b038216820361023957565b90600182811c92168015611a09575b60208310146119f357565b634e487b7160e01b600052602260045260246000fd5b91607f16916119e8565b9060405191826000825492611a27846119d9565b908184526001948581169081600014611a965750600114611a53575b5050611a519250038361196b565b565b9093915060005260209081600020936000915b818310611a7e575050611a5193508201013880611a43565b85548884018501529485019487945091830191611a66565b915050611a5194506020925060ff191682840152151560051b8201013880611a43565b60015460081c6001600160a01b03163303611ad057565b606460405162461bcd60e51b815260206004820152602060248201527f4f776e61626c653a2063616c6c6572206973206e6f7420746865206f776e65726044820152fd5b60ff60015416611b2057565b60405162461bcd60e51b815260206004820152601060248201526f14185d5cd8589b194e881c185d5cd95960821b6044820152606490fd5b600260005414611b69576002600055565b60405162461bcd60e51b815260206004820152601f60248201527f5265656e7472616e637947756172643a207265656e7472616e742063616c6c006044820152606490fd5b91908201809211611bbb57565b634e487b7160e01b600052601160045260246000fd5b60028210156101ed5752565b60068210156101ed5752565b91908203918211611bbb57565b15611bfd57565b60405162461bcd60e51b815260206004820152600e60248201526d496e76616c69642073746174757360901b6044820152606490fd5b3d15611c5e573d90611c448261198d565b91611c52604051938461196b565b82523d6000602084013e565b606090565b6000908082526020600581526040928381206008810160ff19906002828254161790554260078301556004928383015493600854808602908682041486151715611e2157612710611cb691048096611be9565b8280808060018060a01b03998a600954165af1611cd1611c33565b5015611de85782808080938960038a0154165af1611ced611c33565b5015611dac57908791600585015480611d48575b5060018501548252865220600501805490911690556002015493514281529316927f1b11d90ea8d39e379445d60e49af9daf202f00be86c0b27c4c5b1c62a88e8de09190a3565b8280809550809394928960028a0154165af1611d62611c33565b5015611d715790879138611d01565b875162461bcd60e51b8152908101869052601560248201527411195c1bdcda5d081c99599d5b990819985a5b1959605a1b6044820152606490fd5b875162461bcd60e51b8152908101869052601660248201527514d95b1b195c881d1c985b9cd9995c8819985a5b195960521b6044820152606490fd5b885162461bcd60e51b81528083018890526013602482015272119959481d1c985b9cd9995c8819985a5b1959606a1b6044820152606490fd5b634e487b7160e01b835260118252602483fdfea264697066735822122051f24ef639b945b0c2fb57917c44747317ee050def96c4f2e9f62e8950f79ad464736f6c63430008130033",
  "linkReferences": {},
  "deployedLinkReferences": {}
}