{"contracts/BlockrentV2.sol":{"BlockrentV2":{"abi":[{"inputs":[{"internalType":"address","name":"_feeRecipient","type":"address"}],"stateMutability":"nonpayable","type":"constructor"},{"anonymous":false,"inputs":[{"indexed":true,"internalType":"uint256","name":"disputeId","type":"uint256"},{"indexed":true,"internalType":"uint256","name":"transactionId","type":"uint256"},{"indexed":true,"internalType":"address","name":"initiator","type":"address"},{"indexed":false,"internalType":"string","name":"reason","type":"string"}],"name":"DisputeCreated","type":"event"},{"anonymous":false,"inputs":[{"indexed":true,"internalType":"uint256","name":"disputeId","type":"uint256"},{"indexed":false,"internalType":"address","name":"winner","type":"address"},{"indexed":false,"internalType":"uint256","name":"timestamp","type":"uint256"}],"name":"DisputeResolved","type":"event"},{"anonymous":false,"inputs":[{"indexed":true,"internalType":"uint256","name":"listingId","type":"uint256"},{"indexed":true,"internalType":"address","name":"owner","type":"address"},{"indexed":false,"internalType":"string","name":"category","type":"string"},{"indexed":false,"internalType":"uint256","name":"price","type":"uint256"},{"indexed":false,"internalType":"uint256","name":"deposit","type":"uint256"},{"indexed":false,"internalType":"string","name":"ipfsHash","type":"string"},{"indexed":false,"internalType":"bool","name":"isForRent","type":"bool"}],"name":"ListingCreated","type":"event"},{"anonymous":false,"inputs":[{"indexed":true,"internalType":"uint256","name":"listingId","type":"uint256"},{"indexed":true,"internalType":"address","name":"owner","type":"address"}],"name":"ListingDeleted","type":"event"},{"anonymous":false,"inputs":[{"indexed":true,"internalType":"uint256","name":"listingId","type":"uint256"},{"indexed":false,"internalType":"uint256","name":"newPrice","type":"uint256"},{"indexed":false,"internalType":"uint256","name":"newDeposit","type":"uint256"},{"indexed":false,"internalType":"string","name":"newIpfsHash","type":"string"}],"name":"ListingUpdated","type":"event"},{"anonymous":false,"inputs":[{"indexed":true,"internalType":"address","name":"from","type":"address"},{"indexed":true,"internalType":"address","name":"to","type":"address"},{"indexed":true,"internalType":"uint256","name":"transactionId","type":"uint256"},{"indexed":false,"internalType":"string","name":"ipfsHash","type":"string"}],"name":"MessageSent","type":"event"},{"anonymous":false,"inputs":[{"indexed":true,"internalType":"address","name":"previousOwner","type":"address"},{"indexed":true,"internalType":"address","name":"newOwner","type":"address"}],"name":"OwnershipTransferred","type":"event"},{"anonymous":false,"inputs":[{"indexed":false,"internalType":"address","name":"account","type":"address"}],"name":"Paused","type":"event"},{"anonymous":false,"inputs":[{"indexed":true,"internalType":"uint256","name":"reviewId","type":"uint256"},{"indexed":true,"internalType":"uint256","name":"transactionId","type":"uint256"},{"indexed":true,"internalType":"address","name":"reviewer","type":"address"},{"indexed":false,"internalType":"address","name":"reviewee","type":"address"},{"indexed":false,"internalType":"uint8","name":"rating","type":"uint8"},{"indexed":false,"internalType":"string","name":"ipfsHash","type":"string"}],"name":"ReviewSubmitted","type":"event"},{"anonymous":false,"inputs":[{"indexed":true,"internalType":"uint256","name":"transactionId","type":"uint256"},{"indexed":false,"internalType":"uint256","name":"timestamp","type":"uint256"}],"name":"TransactionCompleted","type":"event"},{"anonymous":false,"inputs":[{"indexed":true,"internalType":"uint256","name":"transactionId","type":"uint256"},{"indexed":true,"internalType":"address","name":"confirmer","type":"address"},{"indexed":false,"internalType":"bool","name":"isBuyer","type":"bool"}],"name":"TransactionConfirmed","type":"event"},{"anonymous":false,"inputs":[{"indexed":true,"internalType":"uint256","name":"transactionId","type":"uint256"},{"indexed":true,"internalType":"uint256","name":"listingId","type":"uint256"},{"indexed":true,"internalType":"address","name":"buyer","type":"address"},{"indexed":false,"internalType":"address","name":"seller","type":"address"},{"indexed":false,"internalType":"uint256","name":"amount","type":"uint256"},{"indexed":false,"internalType":"uint8","name":"transactionType","type":"uint8"}],"name":"TransactionStarted","type":"event"},{"anonymous":false,"inputs":[{"indexed":false,"internalType":"address","name":"account","type":"address"}],"name":"Unpaused","type":"event"},{"anonymous":false,"inputs":[{"indexed":true,"internalType":"address","name":"user","type":"address"},{"indexed":false,"internalType":"string","name":"ipfsHash","type":"string"}],"name":"UserProfileUpdated","type":"event"},{"inputs":[{"internalType":"address","name":"_admin","type":"address"}],"name":"addAdmin","outputs":[],"stateMutability":"nonpayable","type":"function"},{"inputs":[{"internalType":"address","name":"","type":"address"}],"name":"admins","outputs":[{"internalType":"bool","name":"","type":"bool"}],"stateMutability":"view","type":"function"},{"inputs":[{"internalType":"uint256","name":"_transactionId","type":"uint256"}],"name":"confirmDelivery","outputs":[],"stateMutability":"nonpayable","type":"function"},{"inputs":[{"internalType":"uint256","name":"_transactionId","type":"uint256"}],"name":"confirmReceipt","outputs":[],"stateMutability":"nonpayable","type":"function"},{"inputs":[{"internalType":"uint256","name":"_transactionId","type":"uint256"},{"internalType":"string","name":"_reason","type":"string"},{"internalType":"string","name":"_evidenceIpfsHash","type":"string"}],"name":"createDispute","outputs":[{"internalType":"uint256","name":"","type":"uint256"}],"stateMutability":"payable","type":"function"},{"inputs":[{"internalType":"string","name":"_category","type":"string"},{"internalType":"uint256","name":"_price","type":"uint256"},{"internalType":"uint256","name":"_deposit","type":"uint256"},{"internalType":"string","name":"_ipfsHash","type":"string"},{"internalType":"bool","name":"_isForRent","type":"bool"}],"name":"createListing","outputs":[{"internalType":"uint256","name":"","type":"uint256"}],"stateMutability":"nonpayable","type":"function"},{"inputs":[{"internalType":"uint256","name":"_listingId","type":"uint256"}],"name":"createTransaction","outputs":[{"internalType":"uint256","name":"","type":"uint256"}],"stateMutability":"payable","type":"function"},{"inputs":[{"internalType":"uint256","name":"_listingId","type":"uint256"}],"name":"deleteListing","outputs":[],"stateMutability":"nonpayable","type":"function"},{"inputs":[],"name":"disputeFee","outputs":[{"internalType":"uint256","name":"","type":"uint256"}],"stateMutability":"view","type":"function"},{"inputs":[{"internalType":"uint256","name":"","type":"uint256"}],"name":"disputes","outputs":[{"internalType":"uint256","name":"id","type":"uint256"},{"internalType":"uint256","name":"transactionId","type":"uint256"},{"internalType":"address","name":"initiator","type":"address"},{"internalType":"address","name":"defendant","type":"address"},{"internalType":"string","name":"reason","type":"string"},{"internalType":"string","name":"ipfsHash","type":"string"},{"internalType":"enum BlockrentV2.DisputeStatus","name":"status","type":"uint8"},{"internalType":"address","name":"winner","type":"address"},{"internalType":"uint256","name":"createdAt","type":"uint256"},{"internalType":"uint256","name":"resolvedAt","type":"uint256"}],"stateMutability":"view","type":"function"},{"inputs":[],"name":"emergencyWithdraw","outputs":[],"stateMutability":"nonpayable","type":"function"},{"inputs":[],"name":"feeRecipient","outputs":[{"internalType":"address","name":"","type":"address"}],"stateMutability":"view","type":"function"},{"inputs":[{"internalType":"uint256","name":"_disputeId","type":"uint256"}],"name":"getDispute","outputs":[{"components":[{"internalType":"uint256","name":"id","type":"uint256"},{"internalType":"uint256","name":"transactionId","type":"uint256"},{"internalType":"address","name":"initiator","type":"address"},{"internalType":"address","name":"defendant","type":"address"},{"internalType":"string","name":"reason","type":"string"},{"internalType":"string","name":"ipfsHash","type":"string"},{"internalType":"enum BlockrentV2.DisputeStatus","name":"status","type":"uint8"},{"internalType":"address","name":"winner","type":"address"},{"internalType":"uint256","name":"createdAt","type":"uint256"},{"internalType":"uint256","name":"resolvedAt","type":"uint256"}],"internalType":"struct BlockrentV2.Dispute","name":"","type":"tuple"}],"stateMutability":"view","type":"function"},{"inputs":[{"internalType":"uint256","name":"_listingId","type":"uint256"}],"name":"getListing","outputs":[{"components":[{"internalType":"uint256","name":"id","type":"uint256"},{"internalType":"address","name":"owner","type":"address"},{"internalType":"string","name":"category","type":"string"},{"internalType":"uint256","name":"price","type":"uint256"},{"internalType":"uint256","name":"deposit","type":"uint256"},{"internalType":"string","name":"ipfsHash","type":"string"},{"internalType":"bool","name":"isForRent","type":"bool"},{"internalType":"bool","name":"isActive","type":"bool"},{"internalType":"uint256","name":"views","type":"uint256"},{"internalType":"uint256","name":"favorites","type":"uint256"},{"internalType":"uint256","name":"createdAt","type":"uint256"},{"internalType":"uint256","name":"updatedAt","type":"uint256"}],"internalType":"struct BlockrentV2.Listing","name":"","type":"tuple"}],"stateMutability":"view","type":"function"},{"inputs":[{"internalType":"uint256","name":"_listingId","type":"uint256"}],"name":"getListingTransactions","outputs":[{"internalType":"uint256[]","name":"","type":"uint256[]"}],"stateMutability":"view","type":"function"},{"inputs":[{"internalType":"uint256","name":"_reviewId","type":"uint256"}],"name":"getReview","outputs":[{"components":[{"internalType":"uint256","name":"id","type":"uint256"},{"internalType":"uint256","name":"transactionId","type":"uint256"},{"internalType":"address","name":"reviewer","type":"address"},{"internalType":"address","name":"reviewee","type":"address"},{"internalType":"uint8","name":"rating","type":"uint8"},{"internalType":"string","name":"ipfsHash","type":"string"},{"internalType":"uint256","name":"timestamp","type":"uint256"}],"internalType":"struct BlockrentV2.Review","name":"","type":"tuple"}],"stateMutability":"view","type":"function"},{"inputs":[],"name":"getTotalDisputes","outputs":[{"internalType":"uint256","name":"","type":"uint256"}],"stateMutability":"view","type":"function"},{"inputs":[],"name":"getTotalListings","outputs":[{"internalType":"uint256","name":"","type":"uint256"}],"stateMutability":"view","type":"function"},{"inputs":[],"name":"getTotalReviews","outputs":[{"internalType":"uint256","name":"","type":"uint256"}],"stateMutability":"view","type":"function"},{"inputs":[],"name":"getTotalTransactions","outputs":[{"internalType":"uint256","name":"","type":"uint256"}],"stateMutability":"view","type":"function"},{"inputs":[{"internalType":"uint256","name":"_transactionId","type":"uint256"}],"name":"getTransaction","outputs":[{"components":[{"internalType":"uint256","name":"id","type":"uint256"},{"internalType":"uint256","name":"listingId","type":"uint256"},{"internalType":"address","name":"buyer","type":"address"},{"internalType":"address","name":"seller","type":"address"},{"internalType":"enum BlockrentV2.TransactionType","name":"txType","type":"uint8"},{"internalType":"uint256","name":"price","type":"uint256"},{"internalType":"uint256","name":"deposit","type":"uint256"},{"internalType":"uint256","name":"startedAt","type":"uint256"},{"internalType":"uint256","name":"completedAt","type":"uint256"},{"internalType":"enum BlockrentV2.TransactionStatus","name":"status","type":"uint8"},{"internalType":"bool","name":"buyerConfirmed","type":"bool"},{"internalType":"bool","name":"sellerConfirmed","type":"bool"},{"internalType":"uint256","name":"escrowAmount","type":"uint256"}],"internalType":"struct BlockrentV2.Transaction","name":"","type":"tuple"}],"stateMutability":"view","type":"function"},{"inputs":[{"internalType":"address","name":"_user","type":"address"}],"name":"getUserProfile","outputs":[{"components":[{"internalType":"address","name":"wallet","type":"address"},{"internalType":"string","name":"ipfsHash","type":"string"},{"internalType":"uint256","name":"totalListings","type":"uint256"},{"internalType":"uint256","name":"completedTransactions","type":"uint256"},{"internalType":"uint256","name":"totalReviews","type":"uint256"},{"internalType":"uint256","name":"ratingSum","type":"uint256"},{"internalType":"uint256","name":"averageRating","type":"uint256"},{"internalType":"bool","name":"isVerified","type":"bool"},{"internalType":"uint256","name":"reputationScore","type":"uint256"},{"internalType":"uint256","name":"joinedAt","type":"uint256"}],"internalType":"struct BlockrentV2.UserProfile","name":"","type":"tuple"}],"stateMutability":"view","type":"function"},{"inputs":[{"internalType":"address","name":"_user","type":"address"}],"name":"getUserReviews","outputs":[{"internalType":"uint256[]","name":"","type":"uint256[]"}],"stateMutability":"view","type":"function"},{"inputs":[{"internalType":"address","name":"_user","type":"address"}],"name":"getUserTransactions","outputs":[{"internalType":"uint256[]","name":"","type":"uint256[]"}],"stateMutability":"view","type":"function"},{"inputs":[{"internalType":"uint256","name":"_listingId","type":"uint256"}],"name":"incrementViews","outputs":[],"stateMutability":"nonpayable","type":"function"},{"inputs":[{"internalType":"address","name":"_user","type":"address"},{"internalType":"uint256","name":"_listingId","type":"uint256"}],"name":"isFavorited","outputs":[{"internalType":"bool","name":"","type":"bool"}],"stateMutability":"view","type":"function"},{"inputs":[{"internalType":"uint256","name":"","type":"uint256"},{"internalType":"uint256","name":"","type":"uint256"}],"name":"listingTransactions","outputs":[{"internalType":"uint256","name":"","type":"uint256"}],"stateMutability":"view","type":"function"},{"inputs":[{"internalType":"uint256","name":"","type":"uint256"}],"name":"listings","outputs":[{"internalType":"uint256","name":"id","type":"uint256"},{"internalType":"address","name":"owner","type":"address"},{"internalType":"string","name":"category","type":"string"},{"internalType":"uint256","name":"price","type":"uint256"},{"internalType":"uint256","name":"deposit","type":"uint256"},{"internalType":"string","name":"ipfsHash","type":"string"},{"internalType":"bool","name":"isForRent","type":"bool"},{"internalType":"bool","name":"isActive","type":"bool"},{"internalType":"uint256","name":"views","type":"uint256"},{"internalType":"uint256","name":"favorites","type":"uint256"},{"internalType":"uint256","name":"createdAt","type":"uint256"},{"internalType":"uint256","name":"updatedAt","type":"uint256"}],"stateMutability":"view","type":"function"},{"inputs":[],"name":"minDisputeStake","outputs":[{"internalType":"uint256","name":"","type":"uint256"}],"stateMutability":"view","type":"function"},{"inputs":[],"name":"owner","outputs":[{"internalType":"address","name":"","type":"address"}],"stateMutability":"view","type":"function"},{"inputs":[],"name":"pause","outputs":[],"stateMutability":"nonpayable","type":"function"},{"inputs":[],"name":"paused","outputs":[{"internalType":"bool","name":"","type":"bool"}],"stateMutability":"view","type":"function"},{"inputs":[],"name":"platformFee","outputs":[{"internalType":"uint256","name":"","type":"uint256"}],"stateMutability":"view","type":"function"},{"inputs":[{"internalType":"address","name":"_admin","type":"address"}],"name":"removeAdmin","outputs":[],"stateMutability":"nonpayable","type":"function"},{"inputs":[],"name":"renounceOwnership","outputs":[],"stateMutability":"nonpayable","type":"function"},{"inputs":[{"internalType":"uint256","name":"_disputeId","type":"uint256"},{"internalType":"address","name":"_winner","type":"address"}],"name":"resolveDispute","outputs":[],"stateMutability":"nonpayable","type":"function"},{"inputs":[{"internalType":"uint256","name":"","type":"uint256"}],"name":"reviews","outputs":[{"internalType":"uint256","name":"id","type":"uint256"},{"internalType":"uint256","name":"transactionId","type":"uint256"},{"internalType":"address","name":"reviewer","type":"address"},{"internalType":"address","name":"reviewee","type":"address"},{"internalType":"uint8","name":"rating","type":"uint8"},{"internalType":"string","name":"ipfsHash","type":"string"},{"internalType":"uint256","name":"timestamp","type":"uint256"}],"stateMutability":"view","type":"function"},{"inputs":[{"internalType":"uint256","name":"_newFee","type":"uint256"}],"name":"setDisputeFee","outputs":[],"stateMutability":"nonpayable","type":"function"},{"inputs":[{"internalType":"address","name":"_newRecipient","type":"address"}],"name":"setFeeRecipient","outputs":[],"stateMutability":"nonpayable","type":"function"},{"inputs":[{"internalType":"uint256","name":"_newStake","type":"uint256"}],"name":"setMinDisputeStake","outputs":[],"stateMutability":"nonpayable","type":"function"},{"inputs":[{"internalType":"uint256","name":"_newFee","type":"uint256"}],"name":"setPlatformFee","outputs":[],"stateMutability":"nonpayable","type":"function"},{"inputs":[{"internalType":"uint256","name":"_transactionId","type":"uint256"},{"internalType":"address","name":"_reviewee","type":"address"},{"internalType":"uint8","name":"_rating","type":"uint8"},{"internalType":"string","name":"_reviewIpfsHash","type":"string"}],"name":"submitReview","outputs":[{"internalType":"uint256","name":"","type":"uint256"}],"stateMutability":"nonpayable","type":"function"},{"inputs":[{"internalType":"uint256","name":"_listingId","type":"uint256"}],"name":"toggleFavorite","outputs":[],"stateMutability":"nonpayable","type":"function"},{"inputs":[{"internalType":"uint256","name":"","type":"uint256"}],"name":"transactions","outputs":[{"internalType":"uint256","name":"id","type":"uint256"},{"internalType":"uint256","name":"listingId","type":"uint256"},{"internalType":"address","name":"buyer","type":"address"},{"internalType":"address","name":"seller","type":"address"},{"internalType":"enum BlockrentV2.TransactionType","name":"txType","type":"uint8"},{"internalType":"uint256","name":"price","type":"uint256"},{"internalType":"uint256","name":"deposit","type":"uint256"},{"internalType":"uint256","name":"startedAt","type":"uint256"},{"internalType":"uint256","name":"completedAt","type":"uint256"},{"internalType":"enum BlockrentV2.TransactionStatus","name":"status","type":"uint8"},{"internalType":"bool","name":"buyerConfirmed","type":"bool"},{"internalType":"bool","name":"sellerConfirmed","type":"bool"},{"internalType":"uint256","name":"escrowAmount","type":"uint256"}],"stateMutability":"view","type":"function"},{"inputs":[{"internalType":"address","name":"newOwner","type":"address"}],"name":"transferOwnership","outputs":[],"stateMutability":"nonpayable","type":"function"},{"inputs":[],"name":"unpause","outputs":[],"stateMutability":"nonpayable","type":"function"},{"inputs":[{"internalType":"uint256","name":"_listingId","type":"uint256"},{"internalType":"uint256","name":"_newPrice","type":"uint256"},{"internalType":"uint256","name":"_newDeposit","type":"uint256"},{"internalType":"string","name":"_newIpfsHash","type":"string"}],"name":"updateListing","outputs":[],"stateMutability":"nonpayable","type":"function"},{"inputs":[{"internalType":"string","name":"_ipfsHash","type":"string"}],"name":"updateProfile","outputs":[],"stateMutability":"nonpayable","type":"function"},{"inputs":[{"internalType":"address","name":"","type":"address"},{"internalType":"uint256","name":"","type":"uint256"}],"name":"userFavorites","outputs":[{"internalType":"bool","name":"","type":"bool"}],"stateMutability":"view","type":"function"},{"inputs":[{"internalType":"address","name":"","type":"address"}],"name":"userProfiles","outputs":[{"internalType":"address","name":"wallet","type":"address"},{"internalType":"string","name":"ipfsHash","type":"string"},{"internalType":"uint256","name":"totalListings","type":"uint256"},{"internalType":"uint256","name":"completedTransactions","type":"uint256"},{"internalType":"uint256","name":"totalReviews","type":"uint256"},{"internalType":"uint256","name":"ratingSum","type":"uint256"},{"internalType":"uint256","name":"averageRating","type":"uint256"},{"internalType":"bool","name":"isVerified","type":"bool"},{"internalType":"uint256","name":"reputationScore","type":"uint256"},{"internalType":"uint256","name":"joinedAt","type":"uint256"}],"stateMutability":"view","type":"function"},{"inputs":[{"internalType":"address","name":"","type":"address"},{"internalType":"uint256","name":"","type":"uint256"}],"name":"userReviews","outputs":[{"internalType":"uint256","name":"","type":"uint256"}],"stateMutability":"view","type":"function"},{"inputs":[{"internalType":"address","name":"","type":"address"},{"internalType":"uint256","name":"","type":"uint256"}],"name":"userTransactions","outputs":[{"internalType":"uint256","name":"","type":"uint256"}],"stateMutability":"view","type":"function"},{"inputs":[{"internalType":"address","name":"_user","type":"address"}],"name":"verifyUser","outputs":[],"stateMutability":"nonpayable","type":"function"},{"stateMutability":"payable","type":"receive"}],"evm":{"bytecode":{"linkReferences":{},"object":"6080346200014757601f6200472938819003918201601f19168301916001600160401b038311848410176200014c578084926020946040528339810103126200014757516001600160a01b038082169182900362000147576001600081815581546001600160a81b0319811633600881811b610100600160a81b0316929092179094556040519491901c16907f8be0079c531659141344cd1fd0a4f28419497f9722a3daafe3b4186f6b6457e09080a360fa6010556064601155662386f26fc10000601355811562000105575060018060a01b0319601254161760125533600052600f6020526040600020600160ff198254161790556040516145c69081620001638239f35b62461bcd60e51b815260206004820152601560248201527f496e76616c69642066656520726563697069656e7400000000000000000000006044820152606490fd5b600080fd5b634e487b7160e01b600052604160045260246000fdfe6080604052600436101561001b575b361561001957600080fd5b005b60003560e01c80629299e31461394d578063088efa07146138e35780630e33599d146135e65780630e95d338146118f9578063107a274a1461341857806312e8e2c3146133b157806317299c04146133425780631785f53c1461330057806318d0e8b2146132885780631f4ac1291461323e578063253b8cef1461322057806325f600821461320257806326232a2e146131e4578063332d56d71461312657806333ea3dc814612f4357806336eeb9a614612e8e5780633c6bdab3146128cc5780633f4ba83a14612875578063429b62e514612836578063469048401461280d5780634d8131201461270b578063564a565d1461263a5780635c975abb1461261757806370480275146125d25780637100dc6214611f32578063715018a614611ed1578063843cba1314611dac5780638456cb5914611d535780638da5cb5b14611d2657806397fbc2fb14611d08578063987ee15614611b85578063990581b614611a755780639ace38c2146119a0578063a60b1b4c1461197f578063a7ba7edc14611946578063aa070fb5146118f9578063ade952021461135d578063b5c604ff1461133f578063b842ec44146112e7578063b9ce896b146112c9578063d6895db214611279578063da165ddb14610d3e578063db2e21bc14610ce3578063de74e57b14610bfd578063e3a96cbd14610a44578063e6282c6e14610914578063e74b981b14610895578063e83ddcea14610802578063ef9253991461077a578063f2fde38b146106a6578063fb49ef17146103d1578063fbf30c35146103b35763fd84cb970361000e57346103ae5760203660031901126103ae57600435610282613e99565b806003541015806103a5575b6102979061404e565b600081815260076020526040902060038101546001600160a01b0316330361036f5760080190815460ff8116600781101561035957806102e0911590811561034e575b5061409a565b60ff6201000062ff00001983161780855560405160008152847f48811540d7faefcd39140a2dfe56c4e6d976f20e7f822c59146c3425574c9de760203393a360081c161561033a5750610333915061413b565b6001600055005b62ff00ff1916620100011790915550610333565b6002915014386102da565b634e487b7160e01b600052602160045260246000fd5b60405162461bcd60e51b815260206004820152600e60248201526d2737ba103a34329039b2b63632b960911b6044820152606490fd5b5080151561028e565b600080fd5b346103ae5760003660031901126103ae576020600254604051908152f35b346103ae5760803660031901126103ae576001600160401b036004356044356024356064358481116103ae5761040b903690600401613bc8565b8360025410158061069d575b61042090613eef565b836000526020926006845260019560018060a01b0387604060002001541633036106645761044c613e99565b856000526006855260406000209061046d60ff600684015460081c16613f34565b84610659575b8261064e575b8351806104d6575b5050916104ce917fd58daec305e21025d3c652c2a5930691b363f20ba0ab4e38e7a10d31f5bc531c959493600a429101556040519485948552840152606060408401526060830190613c76565b0390a2600055005b60058301918111610638576104eb8254613ce4565b601f81116105ef575b5086601f82116001146105605791817fd58daec305e21025d3c652c2a5930691b363f20ba0ab4e38e7a10d31f5bc531c98979694926104ce9694600091610555575b50600019600383901b1c1916908b1b1790555b91939495819350610481565b90508501518c610536565b908991601f1982169084600052896000209160005b8181106105d857509183916104ce9896947fd58daec305e21025d3c652c2a5930691b363f20ba0ab4e38e7a10d31f5bc531c9c9b9a989694106105bf575b5050811b019055610549565b87015160001960f88460031b161c191690558c806105b3565b8983015184558d9590930192918b01918b01610575565b8260005287600020601f830160051c81019189841061062e575b601f0160051c01908a905b8281106106225750506104f4565b60008155018a90610614565b9091508190610609565b634e487b7160e01b600052604160045260246000fd5b826004830155610479565b846003830155610473565b60405162461bcd60e51b81526004810186905260116024820152702737ba103634b9ba34b7339037bbb732b960791b6044820152606490fd5b50831515610417565b346103ae5760203660031901126103ae576106bf613c60565b6106c7613deb565b6001600160a01b038181169182156107265760018054610100600160a81b03198116600893841b610100600160a81b031617909155901c167f8be0079c531659141344cd1fd0a4f28419497f9722a3daafe3b4186f6b6457e0600080a3005b60405162461bcd60e51b815260206004820152602660248201527f4f776e61626c653a206e6577206f776e657220697320746865207a65726f206160448201526564647265737360d01b6064820152608490fd5b346103ae576020806003193601126103ae576001600160a01b0361079c613c60565b16600052600c8152604060002090604051908181845491828152019360005281600020916000905b8282106107eb576107e7856107db81890382613b8c565b60405191829182613c0f565b0390f35b8354865294850194600193840193909101906107c4565b346103ae5760203660031901126103ae5760043560005260096020526040600020805460018201549161088b60018060a01b039160ff8360028301541693600383015490600561085460048601613d1e565b940154956040519889988952602089015260408801528116606087015260a01c16608085015260e060a085015260e0840190613c76565b9060c08301520390f35b346103ae5760203660031901126103ae576108ae613c60565b6108b6613deb565b6001600160a01b031680156108dd576001600160601b0360a01b6012541617601255600080f35b60405162461bcd60e51b815260206004820152600f60248201526e496e76616c6964206164647265737360881b6044820152606490fd5b346103ae5760203660031901126103ae5760043580600254101580610a3b575b61093d90613eef565b610945613e99565b6000818152600660205260409020600181015461097e90336001600160a01b0391821614908115610a21575b8115610a10575b50613f75565b60068101805460ff8160081c16156109cb5761ff0019169055600a4291015533907f5832f888aea12cc23bd891f2d9fd4bd01b8ce0e22898b6e7cee1519f5bd46954600080a36001600055005b60405162461bcd60e51b815260206004820152601860248201527f4c697374696e6720616c726561647920696e61637469766500000000000000006044820152606490fd5b905060015460081c16331484610978565b905033600052600f60205260ff6040600020541690610971565b50801515610934565b346103ae5760203660031901126103ae576000610120604051610a6681613b70565b82815282602082015282604082015282606082015260606080820152606060a08201528260c08201528260e08201528261010082015201526004356000526008602052604060002060405190610abb82613b70565b805482526001810154602083015260028101546001600160a01b0390811660408401526003820154166060830152610af560048201613d1e565b6080830152610b0660058201613d1e565b60a083015260068101549060ff82169160038310156103595760089260c085015260018060a01b0390831c1660e084015260078101546101008401520154610120820152604051809160208252805160208301526020810151604083015260018060a01b03604082015116606083015260018060a01b0360608201511660808301526080810151610120610bc1610bab610140938460a0880152610160870190613c76565b60a0850151868203601f190160c0880152613c76565b92610bd460c082015160e0870190613dde565b60e08101516001600160a01b031661010086810191909152810151828601520151908301520390f35b346103ae5760203660031901126103ae5760043560005260066020526020604060002080549060018060a01b03600182015416610c3c60028301613d1e565b91600381015492600482015460ff610cb1610c5960058601613d1e565b96600686015497600787015494610c99600889015497600a60098b01549a01549a6040519e8f9e8f908152015260408d61018091829101528d0190613c76565b9260608c015260808b015289820360a08b0152613c76565b95818116151560c089015260081c16151560e08701526101008601526101208501526101408401526101608301520390f35b346103ae5760003660031901126103ae57610cfc613deb565b610d04614547565b600080808060018060a01b0360015460081c164790828215610d35575bf115610d2957005b6040513d6000823e3d90fd5b506108fc610d21565b60203660031901126103ae57610d52613e55565b610d5a613e99565b60043560025410158061126e575b610d7190613eef565b60043560005260066020526040600020610e2c60405191610d9183613b1d565b8054835260018101546001600160a01b03166020840152610db460028201613d1e565b60408401526003810154606084015260048101546080840152610dd960058201613d1e565b60a0840152600a60ff6006830154818116151560c087015260081c161515918260e08601526007810154610100860152600881015461012086015260098101546101408601520154610160840152613f34565b60208101516001600160a01b031633146112305760c08101511561122557610e5d6060820151608083015190613fb2565b905b8134106111e957600160035401908160035560018060a01b0360208201511660c08201511515806000146111e1576001905b606084015190156111d657610ed26080850151925b60405194610eb386613b39565b8786526004356020870152336040870152606086015260808501613fbf565b60a083015260c08201524260e082015260006101008201526000610120820152600061014082015260006101608201528361018082015282600052600760205260406000209080518255602081015160018301556002820160018060a01b036040830151166001600160601b0360a01b8254161790556003820160018060a01b03606083015116815490608084015160028110156103595760ff60a01b9060a01b16916affffffffffffffffffffff60a81b161717905560a0810151600483015560c0810151600583015560e081015160068301556101008101516007830155600882019061012081015190600782101561035957825461014082015161ff0090151560081b1660ff9390931661ffff19909116179190911782556009916101809190610160820151151562ff000082549160101b169062ff000019161790550151910155600435600052600b602052611030826040600020613fd7565b33600052600c602052611047826040600020613fd7565b60018060a01b03602082015116600052600c60205261106a826040600020613fd7565b336000908152600a60205260409020546001600160a01b0316156111c8575b6020818101516001600160a01b039081166000908152600a90925260409091205416156111ac575b823411611158575b60ff60209360c083015115611138575b8483015160c0909301516001600160a01b039093169215611130576001905b604051938452858401521660408201523390827f10e80a6583a36b89b60b030b8faa55077a2f7bf0c58a8eb95bfa1240e413e540606060043593a46001600055604051908152f35b6000906110e8565b60043560005260068552600660406000200161ff001981541690556110c9565b60008080806111678734614011565b335af161117261401e565b506110b95760405162461bcd60e51b815260206004820152600d60248201526c1499599d5b990819985a5b1959609a1b6044820152606490fd5b60208101516111c3906001600160a01b0316614324565b6110b1565b6111d133614324565b611089565b610ed2600092610ea6565b600090610e91565b60405162461bcd60e51b8152602060048201526014602482015273125b9cdd59999a58da595b9d081c185e5b595b9d60621b6044820152606490fd5b606081015190610e5f565b60405162461bcd60e51b815260206004820152601660248201527543616e6e6f7420627579206f776e206c697374696e6760501b6044820152606490fd5b506004351515610d68565b346103ae5760203660031901126103ae57600435806002541015806112c0575b6112a290613eef565b600052600660205260076040600020016112bc8154613e46565b9055005b50801515611299565b346103ae5760003660031901126103ae576020601154604051908152f35b346103ae5760403660031901126103ae57611300613c60565b6001600160a01b03166000908152600c60205260409020805460243591908210156103ae5760209161133191613cb6565b90546040519160031b1c8152f35b346103ae5760003660031901126103ae576020600354604051908152f35b346103ae5760a03660031901126103ae576004356001600160401b0381116103ae5761138d903690600401613bc8565b6064356001600160401b0381116103ae576113ac903690600401613bc8565b60843580151581036103ae576113c0613e55565b6113c8613e99565b602435156118b45781511561187a578251156118415760016002540191826002556040516113f581613b1d565b838152336020820152846040820152602435606082015260443560808201528160a082015282151560c0820152600160e08201526000610100820152600061012082015242610140820152426101608201528360005260066020526040600020908051825560018060a01b0360208201511660018301906001600160601b0360a01b82541617905560408101518051906001600160401b0382116106385781906114a26002860154613ce4565b601f81116117ee575b50602090601f831160011461177c57600092611771575b50508160011b916000199060031b1c19161760028301555b606081015160038301556080810151600483015560a08101518051906001600160401b038211610638576115116005850154613ce4565b601f811161172a575b509160209793918795938990601f8311600114611686577fd6e852c76ffba725da83cab24d7f612da35831a32996662fc0bda02035f67117969593836116529694600a946101609460009261167b575b50508160011b916000199060031b1c19161760058501555b6115c0600685016115a560c08401511515829060ff801983541691151516179055565b60e0830151815461ff00191690151560081b61ff0016179055565b6101008101516007850155610120810151600885015561014081015160098501550151910155336000908152600a895260409020546001600160a01b03161561166d575b33600052600a8852600260406000200161161e8154613e46565b90556116356040519360a0855260a0850190613c76565b906024358985015260443560408501528382036060850152613c76565b93151560808201528033940390a36001600055604051908152f35b61167633614324565b611604565b015190508e8061156a565b60058594939298979695016000528a6000209060005b601f1984168110611710575092600183610160937fd6e852c76ffba725da83cab24d7f612da35831a32996662fc0bda02035f671179a9b611652999897600a97601f198116106116f7575b505050811b016005850155611582565b015160001960f88460031b161c191690558e80806116e7565b818a01518355988c01988b98506001909201918c0161169c565b600585016000526020600020601f840160051c81016020851061176a575b601f830160051c8201811061175e57505061151a565b60008155600101611748565b5080611748565b0151905088806114c2565b9250600285016000526020600020906000935b601f19841685106117d3576001945083601f198116106117ba575b505050811b0160028301556114da565b015160001960f88460031b161c191690558880806117aa565b8181015183556020948501946001909301929091019061178f565b909150600285016000526020600020601f840160051c81016020851061183a575b90849392915b601f830160051c8201811061182b5750506114ab565b60008155859450600101611815565b508061180f565b60405162461bcd60e51b815260206004820152601160248201527010d85d1959dbdc9e481c995c5d5a5c9959607a1b6044820152606490fd5b60405162461bcd60e51b815260206004820152601260248201527112541194c81a185cda081c995c5d5a5c995960721b6044820152606490fd5b60405162461bcd60e51b815260206004820152601c60248201527f5072696365206d7573742062652067726561746572207468616e2030000000006044820152606490fd5b346103ae5760403660031901126103ae576001600160a01b0361191a613c60565b16600052600e6020526040600020602435600052602052602060ff604060002054166040519015158152f35b346103ae5760403660031901126103ae57602435600435600052600b602052604060002080548210156103ae5760209161133191613cb6565b346103ae5760203660031901126103ae57611998613deb565b600435601355005b346103ae5760203660031901126103ae5760043560005260076020526101a0604060002080549060ff60018201549160018060a01b03806002830154169060038301546004840154611a2e600586015492600687015494600788015496600960088a01549901549a6040519c8d5260208d015260408c0152811660608b01528760808b019160a01c16613dc4565b60a088015260c087015260e0860152610100850152611a536101208501838316613dd1565b818160081c16151561014085015260101c161515610160830152610180820152f35b346103ae576020806003193601126103ae57600060c0604051611a9781613b55565b8281528284820152826040820152826060820152826080820152606060a0820152015260043560005260098152604060002060405190611ad682613b55565b80548252611b7a60018201549184840192835260ff60018060a01b0380600284015416906040870191825260038401549181606089019181851683528560808b019560a01c1685526005611b2c60048901613d1e565b9760a08c0198895201549860c08b01998a526040519b8c9b818d5251908c01525160408b01525116606089015251166080870152511660a08501525160e060c0850152610100840190613c76565b905160e08301520390f35b346103ae5760203660031901126103ae57611b9e613c60565b6000610120604051611baf81613b70565b828152606060208201528260408201528260608201528260808201528260a08201528260c08201528260e082015282610100820152015260018060a01b0316600052600a6020526040600020600960405191611c0a83613b70565b80546001600160a01b03168352611c2360018201613d1e565b6020840152600281015460408401526003810154606084015260048101546080840152600581015460a0840152600681015460c084015260ff600782015416151560e08401526008810154610100840152015461012082015260405180916020825260018060a01b0381511660208301526020810151610120611cb461014092836040870152610160860190613c76565b926040810151606086015260608101516080860152608081015160a086015260a081015160c086015260c081015160e086015260e08101511515610100860152610100810151828601520151908301520390f35b346103ae5760003660031901126103ae576020600454604051908152f35b346103ae5760003660031901126103ae5760015460405160089190911c6001600160a01b03168152602090f35b346103ae5760003660031901126103ae57611d6c613deb565b611d74613e55565b600160ff19815416176001557f62e78cea01bee320cd4e420270b5ea74000d11b0c9f74754ebdbfc544b05a2586020604051338152a1005b346103ae5760203660031901126103ae57600435611dc8613e99565b80600354101580611ec8575b611ddd9061404e565b600081815260076020526040902060028101546001600160a01b03163303611e935760080190815460ff811660078110156103595780611e259115908115611e88575061409a565b60ff61010061ff001983161780855560405160018152847f48811540d7faefcd39140a2dfe56c4e6d976f20e7f822c59146c3425574c9de760203393a360101c1615611e765750610333915061413b565b61ffff19166101021790915550610333565b6001915014856102da565b60405162461bcd60e51b815260206004820152600d60248201526c2737ba103a343290313abcb2b960991b6044820152606490fd5b50801515611dd4565b346103ae5760003660031901126103ae57611eea613deb565b60018054610100600160a81b0319811690915560009060081c6001600160a01b03167f8be0079c531659141344cd1fd0a4f28419497f9722a3daafe3b4186f6b6457e08280a3005b60603660031901126103ae576024356001600160401b0381116103ae57611f5d903690600401613bc8565b6044356001600160401b0381116103ae57611f7c903690600401613bc8565b90611f85613e99565b6004356003541015806125c7575b611f9c9061404e565b6004356000526007602052604060002090600960405192611fbc84613b39565b805484526001810154602085015260028101546001600160a01b03908116604086015260038201549081166060860152611fff9060a01c60ff1660808601613fbf565b600481015460a0850152600581015460c0850152600681015460e0850152600781015461010085015260ff600882015461203f8282166101208801613fcb565b818160081c16151561014087015260101c161515610160850152015461018083015260018060a01b03604083015116331480156125b1575b1561256c57610120820151600781101561035957158015612554575b801561253c575b156124f75760135434106124b257600480546001019081905560408301519092906001600160a01b03163381036124aa5750606001516001600160a01b0316925b604051936120e885613b70565b838552600435602086015233604086015260018060a01b0316606085015281608085015260a0840152600060c0840152600060e084015242610100840152600061012084015281600052600860205260406000209280518455602081015160018501556002840160018060a01b03604083015116906001600160601b0360a01b9182825416179055600385019060018060a01b036060840151169082541617905560808101518051906001600160401b0382116106385781906121ae6004880154613ce4565b601f8111612457575b50602090601f83116001146123e5576000926123da575b50508160011b916000199060031b1c19161760048501555b60a08101518051906001600160401b03821161063857819061220b6005880154613ce4565b601f8111612387575b50602090601f83116001146123155760009261230a575b50508160011b916000199060031b1c19161760058501555b600684019360c082015191600383101561035957855460e08201516001600160a81b031990911660ff9490941693909317600893841b610100600160a81b03161790955560209460ff199290610120906101008101516007850155015191015560043560005260078452600460086040600020019182541617905560405190838252827f187cf2180cf205abb3a86a43c8a0e9e92ffdc0d1029d2982b525b335a50efe513393806122fa6004359589830190613c76565b0390a46001600055604051908152f35b01519050868061222b565b9250600587016000526020600020906000935b601f198416851061236c576001945083601f19811610612353575b505050811b016005850155612243565b015160001960f88460031b161c19169055868080612343565b81810151835560209485019460019093019290910190612328565b909150600587016000526020600020601f840160051c8101602085106123d3575b90849392915b601f830160051c820181106123c4575050612214565b600081558594506001016123ae565b50806123a8565b0151905086806121ce565b9250600487016000526020600020906000935b601f198416851061243c576001945083601f19811610612423575b505050811b0160048501556121e6565b015160001960f88460031b161c19169055868080612413565b818101518355602094850194600190930192909101906123f8565b909150600487016000526020600020601f840160051c8101602085106124a3575b90849392915b601f830160051c820181106124945750506121b7565b6000815585945060010161247e565b5080612478565b9050926120db565b60405162461bcd60e51b815260206004820152601a60248201527f496e73756666696369656e742064697370757465207374616b650000000000006044820152606490fd5b60405162461bcd60e51b815260206004820152601f60248201527f43616e6e6f7420646973707574652074686973207472616e73616374696f6e006044820152606490fd5b5061012082015160078110156103595760021461209a565b50610120820151600781101561035957600114612093565b60405162461bcd60e51b815260206004820152601d60248201527f4e6f742061207472616e73616374696f6e207061727469636970616e740000006044820152606490fd5b5060608201516001600160a01b03163314612077565b506004351515611f93565b346103ae5760203660031901126103ae576125eb613c60565b6125f3613deb565b6001600160a01b03166000908152600f60205260409020805460ff19166001179055005b346103ae5760003660031901126103ae57602060ff600154166040519015158152f35b346103ae5760203660031901126103ae5760043560005260086020526040600020805460018201549160018060a01b0390816002820154169082600382015416926126e161268a60048401613d1e565b6126d361269960058601613d1e565b9160068601549760086007880154970154976040519b8c9b8c5260208c015260408b015260608a01526101408060808b0152890190613c76565b9087820360a0890152613c76565b936126f260c0870160ff8316613dde565b60081c1660e08501526101008401526101208301520390f35b346103ae5760203660031901126103ae57612724613c60565b33600052600f60205260ff6040600020541680156127f3575b61274690613f75565b6001600160a01b039081166000818152600a6020526040902054909116156127ae57600052600a6020526008604060002060078101600160ff1982541617905501805490603282018092116127985755005b634e487b7160e01b600052601160045260246000fd5b60405162461bcd60e51b815260206004820152601b60248201527f557365722070726f66696c6520646f6573206e6f7420657869737400000000006044820152606490fd5b506001543360089190911c6001600160a01b03161461273d565b346103ae5760003660031901126103ae576012546040516001600160a01b039091168152602090f35b346103ae5760203660031901126103ae576001600160a01b03612857613c60565b16600052600f602052602060ff604060002054166040519015158152f35b346103ae5760003660031901126103ae5761288e613deb565b612896614547565b60ff19600154166001557f5db9ee0a495bf2e6ff9c91a7834c1ba4fdd244a5e8aa4e537bd38aeae4b073aa6020604051338152a1005b346103ae5760803660031901126103ae576128e5613c4a565b6044359060ff821682036103ae576064356001600160401b0381116103ae57612912903690600401613bc8565b9061291b613e99565b600435600354101580612e83575b6129329061404e565b600160ff8416101580612e75575b15612e3b57600435600052600760205260406000206040519061296282613b39565b805482526001810154602083015260028101546001600160a01b0390811660408401908152600383015491821660608501908152939092916129ad9060a01c60ff1660808301613fbf565b600482015460a0820152600582015460c0820152600682015460e08201526007820154610100820152610180600960088401549360ff6101208501956129f582821688613fcb565b818160081c16151561014087015260101c161515610160850152015491015251600781101561035957600303612df657516001600160a01b03163381149182612ddf575b8215612db0575b505015612d6b576001600554019182600555604051612a5e81613b55565b8381526004356020820152336040820152606081019060018060a01b0384168252608081019160ff8716835260a08201908482524260c084015286600052600960205260406000209383518555602084015160018601556002850160018060a01b036040860151166001600160601b0360a01b825416179055600385019160018060a01b0390511682549160ff60a01b905160a01b16916affffffffffffffffffffff60a81b1617179055518051906001600160401b03821161063857612b286004850154613ce4565b601f8111612d24575b50602090601f8311600114612caf5791806005949260c094600092612ca4575b50508160011b916000199060031b1c19161760048501555b015191015560018060a01b038216600052600d602052612b8d836040600020613fd7565b6001600160a01b0382166000908152600a60205260409020600481018054612bb490613e46565b80915560058201612bc960ff88168254613fb2565b809155606481029080820460641490151715612798578115612c8e57046006820155600460ff86161015612c4e575b5060ff6020946040519360018060a01b03168452168483015260606040830152827fe06ea7268e18017dcc290da09c39c540fdbc5fa9430c2694e80f21bb6d63fb863393806122fa600435956060830190613c76565b60021960ff86160160ff81116127985760ff60059116029460ff861695860361279857602095612c85600860ff9401918254613fb2565b90559450612bf8565b634e487b7160e01b600052601260045260246000fd5b015190508a80612b51565b906004850160005260206000209160005b601f1985168110612d0c5750926005949260019260c09583601f19811610612cf3575b505050811b016004850155612b69565b015160001960f88460031b161c191690558a8080612ce3565b91926020600181928685015181550194019201612cc0565b600485016000526020600020601f840160051c810160208510612d64575b601f830160051c82018110612d58575050612b31565b60008155600101612d42565b5080612d42565b60405162461bcd60e51b815260206004820152601b60248201527f496e76616c696420726576696577207061727469636970616e747300000000006044820152606490fd5b516001600160a01b03163314915081612dcc575b508480612a40565b6001600160a01b03831614905084612dc4565b80516001600160a01b038581169116149250612a39565b60405162461bcd60e51b815260206004820152601960248201527f5472616e73616374696f6e206e6f7420636f6d706c65746564000000000000006044820152606490fd5b60405162461bcd60e51b8152602060048201526012602482015271526174696e67206d75737420626520312d3560701b6044820152606490fd5b50600560ff84161115612940565b506004351515612929565b346103ae576020806003193601126103ae5760069060043580600254101580612f3a575b612ebb90613eef565b33600052600e8252604060002081600052825260ff6040600020541633600052600e83526040600020826000528352612f05811560406000209060ff801983541691151516179055565b15612f26576000525260086040600020018054801561279857600019019055005b505260086040600020016112bc8154613e46565b50801515612eb2565b346103ae5760203660031901126103ae576000610180604051612f6581613b39565b8281528260208201528260408201528260608201528260808201528260a08201528260c08201528260e082015282610100820152826101208201528261014082015282610160820152015260043560005260076020526101a06040600020600960405191612fd283613b39565b805483526001810154602084015260028101546001600160a01b039081166040850152600382015490811660608501526130159060a01c60ff1660808501613fbf565b600481015460a0840152600581015460c0840152600681015460e0840152600781015461010084015260ff60088201546130558282166101208701613fcb565b818160081c16151561014086015260101c161515610160840152015461018082015261018060405191805183526020810151602084015260018060a01b03604082015116604084015260018060a01b0360608201511660608401526130c260808201516080850190613dc4565b60a081015160a084015260c081015160c084015260e081015160e0840152610100810151610100840152613100610120820151610120850190613dd1565b610140810151151561014084015261016081015115156101608401520151610180820152f35b346103ae5760203660031901126103ae576001600160a01b0380613148613c60565b16600052600a60205260406000209081541661316660018301613d1e565b916002810154906003810154906004810154600582015460068301549060ff6007850154169260096008860154950154956131b36040519a8b9a8b526101408060208d01528b0190613c76565b9760408a01526060890152608088015260a087015260c0860152151560e08501526101008401526101208301520390f35b346103ae5760003660031901126103ae576020601054604051908152f35b346103ae5760003660031901126103ae576020600554604051908152f35b346103ae5760003660031901126103ae576020601354604051908152f35b346103ae5760403660031901126103ae57613257613c60565b6001600160a01b03166000908152600d60205260409020805460243591908210156103ae5760209161133191613cb6565b346103ae576020806003193601126103ae576001600160a01b036132aa613c60565b16600052600d8152604060002090604051908181845491828152019360005281600020916000905b8282106132e9576107e7856107db81890382613b8c565b8354865294850194600193840193909101906132d2565b346103ae5760203660031901126103ae57613319613c60565b613321613deb565b6001600160a01b03166000908152600f60205260409020805460ff19169055005b346103ae5760203660031901126103ae5760043561335e613deb565b6101f4811161336c57601155005b60405162461bcd60e51b815260206004820152601c60248201527f44697370757465206665652063616e6e6f7420657863656564203525000000006044820152606490fd5b346103ae5760203660031901126103ae576004356133cd613deb565b6103e881116133db57601055005b60405162461bcd60e51b81526020600482015260156024820152744665652063616e6e6f74206578636565642031302560581b6044820152606490fd5b346103ae5760203660031901126103ae57600061016060405161343a81613b1d565b82815282602082015260606040820152826060820152826080820152606060a08201528260c08201528260e0820152826101008201528261012082015282610140820152015260043560005260066020526040600020600a6040519161349f83613b1d565b8054835260018101546001600160a01b031660208401526134c260028201613d1e565b604084015260038101546060840152600481015460808401526134e760058201613d1e565b60a084015260ff6006820154818116151560c086015260081c16151560e084015260078101546101008401526008810154610120840152600981015461014084015201546101608201526040518091602082528051602083015260018060a01b03602082015116604083015260408101516101606135a0613576610180938460608801526101a0870190613c76565b60608501516080870152608085015160a087015260a0850151601f198783030160c0880152613c76565b9260c0810151151560e086015260e08101511515610100860152610100810151610120860152610120810151610140860152610140810151828601520151908301520390f35b346103ae5760403660031901126103ae57600435613602613c4a565b33600052602090600f825260ff6040600020541680156138c9575b61362690613f75565b61362e613e99565b8260005260088252604060002090600682019182549060ff821660038110156103595780159081156138be575b5015613886576002810180546001600160a01b0385811696909592949291861687148015613877575b15613832576001600160a81b031990921660089190911b610100600160a81b031617600217905560ff1942600883015560018201546000526007865260406000206000808080886137068280808060098b01546136f16127106136e9601154846140e6565b048092614011565b96601254165af161370061401e565b506140f9565b8a5af161371161401e565b50156137f5576008600691019182541617905583600052600a855260086040600020018054926014840180941161279857849384925554168085146000146137ed575060030154165b16600052600a8252600860406000200190601e825410156000146137c0578154601d19810193908411612798577fdf0baf5489595ea17a097d16827d60793e2f57f3b85a982e5d7e02838b841ee693604093555b82519182524290820152a26001600055005b7fdf0baf5489595ea17a097d16827d60793e2f57f3b85a982e5d7e02838b841ee6926000604093556137ae565b91505061375a565b60405162461bcd60e51b815260048101889052601560248201527415da5b9b995c881c185e5b595b9d0819985a5b1959605a1b6044820152606490fd5b60405162461bcd60e51b815260048101899052601c60248201527f57696e6e6572206d7573742062652061207061727469636970616e74000000006044820152606490fd5b50856003850154168714613684565b60405162461bcd60e51b815260048101869052601060248201526f2234b9b83aba32903737ba1037b832b760811b6044820152606490fd5b60019150148761365b565b506001543360089190911c6001600160a01b03161461361d565b346103ae576020806003193601126103ae57600435600052600b8152604060002090604051908181845491828152019360005281600020916000905b828210613936576107e7856107db81890382613b8c565b83548652948501946001938401939091019061391f565b346103ae576020806003193601126103ae576001600160401b036004358181116103ae5761397f903690600401613bc8565b336000908152600a845260409020546001600160a01b031615613b0f575b33600052600a8352600180604060002001908251938411610638576139c28254613ce4565b601f8111613ac6575b5084601f8511600114613a3f57938080613a2f9594937f9ab5b01c08788936fb2b48da858665afe9fa06d32e17dc49e0510c24ba05c98397600093613a34575b501b916000199060031b1c19161790555b6040519182918583523395830190613c76565b0390a2005b860151925089613a0b565b601f1985169083600052866000209160005b88828210613ab25750509186917f9ab5b01c08788936fb2b48da858665afe9fa06d32e17dc49e0510c24ba05c98397613a2f9796959410613a99575b5050811b019055613a1c565b85015160001960f88460031b161c191690558780613a8d565b878401518555938501939283019201613a51565b8260005285600020601f860160051c810191878710613b05575b601f0160051c019082905b828110613af95750506139cb565b60008155018290613aeb565b9091508190613ae0565b613b1833614324565b61399d565b61018081019081106001600160401b0382111761063857604052565b6101a081019081106001600160401b0382111761063857604052565b60e081019081106001600160401b0382111761063857604052565b61014081019081106001600160401b0382111761063857604052565b90601f801991011681019081106001600160401b0382111761063857604052565b6001600160401b03811161063857601f01601f191660200190565b81601f820112156103ae57803590613bdf82613bad565b92613bed6040519485613b8c565b828452602083830101116103ae57816000926020809301838601378301015290565b6020908160408183019282815285518094520193019160005b828110613c36575050505090565b835185529381019392810192600101613c28565b602435906001600160a01b03821682036103ae57565b600435906001600160a01b03821682036103ae57565b919082519283825260005b848110613ca2575050826000602080949584010152601f8019910116010190565b602081830181015184830182015201613c81565b8054821015613cce5760005260206000200190600090565b634e487b7160e01b600052603260045260246000fd5b90600182811c92168015613d14575b6020831014613cfe57565b634e487b7160e01b600052602260045260246000fd5b91607f1691613cf3565b9060405191826000825492613d3284613ce4565b908184526001948581169081600014613da15750600114613d5e575b5050613d5c92500383613b8c565b565b9093915060005260209081600020936000915b818310613d89575050613d5c93508201013880613d4e565b85548884018501529485019487945091830191613d71565b915050613d5c94506020925060ff191682840152151560051b8201013880613d4e565b9060028210156103595752565b9060078210156103595752565b9060038210156103595752565b60015460081c6001600160a01b03163303613e0257565b606460405162461bcd60e51b815260206004820152602060248201527f4f776e61626c653a2063616c6c6572206973206e6f7420746865206f776e65726044820152fd5b60001981146127985760010190565b60ff60015416613e6157565b60405162461bcd60e51b815260206004820152601060248201526f14185d5cd8589b194e881c185d5cd95960821b6044820152606490fd5b600260005414613eaa576002600055565b60405162461bcd60e51b815260206004820152601f60248201527f5265656e7472616e637947756172643a207265656e7472616e742063616c6c006044820152606490fd5b15613ef657565b60405162461bcd60e51b8152602060048201526016602482015275131a5cdd1a5b99c8191bd95cc81b9bdd08195e1a5cdd60521b6044820152606490fd5b15613f3b57565b60405162461bcd60e51b81526020600482015260126024820152714c697374696e67206e6f742061637469766560701b6044820152606490fd5b15613f7c57565b60405162461bcd60e51b815260206004820152600e60248201526d139bdd08185d5d1a1bdc9a5e995960921b6044820152606490fd5b9190820180921161279857565b60028210156103595752565b60078210156103595752565b80546801000000000000000081101561063857613ff991600182018155613cb6565b819291549060031b91821b91600019901b1916179055565b9190820391821161279857565b3d15614049573d9061402f82613bad565b9161403d6040519384613b8c565b82523d6000602084013e565b606090565b1561405557565b60405162461bcd60e51b815260206004820152601a60248201527f5472616e73616374696f6e20646f6573206e6f742065786973740000000000006044820152606490fd5b156140a157565b60405162461bcd60e51b815260206004820152601a60248201527f496e76616c6964207472616e73616374696f6e207374617475730000000000006044820152606490fd5b8181029291811591840414171561279857565b1561410057565b60405162461bcd60e51b8152602060048201526013602482015272119959481d1c985b9cd9995c8819985a5b1959606a1b6044820152606490fd5b90600091808352602060078152604080852060088101600360ff1982541617905542600782015560048101546141796127106136e9601054846140e6565b916141988880808060018060a01b039687601254165af161370061401e565b878080806003850196868854165af16141af61401e565b50156142e8578760058201548061428a575b50506002019181835416885281600a938487526003868b20016141e48154613e46565b9055818354168a528487526003868b20016141ff8154613e46565b9055541688528285526008848920018054908482018092116142765755541686528083526008828720018054918201809211614262577f6aa7274309d76cd1146fd229f234c1325770c94642718bd7f5f10f41fbc44c9e949596505551428152a2565b634e487b7160e01b87526011600452602487fd5b634e487b7160e01b8a52601160045260248afd5b81808092866002870154165af161429f61401e565b50156142ac5787386141c1565b835162461bcd60e51b815260048101869052601560248201527411195c1bdcda5d081c99599d5b990819985a5b1959605a1b6044820152606490fd5b835162461bcd60e51b815260048101869052601560248201527414d95b1b195c881c185e5b595b9d0819985a5b1959605a1b6044820152606490fd5b60405161433081613b70565b6001600160a01b0391821680825260405190916020906001600160401b038284018181118582101761063857604052600093848152838301908152604083018581526060840190868252608085019287845260a086019488865260c087019689885260e08101988a8a5261010082019a808c5261012083019c8d4290528152600a8252604081209d8e9351166001600160601b0360a01b84541617835560018093019451908151948511614533576143e88654613ce4565b601f81116144ed575b5082601f861160011461447957509360099d9c9b99979593819382936144629d9b99979461446e575b50501b916000199060031b1c19161790555b5160028b01555160038a0155516004890155516005880155516006870155511515600786019060ff801983541691151516179055565b51600884015551910155565b01519250388061441a565b868252808220949594939291601f198616915b8282106144d6575050916144629b999795939160099f9e9d9b9997958094106144bd575b505050811b01905561442c565b015160001960f88460031b161c191690553880806144b0565b80888697829497870151815501960194019061448c565b868252838220601f870160051c810191858810614529575b601f0160051c019085905b82811061451e5750506143f1565b838155018590614510565b9091508190614505565b634e487b7160e01b81526041600452602490fd5b60ff600154161561455457565b60405162461bcd60e51b815260206004820152601460248201527314185d5cd8589b194e881b9bdd081c185d5cd95960621b6044820152606490fdfea2646970667358221220ca9c3c31bbd032facbb009dc888ee22503542bce88e1d3a76da97ba687b2a13064736f6c63430008130033","opcodes":"PUSH1 0x80 CALLVALUE PUSH3 0x147 JUMPI PUSH1 0x1F PUSH3 0x4729 CODESIZE DUP2 SWAP1 SUB SWAP2 DUP3 ADD PUSH1 0x1F NOT AND DUP4 ADD SWAP2 PUSH1 0x1 PUSH1 0x1 PUSH1 0x40 SHL SUB DUP4 GT DUP5 DUP5 LT OR PUSH3 0x14C JUMPI DUP1 DUP5 SWAP3 PUSH1 0x20 SWAP5 PUSH1 0x40 MSTORE DUP4 CODECOPY DUP2 ADD SUB SLT PUSH3 0x147 JUMPI MLOAD PUSH1 0x1 PUSH1 0x1 PUSH1 0xA0 SHL SUB DUP1 DUP3 AND SWAP2 DUP3 SWAP1 SUB PUSH3 0x147 JUMPI PUSH1 0x1 PUSH1 0x0 DUP2 DUP2 SSTORE DUP2 SLOAD PUSH1 0x1 PUSH1 0x1 PUSH1 0xA8 SHL SUB NOT DUP2 AND CALLER PUSH1 0x8 DUP2 DUP2 SHL PUSH2 0x100 PUSH1 0x1 PUSH1 0xA8 SHL SUB AND SWAP3 SWAP1 SWAP3 OR SWAP1 SWAP5 SSTORE PUSH1 0x40 MLOAD SWAP5 SWAP2 SWAP1 SHR AND SWAP1 PUSH32 0x8BE0079C531659141344CD1FD0A4F28419497F9722A3DAAFE3B4186F6B6457E0 SWAP1 DUP1 LOG3 PUSH1 0xFA PUSH1 0x10 SSTORE PUSH1 0x64 PUSH1 0x11 SSTORE PUSH7 0x2386F26FC10000 PUSH1 0x13 SSTORE DUP2 ISZERO PUSH3 0x105 JUMPI POP PUSH1 0x1 DUP1 PUSH1 0xA0 SHL SUB NOT PUSH1 0x12 SLOAD AND OR PUSH1 0x12 SSTORE CALLER PUSH1 0x0 MSTORE PUSH1 0xF PUSH1 0x20 MSTORE PUSH1 0x40 PUSH1 0x0 KECCAK256 PUSH1 0x1 PUSH1 0xFF NOT DUP3 SLOAD AND OR SWAP1 SSTORE PUSH1 0x40 MLOAD PUSH2 0x45C6 SWAP1 DUP2 PUSH3 0x163 DUP3 CODECOPY RETURN JUMPDEST PUSH3 0x461BCD PUSH1 0xE5 SHL DUP2 MSTORE PUSH1 0x20 PUSH1 0x4 DUP3 ADD MSTORE PUSH1 0x15 PUSH1 0x24 DUP3 ADD MSTORE PUSH32 0x496E76616C69642066656520726563697069656E740000000000000000000000 PUSH1 0x44 DUP3 ADD MSTORE PUSH1 0x64 SWAP1 REVERT JUMPDEST PUSH1 0x0 DUP1 REVERT JUMPDEST PUSH4 0x4E487B71 PUSH1 0xE0 SHL PUSH1 0x0 MSTORE PUSH1 0x41 PUSH1 0x4 MSTORE PUSH1 0x24 PUSH1 0x0 REVERT INVALID PUSH1 0x80 PUSH1 0x40 MSTORE PUSH1 0x4 CALLDATASIZE LT ISZERO PUSH2 0x1B JUMPI JUMPDEST CALLDATASIZE ISZERO PUSH2 0x19 JUMPI PUSH1 0x0 DUP1 REVERT JUMPDEST STOP JUMPDEST PUSH1 0x0 CALLDATALOAD PUSH1 0xE0 SHR DUP1 PUSH3 0x9299E3 EQ PUSH2 0x394D JUMPI DUP1 PUSH4 0x88EFA07 EQ PUSH2 0x38E3 JUMPI DUP1 PUSH4 0xE33599D EQ PUSH2 0x35E6 JUMPI DUP1 PUSH4 0xE95D338 EQ PUSH2 0x18F9 JUMPI DUP1 PUSH4 0x107A274A EQ PUSH2 0x3418 JUMPI DUP1 PUSH4 0x12E8E2C3 EQ PUSH2 0x33B1 JUMPI DUP1 PUSH4 0x17299C04 EQ PUSH2 0x3342 JUMPI DUP1 PUSH4 0x1785F53C EQ PUSH2 0x3300 JUMPI DUP1 PUSH4 0x18D0E8B2 EQ PUSH2 0x3288 JUMPI DUP1 PUSH4 0x1F4AC129 EQ PUSH2 0x323E JUMPI DUP1 PUSH4 0x253B8CEF EQ PUSH2 0x3220 JUMPI DUP1 PUSH4 0x25F60082 EQ PUSH2 0x3202 JUMPI DUP1 PUSH4 0x26232A2E EQ PUSH2 0x31E4 JUMPI DUP1 PUSH4 0x332D56D7 EQ PUSH2 0x3126 JUMPI DUP1 PUSH4 0x33EA3DC8 EQ PUSH2 0x2F43 JUMPI DUP1 PUSH4 0x36EEB9A6 EQ PUSH2 0x2E8E JUMPI DUP1 PUSH4 0x3C6BDAB3 EQ PUSH2 0x28CC JUMPI DUP1 PUSH4 0x3F4BA83A EQ PUSH2 0x2875 JUMPI DUP1 PUSH4 0x429B62E5 EQ PUSH2 0x2836 JUMPI DUP1 PUSH4 0x46904840 EQ PUSH2 0x280D JUMPI DUP1 PUSH4 0x4D813120 EQ PUSH2 0x270B JUMPI DUP1 PUSH4 0x564A565D EQ PUSH2 0x263A JUMPI DUP1 PUSH4 0x5C975ABB EQ PUSH2 0x2617 JUMPI DUP1 PUSH4 0x70480275 EQ PUSH2 0x25D2 JUMPI DUP1 PUSH4 0x7100DC62 EQ PUSH2 0x1F32 JUMPI DUP1 PUSH4 0x715018A6 EQ PUSH2 0x1ED1 JUMPI DUP1 PUSH4 0x843CBA13 EQ PUSH2 0x1DAC JUMPI DUP1 PUSH4 0x8456CB59 EQ PUSH2 0x1D53 JUMPI DUP1 PUSH4 0x8DA5CB5B EQ PUSH2 0x1D26 JUMPI DUP1 PUSH4 0x97FBC2FB EQ PUSH2 0x1D08 JUMPI DUP1 PUSH4 0x987EE156 EQ PUSH2 0x1B85 JUMPI DUP1 PUSH4 0x990581B6 EQ PUSH2 0x1A75 JUMPI DUP1 PUSH4 0x9ACE38C2 EQ PUSH2 0x19A0 JUMPI DUP1 PUSH4 0xA60B1B4C EQ PUSH2 0x197F JUMPI DUP1 PUSH4 0xA7BA7EDC EQ PUSH2 0x1946 JUMPI DUP1 PUSH4 0xAA070FB5 EQ PUSH2 0x18F9 JUMPI DUP1 PUSH4 0xADE95202 EQ PUSH2 0x135D JUMPI DUP1 PUSH4 0xB5C604FF EQ PUSH2 0x133F JUMPI DUP1 PUSH4 0xB842EC44 EQ PUSH2 0x12E7 JUMPI DUP1 PUSH4 0xB9CE896B EQ PUSH2 0x12C9 JUMPI DUP1 PUSH4 0xD6895DB2 EQ PUSH2 0x1279 JUMPI DUP1 PUSH4 0xDA165DDB EQ PUSH2 0xD3E JUMPI DUP1 PUSH4 0xDB2E21BC EQ PUSH2 0xCE3 JUMPI DUP1 PUSH4 0xDE74E57B EQ PUSH2 0xBFD JUMPI DUP1 PUSH4 0xE3A96CBD EQ PUSH2 0xA44 JUMPI DUP1 PUSH4 0xE6282C6E EQ PUSH2 0x914 JUMPI DUP1 PUSH4 0xE74B981B EQ PUSH2 0x895 JUMPI DUP1 PUSH4 0xE83DDCEA EQ PUSH2 0x802 JUMPI DUP1 PUSH4 0xEF925399 EQ PUSH2 0x77A JUMPI DUP1 PUSH4 0xF2FDE38B EQ PUSH2 0x6A6 JUMPI DUP1 PUSH4 0xFB49EF17 EQ PUSH2 0x3D1 JUMPI DUP1 PUSH4 0xFBF30C35 EQ PUSH2 0x3B3 JUMPI PUSH4 0xFD84CB97 SUB PUSH2 0xE JUMPI CALLVALUE PUSH2 0x3AE JUMPI PUSH1 0x20 CALLDATASIZE PUSH1 0x3 NOT ADD SLT PUSH2 0x3AE JUMPI PUSH1 0x4 CALLDATALOAD PUSH2 0x282 PUSH2 0x3E99 JUMP JUMPDEST DUP1 PUSH1 0x3 SLOAD LT ISZERO DUP1 PUSH2 0x3A5 JUMPI JUMPDEST PUSH2 0x297 SWAP1 PUSH2 0x404E JUMP JUMPDEST PUSH1 0x0 DUP2 DUP2 MSTORE PUSH1 0x7 PUSH1 0x20 MSTORE PUSH1 0x40 SWAP1 KECCAK256 PUSH1 0x3 DUP2 ADD SLOAD PUSH1 0x1 PUSH1 0x1 PUSH1 0xA0 SHL SUB AND CALLER SUB PUSH2 0x36F JUMPI PUSH1 0x8 ADD SWAP1 DUP2 SLOAD PUSH1 0xFF DUP2 AND PUSH1 0x7 DUP2 LT ISZERO PUSH2 0x359 JUMPI DUP1 PUSH2 0x2E0 SWAP2 ISZERO SWAP1 DUP2 ISZERO PUSH2 0x34E JUMPI JUMPDEST POP PUSH2 0x409A JUMP JUMPDEST PUSH1 0xFF PUSH3 0x10000 PUSH3 0xFF0000 NOT DUP4 AND OR DUP1 DUP6 SSTORE PUSH1 0x40 MLOAD PUSH1 0x0 DUP2 MSTORE DUP5 PUSH32 0x48811540D7FAEFCD39140A2DFE56C4E6D976F20E7F822C59146C3425574C9DE7 PUSH1 0x20 CALLER SWAP4 LOG3 PUSH1 0x8 SHR AND ISZERO PUSH2 0x33A JUMPI POP PUSH2 0x333 SWAP2 POP PUSH2 0x413B JUMP JUMPDEST PUSH1 0x1 PUSH1 0x0 SSTORE STOP JUMPDEST PUSH3 0xFF00FF NOT AND PUSH3 0x10001 OR SWAP1 SWAP2 SSTORE POP PUSH2 0x333 JUMP JUMPDEST PUSH1 0x2 SWAP2 POP EQ CODESIZE PUSH2 0x2DA JUMP JUMPDEST PUSH4 0x4E487B71 PUSH1 0xE0 SHL PUSH1 0x0 MSTORE PUSH1 0x21 PUSH1 0x4 MSTORE PUSH1 0x24 PUSH1 0x0 REVERT JUMPDEST PUSH1 0x40 MLOAD PUSH3 0x461BCD PUSH1 0xE5 SHL DUP2 MSTORE PUSH1 0x20 PUSH1 0x4 DUP3 ADD MSTORE PUSH1 0xE PUSH1 0x24 DUP3 ADD MSTORE PUSH14 0x2737BA103A34329039B2B63632B9 PUSH1 0x91 SHL PUSH1 0x44 DUP3 ADD MSTORE PUSH1 0x64 SWAP1 REVERT JUMPDEST POP DUP1 ISZERO ISZERO PUSH2 0x28E JUMP JUMPDEST PUSH1 0x0 DUP1 REVERT JUMPDEST CALLVALUE PUSH2 0x3AE JUMPI PUSH1 0x0 CALLDATASIZE PUSH1 0x3 NOT ADD SLT PUSH2 0x3AE JUMPI PUSH1 0x20 PUSH1 0x2 SLOAD PUSH1 0x40 MLOAD SWAP1 DUP2 MSTORE RETURN JUMPDEST CALLVALUE PUSH2 0x3AE JUMPI PUSH1 0x80 CALLDATASIZE PUSH1 0x3 NOT ADD SLT PUSH2 0x3AE JUMPI PUSH1 0x1 PUSH1 0x1 PUSH1 0x40 SHL SUB PUSH1 0x4 CALLDATALOAD PUSH1 0x44 CALLDATALOAD PUSH1 0x24 CALLDATALOAD PUSH1 0x64 CALLDATALOAD DUP5 DUP2 GT PUSH2 0x3AE JUMPI PUSH2 0x40B SWAP1 CALLDATASIZE SWAP1 PUSH1 0x4 ADD PUSH2 0x3BC8 JUMP JUMPDEST DUP4 PUSH1 0x2 SLOAD LT ISZERO DUP1 PUSH2 0x69D JUMPI JUMPDEST PUSH2 0x420 SWAP1 PUSH2 0x3EEF JUMP JUMPDEST DUP4 PUSH1 0x0 MSTORE PUSH1 0x20 SWAP3 PUSH1 0x6 DUP5 MSTORE PUSH1 0x1 SWAP6 PUSH1 0x1 DUP1 PUSH1 0xA0 SHL SUB DUP8 PUSH1 0x40 PUSH1 0x0 KECCAK256 ADD SLOAD AND CALLER SUB PUSH2 0x664 JUMPI PUSH2 0x44C PUSH2 0x3E99 JUMP JUMPDEST DUP6 PUSH1 0x0 MSTORE PUSH1 0x6 DUP6 MSTORE PUSH1 0x40 PUSH1 0x0 KECCAK256 SWAP1 PUSH2 0x46D PUSH1 0xFF PUSH1 0x6 DUP5 ADD SLOAD PUSH1 0x8 SHR AND PUSH2 0x3F34 JUMP JUMPDEST DUP5 PUSH2 0x659 JUMPI JUMPDEST DUP3 PUSH2 0x64E JUMPI JUMPDEST DUP4 MLOAD DUP1 PUSH2 0x4D6 JUMPI JUMPDEST POP POP SWAP2 PUSH2 0x4CE SWAP2 PUSH32 0xD58DAEC305E21025D3C652C2A5930691B363F20BA0AB4E38E7A10D31F5BC531C SWAP6 SWAP5 SWAP4 PUSH1 0xA TIMESTAMP SWAP2 ADD SSTORE PUSH1 0x40 MLOAD SWAP5 DUP6 SWAP5 DUP6 MSTORE DUP5 ADD MSTORE PUSH1 0x60 PUSH1 0x40 DUP5 ADD MSTORE PUSH1 0x60 DUP4 ADD SWAP1 PUSH2 0x3C76 JUMP JUMPDEST SUB SWAP1 LOG2 PUSH1 0x0 SSTORE STOP JUMPDEST PUSH1 0x5 DUP4 ADD SWAP2 DUP2 GT PUSH2 0x638 JUMPI PUSH2 0x4EB DUP3 SLOAD PUSH2 0x3CE4 JUMP JUMPDEST PUSH1 0x1F DUP2 GT PUSH2 0x5EF JUMPI JUMPDEST POP DUP7 PUSH1 0x1F DUP3 GT PUSH1 0x1 EQ PUSH2 0x560 JUMPI SWAP2 DUP2 PUSH32 0xD58DAEC305E21025D3C652C2A5930691B363F20BA0AB4E38E7A10D31F5BC531C SWAP9 SWAP8 SWAP7 SWAP5 SWAP3 PUSH2 0x4CE SWAP7 SWAP5 PUSH1 0x0 SWAP2 PUSH2 0x555 JUMPI JUMPDEST POP PUSH1 0x0 NOT PUSH1 0x3 DUP4 SWAP1 SHL SHR NOT AND SWAP1 DUP12 SHL OR SWAP1 SSTORE JUMPDEST SWAP2 SWAP4 SWAP5 SWAP6 DUP2 SWAP4 POP PUSH2 0x481 JUMP JUMPDEST SWAP1 POP DUP6 ADD MLOAD DUP13 PUSH2 0x536 JUMP JUMPDEST SWAP1 DUP10 SWAP2 PUSH1 0x1F NOT DUP3 AND SWAP1 DUP5 PUSH1 0x0 MSTORE DUP10 PUSH1 0x0 KECCAK256 SWAP2 PUSH1 0x0 JUMPDEST DUP2 DUP2 LT PUSH2 0x5D8 JUMPI POP SWAP2 DUP4 SWAP2 PUSH2 0x4CE SWAP9 SWAP7 SWAP5 PUSH32 0xD58DAEC305E21025D3C652C2A5930691B363F20BA0AB4E38E7A10D31F5BC531C SWAP13 SWAP12 SWAP11 SWAP9 SWAP7 SWAP5 LT PUSH2 0x5BF JUMPI JUMPDEST POP POP DUP2 SHL ADD SWAP1 SSTORE PUSH2 0x549 JUMP JUMPDEST DUP8 ADD MLOAD PUSH1 0x0 NOT PUSH1 0xF8 DUP5 PUSH1 0x3 SHL AND SHR NOT AND SWAP1 SSTORE DUP13 DUP1 PUSH2 0x5B3 JUMP JUMPDEST DUP10 DUP4 ADD MLOAD DUP5 SSTORE DUP14 SWAP6 SWAP1 SWAP4 ADD SWAP3 SWAP2 DUP12 ADD SWAP2 DUP12 ADD PUSH2 0x575 JUMP JUMPDEST DUP3 PUSH1 0x0 MSTORE DUP8 PUSH1 0x0 KECCAK256 PUSH1 0x1F DUP4 ADD PUSH1 0x5 SHR DUP2 ADD SWAP2 DUP10 DUP5 LT PUSH2 0x62E JUMPI JUMPDEST PUSH1 0x1F ADD PUSH1 0x5 SHR ADD SWAP1 DUP11 SWAP1 JUMPDEST DUP3 DUP2 LT PUSH2 0x622 JUMPI POP POP PUSH2 0x4F4 JUMP JUMPDEST PUSH1 0x0 DUP2 SSTORE ADD DUP11 SWAP1 PUSH2 0x614 JUMP JUMPDEST SWAP1 SWAP2 POP DUP2 SWAP1 PUSH2 0x609 JUMP JUMPDEST PUSH4 0x4E487B71 PUSH1 0xE0 SHL PUSH1 0x0 MSTORE PUSH1 0x41 PUSH1 0x4 MSTORE PUSH1 0x24 PUSH1 0x0 REVERT JUMPDEST DUP3 PUSH1 0x4 DUP4 ADD SSTORE PUSH2 0x479 JUMP JUMPDEST DUP5 PUSH1 0x3 DUP4 ADD SSTORE PUSH2 0x473 JUMP JUMPDEST PUSH1 0x40 MLOAD PUSH3 0x461BCD PUSH1 0xE5 SHL DUP2 MSTORE PUSH1 0x4 DUP2 ADD DUP7 SWAP1 MSTORE PUSH1 0x11 PUSH1 0x24 DUP3 ADD MSTORE PUSH17 0x2737BA103634B9BA34B7339037BBB732B9 PUSH1 0x79 SHL PUSH1 0x44 DUP3 ADD MSTORE PUSH1 0x64 SWAP1 REVERT JUMPDEST POP DUP4 ISZERO ISZERO PUSH2 0x417 JUMP JUMPDEST CALLVALUE PUSH2 0x3AE JUMPI PUSH1 0x20 CALLDATASIZE PUSH1 0x3 NOT ADD SLT PUSH2 0x3AE JUMPI PUSH2 0x6BF PUSH2 0x3C60 JUMP JUMPDEST PUSH2 0x6C7 PUSH2 0x3DEB JUMP JUMPDEST PUSH1 0x1 PUSH1 0x1 PUSH1 0xA0 SHL SUB DUP2 DUP2 AND SWAP2 DUP3 ISZERO PUSH2 0x726 JUMPI PUSH1 0x1 DUP1 SLOAD PUSH2 0x100 PUSH1 0x1 PUSH1 0xA8 SHL SUB NOT DUP2 AND PUSH1 0x8 SWAP4 DUP5 SHL PUSH2 0x100 PUSH1 0x1 PUSH1 0xA8 SHL SUB AND OR SWAP1 SWAP2 SSTORE SWAP1 SHR AND PUSH32 0x8BE0079C531659141344CD1FD0A4F28419497F9722A3DAAFE3B4186F6B6457E0 PUSH1 0x0 DUP1 LOG3 STOP JUMPDEST PUSH1 0x40 MLOAD PUSH3 0x461BCD PUSH1 0xE5 SHL DUP2 MSTORE PUSH1 0x20 PUSH1 0x4 DUP3 ADD MSTORE PUSH1 0x26 PUSH1 0x24 DUP3 ADD MSTORE PUSH32 0x4F776E61626C653A206E6577206F776E657220697320746865207A65726F2061 PUSH1 0x44 DUP3 ADD MSTORE PUSH6 0x646472657373 PUSH1 0xD0 SHL PUSH1 0x64 DUP3 ADD MSTORE PUSH1 0x84 SWAP1 REVERT JUMPDEST CALLVALUE PUSH2 0x3AE JUMPI PUSH1 0x20 DUP1 PUSH1 0x3 NOT CALLDATASIZE ADD SLT PUSH2 0x3AE JUMPI PUSH1 0x1 PUSH1 0x1 PUSH1 0xA0 SHL SUB PUSH2 0x79C PUSH2 0x3C60 JUMP JUMPDEST AND PUSH1 0x0 MSTORE PUSH1 0xC DUP2 MSTORE PUSH1 0x40 PUSH1 0x0 KECCAK256 SWAP1 PUSH1 0x40 MLOAD SWAP1 DUP2 DUP2 DUP5 SLOAD SWAP2 DUP3 DUP2 MSTORE ADD SWAP4 PUSH1 0x0 MSTORE DUP2 PUSH1 0x0 KECCAK256 SWAP2 PUSH1 0x0 SWAP1 JUMPDEST DUP3 DUP3 LT PUSH2 0x7EB JUMPI PUSH2 0x7E7 DUP6 PUSH2 0x7DB DUP2 DUP10 SUB DUP3 PUSH2 0x3B8C JUMP JUMPDEST PUSH1 0x40 MLOAD SWAP2 DUP3 SWAP2 DUP3 PUSH2 0x3C0F JUMP JUMPDEST SUB SWAP1 RETURN JUMPDEST DUP4 SLOAD DUP7 MSTORE SWAP5 DUP6 ADD SWAP5 PUSH1 0x1 SWAP4 DUP5 ADD SWAP4 SWAP1 SWAP2 ADD SWAP1 PUSH2 0x7C4 JUMP JUMPDEST CALLVALUE PUSH2 0x3AE JUMPI PUSH1 0x20 CALLDATASIZE PUSH1 0x3 NOT ADD SLT PUSH2 0x3AE JUMPI PUSH1 0x4 CALLDATALOAD PUSH1 0x0 MSTORE PUSH1 0x9 PUSH1 0x20 MSTORE PUSH1 0x40 PUSH1 0x0 KECCAK256 DUP1 SLOAD PUSH1 0x1 DUP3 ADD SLOAD SWAP2 PUSH2 0x88B PUSH1 0x1 DUP1 PUSH1 0xA0 SHL SUB SWAP2 PUSH1 0xFF DUP4 PUSH1 0x2 DUP4 ADD SLOAD AND SWAP4 PUSH1 0x3 DUP4 ADD SLOAD SWAP1 PUSH1 0x5 PUSH2 0x854 PUSH1 0x4 DUP7 ADD PUSH2 0x3D1E JUMP JUMPDEST SWAP5 ADD SLOAD SWAP6 PUSH1 0x40 MLOAD SWAP9 DUP10 SWAP9 DUP10 MSTORE PUSH1 0x20 DUP10 ADD MSTORE PUSH1 0x40 DUP9 ADD MSTORE DUP2 AND PUSH1 0x60 DUP8 ADD MSTORE PUSH1 0xA0 SHR AND PUSH1 0x80 DUP6 ADD MSTORE PUSH1 0xE0 PUSH1 0xA0 DUP6 ADD MSTORE PUSH1 0xE0 DUP5 ADD SWAP1 PUSH2 0x3C76 JUMP JUMPDEST SWAP1 PUSH1 0xC0 DUP4 ADD MSTORE SUB SWAP1 RETURN JUMPDEST CALLVALUE PUSH2 0x3AE JUMPI PUSH1 0x20 CALLDATASIZE PUSH1 0x3 NOT ADD SLT PUSH2 0x3AE JUMPI PUSH2 0x8AE PUSH2 0x3C60 JUMP JUMPDEST PUSH2 0x8B6 PUSH2 0x3DEB JUMP JUMPDEST PUSH1 0x1 PUSH1 0x1 PUSH1 0xA0 SHL SUB AND DUP1 ISZERO PUSH2 0x8DD JUMPI PUSH1 0x1 PUSH1 0x1 PUSH1 0x60 SHL SUB PUSH1 0xA0 SHL PUSH1 0x12 SLOAD AND OR PUSH1 0x12 SSTORE PUSH1 0x0 DUP1 RETURN JUMPDEST PUSH1 0x40 MLOAD PUSH3 0x461BCD PUSH1 0xE5 SHL DUP2 MSTORE PUSH1 0x20 PUSH1 0x4 DUP3 ADD MSTORE PUSH1 0xF PUSH1 0x24 DUP3 ADD MSTORE PUSH15 0x496E76616C69642061646472657373 PUSH1 0x88 SHL PUSH1 0x44 DUP3 ADD MSTORE PUSH1 0x64 SWAP1 REVERT JUMPDEST CALLVALUE PUSH2 0x3AE JUMPI PUSH1 0x20 CALLDATASIZE PUSH1 0x3 NOT ADD SLT PUSH2 0x3AE JUMPI PUSH1 0x4 CALLDATALOAD DUP1 PUSH1 0x2 SLOAD LT ISZERO DUP1 PUSH2 0xA3B JUMPI JUMPDEST PUSH2 0x93D SWAP1 PUSH2 0x3EEF JUMP JUMPDEST PUSH2 0x945 PUSH2 0x3E99 JUMP JUMPDEST PUSH1 0x0 DUP2 DUP2 MSTORE PUSH1 0x6 PUSH1 0x20 MSTORE PUSH1 0x40 SWAP1 KECCAK256 PUSH1 0x1 DUP2 ADD SLOAD PUSH2 0x97E SWAP1 CALLER PUSH1 0x1 PUSH1 0x1 PUSH1 0xA0 SHL SUB SWAP2 DUP3 AND EQ SWAP1 DUP2 ISZERO PUSH2 0xA21 JUMPI JUMPDEST DUP2 ISZERO PUSH2 0xA10 JUMPI JUMPDEST POP PUSH2 0x3F75 JUMP JUMPDEST PUSH1 0x6 DUP2 ADD DUP1 SLOAD PUSH1 0xFF DUP2 PUSH1 0x8 SHR AND ISZERO PUSH2 0x9CB JUMPI PUSH2 0xFF00 NOT AND SWAP1 SSTORE PUSH1 0xA TIMESTAMP SWAP2 ADD SSTORE CALLER SWAP1 PUSH32 0x5832F888AEA12CC23BD891F2D9FD4BD01B8CE0E22898B6E7CEE1519F5BD46954 PUSH1 0x0 DUP1 LOG3 PUSH1 0x1 PUSH1 0x0 SSTORE STOP JUMPDEST PUSH1 0x40 MLOAD PUSH3 0x461BCD PUSH1 0xE5 SHL DUP2 MSTORE PUSH1 0x20 PUSH1 0x4 DUP3 ADD MSTORE PUSH1 0x18 PUSH1 0x24 DUP3 ADD MSTORE PUSH32 0x4C697374696E6720616C726561647920696E6163746976650000000000000000 PUSH1 0x44 DUP3 ADD MSTORE PUSH1 0x64 SWAP1 REVERT JUMPDEST SWAP1 POP PUSH1 0x1 SLOAD PUSH1 0x8 SHR AND CALLER EQ DUP5 PUSH2 0x978 JUMP JUMPDEST SWAP1 POP CALLER PUSH1 0x0 MSTORE PUSH1 0xF PUSH1 0x20 MSTORE PUSH1 0xFF PUSH1 0x40 PUSH1 0x0 KECCAK256 SLOAD AND SWAP1 PUSH2 0x971 JUMP JUMPDEST POP DUP1 ISZERO ISZERO PUSH2 0x934 JUMP JUMPDEST CALLVALUE PUSH2 0x3AE JUMPI PUSH1 0x20 CALLDATASIZE PUSH1 0x3 NOT ADD SLT PUSH2 0x3AE JUMPI PUSH1 0x0 PUSH2 0x120 PUSH1 0x40 MLOAD PUSH2 0xA66 DUP2 PUSH2 0x3B70 JUMP JUMPDEST DUP3 DUP2 MSTORE DUP3 PUSH1 0x20 DUP3 ADD MSTORE DUP3 PUSH1 0x40 DUP3 ADD MSTORE DUP3 PUSH1 0x60 DUP3 ADD MSTORE PUSH1 0x60 PUSH1 0x80 DUP3 ADD MSTORE PUSH1 0x60 PUSH1 0xA0 DUP3 ADD MSTORE DUP3 PUSH1 0xC0 DUP3 ADD MSTORE DUP3 PUSH1 0xE0 DUP3 ADD MSTORE DUP3 PUSH2 0x100 DUP3 ADD MSTORE ADD MSTORE PUSH1 0x4 CALLDATALOAD PUSH1 0x0 MSTORE PUSH1 0x8 PUSH1 0x20 MSTORE PUSH1 0x40 PUSH1 0x0 KECCAK256 PUSH1 0x40 MLOAD SWAP1 PUSH2 0xABB DUP3 PUSH2 0x3B70 JUMP JUMPDEST DUP1 SLOAD DUP3 MSTORE PUSH1 0x1 DUP2 ADD SLOAD PUSH1 0x20 DUP4 ADD MSTORE PUSH1 0x2 DUP2 ADD SLOAD PUSH1 0x1 PUSH1 0x1 PUSH1 0xA0 SHL SUB SWAP1 DUP2 AND PUSH1 0x40 DUP5 ADD MSTORE PUSH1 0x3 DUP3 ADD SLOAD AND PUSH1 0x60 DUP4 ADD MSTORE PUSH2 0xAF5 PUSH1 0x4 DUP3 ADD PUSH2 0x3D1E JUMP JUMPDEST PUSH1 0x80 DUP4 ADD MSTORE PUSH2 0xB06 PUSH1 0x5 DUP3 ADD PUSH2 0x3D1E JUMP JUMPDEST PUSH1 0xA0 DUP4 ADD MSTORE PUSH1 0x6 DUP2 ADD SLOAD SWAP1 PUSH1 0xFF DUP3 AND SWAP2 PUSH1 0x3 DUP4 LT ISZERO PUSH2 0x359 JUMPI PUSH1 0x8 SWAP3 PUSH1 0xC0 DUP6 ADD MSTORE PUSH1 0x1 DUP1 PUSH1 0xA0 SHL SUB SWAP1 DUP4 SHR AND PUSH1 0xE0 DUP5 ADD MSTORE PUSH1 0x7 DUP2 ADD SLOAD PUSH2 0x100 DUP5 ADD MSTORE ADD SLOAD PUSH2 0x120 DUP3 ADD MSTORE PUSH1 0x40 MLOAD DUP1 SWAP2 PUSH1 0x20 DUP3 MSTORE DUP1 MLOAD PUSH1 0x20 DUP4 ADD MSTORE PUSH1 0x20 DUP2 ADD MLOAD PUSH1 0x40 DUP4 ADD MSTORE PUSH1 0x1 DUP1 PUSH1 0xA0 SHL SUB PUSH1 0x40 DUP3 ADD MLOAD AND PUSH1 0x60 DUP4 ADD MSTORE PUSH1 0x1 DUP1 PUSH1 0xA0 SHL SUB PUSH1 0x60 DUP3 ADD MLOAD AND PUSH1 0x80 DUP4 ADD MSTORE PUSH1 0x80 DUP2 ADD MLOAD PUSH2 0x120 PUSH2 0xBC1 PUSH2 0xBAB PUSH2 0x140 SWAP4 DUP5 PUSH1 0xA0 DUP9 ADD MSTORE PUSH2 0x160 DUP8 ADD SWAP1 PUSH2 0x3C76 JUMP JUMPDEST PUSH1 0xA0 DUP6 ADD MLOAD DUP7 DUP3 SUB PUSH1 0x1F NOT ADD PUSH1 0xC0 DUP9 ADD MSTORE PUSH2 0x3C76 JUMP JUMPDEST SWAP3 PUSH2 0xBD4 PUSH1 0xC0 DUP3 ADD MLOAD PUSH1 0xE0 DUP8 ADD SWAP1 PUSH2 0x3DDE JUMP JUMPDEST PUSH1 0xE0 DUP2 ADD MLOAD PUSH1 0x1 PUSH1 0x1 PUSH1 0xA0 SHL SUB AND PUSH2 0x100 DUP7 DUP2 ADD SWAP2 SWAP1 SWAP2 MSTORE DUP2 ADD MLOAD DUP3 DUP7 ADD MSTORE ADD MLOAD SWAP1 DUP4 ADD MSTORE SUB SWAP1 RETURN JUMPDEST CALLVALUE PUSH2 0x3AE JUMPI PUSH1 0x20 CALLDATASIZE PUSH1 0x3 NOT ADD SLT PUSH2 0x3AE JUMPI PUSH1 0x4 CALLDATALOAD PUSH1 0x0 MSTORE PUSH1 0x6 PUSH1 0x20 MSTORE PUSH1 0x20 PUSH1 0x40 PUSH1 0x0 KECCAK256 DUP1 SLOAD SWAP1 PUSH1 0x1 DUP1 PUSH1 0xA0 SHL SUB PUSH1 0x1 DUP3 ADD SLOAD AND PUSH2 0xC3C PUSH1 0x2 DUP4 ADD PUSH2 0x3D1E JUMP JUMPDEST SWAP2 PUSH1 0x3 DUP2 ADD SLOAD SWAP3 PUSH1 0x4 DUP3 ADD SLOAD PUSH1 0xFF PUSH2 0xCB1 PUSH2 0xC59 PUSH1 0x5 DUP7 ADD PUSH2 0x3D1E JUMP JUMPDEST SWAP7 PUSH1 0x6 DUP7 ADD SLOAD SWAP8 PUSH1 0x7 DUP8 ADD SLOAD SWAP5 PUSH2 0xC99 PUSH1 0x8 DUP10 ADD SLOAD SWAP8 PUSH1 0xA PUSH1 0x9 DUP12 ADD SLOAD SWAP11 ADD SLOAD SWAP11 PUSH1 0x40 MLOAD SWAP15 DUP16 SWAP15 DUP16 SWAP1 DUP2 MSTORE ADD MSTORE PUSH1 0x40 DUP14 PUSH2 0x180 SWAP2 DUP3 SWAP2 ADD MSTORE DUP14 ADD SWAP1 PUSH2 0x3C76 JUMP JUMPDEST SWAP3 PUSH1 0x60 DUP13 ADD MSTORE PUSH1 0x80 DUP12 ADD MSTORE DUP10 DUP3 SUB PUSH1 0xA0 DUP12 ADD MSTORE PUSH2 0x3C76 JUMP JUMPDEST SWAP6 DUP2 DUP2 AND ISZERO ISZERO PUSH1 0xC0 DUP10 ADD MSTORE PUSH1 0x8 SHR AND ISZERO ISZERO PUSH1 0xE0 DUP8 ADD MSTORE PUSH2 0x100 DUP7 ADD MSTORE PUSH2 0x120 DUP6 ADD MSTORE PUSH2 0x140 DUP5 ADD MSTORE PUSH2 0x160 DUP4 ADD MSTORE SUB SWAP1 RETURN JUMPDEST CALLVALUE PUSH2 0x3AE JUMPI PUSH1 0x0 CALLDATASIZE PUSH1 0x3 NOT ADD SLT PUSH2 0x3AE JUMPI PUSH2 0xCFC PUSH2 0x3DEB JUMP JUMPDEST PUSH2 0xD04 PUSH2 0x4547 JUMP JUMPDEST PUSH1 0x0 DUP1 DUP1 DUP1 PUSH1 0x1 DUP1 PUSH1 0xA0 SHL SUB PUSH1 0x1 SLOAD PUSH1 0x8 SHR AND SELFBALANCE SWAP1 DUP3 DUP3 ISZERO PUSH2 0xD35 JUMPI JUMPDEST CALL ISZERO PUSH2 0xD29 JUMPI STOP JUMPDEST PUSH1 0x40 MLOAD RETURNDATASIZE PUSH1 0x0 DUP3 RETURNDATACOPY RETURNDATASIZE SWAP1 REVERT JUMPDEST POP PUSH2 0x8FC PUSH2 0xD21 JUMP JUMPDEST PUSH1 0x20 CALLDATASIZE PUSH1 0x3 NOT ADD SLT PUSH2 0x3AE JUMPI PUSH2 0xD52 PUSH2 0x3E55 JUMP JUMPDEST PUSH2 0xD5A PUSH2 0x3E99 JUMP JUMPDEST PUSH1 0x4 CALLDATALOAD PUSH1 0x2 SLOAD LT ISZERO DUP1 PUSH2 0x126E JUMPI JUMPDEST PUSH2 0xD71 SWAP1 PUSH2 0x3EEF JUMP JUMPDEST PUSH1 0x4 CALLDATALOAD PUSH1 0x0 MSTORE PUSH1 0x6 PUSH1 0x20 MSTORE PUSH1 0x40 PUSH1 0x0 KECCAK256 PUSH2 0xE2C PUSH1 0x40 MLOAD SWAP2 PUSH2 0xD91 DUP4 PUSH2 0x3B1D JUMP JUMPDEST DUP1 SLOAD DUP4 MSTORE PUSH1 0x1 DUP2 ADD SLOAD PUSH1 0x1 PUSH1 0x1 PUSH1 0xA0 SHL SUB AND PUSH1 0x20 DUP5 ADD MSTORE PUSH2 0xDB4 PUSH1 0x2 DUP3 ADD PUSH2 0x3D1E JUMP JUMPDEST PUSH1 0x40 DUP5 ADD MSTORE PUSH1 0x3 DUP2 ADD SLOAD PUSH1 0x60 DUP5 ADD MSTORE PUSH1 0x4 DUP2 ADD SLOAD PUSH1 0x80 DUP5 ADD MSTORE PUSH2 0xDD9 PUSH1 0x5 DUP3 ADD PUSH2 0x3D1E JUMP JUMPDEST PUSH1 0xA0 DUP5 ADD MSTORE PUSH1 0xA PUSH1 0xFF PUSH1 0x6 DUP4 ADD SLOAD DUP2 DUP2 AND ISZERO ISZERO PUSH1 0xC0 DUP8 ADD MSTORE PUSH1 0x8 SHR AND ISZERO ISZERO SWAP2 DUP3 PUSH1 0xE0 DUP7 ADD MSTORE PUSH1 0x7 DUP2 ADD SLOAD PUSH2 0x100 DUP7 ADD MSTORE PUSH1 0x8 DUP2 ADD SLOAD PUSH2 0x120 DUP7 ADD MSTORE PUSH1 0x9 DUP2 ADD SLOAD PUSH2 0x140 DUP7 ADD MSTORE ADD SLOAD PUSH2 0x160 DUP5 ADD MSTORE PUSH2 0x3F34 JUMP JUMPDEST PUSH1 0x20 DUP2 ADD MLOAD PUSH1 0x1 PUSH1 0x1 PUSH1 0xA0 SHL SUB AND CALLER EQ PUSH2 0x1230 JUMPI PUSH1 0xC0 DUP2 ADD MLOAD ISZERO PUSH2 0x1225 JUMPI PUSH2 0xE5D PUSH1 0x60 DUP3 ADD MLOAD PUSH1 0x80 DUP4 ADD MLOAD SWAP1 PUSH2 0x3FB2 JUMP JUMPDEST SWAP1 JUMPDEST DUP2 CALLVALUE LT PUSH2 0x11E9 JUMPI PUSH1 0x1 PUSH1 0x3 SLOAD ADD SWAP1 DUP2 PUSH1 0x3 SSTORE PUSH1 0x1 DUP1 PUSH1 0xA0 SHL SUB PUSH1 0x20 DUP3 ADD MLOAD AND PUSH1 0xC0 DUP3 ADD MLOAD ISZERO ISZERO DUP1 PUSH1 0x0 EQ PUSH2 0x11E1 JUMPI PUSH1 0x1 SWAP1 JUMPDEST PUSH1 0x60 DUP5 ADD MLOAD SWAP1 ISZERO PUSH2 0x11D6 JUMPI PUSH2 0xED2 PUSH1 0x80 DUP6 ADD MLOAD SWAP3 JUMPDEST PUSH1 0x40 MLOAD SWAP5 PUSH2 0xEB3 DUP7 PUSH2 0x3B39 JUMP JUMPDEST DUP8 DUP7 MSTORE PUSH1 0x4 CALLDATALOAD PUSH1 0x20 DUP8 ADD MSTORE CALLER PUSH1 0x40 DUP8 ADD MSTORE PUSH1 0x60 DUP7 ADD MSTORE PUSH1 0x80 DUP6 ADD PUSH2 0x3FBF JUMP JUMPDEST PUSH1 0xA0 DUP4 ADD MSTORE PUSH1 0xC0 DUP3 ADD MSTORE TIMESTAMP PUSH1 0xE0 DUP3 ADD MSTORE PUSH1 0x0 PUSH2 0x100 DUP3 ADD MSTORE PUSH1 0x0 PUSH2 0x120 DUP3 ADD MSTORE PUSH1 0x0 PUSH2 0x140 DUP3 ADD MSTORE PUSH1 0x0 PUSH2 0x160 DUP3 ADD MSTORE DUP4 PUSH2 0x180 DUP3 ADD MSTORE DUP3 PUSH1 0x0 MSTORE PUSH1 0x7 PUSH1 0x20 MSTORE PUSH1 0x40 PUSH1 0x0 KECCAK256 SWAP1 DUP1 MLOAD DUP3 SSTORE PUSH1 0x20 DUP2 ADD MLOAD PUSH1 0x1 DUP4 ADD SSTORE PUSH1 0x2 DUP3 ADD PUSH1 0x1 DUP1 PUSH1 0xA0 SHL SUB PUSH1 0x40 DUP4 ADD MLOAD AND PUSH1 0x1 PUSH1 0x1 PUSH1 0x60 SHL SUB PUSH1 0xA0 SHL DUP3 SLOAD AND OR SWAP1 SSTORE PUSH1 0x3 DUP3 ADD PUSH1 0x1 DUP1 PUSH1 0xA0 SHL SUB PUSH1 0x60 DUP4 ADD MLOAD AND DUP2 SLOAD SWAP1 PUSH1 0x80 DUP5 ADD MLOAD PUSH1 0x2 DUP2 LT ISZERO PUSH2 0x359 JUMPI PUSH1 0xFF PUSH1 0xA0 SHL SWAP1 PUSH1 0xA0 SHL AND SWAP2 PUSH11 0xFFFFFFFFFFFFFFFFFFFFFF PUSH1 0xA8 SHL AND OR OR SWAP1 SSTORE PUSH1 0xA0 DUP2 ADD MLOAD PUSH1 0x4 DUP4 ADD SSTORE PUSH1 0xC0 DUP2 ADD MLOAD PUSH1 0x5 DUP4 ADD SSTORE PUSH1 0xE0 DUP2 ADD MLOAD PUSH1 0x6 DUP4 ADD SSTORE PUSH2 0x100 DUP2 ADD MLOAD PUSH1 0x7 DUP4 ADD SSTORE PUSH1 0x8 DUP3 ADD SWAP1 PUSH2 0x120 DUP2 ADD MLOAD SWAP1 PUSH1 0x7 DUP3 LT ISZERO PUSH2 0x359 JUMPI DUP3 SLOAD PUSH2 0x140 DUP3 ADD MLOAD PUSH2 0xFF00 SWAP1 ISZERO ISZERO PUSH1 0x8 SHL AND PUSH1 0xFF SWAP4 SWAP1 SWAP4 AND PUSH2 0xFFFF NOT SWAP1 SWAP2 AND OR SWAP2 SWAP1 SWAP2 OR DUP3 SSTORE PUSH1 0x9 SWAP2 PUSH2 0x180 SWAP2 SWAP1 PUSH2 0x160 DUP3 ADD MLOAD ISZERO ISZERO PUSH3 0xFF0000 DUP3 SLOAD SWAP2 PUSH1 0x10 SHL AND SWAP1 PUSH3 0xFF0000 NOT AND OR SWAP1 SSTORE ADD MLOAD SWAP2 ADD SSTORE PUSH1 0x4 CALLDATALOAD PUSH1 0x0 MSTORE PUSH1 0xB PUSH1 0x20 MSTORE PUSH2 0x1030 DUP3 PUSH1 0x40 PUSH1 0x0 KECCAK256 PUSH2 0x3FD7 JUMP JUMPDEST CALLER PUSH1 0x0 MSTORE PUSH1 0xC PUSH1 0x20 MSTORE PUSH2 0x1047 DUP3 PUSH1 0x40 PUSH1 0x0 KECCAK256 PUSH2 0x3FD7 JUMP JUMPDEST PUSH1 0x1 DUP1 PUSH1 0xA0 SHL SUB PUSH1 0x20 DUP3 ADD MLOAD AND PUSH1 0x0 MSTORE PUSH1 0xC PUSH1 0x20 MSTORE PUSH2 0x106A DUP3 PUSH1 0x40 PUSH1 0x0 KECCAK256 PUSH2 0x3FD7 JUMP JUMPDEST CALLER PUSH1 0x0 SWAP1 DUP2 MSTORE PUSH1 0xA PUSH1 0x20 MSTORE PUSH1 0x40 SWAP1 KECCAK256 SLOAD PUSH1 0x1 PUSH1 0x1 PUSH1 0xA0 SHL SUB AND ISZERO PUSH2 0x11C8 JUMPI JUMPDEST PUSH1 0x20 DUP2 DUP2 ADD MLOAD PUSH1 0x1 PUSH1 0x1 PUSH1 0xA0 SHL SUB SWAP1 DUP2 AND PUSH1 0x0 SWAP1 DUP2 MSTORE PUSH1 0xA SWAP1 SWAP3 MSTORE PUSH1 0x40 SWAP1 SWAP2 KECCAK256 SLOAD AND ISZERO PUSH2 0x11AC JUMPI JUMPDEST DUP3 CALLVALUE GT PUSH2 0x1158 JUMPI JUMPDEST PUSH1 0xFF PUSH1 0x20 SWAP4 PUSH1 0xC0 DUP4 ADD MLOAD ISZERO PUSH2 0x1138 JUMPI JUMPDEST DUP5 DUP4 ADD MLOAD PUSH1 0xC0 SWAP1 SWAP4 ADD MLOAD PUSH1 0x1 PUSH1 0x1 PUSH1 0xA0 SHL SUB SWAP1 SWAP4 AND SWAP3 ISZERO PUSH2 0x1130 JUMPI PUSH1 0x1 SWAP1 JUMPDEST PUSH1 0x40 MLOAD SWAP4 DUP5 MSTORE DUP6 DUP5 ADD MSTORE AND PUSH1 0x40 DUP3 ADD MSTORE CALLER SWAP1 DUP3 PUSH32 0x10E80A6583A36B89B60B030B8FAA55077A2F7BF0C58A8EB95BFA1240E413E540 PUSH1 0x60 PUSH1 0x4 CALLDATALOAD SWAP4 LOG4 PUSH1 0x1 PUSH1 0x0 SSTORE PUSH1 0x40 MLOAD SWAP1 DUP2 MSTORE RETURN JUMPDEST PUSH1 0x0 SWAP1 PUSH2 0x10E8 JUMP JUMPDEST PUSH1 0x4 CALLDATALOAD PUSH1 0x0 MSTORE PUSH1 0x6 DUP6 MSTORE PUSH1 0x6 PUSH1 0x40 PUSH1 0x0 KECCAK256 ADD PUSH2 0xFF00 NOT DUP2 SLOAD AND SWAP1 SSTORE PUSH2 0x10C9 JUMP JUMPDEST PUSH1 0x0 DUP1 DUP1 DUP1 PUSH2 0x1167 DUP8 CALLVALUE PUSH2 0x4011 JUMP JUMPDEST CALLER GAS CALL PUSH2 0x1172 PUSH2 0x401E JUMP JUMPDEST POP PUSH2 0x10B9 JUMPI PUSH1 0x40 MLOAD PUSH3 0x461BCD PUSH1 0xE5 SHL DUP2 MSTORE PUSH1 0x20 PUSH1 0x4 DUP3 ADD MSTORE PUSH1 0xD PUSH1 0x24 DUP3 ADD MSTORE PUSH13 0x1499599D5B990819985A5B1959 PUSH1 0x9A SHL PUSH1 0x44 DUP3 ADD MSTORE PUSH1 0x64 SWAP1 REVERT JUMPDEST PUSH1 0x20 DUP2 ADD MLOAD PUSH2 0x11C3 SWAP1 PUSH1 0x1 PUSH1 0x1 PUSH1 0xA0 SHL SUB AND PUSH2 0x4324 JUMP JUMPDEST PUSH2 0x10B1 JUMP JUMPDEST PUSH2 0x11D1 CALLER PUSH2 0x4324 JUMP JUMPDEST PUSH2 0x1089 JUMP JUMPDEST PUSH2 0xED2 PUSH1 0x0 SWAP3 PUSH2 0xEA6 JUMP JUMPDEST PUSH1 0x0 SWAP1 PUSH2 0xE91 JUMP JUMPDEST PUSH1 0x40 MLOAD PUSH3 0x461BCD PUSH1 0xE5 SHL DUP2 MSTORE PUSH1 0x20 PUSH1 0x4 DUP3 ADD MSTORE PUSH1 0x14 PUSH1 0x24 DUP3 ADD MSTORE PUSH20 0x125B9CDD59999A58DA595B9D081C185E5B595B9D PUSH1 0x62 SHL PUSH1 0x44 DUP3 ADD MSTORE PUSH1 0x64 SWAP1 REVERT JUMPDEST PUSH1 0x60 DUP2 ADD MLOAD SWAP1 PUSH2 0xE5F JUMP JUMPDEST PUSH1 0x40 MLOAD PUSH3 0x461BCD PUSH1 0xE5 SHL DUP2 MSTORE PUSH1 0x20 PUSH1 0x4 DUP3 ADD MSTORE PUSH1 0x16 PUSH1 0x24 DUP3 ADD MSTORE PUSH22 0x43616E6E6F7420627579206F776E206C697374696E67 PUSH1 0x50 SHL PUSH1 0x44 DUP3 ADD MSTORE PUSH1 0x64 SWAP1 REVERT JUMPDEST POP PUSH1 0x4 CALLDATALOAD ISZERO ISZERO PUSH2 0xD68 JUMP JUMPDEST CALLVALUE PUSH2 0x3AE JUMPI PUSH1 0x20 CALLDATASIZE PUSH1 0x3 NOT ADD SLT PUSH2 0x3AE JUMPI PUSH1 0x4 CALLDATALOAD DUP1 PUSH1 0x2 SLOAD LT ISZERO DUP1 PUSH2 0x12C0 JUMPI JUMPDEST PUSH2 0x12A2 SWAP1 PUSH2 0x3EEF JUMP JUMPDEST PUSH1 0x0 MSTORE PUSH1 0x6 PUSH1 0x20 MSTORE PUSH1 0x7 PUSH1 0x40 PUSH1 0x0 KECCAK256 ADD PUSH2 0x12BC DUP2 SLOAD PUSH2 0x3E46 JUMP JUMPDEST SWAP1 SSTORE STOP JUMPDEST POP DUP1 ISZERO ISZERO PUSH2 0x1299 JUMP JUMPDEST CALLVALUE PUSH2 0x3AE JUMPI PUSH1 0x0 CALLDATASIZE PUSH1 0x3 NOT ADD SLT PUSH2 0x3AE JUMPI PUSH1 0x20 PUSH1 0x11 SLOAD PUSH1 0x40 MLOAD SWAP1 DUP2 MSTORE RETURN JUMPDEST CALLVALUE PUSH2 0x3AE JUMPI PUSH1 0x40 CALLDATASIZE PUSH1 0x3 NOT ADD SLT PUSH2 0x3AE JUMPI PUSH2 0x1300 PUSH2 0x3C60 JUMP JUMPDEST PUSH1 0x1 PUSH1 0x1 PUSH1 0xA0 SHL SUB AND PUSH1 0x0 SWAP1 DUP2 MSTORE PUSH1 0xC PUSH1 0x20 MSTORE PUSH1 0x40 SWAP1 KECCAK256 DUP1 SLOAD PUSH1 0x24 CALLDATALOAD SWAP2 SWAP1 DUP3 LT ISZERO PUSH2 0x3AE JUMPI PUSH1 0x20 SWAP2 PUSH2 0x1331 SWAP2 PUSH2 0x3CB6 JUMP JUMPDEST SWAP1 SLOAD PUSH1 0x40 MLOAD SWAP2 PUSH1 0x3 SHL SHR DUP2 MSTORE RETURN JUMPDEST CALLVALUE PUSH2 0x3AE JUMPI PUSH1 0x0 CALLDATASIZE PUSH1 0x3 NOT ADD SLT PUSH2 0x3AE JUMPI PUSH1 0x20 PUSH1 0x3 SLOAD PUSH1 0x40 MLOAD SWAP1 DUP2 MSTORE RETURN JUMPDEST CALLVALUE PUSH2 0x3AE JUMPI PUSH1 0xA0 CALLDATASIZE PUSH1 0x3 NOT ADD SLT PUSH2 0x3AE JUMPI PUSH1 0x4 CALLDATALOAD PUSH1 0x1 PUSH1 0x1 PUSH1 0x40 SHL SUB DUP2 GT PUSH2 0x3AE JUMPI PUSH2 0x138D SWAP1 CALLDATASIZE SWAP1 PUSH1 0x4 ADD PUSH2 0x3BC8 JUMP JUMPDEST PUSH1 0x64 CALLDATALOAD PUSH1 0x1 PUSH1 0x1 PUSH1 0x40 SHL SUB DUP2 GT PUSH2 0x3AE JUMPI PUSH2 0x13AC SWAP1 CALLDATASIZE SWAP1 PUSH1 0x4 ADD PUSH2 0x3BC8 JUMP JUMPDEST PUSH1 0x84 CALLDATALOAD DUP1 ISZERO ISZERO DUP2 SUB PUSH2 0x3AE JUMPI PUSH2 0x13C0 PUSH2 0x3E55 JUMP JUMPDEST PUSH2 0x13C8 PUSH2 0x3E99 JUMP JUMPDEST PUSH1 0x24 CALLDATALOAD ISZERO PUSH2 0x18B4 JUMPI DUP2 MLOAD ISZERO PUSH2 0x187A JUMPI DUP3 MLOAD ISZERO PUSH2 0x1841 JUMPI PUSH1 0x1 PUSH1 0x2 SLOAD ADD SWAP2 DUP3 PUSH1 0x2 SSTORE PUSH1 0x40 MLOAD PUSH2 0x13F5 DUP2 PUSH2 0x3B1D JUMP JUMPDEST DUP4 DUP2 MSTORE CALLER PUSH1 0x20 DUP3 ADD MSTORE DUP5 PUSH1 0x40 DUP3 ADD MSTORE PUSH1 0x24 CALLDATALOAD PUSH1 0x60 DUP3 ADD MSTORE PUSH1 0x44 CALLDATALOAD PUSH1 0x80 DUP3 ADD MSTORE DUP2 PUSH1 0xA0 DUP3 ADD MSTORE DUP3 ISZERO ISZERO PUSH1 0xC0 DUP3 ADD MSTORE PUSH1 0x1 PUSH1 0xE0 DUP3 ADD MSTORE PUSH1 0x0 PUSH2 0x100 DUP3 ADD MSTORE PUSH1 0x0 PUSH2 0x120 DUP3 ADD MSTORE TIMESTAMP PUSH2 0x140 DUP3 ADD MSTORE TIMESTAMP PUSH2 0x160 DUP3 ADD MSTORE DUP4 PUSH1 0x0 MSTORE PUSH1 0x6 PUSH1 0x20 MSTORE PUSH1 0x40 PUSH1 0x0 KECCAK256 SWAP1 DUP1 MLOAD DUP3 SSTORE PUSH1 0x1 DUP1 PUSH1 0xA0 SHL SUB PUSH1 0x20 DUP3 ADD MLOAD AND PUSH1 0x1 DUP4 ADD SWAP1 PUSH1 0x1 PUSH1 0x1 PUSH1 0x60 SHL SUB PUSH1 0xA0 SHL DUP3 SLOAD AND OR SWAP1 SSTORE PUSH1 0x40 DUP2 ADD MLOAD DUP1 MLOAD SWAP1 PUSH1 0x1 PUSH1 0x1 PUSH1 0x40 SHL SUB DUP3 GT PUSH2 0x638 JUMPI DUP2 SWAP1 PUSH2 0x14A2 PUSH1 0x2 DUP7 ADD SLOAD PUSH2 0x3CE4 JUMP JUMPDEST PUSH1 0x1F DUP2 GT PUSH2 0x17EE JUMPI JUMPDEST POP PUSH1 0x20 SWAP1 PUSH1 0x1F DUP4 GT PUSH1 0x1 EQ PUSH2 0x177C JUMPI PUSH1 0x0 SWAP3 PUSH2 0x1771 JUMPI JUMPDEST POP POP DUP2 PUSH1 0x1 SHL SWAP2 PUSH1 0x0 NOT SWAP1 PUSH1 0x3 SHL SHR NOT AND OR PUSH1 0x2 DUP4 ADD SSTORE JUMPDEST PUSH1 0x60 DUP2 ADD MLOAD PUSH1 0x3 DUP4 ADD SSTORE PUSH1 0x80 DUP2 ADD MLOAD PUSH1 0x4 DUP4 ADD SSTORE PUSH1 0xA0 DUP2 ADD MLOAD DUP1 MLOAD SWAP1 PUSH1 0x1 PUSH1 0x1 PUSH1 0x40 SHL SUB DUP3 GT PUSH2 0x638 JUMPI PUSH2 0x1511 PUSH1 0x5 DUP6 ADD SLOAD PUSH2 0x3CE4 JUMP JUMPDEST PUSH1 0x1F DUP2 GT PUSH2 0x172A JUMPI JUMPDEST POP SWAP2 PUSH1 0x20 SWAP8 SWAP4 SWAP2 DUP8 SWAP6 SWAP4 DUP10 SWAP1 PUSH1 0x1F DUP4 GT PUSH1 0x1 EQ PUSH2 0x1686 JUMPI PUSH32 0xD6E852C76FFBA725DA83CAB24D7F612DA35831A32996662FC0BDA02035F67117 SWAP7 SWAP6 SWAP4 DUP4 PUSH2 0x1652 SWAP7 SWAP5 PUSH1 0xA SWAP5 PUSH2 0x160 SWAP5 PUSH1 0x0 SWAP3 PUSH2 0x167B JUMPI JUMPDEST POP POP DUP2 PUSH1 0x1 SHL SWAP2 PUSH1 0x0 NOT SWAP1 PUSH1 0x3 SHL SHR NOT AND OR PUSH1 0x5 DUP6 ADD SSTORE JUMPDEST PUSH2 0x15C0 PUSH1 0x6 DUP6 ADD PUSH2 0x15A5 PUSH1 0xC0 DUP5 ADD MLOAD ISZERO ISZERO DUP3 SWAP1 PUSH1 0xFF DUP1 NOT DUP4 SLOAD AND SWAP2 ISZERO ISZERO AND OR SWAP1 SSTORE JUMP JUMPDEST PUSH1 0xE0 DUP4 ADD MLOAD DUP2 SLOAD PUSH2 0xFF00 NOT AND SWAP1 ISZERO ISZERO PUSH1 0x8 SHL PUSH2 0xFF00 AND OR SWAP1 SSTORE JUMP JUMPDEST PUSH2 0x100 DUP2 ADD MLOAD PUSH1 0x7 DUP6 ADD SSTORE PUSH2 0x120 DUP2 ADD MLOAD PUSH1 0x8 DUP6 ADD SSTORE PUSH2 0x140 DUP2 ADD MLOAD PUSH1 0x9 DUP6 ADD SSTORE ADD MLOAD SWAP2 ADD SSTORE CALLER PUSH1 0x0 SWAP1 DUP2 MSTORE PUSH1 0xA DUP10 MSTORE PUSH1 0x40 SWAP1 KECCAK256 SLOAD PUSH1 0x1 PUSH1 0x1 PUSH1 0xA0 SHL SUB AND ISZERO PUSH2 0x166D JUMPI JUMPDEST CALLER PUSH1 0x0 MSTORE PUSH1 0xA DUP9 MSTORE PUSH1 0x2 PUSH1 0x40 PUSH1 0x0 KECCAK256 ADD PUSH2 0x161E DUP2 SLOAD PUSH2 0x3E46 JUMP JUMPDEST SWAP1 SSTORE PUSH2 0x1635 PUSH1 0x40 MLOAD SWAP4 PUSH1 0xA0 DUP6 MSTORE PUSH1 0xA0 DUP6 ADD SWAP1 PUSH2 0x3C76 JUMP JUMPDEST SWAP1 PUSH1 0x24 CALLDATALOAD DUP10 DUP6 ADD MSTORE PUSH1 0x44 CALLDATALOAD PUSH1 0x40 DUP6 ADD MSTORE DUP4 DUP3 SUB PUSH1 0x60 DUP6 ADD MSTORE PUSH2 0x3C76 JUMP JUMPDEST SWAP4 ISZERO ISZERO PUSH1 0x80 DUP3 ADD MSTORE DUP1 CALLER SWAP5 SUB SWAP1 LOG3 PUSH1 0x1 PUSH1 0x0 SSTORE PUSH1 0x40 MLOAD SWAP1 DUP2 MSTORE RETURN JUMPDEST PUSH2 0x1676 CALLER PUSH2 0x4324 JUMP JUMPDEST PUSH2 0x1604 JUMP JUMPDEST ADD MLOAD SWAP1 POP DUP15 DUP1 PUSH2 0x156A JUMP JUMPDEST PUSH1 0x5 DUP6 SWAP5 SWAP4 SWAP3 SWAP9 SWAP8 SWAP7 SWAP6 ADD PUSH1 0x0 MSTORE DUP11 PUSH1 0x0 KECCAK256 SWAP1 PUSH1 0x0 JUMPDEST PUSH1 0x1F NOT DUP5 AND DUP2 LT PUSH2 0x1710 JUMPI POP SWAP3 PUSH1 0x1 DUP4 PUSH2 0x160 SWAP4 PUSH32 0xD6E852C76FFBA725DA83CAB24D7F612DA35831A32996662FC0BDA02035F67117 SWAP11 SWAP12 PUSH2 0x1652 SWAP10 SWAP9 SWAP8 PUSH1 0xA SWAP8 PUSH1 0x1F NOT DUP2 AND LT PUSH2 0x16F7 JUMPI JUMPDEST POP POP POP DUP2 SHL ADD PUSH1 0x5 DUP6 ADD SSTORE PUSH2 0x1582 JUMP JUMPDEST ADD MLOAD PUSH1 0x0 NOT PUSH1 0xF8 DUP5 PUSH1 0x3 SHL AND SHR NOT AND SWAP1 SSTORE DUP15 DUP1 DUP1 PUSH2 0x16E7 JUMP JUMPDEST DUP2 DUP11 ADD MLOAD DUP4 SSTORE SWAP9 DUP13 ADD SWAP9 DUP12 SWAP9 POP PUSH1 0x1 SWAP1 SWAP3 ADD SWAP2 DUP13 ADD PUSH2 0x169C JUMP JUMPDEST PUSH1 0x5 DUP6 ADD PUSH1 0x0 MSTORE PUSH1 0x20 PUSH1 0x0 KECCAK256 PUSH1 0x1F DUP5 ADD PUSH1 0x5 SHR DUP2 ADD PUSH1 0x20 DUP6 LT PUSH2 0x176A JUMPI JUMPDEST PUSH1 0x1F DUP4 ADD PUSH1 0x5 SHR DUP3 ADD DUP2 LT PUSH2 0x175E JUMPI POP POP PUSH2 0x151A JUMP JUMPDEST PUSH1 0x0 DUP2 SSTORE PUSH1 0x1 ADD PUSH2 0x1748 JUMP JUMPDEST POP DUP1 PUSH2 0x1748 JUMP JUMPDEST ADD MLOAD SWAP1 POP DUP9 DUP1 PUSH2 0x14C2 JUMP JUMPDEST SWAP3 POP PUSH1 0x2 DUP6 ADD PUSH1 0x0 MSTORE PUSH1 0x20 PUSH1 0x0 KECCAK256 SWAP1 PUSH1 0x0 SWAP4 JUMPDEST PUSH1 0x1F NOT DUP5 AND DUP6 LT PUSH2 0x17D3 JUMPI PUSH1 0x1 SWAP5 POP DUP4 PUSH1 0x1F NOT DUP2 AND LT PUSH2 0x17BA JUMPI JUMPDEST POP POP POP DUP2 SHL ADD PUSH1 0x2 DUP4 ADD SSTORE PUSH2 0x14DA JUMP JUMPDEST ADD MLOAD PUSH1 0x0 NOT PUSH1 0xF8 DUP5 PUSH1 0x3 SHL AND SHR NOT AND SWAP1 SSTORE DUP9 DUP1 DUP1 PUSH2 0x17AA JUMP JUMPDEST DUP2 DUP2 ADD MLOAD DUP4 SSTORE PUSH1 0x20 SWAP5 DUP6 ADD SWAP5 PUSH1 0x1 SWAP1 SWAP4 ADD SWAP3 SWAP1 SWAP2 ADD SWAP1 PUSH2 0x178F JUMP JUMPDEST SWAP1 SWAP2 POP PUSH1 0x2 DUP6 ADD PUSH1 0x0 MSTORE PUSH1 0x20 PUSH1 0x0 KECCAK256 PUSH1 0x1F DUP5 ADD PUSH1 0x5 SHR DUP2 ADD PUSH1 0x20 DUP6 LT PUSH2 0x183A JUMPI JUMPDEST SWAP1 DUP5 SWAP4 SWAP3 SWAP2 JUMPDEST PUSH1 0x1F DUP4 ADD PUSH1 0x5 SHR DUP3 ADD DUP2 LT PUSH2 0x182B JUMPI POP POP PUSH2 0x14AB JUMP JUMPDEST PUSH1 0x0 DUP2 SSTORE DUP6 SWAP5 POP PUSH1 0x1 ADD PUSH2 0x1815 JUMP JUMPDEST POP DUP1 PUSH2 0x180F JUMP JUMPDEST PUSH1 0x40 MLOAD PUSH3 0x461BCD PUSH1 0xE5 SHL DUP2 MSTORE PUSH1 0x20 PUSH1 0x4 DUP3 ADD MSTORE PUSH1 0x11 PUSH1 0x24 DUP3 ADD MSTORE PUSH17 0x10D85D1959DBDC9E481C995C5D5A5C9959 PUSH1 0x7A SHL PUSH1 0x44 DUP3 ADD MSTORE PUSH1 0x64 SWAP1 REVERT JUMPDEST PUSH1 0x40 MLOAD PUSH3 0x461BCD PUSH1 0xE5 SHL DUP2 MSTORE PUSH1 0x20 PUSH1 0x4 DUP3 ADD MSTORE PUSH1 0x12 PUSH1 0x24 DUP3 ADD MSTORE PUSH18 0x12541194C81A185CDA081C995C5D5A5C9959 PUSH1 0x72 SHL PUSH1 0x44 DUP3 ADD MSTORE PUSH1 0x64 SWAP1 REVERT JUMPDEST PUSH1 0x40 MLOAD PUSH3 0x461BCD PUSH1 0xE5 SHL DUP2 MSTORE PUSH1 0x20 PUSH1 0x4 DUP3 ADD MSTORE PUSH1 0x1C PUSH1 0x24 DUP3 ADD MSTORE PUSH32 0x5072696365206D7573742062652067726561746572207468616E203000000000 PUSH1 0x44 DUP3 ADD MSTORE PUSH1 0x64 SWAP1 REVERT JUMPDEST CALLVALUE PUSH2 0x3AE JUMPI PUSH1 0x40 CALLDATASIZE PUSH1 0x3 NOT ADD SLT PUSH2 0x3AE JUMPI PUSH1 0x1 PUSH1 0x1 PUSH1 0xA0 SHL SUB PUSH2 0x191A PUSH2 0x3C60 JUMP JUMPDEST AND PUSH1 0x0 MSTORE PUSH1 0xE PUSH1 0x20 MSTORE PUSH1 0x40 PUSH1 0x0 KECCAK256 PUSH1 0x24 CALLDATALOAD PUSH1 0x0 MSTORE PUSH1 0x20 MSTORE PUSH1 0x20 PUSH1 0xFF PUSH1 0x40 PUSH1 0x0 KECCAK256 SLOAD AND PUSH1 0x40 MLOAD SWAP1 ISZERO ISZERO DUP2 MSTORE RETURN JUMPDEST CALLVALUE PUSH2 0x3AE JUMPI PUSH1 0x40 CALLDATASIZE PUSH1 0x3 NOT ADD SLT PUSH2 0x3AE JUMPI PUSH1 0x24 CALLDATALOAD PUSH1 0x4 CALLDATALOAD PUSH1 0x0 MSTORE PUSH1 0xB PUSH1 0x20 MSTORE PUSH1 0x40 PUSH1 0x0 KECCAK256 DUP1 SLOAD DUP3 LT ISZERO PUSH2 0x3AE JUMPI PUSH1 0x20 SWAP2 PUSH2 0x1331 SWAP2 PUSH2 0x3CB6 JUMP JUMPDEST CALLVALUE PUSH2 0x3AE JUMPI PUSH1 0x20 CALLDATASIZE PUSH1 0x3 NOT ADD SLT PUSH2 0x3AE JUMPI PUSH2 0x1998 PUSH2 0x3DEB JUMP JUMPDEST PUSH1 0x4 CALLDATALOAD PUSH1 0x13 SSTORE STOP JUMPDEST CALLVALUE PUSH2 0x3AE JUMPI PUSH1 0x20 CALLDATASIZE PUSH1 0x3 NOT ADD SLT PUSH2 0x3AE JUMPI PUSH1 0x4 CALLDATALOAD PUSH1 0x0 MSTORE PUSH1 0x7 PUSH1 0x20 MSTORE PUSH2 0x1A0 PUSH1 0x40 PUSH1 0x0 KECCAK256 DUP1 SLOAD SWAP1 PUSH1 0xFF PUSH1 0x1 DUP3 ADD SLOAD SWAP2 PUSH1 0x1 DUP1 PUSH1 0xA0 SHL SUB DUP1 PUSH1 0x2 DUP4 ADD SLOAD AND SWAP1 PUSH1 0x3 DUP4 ADD SLOAD PUSH1 0x4 DUP5 ADD SLOAD PUSH2 0x1A2E PUSH1 0x5 DUP7 ADD SLOAD SWAP3 PUSH1 0x6 DUP8 ADD SLOAD SWAP5 PUSH1 0x7 DUP9 ADD SLOAD SWAP7 PUSH1 0x9 PUSH1 0x8 DUP11 ADD SLOAD SWAP10 ADD SLOAD SWAP11 PUSH1 0x40 MLOAD SWAP13 DUP14 MSTORE PUSH1 0x20 DUP14 ADD MSTORE PUSH1 0x40 DUP13 ADD MSTORE DUP2 AND PUSH1 0x60 DUP12 ADD MSTORE DUP8 PUSH1 0x80 DUP12 ADD SWAP2 PUSH1 0xA0 SHR AND PUSH2 0x3DC4 JUMP JUMPDEST PUSH1 0xA0 DUP9 ADD MSTORE PUSH1 0xC0 DUP8 ADD MSTORE PUSH1 0xE0 DUP7 ADD MSTORE PUSH2 0x100 DUP6 ADD MSTORE PUSH2 0x1A53 PUSH2 0x120 DUP6 ADD DUP4 DUP4 AND PUSH2 0x3DD1 JUMP JUMPDEST DUP2 DUP2 PUSH1 0x8 SHR AND ISZERO ISZERO PUSH2 0x140 DUP6 ADD MSTORE PUSH1 0x10 SHR AND ISZERO ISZERO PUSH2 0x160 DUP4 ADD MSTORE PUSH2 0x180 DUP3 ADD MSTORE RETURN JUMPDEST CALLVALUE PUSH2 0x3AE JUMPI PUSH1 0x20 DUP1 PUSH1 0x3 NOT CALLDATASIZE ADD SLT PUSH2 0x3AE JUMPI PUSH1 0x0 PUSH1 0xC0 PUSH1 0x40 MLOAD PUSH2 0x1A97 DUP2 PUSH2 0x3B55 JUMP JUMPDEST DUP3 DUP2 MSTORE DUP3 DUP5 DUP3 ADD MSTORE DUP3 PUSH1 0x40 DUP3 ADD MSTORE DUP3 PUSH1 0x60 DUP3 ADD MSTORE DUP3 PUSH1 0x80 DUP3 ADD MSTORE PUSH1 0x60 PUSH1 0xA0 DUP3 ADD MSTORE ADD MSTORE PUSH1 0x4 CALLDATALOAD PUSH1 0x0 MSTORE PUSH1 0x9 DUP2 MSTORE PUSH1 0x40 PUSH1 0x0 KECCAK256 PUSH1 0x40 MLOAD SWAP1 PUSH2 0x1AD6 DUP3 PUSH2 0x3B55 JUMP JUMPDEST DUP1 SLOAD DUP3 MSTORE PUSH2 0x1B7A PUSH1 0x1 DUP3 ADD SLOAD SWAP2 DUP5 DUP5 ADD SWAP3 DUP4 MSTORE PUSH1 0xFF PUSH1 0x1 DUP1 PUSH1 0xA0 SHL SUB DUP1 PUSH1 0x2 DUP5 ADD SLOAD AND SWAP1 PUSH1 0x40 DUP8 ADD SWAP2 DUP3 MSTORE PUSH1 0x3 DUP5 ADD SLOAD SWAP2 DUP2 PUSH1 0x60 DUP10 ADD SWAP2 DUP2 DUP6 AND DUP4 MSTORE DUP6 PUSH1 0x80 DUP12 ADD SWAP6 PUSH1 0xA0 SHR AND DUP6 MSTORE PUSH1 0x5 PUSH2 0x1B2C PUSH1 0x4 DUP10 ADD PUSH2 0x3D1E JUMP JUMPDEST SWAP8 PUSH1 0xA0 DUP13 ADD SWAP9 DUP10 MSTORE ADD SLOAD SWAP9 PUSH1 0xC0 DUP12 ADD SWAP10 DUP11 MSTORE PUSH1 0x40 MLOAD SWAP12 DUP13 SWAP12 DUP2 DUP14 MSTORE MLOAD SWAP1 DUP13 ADD MSTORE MLOAD PUSH1 0x40 DUP12 ADD MSTORE MLOAD AND PUSH1 0x60 DUP10 ADD MSTORE MLOAD AND PUSH1 0x80 DUP8 ADD MSTORE MLOAD AND PUSH1 0xA0 DUP6 ADD MSTORE MLOAD PUSH1 0xE0 PUSH1 0xC0 DUP6 ADD MSTORE PUSH2 0x100 DUP5 ADD SWAP1 PUSH2 0x3C76 JUMP JUMPDEST SWAP1 MLOAD PUSH1 0xE0 DUP4 ADD MSTORE SUB SWAP1 RETURN JUMPDEST CALLVALUE PUSH2 0x3AE JUMPI PUSH1 0x20 CALLDATASIZE PUSH1 0x3 NOT ADD SLT PUSH2 0x3AE JUMPI PUSH2 0x1B9E PUSH2 0x3C60 JUMP JUMPDEST PUSH1 0x0 PUSH2 0x120 PUSH1 0x40 MLOAD PUSH2 0x1BAF DUP2 PUSH2 0x3B70 JUMP JUMPDEST DUP3 DUP2 MSTORE PUSH1 0x60 PUSH1 0x20 DUP3 ADD MSTORE DUP3 PUSH1 0x40 DUP3 ADD MSTORE DUP3 PUSH1 0x60 DUP3 ADD MSTORE DUP3 PUSH1 0x80 DUP3 ADD MSTORE DUP3 PUSH1 0xA0 DUP3 ADD MSTORE DUP3 PUSH1 0xC0 DUP3 ADD MSTORE DUP3 PUSH1 0xE0 DUP3 ADD MSTORE DUP3 PUSH2 0x100 DUP3 ADD MSTORE ADD MSTORE PUSH1 0x1 DUP1 PUSH1 0xA0 SHL SUB AND PUSH1 0x0 MSTORE PUSH1 0xA PUSH1 0x20 MSTORE PUSH1 0x40 PUSH1 0x0 KECCAK256 PUSH1 0x9 PUSH1 0x40 MLOAD SWAP2 PUSH2 0x1C0A DUP4 PUSH2 0x3B70 JUMP JUMPDEST DUP1 SLOAD PUSH1 0x1 PUSH1 0x1 PUSH1 0xA0 SHL SUB AND DUP4 MSTORE PUSH2 0x1C23 PUSH1 0x1 DUP3 ADD PUSH2 0x3D1E JUMP JUMPDEST PUSH1 0x20 DUP5 ADD MSTORE PUSH1 0x2 DUP2 ADD SLOAD PUSH1 0x40 DUP5 ADD MSTORE PUSH1 0x3 DUP2 ADD SLOAD PUSH1 0x60 DUP5 ADD MSTORE PUSH1 0x4 DUP2 ADD SLOAD PUSH1 0x80 DUP5 ADD MSTORE PUSH1 0x5 DUP2 ADD SLOAD PUSH1 0xA0 DUP5 ADD MSTORE PUSH1 0x6 DUP2 ADD SLOAD PUSH1 0xC0 DUP5 ADD MSTORE PUSH1 0xFF PUSH1 0x7 DUP3 ADD SLOAD AND ISZERO ISZERO PUSH1 0xE0 DUP5 ADD MSTORE PUSH1 0x8 DUP2 ADD SLOAD PUSH2 0x100 DUP5 ADD MSTORE ADD SLOAD PUSH2 0x120 DUP3 ADD MSTORE PUSH1 0x40 MLOAD DUP1 SWAP2 PUSH1 0x20 DUP3 MSTORE PUSH1 0x1 DUP1 PUSH1 0xA0 SHL SUB DUP2 MLOAD AND PUSH1 0x20 DUP4 ADD MSTORE PUSH1 0x20 DUP2 ADD MLOAD PUSH2 0x120 PUSH2 0x1CB4 PUSH2 0x140 SWAP3 DUP4 PUSH1 0x40 DUP8 ADD MSTORE PUSH2 0x160 DUP7 ADD SWAP1 PUSH2 0x3C76 JUMP JUMPDEST SWAP3 PUSH1 0x40 DUP2 ADD MLOAD PUSH1 0x60 DUP7 ADD MSTORE PUSH1 0x60 DUP2 ADD MLOAD PUSH1 0x80 DUP7 ADD MSTORE PUSH1 0x80 DUP2 ADD MLOAD PUSH1 0xA0 DUP7 ADD MSTORE PUSH1 0xA0 DUP2 ADD MLOAD PUSH1 0xC0 DUP7 ADD MSTORE PUSH1 0xC0 DUP2 ADD MLOAD PUSH1 0xE0 DUP7 ADD MSTORE PUSH1 0xE0 DUP2 ADD MLOAD ISZERO ISZERO PUSH2 0x100 DUP7 ADD MSTORE PUSH2 0x100 DUP2 ADD MLOAD DUP3 DUP7 ADD MSTORE ADD MLOAD SWAP1 DUP4 ADD MSTORE SUB SWAP1 RETURN JUMPDEST CALLVALUE PUSH2 0x3AE JUMPI PUSH1 0x0 CALLDATASIZE PUSH1 0x3 NOT ADD SLT PUSH2 0x3AE JUMPI PUSH1 0x20 PUSH1 0x4 SLOAD PUSH1 0x40 MLOAD SWAP1 DUP2 MSTORE RETURN JUMPDEST CALLVALUE PUSH2 0x3AE JUMPI PUSH1 0x0 CALLDATASIZE PUSH1 0x3 NOT ADD SLT PUSH2 0x3AE JUMPI PUSH1 0x1 SLOAD PUSH1 0x40 MLOAD PUSH1 0x8 SWAP2 SWAP1 SWAP2 SHR PUSH1 0x1 PUSH1 0x1 PUSH1 0xA0 SHL SUB AND DUP2 MSTORE PUSH1 0x20 SWAP1 RETURN JUMPDEST CALLVALUE PUSH2 0x3AE JUMPI PUSH1 0x0 CALLDATASIZE PUSH1 0x3 NOT ADD SLT PUSH2 0x3AE JUMPI PUSH2 0x1D6C PUSH2 0x3DEB JUMP JUMPDEST PUSH2 0x1D74 PUSH2 0x3E55 JUMP JUMPDEST PUSH1 0x1 PUSH1 0xFF NOT DUP2 SLOAD AND OR PUSH1 0x1 SSTORE PUSH32 0x62E78CEA01BEE320CD4E420270B5EA74000D11B0C9F74754EBDBFC544B05A258 PUSH1 0x20 PUSH1 0x40 MLOAD CALLER DUP2 MSTORE LOG1 STOP JUMPDEST CALLVALUE PUSH2 0x3AE JUMPI PUSH1 0x20 CALLDATASIZE PUSH1 0x3 NOT ADD SLT PUSH2 0x3AE JUMPI PUSH1 0x4 CALLDATALOAD PUSH2 0x1DC8 PUSH2 0x3E99 JUMP JUMPDEST DUP1 PUSH1 0x3 SLOAD LT ISZERO DUP1 PUSH2 0x1EC8 JUMPI JUMPDEST PUSH2 0x1DDD SWAP1 PUSH2 0x404E JUMP JUMPDEST PUSH1 0x0 DUP2 DUP2 MSTORE PUSH1 0x7 PUSH1 0x20 MSTORE PUSH1 0x40 SWAP1 KECCAK256 PUSH1 0x2 DUP2 ADD SLOAD PUSH1 0x1 PUSH1 0x1 PUSH1 0xA0 SHL SUB AND CALLER SUB PUSH2 0x1E93 JUMPI PUSH1 0x8 ADD SWAP1 DUP2 SLOAD PUSH1 0xFF DUP2 AND PUSH1 0x7 DUP2 LT ISZERO PUSH2 0x359 JUMPI DUP1 PUSH2 0x1E25 SWAP2 ISZERO SWAP1 DUP2 ISZERO PUSH2 0x1E88 JUMPI POP PUSH2 0x409A JUMP JUMPDEST PUSH1 0xFF PUSH2 0x100 PUSH2 0xFF00 NOT DUP4 AND OR DUP1 DUP6 SSTORE PUSH1 0x40 MLOAD PUSH1 0x1 DUP2 MSTORE DUP5 PUSH32 0x48811540D7FAEFCD39140A2DFE56C4E6D976F20E7F822C59146C3425574C9DE7 PUSH1 0x20 CALLER SWAP4 LOG3 PUSH1 0x10 SHR AND ISZERO PUSH2 0x1E76 JUMPI POP PUSH2 0x333 SWAP2 POP PUSH2 0x413B JUMP JUMPDEST PUSH2 0xFFFF NOT AND PUSH2 0x102 OR SWAP1 SWAP2 SSTORE POP PUSH2 0x333 JUMP JUMPDEST PUSH1 0x1 SWAP2 POP EQ DUP6 PUSH2 0x2DA JUMP JUMPDEST PUSH1 0x40 MLOAD PUSH3 0x461BCD PUSH1 0xE5 SHL DUP2 MSTORE PUSH1 0x20 PUSH1 0x4 DUP3 ADD MSTORE PUSH1 0xD PUSH1 0x24 DUP3 ADD MSTORE PUSH13 0x2737BA103A343290313ABCB2B9 PUSH1 0x99 SHL PUSH1 0x44 DUP3 ADD MSTORE PUSH1 0x64 SWAP1 REVERT JUMPDEST POP DUP1 ISZERO ISZERO PUSH2 0x1DD4 JUMP JUMPDEST CALLVALUE PUSH2 0x3AE JUMPI PUSH1 0x0 CALLDATASIZE PUSH1 0x3 NOT ADD SLT PUSH2 0x3AE JUMPI PUSH2 0x1EEA PUSH2 0x3DEB JUMP JUMPDEST PUSH1 0x1 DUP1 SLOAD PUSH2 0x100 PUSH1 0x1 PUSH1 0xA8 SHL SUB NOT DUP2 AND SWAP1 SWAP2 SSTORE PUSH1 0x0 SWAP1 PUSH1 0x8 SHR PUSH1 0x1 PUSH1 0x1 PUSH1 0xA0 SHL SUB AND PUSH32 0x8BE0079C531659141344CD1FD0A4F28419497F9722A3DAAFE3B4186F6B6457E0 DUP3 DUP1 LOG3 STOP JUMPDEST PUSH1 0x60 CALLDATASIZE PUSH1 0x3 NOT ADD SLT PUSH2 0x3AE JUMPI PUSH1 0x24 CALLDATALOAD PUSH1 0x1 PUSH1 0x1 PUSH1 0x40 SHL SUB DUP2 GT PUSH2 0x3AE JUMPI PUSH2 0x1F5D SWAP1 CALLDATASIZE SWAP1 PUSH1 0x4 ADD PUSH2 0x3BC8 JUMP JUMPDEST PUSH1 0x44 CALLDATALOAD PUSH1 0x1 PUSH1 0x1 PUSH1 0x40 SHL SUB DUP2 GT PUSH2 0x3AE JUMPI PUSH2 0x1F7C SWAP1 CALLDATASIZE SWAP1 PUSH1 0x4 ADD PUSH2 0x3BC8 JUMP JUMPDEST SWAP1 PUSH2 0x1F85 PUSH2 0x3E99 JUMP JUMPDEST PUSH1 0x4 CALLDATALOAD PUSH1 0x3 SLOAD LT ISZERO DUP1 PUSH2 0x25C7 JUMPI JUMPDEST PUSH2 0x1F9C SWAP1 PUSH2 0x404E JUMP JUMPDEST PUSH1 0x4 CALLDATALOAD PUSH1 0x0 MSTORE PUSH1 0x7 PUSH1 0x20 MSTORE PUSH1 0x40 PUSH1 0x0 KECCAK256 SWAP1 PUSH1 0x9 PUSH1 0x40 MLOAD SWAP3 PUSH2 0x1FBC DUP5 PUSH2 0x3B39 JUMP JUMPDEST DUP1 SLOAD DUP5 MSTORE PUSH1 0x1 DUP2 ADD SLOAD PUSH1 0x20 DUP6 ADD MSTORE PUSH1 0x2 DUP2 ADD SLOAD PUSH1 0x1 PUSH1 0x1 PUSH1 0xA0 SHL SUB SWAP1 DUP2 AND PUSH1 0x40 DUP7 ADD MSTORE PUSH1 0x3 DUP3 ADD SLOAD SWAP1 DUP2 AND PUSH1 0x60 DUP7 ADD MSTORE PUSH2 0x1FFF SWAP1 PUSH1 0xA0 SHR PUSH1 0xFF AND PUSH1 0x80 DUP7 ADD PUSH2 0x3FBF JUMP JUMPDEST PUSH1 0x4 DUP2 ADD SLOAD PUSH1 0xA0 DUP6 ADD MSTORE PUSH1 0x5 DUP2 ADD SLOAD PUSH1 0xC0 DUP6 ADD MSTORE PUSH1 0x6 DUP2 ADD SLOAD PUSH1 0xE0 DUP6 ADD MSTORE PUSH1 0x7 DUP2 ADD SLOAD PUSH2 0x100 DUP6 ADD MSTORE PUSH1 0xFF PUSH1 0x8 DUP3 ADD SLOAD PUSH2 0x203F DUP3 DUP3 AND PUSH2 0x120 DUP9 ADD PUSH2 0x3FCB JUMP JUMPDEST DUP2 DUP2 PUSH1 0x8 SHR AND ISZERO ISZERO PUSH2 0x140 DUP8 ADD MSTORE PUSH1 0x10 SHR AND ISZERO ISZERO PUSH2 0x160 DUP6 ADD MSTORE ADD SLOAD PUSH2 0x180 DUP4 ADD MSTORE PUSH1 0x1 DUP1 PUSH1 0xA0 SHL SUB PUSH1 0x40 DUP4 ADD MLOAD AND CALLER EQ DUP1 ISZERO PUSH2 0x25B1 JUMPI JUMPDEST ISZERO PUSH2 0x256C JUMPI PUSH2 0x120 DUP3 ADD MLOAD PUSH1 0x7 DUP2 LT ISZERO PUSH2 0x359 JUMPI ISZERO DUP1 ISZERO PUSH2 0x2554 JUMPI JUMPDEST DUP1 ISZERO PUSH2 0x253C JUMPI JUMPDEST ISZERO PUSH2 0x24F7 JUMPI PUSH1 0x13 SLOAD CALLVALUE LT PUSH2 0x24B2 JUMPI PUSH1 0x4 DUP1 SLOAD PUSH1 0x1 ADD SWAP1 DUP2 SWAP1 SSTORE PUSH1 0x40 DUP4 ADD MLOAD SWAP1 SWAP3 SWAP1 PUSH1 0x1 PUSH1 0x1 PUSH1 0xA0 SHL SUB AND CALLER DUP2 SUB PUSH2 0x24AA JUMPI POP PUSH1 0x60 ADD MLOAD PUSH1 0x1 PUSH1 0x1 PUSH1 0xA0 SHL SUB AND SWAP3 JUMPDEST PUSH1 0x40 MLOAD SWAP4 PUSH2 0x20E8 DUP6 PUSH2 0x3B70 JUMP JUMPDEST DUP4 DUP6 MSTORE PUSH1 0x4 CALLDATALOAD PUSH1 0x20 DUP7 ADD MSTORE CALLER PUSH1 0x40 DUP7 ADD MSTORE PUSH1 0x1 DUP1 PUSH1 0xA0 SHL SUB AND PUSH1 0x60 DUP6 ADD MSTORE DUP2 PUSH1 0x80 DUP6 ADD MSTORE PUSH1 0xA0 DUP5 ADD MSTORE PUSH1 0x0 PUSH1 0xC0 DUP5 ADD MSTORE PUSH1 0x0 PUSH1 0xE0 DUP5 ADD MSTORE TIMESTAMP PUSH2 0x100 DUP5 ADD MSTORE PUSH1 0x0 PUSH2 0x120 DUP5 ADD MSTORE DUP2 PUSH1 0x0 MSTORE PUSH1 0x8 PUSH1 0x20 MSTORE PUSH1 0x40 PUSH1 0x0 KECCAK256 SWAP3 DUP1 MLOAD DUP5 SSTORE PUSH1 0x20 DUP2 ADD MLOAD PUSH1 0x1 DUP6 ADD SSTORE PUSH1 0x2 DUP5 ADD PUSH1 0x1 DUP1 PUSH1 0xA0 SHL SUB PUSH1 0x40 DUP4 ADD MLOAD AND SWAP1 PUSH1 0x1 PUSH1 0x1 PUSH1 0x60 SHL SUB PUSH1 0xA0 SHL SWAP2 DUP3 DUP3 SLOAD AND OR SWAP1 SSTORE PUSH1 0x3 DUP6 ADD SWAP1 PUSH1 0x1 DUP1 PUSH1 0xA0 SHL SUB PUSH1 0x60 DUP5 ADD MLOAD AND SWAP1 DUP3 SLOAD AND OR SWAP1 SSTORE PUSH1 0x80 DUP2 ADD MLOAD DUP1 MLOAD SWAP1 PUSH1 0x1 PUSH1 0x1 PUSH1 0x40 SHL SUB DUP3 GT PUSH2 0x638 JUMPI DUP2 SWAP1 PUSH2 0x21AE PUSH1 0x4 DUP9 ADD SLOAD PUSH2 0x3CE4 JUMP JUMPDEST PUSH1 0x1F DUP2 GT PUSH2 0x2457 JUMPI JUMPDEST POP PUSH1 0x20 SWAP1 PUSH1 0x1F DUP4 GT PUSH1 0x1 EQ PUSH2 0x23E5 JUMPI PUSH1 0x0 SWAP3 PUSH2 0x23DA JUMPI JUMPDEST POP POP DUP2 PUSH1 0x1 SHL SWAP2 PUSH1 0x0 NOT SWAP1 PUSH1 0x3 SHL SHR NOT AND OR PUSH1 0x4 DUP6 ADD SSTORE JUMPDEST PUSH1 0xA0 DUP2 ADD MLOAD DUP1 MLOAD SWAP1 PUSH1 0x1 PUSH1 0x1 PUSH1 0x40 SHL SUB DUP3 GT PUSH2 0x638 JUMPI DUP2 SWAP1 PUSH2 0x220B PUSH1 0x5 DUP9 ADD SLOAD PUSH2 0x3CE4 JUMP JUMPDEST PUSH1 0x1F DUP2 GT PUSH2 0x2387 JUMPI JUMPDEST POP PUSH1 0x20 SWAP1 PUSH1 0x1F DUP4 GT PUSH1 0x1 EQ PUSH2 0x2315 JUMPI PUSH1 0x0 SWAP3 PUSH2 0x230A JUMPI JUMPDEST POP POP DUP2 PUSH1 0x1 SHL SWAP2 PUSH1 0x0 NOT SWAP1 PUSH1 0x3 SHL SHR NOT AND OR PUSH1 0x5 DUP6 ADD SSTORE JUMPDEST PUSH1 0x6 DUP5 ADD SWAP4 PUSH1 0xC0 DUP3 ADD MLOAD SWAP2 PUSH1 0x3 DUP4 LT ISZERO PUSH2 0x359 JUMPI DUP6 SLOAD PUSH1 0xE0 DUP3 ADD MLOAD PUSH1 0x1 PUSH1 0x1 PUSH1 0xA8 SHL SUB NOT SWAP1 SWAP2 AND PUSH1 0xFF SWAP5 SWAP1 SWAP5 AND SWAP4 SWAP1 SWAP4 OR PUSH1 0x8 SWAP4 DUP5 SHL PUSH2 0x100 PUSH1 0x1 PUSH1 0xA8 SHL SUB AND OR SWAP1 SWAP6 SSTORE PUSH1 0x20 SWAP5 PUSH1 0xFF NOT SWAP3 SWAP1 PUSH2 0x120 SWAP1 PUSH2 0x100 DUP2 ADD MLOAD PUSH1 0x7 DUP6 ADD SSTORE ADD MLOAD SWAP2 ADD SSTORE PUSH1 0x4 CALLDATALOAD PUSH1 0x0 MSTORE PUSH1 0x7 DUP5 MSTORE PUSH1 0x4 PUSH1 0x8 PUSH1 0x40 PUSH1 0x0 KECCAK256 ADD SWAP2 DUP3 SLOAD AND OR SWAP1 SSTORE PUSH1 0x40 MLOAD SWAP1 DUP4 DUP3 MSTORE DUP3 PUSH32 0x187CF2180CF205ABB3A86A43C8A0E9E92FFDC0D1029D2982B525B335A50EFE51 CALLER SWAP4 DUP1 PUSH2 0x22FA PUSH1 0x4 CALLDATALOAD SWAP6 DUP10 DUP4 ADD SWAP1 PUSH2 0x3C76 JUMP JUMPDEST SUB SWAP1 LOG4 PUSH1 0x1 PUSH1 0x0 SSTORE PUSH1 0x40 MLOAD SWAP1 DUP2 MSTORE RETURN JUMPDEST ADD MLOAD SWAP1 POP DUP7 DUP1 PUSH2 0x222B JUMP JUMPDEST SWAP3 POP PUSH1 0x5 DUP8 ADD PUSH1 0x0 MSTORE PUSH1 0x20 PUSH1 0x0 KECCAK256 SWAP1 PUSH1 0x0 SWAP4 JUMPDEST PUSH1 0x1F NOT DUP5 AND DUP6 LT PUSH2 0x236C JUMPI PUSH1 0x1 SWAP5 POP DUP4 PUSH1 0x1F NOT DUP2 AND LT PUSH2 0x2353 JUMPI JUMPDEST POP POP POP DUP2 SHL ADD PUSH1 0x5 DUP6 ADD SSTORE PUSH2 0x2243 JUMP JUMPDEST ADD MLOAD PUSH1 0x0 NOT PUSH1 0xF8 DUP5 PUSH1 0x3 SHL AND SHR NOT AND SWAP1 SSTORE DUP7 DUP1 DUP1 PUSH2 0x2343 JUMP JUMPDEST DUP2 DUP2 ADD MLOAD DUP4 SSTORE PUSH1 0x20 SWAP5 DUP6 ADD SWAP5 PUSH1 0x1 SWAP1 SWAP4 ADD SWAP3 SWAP1 SWAP2 ADD SWAP1 PUSH2 0x2328 JUMP JUMPDEST SWAP1 SWAP2 POP PUSH1 0x5 DUP8 ADD PUSH1 0x0 MSTORE PUSH1 0x20 PUSH1 0x0 KECCAK256 PUSH1 0x1F DUP5 ADD PUSH1 0x5 SHR DUP2 ADD PUSH1 0x20 DUP6 LT PUSH2 0x23D3 JUMPI JUMPDEST SWAP1 DUP5 SWAP4 SWAP3 SWAP2 JUMPDEST PUSH1 0x1F DUP4 ADD PUSH1 0x5 SHR DUP3 ADD DUP2 LT PUSH2 0x23C4 JUMPI POP POP PUSH2 0x2214 JUMP JUMPDEST PUSH1 0x0 DUP2 SSTORE DUP6 SWAP5 POP PUSH1 0x1 ADD PUSH2 0x23AE JUMP JUMPDEST POP DUP1 PUSH2 0x23A8 JUMP JUMPDEST ADD MLOAD SWAP1 POP DUP7 DUP1 PUSH2 0x21CE JUMP JUMPDEST SWAP3 POP PUSH1 0x4 DUP8 ADD PUSH1 0x0 MSTORE PUSH1 0x20 PUSH1 0x0 KECCAK256 SWAP1 PUSH1 0x0 SWAP4 JUMPDEST PUSH1 0x1F NOT DUP5 AND DUP6 LT PUSH2 0x243C JUMPI PUSH1 0x1 SWAP5 POP DUP4 PUSH1 0x1F NOT DUP2 AND LT PUSH2 0x2423 JUMPI JUMPDEST POP POP POP DUP2 SHL ADD PUSH1 0x4 DUP6 ADD SSTORE PUSH2 0x21E6 JUMP JUMPDEST ADD MLOAD PUSH1 0x0 NOT PUSH1 0xF8 DUP5 PUSH1 0x3 SHL AND SHR NOT AND SWAP1 SSTORE DUP7 DUP1 DUP1 PUSH2 0x2413 JUMP JUMPDEST DUP2 DUP2 ADD MLOAD DUP4 SSTORE PUSH1 0x20 SWAP5 DUP6 ADD SWAP5 PUSH1 0x1 SWAP1 SWAP4 ADD SWAP3 SWAP1 SWAP2 ADD SWAP1 PUSH2 0x23F8 JUMP JUMPDEST SWAP1 SWAP2 POP PUSH1 0x4 DUP8 ADD PUSH1 0x0 MSTORE PUSH1 0x20 PUSH1 0x0 KECCAK256 PUSH1 0x1F DUP5 ADD PUSH1 0x5 SHR DUP2 ADD PUSH1 0x20 DUP6 LT PUSH2 0x24A3 JUMPI JUMPDEST SWAP1 DUP5 SWAP4 SWAP3 SWAP2 JUMPDEST PUSH1 0x1F DUP4 ADD PUSH1 0x5 SHR DUP3 ADD DUP2 LT PUSH2 0x2494 JUMPI POP POP PUSH2 0x21B7 JUMP JUMPDEST PUSH1 0x0 DUP2 SSTORE DUP6 SWAP5 POP PUSH1 0x1 ADD PUSH2 0x247E JUMP JUMPDEST POP DUP1 PUSH2 0x2478 JUMP JUMPDEST SWAP1 POP SWAP3 PUSH2 0x20DB JUMP JUMPDEST PUSH1 0x40 MLOAD PUSH3 0x461BCD PUSH1 0xE5 SHL DUP2 MSTORE PUSH1 0x20 PUSH1 0x4 DUP3 ADD MSTORE PUSH1 0x1A PUSH1 0x24 DUP3 ADD MSTORE PUSH32 0x496E73756666696369656E742064697370757465207374616B65000000000000 PUSH1 0x44 DUP3 ADD MSTORE PUSH1 0x64 SWAP1 REVERT JUMPDEST PUSH1 0x40 MLOAD PUSH3 0x461BCD PUSH1 0xE5 SHL DUP2 MSTORE PUSH1 0x20 PUSH1 0x4 DUP3 ADD MSTORE PUSH1 0x1F PUSH1 0x24 DUP3 ADD MSTORE PUSH32 0x43616E6E6F7420646973707574652074686973207472616E73616374696F6E00 PUSH1 0x44 DUP3 ADD MSTORE PUSH1 0x64 SWAP1 REVERT JUMPDEST POP PUSH2 0x120 DUP3 ADD MLOAD PUSH1 0x7 DUP2 LT ISZERO PUSH2 0x359 JUMPI PUSH1 0x2 EQ PUSH2 0x209A JUMP JUMPDEST POP PUSH2 0x120 DUP3 ADD MLOAD PUSH1 0x7 DUP2 LT ISZERO PUSH2 0x359 JUMPI PUSH1 0x1 EQ PUSH2 0x2093 JUMP JUMPDEST PUSH1 0x40 MLOAD PUSH3 0x461BCD PUSH1 0xE5 SHL DUP2 MSTORE PUSH1 0x20 PUSH1 0x4 DUP3 ADD MSTORE PUSH1 0x1D PUSH1 0x24 DUP3 ADD MSTORE PUSH32 0x4E6F742061207472616E73616374696F6E207061727469636970616E74000000 PUSH1 0x44 DUP3 ADD MSTORE PUSH1 0x64 SWAP1 REVERT JUMPDEST POP PUSH1 0x60 DUP3 ADD MLOAD PUSH1 0x1 PUSH1 0x1 PUSH1 0xA0 SHL SUB AND CALLER EQ PUSH2 0x2077 JUMP JUMPDEST POP PUSH1 0x4 CALLDATALOAD ISZERO ISZERO PUSH2 0x1F93 JUMP JUMPDEST CALLVALUE PUSH2 0x3AE JUMPI PUSH1 0x20 CALLDATASIZE PUSH1 0x3 NOT ADD SLT PUSH2 0x3AE JUMPI PUSH2 0x25EB PUSH2 0x3C60 JUMP JUMPDEST PUSH2 0x25F3 PUSH2 0x3DEB JUMP JUMPDEST PUSH1 0x1 PUSH1 0x1 PUSH1 0xA0 SHL SUB AND PUSH1 0x0 SWAP1 DUP2 MSTORE PUSH1 0xF PUSH1 0x20 MSTORE PUSH1 0x40 SWAP1 KECCAK256 DUP1 SLOAD PUSH1 0xFF NOT AND PUSH1 0x1 OR SWAP1 SSTORE STOP JUMPDEST CALLVALUE PUSH2 0x3AE JUMPI PUSH1 0x0 CALLDATASIZE PUSH1 0x3 NOT ADD SLT PUSH2 0x3AE JUMPI PUSH1 0x20 PUSH1 0xFF PUSH1 0x1 SLOAD AND PUSH1 0x40 MLOAD SWAP1 ISZERO ISZERO DUP2 MSTORE RETURN JUMPDEST CALLVALUE PUSH2 0x3AE JUMPI PUSH1 0x20 CALLDATASIZE PUSH1 0x3 NOT ADD SLT PUSH2 0x3AE JUMPI PUSH1 0x4 CALLDATALOAD PUSH1 0x0 MSTORE PUSH1 0x8 PUSH1 0x20 MSTORE PUSH1 0x40 PUSH1 0x0 KECCAK256 DUP1 SLOAD PUSH1 0x1 DUP3 ADD SLOAD SWAP2 PUSH1 0x1 DUP1 PUSH1 0xA0 SHL SUB SWAP1 DUP2 PUSH1 0x2 DUP3 ADD SLOAD AND SWAP1 DUP3 PUSH1 0x3 DUP3 ADD SLOAD AND SWAP3 PUSH2 0x26E1 PUSH2 0x268A PUSH1 0x4 DUP5 ADD PUSH2 0x3D1E JUMP JUMPDEST PUSH2 0x26D3 PUSH2 0x2699 PUSH1 0x5 DUP7 ADD PUSH2 0x3D1E JUMP JUMPDEST SWAP2 PUSH1 0x6 DUP7 ADD SLOAD SWAP8 PUSH1 0x8 PUSH1 0x7 DUP9 ADD SLOAD SWAP8 ADD SLOAD SWAP8 PUSH1 0x40 MLOAD SWAP12 DUP13 SWAP12 DUP13 MSTORE PUSH1 0x20 DUP13 ADD MSTORE PUSH1 0x40 DUP12 ADD MSTORE PUSH1 0x60 DUP11 ADD MSTORE PUSH2 0x140 DUP1 PUSH1 0x80 DUP12 ADD MSTORE DUP10 ADD SWAP1 PUSH2 0x3C76 JUMP JUMPDEST SWAP1 DUP8 DUP3 SUB PUSH1 0xA0 DUP10 ADD MSTORE PUSH2 0x3C76 JUMP JUMPDEST SWAP4 PUSH2 0x26F2 PUSH1 0xC0 DUP8 ADD PUSH1 0xFF DUP4 AND PUSH2 0x3DDE JUMP JUMPDEST PUSH1 0x8 SHR AND PUSH1 0xE0 DUP6 ADD MSTORE PUSH2 0x100 DUP5 ADD MSTORE PUSH2 0x120 DUP4 ADD MSTORE SUB SWAP1 RETURN JUMPDEST CALLVALUE PUSH2 0x3AE JUMPI PUSH1 0x20 CALLDATASIZE PUSH1 0x3 NOT ADD SLT PUSH2 0x3AE JUMPI PUSH2 0x2724 PUSH2 0x3C60 JUMP JUMPDEST CALLER PUSH1 0x0 MSTORE PUSH1 0xF PUSH1 0x20 MSTORE PUSH1 0xFF PUSH1 0x40 PUSH1 0x0 KECCAK256 SLOAD AND DUP1 ISZERO PUSH2 0x27F3 JUMPI JUMPDEST PUSH2 0x2746 SWAP1 PUSH2 0x3F75 JUMP JUMPDEST PUSH1 0x1 PUSH1 0x1 PUSH1 0xA0 SHL SUB SWAP1 DUP2 AND PUSH1 0x0 DUP2 DUP2 MSTORE PUSH1 0xA PUSH1 0x20 MSTORE PUSH1 0x40 SWAP1 KECCAK256 SLOAD SWAP1 SWAP2 AND ISZERO PUSH2 0x27AE JUMPI PUSH1 0x0 MSTORE PUSH1 0xA PUSH1 0x20 MSTORE PUSH1 0x8 PUSH1 0x40 PUSH1 0x0 KECCAK256 PUSH1 0x7 DUP2 ADD PUSH1 0x1 PUSH1 0xFF NOT DUP3 SLOAD AND OR SWAP1 SSTORE ADD DUP1 SLOAD SWAP1 PUSH1 0x32 DUP3 ADD DUP1 SWAP3 GT PUSH2 0x2798 JUMPI SSTORE STOP JUMPDEST PUSH4 0x4E487B71 PUSH1 0xE0 SHL PUSH1 0x0 MSTORE PUSH1 0x11 PUSH1 0x4 MSTORE PUSH1 0x24 PUSH1 0x0 REVERT JUMPDEST PUSH1 0x40 MLOAD PUSH3 0x461BCD PUSH1 0xE5 SHL DUP2 MSTORE PUSH1 0x20 PUSH1 0x4 DUP3 ADD MSTORE PUSH1 0x1B PUSH1 0x24 DUP3 ADD MSTORE PUSH32 0x557365722070726F66696C6520646F6573206E6F742065786973740000000000 PUSH1 0x44 DUP3 ADD MSTORE PUSH1 0x64 SWAP1 REVERT JUMPDEST POP PUSH1 0x1 SLOAD CALLER PUSH1 0x8 SWAP2 SWAP1 SWAP2 SHR PUSH1 0x1 PUSH1 0x1 PUSH1 0xA0 SHL SUB AND EQ PUSH2 0x273D JUMP JUMPDEST CALLVALUE PUSH2 0x3AE JUMPI PUSH1 0x0 CALLDATASIZE PUSH1 0x3 NOT ADD SLT PUSH2 0x3AE JUMPI PUSH1 0x12 SLOAD PUSH1 0x40 MLOAD PUSH1 0x1 PUSH1 0x1 PUSH1 0xA0 SHL SUB SWAP1 SWAP2 AND DUP2 MSTORE PUSH1 0x20 SWAP1 RETURN JUMPDEST CALLVALUE PUSH2 0x3AE JUMPI PUSH1 0x20 CALLDATASIZE PUSH1 0x3 NOT ADD SLT PUSH2 0x3AE JUMPI PUSH1 0x1 PUSH1 0x1 PUSH1 0xA0 SHL SUB PUSH2 0x2857 PUSH2 0x3C60 JUMP JUMPDEST AND PUSH1 0x0 MSTORE PUSH1 0xF PUSH1 0x20 MSTORE PUSH1 0x20 PUSH1 0xFF PUSH1 0x40 PUSH1 0x0 KECCAK256 SLOAD AND PUSH1 0x40 MLOAD SWAP1 ISZERO ISZERO DUP2 MSTORE RETURN JUMPDEST CALLVALUE PUSH2 0x3AE JUMPI PUSH1 0x0 CALLDATASIZE PUSH1 0x3 NOT ADD SLT PUSH2 0x3AE JUMPI PUSH2 0x288E PUSH2 0x3DEB JUMP JUMPDEST PUSH2 0x2896 PUSH2 0x4547 JUMP JUMPDEST PUSH1 0xFF NOT PUSH1 0x1 SLOAD AND PUSH1 0x1 SSTORE PUSH32 0x5DB9EE0A495BF2E6FF9C91A7834C1BA4FDD244A5E8AA4E537BD38AEAE4B073AA PUSH1 0x20 PUSH1 0x40 MLOAD CALLER DUP2 MSTORE LOG1 STOP JUMPDEST CALLVALUE PUSH2 0x3AE JUMPI PUSH1 0x80 CALLDATASIZE PUSH1 0x3 NOT ADD SLT PUSH2 0x3AE JUMPI PUSH2 0x28E5 PUSH2 0x3C4A JUMP JUMPDEST PUSH1 0x44 CALLDATALOAD SWAP1 PUSH1 0xFF DUP3 AND DUP3 SUB PUSH2 0x3AE JUMPI PUSH1 0x64 CALLDATALOAD PUSH1 0x1 PUSH1 0x1 PUSH1 0x40 SHL SUB DUP2 GT PUSH2 0x3AE JUMPI PUSH2 0x2912 SWAP1 CALLDATASIZE SWAP1 PUSH1 0x4 ADD PUSH2 0x3BC8 JUMP JUMPDEST SWAP1 PUSH2 0x291B PUSH2 0x3E99 JUMP JUMPDEST PUSH1 0x4 CALLDATALOAD PUSH1 0x3 SLOAD LT ISZERO DUP1 PUSH2 0x2E83 JUMPI JUMPDEST PUSH2 0x2932 SWAP1 PUSH2 0x404E JUMP JUMPDEST PUSH1 0x1 PUSH1 0xFF DUP5 AND LT ISZERO DUP1 PUSH2 0x2E75 JUMPI JUMPDEST ISZERO PUSH2 0x2E3B JUMPI PUSH1 0x4 CALLDATALOAD PUSH1 0x0 MSTORE PUSH1 0x7 PUSH1 0x20 MSTORE PUSH1 0x40 PUSH1 0x0 KECCAK256 PUSH1 0x40 MLOAD SWAP1 PUSH2 0x2962 DUP3 PUSH2 0x3B39 JUMP JUMPDEST DUP1 SLOAD DUP3 MSTORE PUSH1 0x1 DUP2 ADD SLOAD PUSH1 0x20 DUP4 ADD MSTORE PUSH1 0x2 DUP2 ADD SLOAD PUSH1 0x1 PUSH1 0x1 PUSH1 0xA0 SHL SUB SWAP1 DUP2 AND PUSH1 0x40 DUP5 ADD SWAP1 DUP2 MSTORE PUSH1 0x3 DUP4 ADD SLOAD SWAP2 DUP3 AND PUSH1 0x60 DUP6 ADD SWAP1 DUP2 MSTORE SWAP4 SWAP1 SWAP3 SWAP2 PUSH2 0x29AD SWAP1 PUSH1 0xA0 SHR PUSH1 0xFF AND PUSH1 0x80 DUP4 ADD PUSH2 0x3FBF JUMP JUMPDEST PUSH1 0x4 DUP3 ADD SLOAD PUSH1 0xA0 DUP3 ADD MSTORE PUSH1 0x5 DUP3 ADD SLOAD PUSH1 0xC0 DUP3 ADD MSTORE PUSH1 0x6 DUP3 ADD SLOAD PUSH1 0xE0 DUP3 ADD MSTORE PUSH1 0x7 DUP3 ADD SLOAD PUSH2 0x100 DUP3 ADD MSTORE PUSH2 0x180 PUSH1 0x9 PUSH1 0x8 DUP5 ADD SLOAD SWAP4 PUSH1 0xFF PUSH2 0x120 DUP6 ADD SWAP6 PUSH2 0x29F5 DUP3 DUP3 AND DUP9 PUSH2 0x3FCB JUMP JUMPDEST DUP2 DUP2 PUSH1 0x8 SHR AND ISZERO ISZERO PUSH2 0x140 DUP8 ADD MSTORE PUSH1 0x10 SHR AND ISZERO ISZERO PUSH2 0x160 DUP6 ADD MSTORE ADD SLOAD SWAP2 ADD MSTORE MLOAD PUSH1 0x7 DUP2 LT ISZERO PUSH2 0x359 JUMPI PUSH1 0x3 SUB PUSH2 0x2DF6 JUMPI MLOAD PUSH1 0x1 PUSH1 0x1 PUSH1 0xA0 SHL SUB AND CALLER DUP2 EQ SWAP2 DUP3 PUSH2 0x2DDF JUMPI JUMPDEST DUP3 ISZERO PUSH2 0x2DB0 JUMPI JUMPDEST POP POP ISZERO PUSH2 0x2D6B JUMPI PUSH1 0x1 PUSH1 0x5 SLOAD ADD SWAP2 DUP3 PUSH1 0x5 SSTORE PUSH1 0x40 MLOAD PUSH2 0x2A5E DUP2 PUSH2 0x3B55 JUMP JUMPDEST DUP4 DUP2 MSTORE PUSH1 0x4 CALLDATALOAD PUSH1 0x20 DUP3 ADD MSTORE CALLER PUSH1 0x40 DUP3 ADD MSTORE PUSH1 0x60 DUP2 ADD SWAP1 PUSH1 0x1 DUP1 PUSH1 0xA0 SHL SUB DUP5 AND DUP3 MSTORE PUSH1 0x80 DUP2 ADD SWAP2 PUSH1 0xFF DUP8 AND DUP4 MSTORE PUSH1 0xA0 DUP3 ADD SWAP1 DUP5 DUP3 MSTORE TIMESTAMP PUSH1 0xC0 DUP5 ADD MSTORE DUP7 PUSH1 0x0 MSTORE PUSH1 0x9 PUSH1 0x20 MSTORE PUSH1 0x40 PUSH1 0x0 KECCAK256 SWAP4 DUP4 MLOAD DUP6 SSTORE PUSH1 0x20 DUP5 ADD MLOAD PUSH1 0x1 DUP7 ADD SSTORE PUSH1 0x2 DUP6 ADD PUSH1 0x1 DUP1 PUSH1 0xA0 SHL SUB PUSH1 0x40 DUP7 ADD MLOAD AND PUSH1 0x1 PUSH1 0x1 PUSH1 0x60 SHL SUB PUSH1 0xA0 SHL DUP3 SLOAD AND OR SWAP1 SSTORE PUSH1 0x3 DUP6 ADD SWAP2 PUSH1 0x1 DUP1 PUSH1 0xA0 SHL SUB SWAP1 MLOAD AND DUP3 SLOAD SWAP2 PUSH1 0xFF PUSH1 0xA0 SHL SWAP1 MLOAD PUSH1 0xA0 SHL AND SWAP2 PUSH11 0xFFFFFFFFFFFFFFFFFFFFFF PUSH1 0xA8 SHL AND OR OR SWAP1 SSTORE MLOAD DUP1 MLOAD SWAP1 PUSH1 0x1 PUSH1 0x1 PUSH1 0x40 SHL SUB DUP3 GT PUSH2 0x638 JUMPI PUSH2 0x2B28 PUSH1 0x4 DUP6 ADD SLOAD PUSH2 0x3CE4 JUMP JUMPDEST PUSH1 0x1F DUP2 GT PUSH2 0x2D24 JUMPI JUMPDEST POP PUSH1 0x20 SWAP1 PUSH1 0x1F DUP4 GT PUSH1 0x1 EQ PUSH2 0x2CAF JUMPI SWAP2 DUP1 PUSH1 0x5 SWAP5 SWAP3 PUSH1 0xC0 SWAP5 PUSH1 0x0 SWAP3 PUSH2 0x2CA4 JUMPI JUMPDEST POP POP DUP2 PUSH1 0x1 SHL SWAP2 PUSH1 0x0 NOT SWAP1 PUSH1 0x3 SHL SHR NOT AND OR PUSH1 0x4 DUP6 ADD SSTORE JUMPDEST ADD MLOAD SWAP2 ADD SSTORE PUSH1 0x1 DUP1 PUSH1 0xA0 SHL SUB DUP3 AND PUSH1 0x0 MSTORE PUSH1 0xD PUSH1 0x20 MSTORE PUSH2 0x2B8D DUP4 PUSH1 0x40 PUSH1 0x0 KECCAK256 PUSH2 0x3FD7 JUMP JUMPDEST PUSH1 0x1 PUSH1 0x1 PUSH1 0xA0 SHL SUB DUP3 AND PUSH1 0x0 SWAP1 DUP2 MSTORE PUSH1 0xA PUSH1 0x20 MSTORE PUSH1 0x40 SWAP1 KECCAK256 PUSH1 0x4 DUP2 ADD DUP1 SLOAD PUSH2 0x2BB4 SWAP1 PUSH2 0x3E46 JUMP JUMPDEST DUP1 SWAP2 SSTORE PUSH1 0x5 DUP3 ADD PUSH2 0x2BC9 PUSH1 0xFF DUP9 AND DUP3 SLOAD PUSH2 0x3FB2 JUMP JUMPDEST DUP1 SWAP2 SSTORE PUSH1 0x64 DUP2 MUL SWAP1 DUP1 DUP3 DIV PUSH1 0x64 EQ SWAP1 ISZERO OR ISZERO PUSH2 0x2798 JUMPI DUP2 ISZERO PUSH2 0x2C8E JUMPI DIV PUSH1 0x6 DUP3 ADD SSTORE PUSH1 0x4 PUSH1 0xFF DUP7 AND LT ISZERO PUSH2 0x2C4E JUMPI JUMPDEST POP PUSH1 0xFF PUSH1 0x20 SWAP5 PUSH1 0x40 MLOAD SWAP4 PUSH1 0x1 DUP1 PUSH1 0xA0 SHL SUB AND DUP5 MSTORE AND DUP5 DUP4 ADD MSTORE PUSH1 0x60 PUSH1 0x40 DUP4 ADD MSTORE DUP3 PUSH32 0xE06EA7268E18017DCC290DA09C39C540FDBC5FA9430C2694E80F21BB6D63FB86 CALLER SWAP4 DUP1 PUSH2 0x22FA PUSH1 0x4 CALLDATALOAD SWAP6 PUSH1 0x60 DUP4 ADD SWAP1 PUSH2 0x3C76 JUMP JUMPDEST PUSH1 0x2 NOT PUSH1 0xFF DUP7 AND ADD PUSH1 0xFF DUP2 GT PUSH2 0x2798 JUMPI PUSH1 0xFF PUSH1 0x5 SWAP2 AND MUL SWAP5 PUSH1 0xFF DUP7 AND SWAP6 DUP7 SUB PUSH2 0x2798 JUMPI PUSH1 0x20 SWAP6 PUSH2 0x2C85 PUSH1 0x8 PUSH1 0xFF SWAP5 ADD SWAP2 DUP3 SLOAD PUSH2 0x3FB2 JUMP JUMPDEST SWAP1 SSTORE SWAP5 POP PUSH2 0x2BF8 JUMP JUMPDEST PUSH4 0x4E487B71 PUSH1 0xE0 SHL PUSH1 0x0 MSTORE PUSH1 0x12 PUSH1 0x4 MSTORE PUSH1 0x24 PUSH1 0x0 REVERT JUMPDEST ADD MLOAD SWAP1 POP DUP11 DUP1 PUSH2 0x2B51 JUMP JUMPDEST SWAP1 PUSH1 0x4 DUP6 ADD PUSH1 0x0 MSTORE PUSH1 0x20 PUSH1 0x0 KECCAK256 SWAP2 PUSH1 0x0 JUMPDEST PUSH1 0x1F NOT DUP6 AND DUP2 LT PUSH2 0x2D0C JUMPI POP SWAP3 PUSH1 0x5 SWAP5 SWAP3 PUSH1 0x1 SWAP3 PUSH1 0xC0 SWAP6 DUP4 PUSH1 0x1F NOT DUP2 AND LT PUSH2 0x2CF3 JUMPI JUMPDEST POP POP POP DUP2 SHL ADD PUSH1 0x4 DUP6 ADD SSTORE PUSH2 0x2B69 JUMP JUMPDEST ADD MLOAD PUSH1 0x0 NOT PUSH1 0xF8 DUP5 PUSH1 0x3 SHL AND SHR NOT AND SWAP1 SSTORE DUP11 DUP1 DUP1 PUSH2 0x2CE3 JUMP JUMPDEST SWAP2 SWAP3 PUSH1 0x20 PUSH1 0x1 DUP2 SWAP3 DUP7 DUP6 ADD MLOAD DUP2 SSTORE ADD SWAP5 ADD SWAP3 ADD PUSH2 0x2CC0 JUMP JUMPDEST PUSH1 0x4 DUP6 ADD PUSH1 0x0 MSTORE PUSH1 0x20 PUSH1 0x0 KECCAK256 PUSH1 0x1F DUP5 ADD PUSH1 0x5 SHR DUP2 ADD PUSH1 0x20 DUP6 LT PUSH2 0x2D64 JUMPI JUMPDEST PUSH1 0x1F DUP4 ADD PUSH1 0x5 SHR DUP3 ADD DUP2 LT PUSH2 0x2D58 JUMPI POP POP PUSH2 0x2B31 JUMP JUMPDEST PUSH1 0x0 DUP2 SSTORE PUSH1 0x1 ADD PUSH2 0x2D42 JUMP JUMPDEST POP DUP1 PUSH2 0x2D42 JUMP JUMPDEST PUSH1 0x40 MLOAD PUSH3 0x461BCD PUSH1 0xE5 SHL DUP2 MSTORE PUSH1 0x20 PUSH1 0x4 DUP3 ADD MSTORE PUSH1 0x1B PUSH1 0x24 DUP3 ADD MSTORE PUSH32 0x496E76616C696420726576696577207061727469636970616E74730000000000 PUSH1 0x44 DUP3 ADD MSTORE PUSH1 0x64 SWAP1 REVERT JUMPDEST MLOAD PUSH1 0x1 PUSH1 0x1 PUSH1 0xA0 SHL SUB AND CALLER EQ SWAP2 POP DUP2 PUSH2 0x2DCC JUMPI JUMPDEST POP DUP5 DUP1 PUSH2 0x2A40 JUMP JUMPDEST PUSH1 0x1 PUSH1 0x1 PUSH1 0xA0 SHL SUB DUP4 AND EQ SWAP1 POP DUP5 PUSH2 0x2DC4 JUMP JUMPDEST DUP1 MLOAD PUSH1 0x1 PUSH1 0x1 PUSH1 0xA0 SHL SUB DUP6 DUP2 AND SWAP2 AND EQ SWAP3 POP PUSH2 0x2A39 JUMP JUMPDEST PUSH1 0x40 MLOAD PUSH3 0x461BCD PUSH1 0xE5 SHL DUP2 MSTORE PUSH1 0x20 PUSH1 0x4 DUP3 ADD MSTORE PUSH1 0x19 PUSH1 0x24 DUP3 ADD MSTORE PUSH32 0x5472616E73616374696F6E206E6F7420636F6D706C6574656400000000000000 PUSH1 0x44 DUP3 ADD MSTORE PUSH1 0x64 SWAP1 REVERT JUMPDEST PUSH1 0x40 MLOAD PUSH3 0x461BCD PUSH1 0xE5 SHL DUP2 MSTORE PUSH1 0x20 PUSH1 0x4 DUP3 ADD MSTORE PUSH1 0x12 PUSH1 0x24 DUP3 ADD MSTORE PUSH18 0x526174696E67206D75737420626520312D35 PUSH1 0x70 SHL PUSH1 0x44 DUP3 ADD MSTORE PUSH1 0x64 SWAP1 REVERT JUMPDEST POP PUSH1 0x5 PUSH1 0xFF DUP5 AND GT ISZERO PUSH2 0x2940 JUMP JUMPDEST POP PUSH1 0x4 CALLDATALOAD ISZERO ISZERO PUSH2 0x2929 JUMP JUMPDEST CALLVALUE PUSH2 0x3AE JUMPI PUSH1 0x20 DUP1 PUSH1 0x3 NOT CALLDATASIZE ADD SLT PUSH2 0x3AE JUMPI PUSH1 0x6 SWAP1 PUSH1 0x4 CALLDATALOAD DUP1 PUSH1 0x2 SLOAD LT ISZERO DUP1 PUSH2 0x2F3A JUMPI JUMPDEST PUSH2 0x2EBB SWAP1 PUSH2 0x3EEF JUMP JUMPDEST CALLER PUSH1 0x0 MSTORE PUSH1 0xE DUP3 MSTORE PUSH1 0x40 PUSH1 0x0 KECCAK256 DUP2 PUSH1 0x0 MSTORE DUP3 MSTORE PUSH1 0xFF PUSH1 0x40 PUSH1 0x0 KECCAK256 SLOAD AND CALLER PUSH1 0x0 MSTORE PUSH1 0xE DUP4 MSTORE PUSH1 0x40 PUSH1 0x0 KECCAK256 DUP3 PUSH1 0x0 MSTORE DUP4 MSTORE PUSH2 0x2F05 DUP2 ISZERO PUSH1 0x40 PUSH1 0x0 KECCAK256 SWAP1 PUSH1 0xFF DUP1 NOT DUP4 SLOAD AND SWAP2 ISZERO ISZERO AND OR SWAP1 SSTORE JUMP JUMPDEST ISZERO PUSH2 0x2F26 JUMPI PUSH1 0x0 MSTORE MSTORE PUSH1 0x8 PUSH1 0x40 PUSH1 0x0 KECCAK256 ADD DUP1 SLOAD DUP1 ISZERO PUSH2 0x2798 JUMPI PUSH1 0x0 NOT ADD SWAP1 SSTORE STOP JUMPDEST POP MSTORE PUSH1 0x8 PUSH1 0x40 PUSH1 0x0 KECCAK256 ADD PUSH2 0x12BC DUP2 SLOAD PUSH2 0x3E46 JUMP JUMPDEST POP DUP1 ISZERO ISZERO PUSH2 0x2EB2 JUMP JUMPDEST CALLVALUE PUSH2 0x3AE JUMPI PUSH1 0x20 CALLDATASIZE PUSH1 0x3 NOT ADD SLT PUSH2 0x3AE JUMPI PUSH1 0x0 PUSH2 0x180 PUSH1 0x40 MLOAD PUSH2 0x2F65 DUP2 PUSH2 0x3B39 JUMP JUMPDEST DUP3 DUP2 MSTORE DUP3 PUSH1 0x20 DUP3 ADD MSTORE DUP3 PUSH1 0x40 DUP3 ADD MSTORE DUP3 PUSH1 0x60 DUP3 ADD MSTORE DUP3 PUSH1 0x80 DUP3 ADD MSTORE DUP3 PUSH1 0xA0 DUP3 ADD MSTORE DUP3 PUSH1 0xC0 DUP3 ADD MSTORE DUP3 PUSH1 0xE0 DUP3 ADD MSTORE DUP3 PUSH2 0x100 DUP3 ADD MSTORE DUP3 PUSH2 0x120 DUP3 ADD MSTORE DUP3 PUSH2 0x140 DUP3 ADD MSTORE DUP3 PUSH2 0x160 DUP3 ADD MSTORE ADD MSTORE PUSH1 0x4 CALLDATALOAD PUSH1 0x0 MSTORE PUSH1 0x7 PUSH1 0x20 MSTORE PUSH2 0x1A0 PUSH1 0x40 PUSH1 0x0 KECCAK256 PUSH1 0x9 PUSH1 0x40 MLOAD SWAP2 PUSH2 0x2FD2 DUP4 PUSH2 0x3B39 JUMP JUMPDEST DUP1 SLOAD DUP4 MSTORE PUSH1 0x1 DUP2 ADD SLOAD PUSH1 0x20 DUP5 ADD MSTORE PUSH1 0x2 DUP2 ADD SLOAD PUSH1 0x1 PUSH1 0x1 PUSH1 0xA0 SHL SUB SWAP1 DUP2 AND PUSH1 0x40 DUP6 ADD MSTORE PUSH1 0x3 DUP3 ADD SLOAD SWAP1 DUP2 AND PUSH1 0x60 DUP6 ADD MSTORE PUSH2 0x3015 SWAP1 PUSH1 0xA0 SHR PUSH1 0xFF AND PUSH1 0x80 DUP6 ADD PUSH2 0x3FBF JUMP JUMPDEST PUSH1 0x4 DUP2 ADD SLOAD PUSH1 0xA0 DUP5 ADD MSTORE PUSH1 0x5 DUP2 ADD SLOAD PUSH1 0xC0 DUP5 ADD MSTORE PUSH1 0x6 DUP2 ADD SLOAD PUSH1 0xE0 DUP5 ADD MSTORE PUSH1 0x7 DUP2 ADD SLOAD PUSH2 0x100 DUP5 ADD MSTORE PUSH1 0xFF PUSH1 0x8 DUP3 ADD SLOAD PUSH2 0x3055 DUP3 DUP3 AND PUSH2 0x120 DUP8 ADD PUSH2 0x3FCB JUMP JUMPDEST DUP2 DUP2 PUSH1 0x8 SHR AND ISZERO ISZERO PUSH2 0x140 DUP7 ADD MSTORE PUSH1 0x10 SHR AND ISZERO ISZERO PUSH2 0x160 DUP5 ADD MSTORE ADD SLOAD PUSH2 0x180 DUP3 ADD MSTORE PUSH2 0x180 PUSH1 0x40 MLOAD SWAP2 DUP1 MLOAD DUP4 MSTORE PUSH1 0x20 DUP2 ADD MLOAD PUSH1 0x20 DUP5 ADD MSTORE PUSH1 0x1 DUP1 PUSH1 0xA0 SHL SUB PUSH1 0x40 DUP3 ADD MLOAD AND PUSH1 0x40 DUP5 ADD MSTORE PUSH1 0x1 DUP1 PUSH1 0xA0 SHL SUB PUSH1 0x60 DUP3 ADD MLOAD AND PUSH1 0x60 DUP5 ADD MSTORE PUSH2 0x30C2 PUSH1 0x80 DUP3 ADD MLOAD PUSH1 0x80 DUP6 ADD SWAP1 PUSH2 0x3DC4 JUMP JUMPDEST PUSH1 0xA0 DUP2 ADD MLOAD PUSH1 0xA0 DUP5 ADD MSTORE PUSH1 0xC0 DUP2 ADD MLOAD PUSH1 0xC0 DUP5 ADD MSTORE PUSH1 0xE0 DUP2 ADD MLOAD PUSH1 0xE0 DUP5 ADD MSTORE PUSH2 0x100 DUP2 ADD MLOAD PUSH2 0x100 DUP5 ADD MSTORE PUSH2 0x3100 PUSH2 0x120 DUP3 ADD MLOAD PUSH2 0x120 DUP6 ADD SWAP1 PUSH2 0x3DD1 JUMP JUMPDEST PUSH2 0x140 DUP2 ADD MLOAD ISZERO ISZERO PUSH2 0x140 DUP5 ADD MSTORE PUSH2 0x160 DUP2 ADD MLOAD ISZERO ISZERO PUSH2 0x160 DUP5 ADD MSTORE ADD MLOAD PUSH2 0x180 DUP3 ADD MSTORE RETURN JUMPDEST CALLVALUE PUSH2 0x3AE JUMPI PUSH1 0x20 CALLDATASIZE PUSH1 0x3 NOT ADD SLT PUSH2 0x3AE JUMPI PUSH1 0x1 PUSH1 0x1 PUSH1 0xA0 SHL SUB DUP1 PUSH2 0x3148 PUSH2 0x3C60 JUMP JUMPDEST AND PUSH1 0x0 MSTORE PUSH1 0xA PUSH1 0x20 MSTORE PUSH1 0x40 PUSH1 0x0 KECCAK256 SWAP1 DUP2 SLOAD AND PUSH2 0x3166 PUSH1 0x1 DUP4 ADD PUSH2 0x3D1E JUMP JUMPDEST SWAP2 PUSH1 0x2 DUP2 ADD SLOAD SWAP1 PUSH1 0x3 DUP2 ADD SLOAD SWAP1 PUSH1 0x4 DUP2 ADD SLOAD PUSH1 0x5 DUP3 ADD SLOAD PUSH1 0x6 DUP4 ADD SLOAD SWAP1 PUSH1 0xFF PUSH1 0x7 DUP6 ADD SLOAD AND SWAP3 PUSH1 0x9 PUSH1 0x8 DUP7 ADD SLOAD SWAP6 ADD SLOAD SWAP6 PUSH2 0x31B3 PUSH1 0x40 MLOAD SWAP11 DUP12 SWAP11 DUP12 MSTORE PUSH2 0x140 DUP1 PUSH1 0x20 DUP14 ADD MSTORE DUP12 ADD SWAP1 PUSH2 0x3C76 JUMP JUMPDEST SWAP8 PUSH1 0x40 DUP11 ADD MSTORE PUSH1 0x60 DUP10 ADD MSTORE PUSH1 0x80 DUP9 ADD MSTORE PUSH1 0xA0 DUP8 ADD MSTORE PUSH1 0xC0 DUP7 ADD MSTORE ISZERO ISZERO PUSH1 0xE0 DUP6 ADD MSTORE PUSH2 0x100 DUP5 ADD MSTORE PUSH2 0x120 DUP4 ADD MSTORE SUB SWAP1 RETURN JUMPDEST CALLVALUE PUSH2 0x3AE JUMPI PUSH1 0x0 CALLDATASIZE PUSH1 0x3 NOT ADD SLT PUSH2 0x3AE JUMPI PUSH1 0x20 PUSH1 0x10 SLOAD PUSH1 0x40 MLOAD SWAP1 DUP2 MSTORE RETURN JUMPDEST CALLVALUE PUSH2 0x3AE JUMPI PUSH1 0x0 CALLDATASIZE PUSH1 0x3 NOT ADD SLT PUSH2 0x3AE JUMPI PUSH1 0x20 PUSH1 0x5 SLOAD PUSH1 0x40 MLOAD SWAP1 DUP2 MSTORE RETURN JUMPDEST CALLVALUE PUSH2 0x3AE JUMPI PUSH1 0x0 CALLDATASIZE PUSH1 0x3 NOT ADD SLT PUSH2 0x3AE JUMPI PUSH1 0x20 PUSH1 0x13 SLOAD PUSH1 0x40 MLOAD SWAP1 DUP2 MSTORE RETURN JUMPDEST CALLVALUE PUSH2 0x3AE JUMPI PUSH1 0x40 CALLDATASIZE PUSH1 0x3 NOT ADD SLT PUSH2 0x3AE JUMPI PUSH2 0x3257 PUSH2 0x3C60 JUMP JUMPDEST PUSH1 0x1 PUSH1 0x1 PUSH1 0xA0 SHL SUB AND PUSH1 0x0 SWAP1 DUP2 MSTORE PUSH1 0xD PUSH1 0x20 MSTORE PUSH1 0x40 SWAP1 KECCAK256 DUP1 SLOAD PUSH1 0x24 CALLDATALOAD SWAP2 SWAP1 DUP3 LT ISZERO PUSH2 0x3AE JUMPI PUSH1 0x20 SWAP2 PUSH2 0x1331 SWAP2 PUSH2 0x3CB6 JUMP JUMPDEST CALLVALUE PUSH2 0x3AE JUMPI PUSH1 0x20 DUP1 PUSH1 0x3 NOT CALLDATASIZE ADD SLT PUSH2 0x3AE JUMPI PUSH1 0x1 PUSH1 0x1 PUSH1 0xA0 SHL SUB PUSH2 0x32AA PUSH2 0x3C60 JUMP JUMPDEST AND PUSH1 0x0 MSTORE PUSH1 0xD DUP2 MSTORE PUSH1 0x40 PUSH1 0x0 KECCAK256 SWAP1 PUSH1 0x40 MLOAD SWAP1 DUP2 DUP2 DUP5 SLOAD SWAP2 DUP3 DUP2 MSTORE ADD SWAP4 PUSH1 0x0 MSTORE DUP2 PUSH1 0x0 KECCAK256 SWAP2 PUSH1 0x0 SWAP1 JUMPDEST DUP3 DUP3 LT PUSH2 0x32E9 JUMPI PUSH2 0x7E7 DUP6 PUSH2 0x7DB DUP2 DUP10 SUB DUP3 PUSH2 0x3B8C JUMP JUMPDEST DUP4 SLOAD DUP7 MSTORE SWAP5 DUP6 ADD SWAP5 PUSH1 0x1 SWAP4 DUP5 ADD SWAP4 SWAP1 SWAP2 ADD SWAP1 PUSH2 0x32D2 JUMP JUMPDEST CALLVALUE PUSH2 0x3AE JUMPI PUSH1 0x20 CALLDATASIZE PUSH1 0x3 NOT ADD SLT PUSH2 0x3AE JUMPI PUSH2 0x3319 PUSH2 0x3C60 JUMP JUMPDEST PUSH2 0x3321 PUSH2 0x3DEB JUMP JUMPDEST PUSH1 0x1 PUSH1 0x1 PUSH1 0xA0 SHL SUB AND PUSH1 0x0 SWAP1 DUP2 MSTORE PUSH1 0xF PUSH1 0x20 MSTORE PUSH1 0x40 SWAP1 KECCAK256 DUP1 SLOAD PUSH1 0xFF NOT AND SWAP1 SSTORE STOP JUMPDEST CALLVALUE PUSH2 0x3AE JUMPI PUSH1 0x20 CALLDATASIZE PUSH1 0x3 NOT ADD SLT PUSH2 0x3AE JUMPI PUSH1 0x4 CALLDATALOAD PUSH2 0x335E PUSH2 0x3DEB JUMP JUMPDEST PUSH2 0x1F4 DUP2 GT PUSH2 0x336C JUMPI PUSH1 0x11 SSTORE STOP JUMPDEST PUSH1 0x40 MLOAD PUSH3 0x461BCD PUSH1 0xE5 SHL DUP2 MSTORE PUSH1 0x20 PUSH1 0x4 DUP3 ADD MSTORE PUSH1 0x1C PUSH1 0x24 DUP3 ADD MSTORE PUSH32 0x44697370757465206665652063616E6E6F742065786365656420352500000000 PUSH1 0x44 DUP3 ADD MSTORE PUSH1 0x64 SWAP1 REVERT JUMPDEST CALLVALUE PUSH2 0x3AE JUMPI PUSH1 0x20 CALLDATASIZE PUSH1 0x3 NOT ADD SLT PUSH2 0x3AE JUMPI PUSH1 0x4 CALLDATALOAD PUSH2 0x33CD PUSH2 0x3DEB JUMP JUMPDEST PUSH2 0x3E8 DUP2 GT PUSH2 0x33DB JUMPI PUSH1 0x10 SSTORE STOP JUMPDEST PUSH1 0x40 MLOAD PUSH3 0x461BCD PUSH1 0xE5 SHL DUP2 MSTORE PUSH1 0x20 PUSH1 0x4 DUP3 ADD MSTORE PUSH1 0x15 PUSH1 0x24 DUP3 ADD MSTORE PUSH21 0x4665652063616E6E6F742065786365656420313025 PUSH1 0x58 SHL PUSH1 0x44 DUP3 ADD MSTORE PUSH1 0x64 SWAP1 REVERT JUMPDEST CALLVALUE PUSH2 0x3AE JUMPI PUSH1 0x20 CALLDATASIZE PUSH1 0x3 NOT ADD SLT PUSH2 0x3AE JUMPI PUSH1 0x0 PUSH2 0x160 PUSH1 0x40 MLOAD PUSH2 0x343A DUP2 PUSH2 0x3B1D JUMP JUMPDEST DUP3 DUP2 MSTORE DUP3 PUSH1 0x20 DUP3 ADD MSTORE PUSH1 0x60 PUSH1 0x40 DUP3 ADD MSTORE DUP3 PUSH1 0x60 DUP3 ADD MSTORE DUP3 PUSH1 0x80 DUP3 ADD MSTORE PUSH1 0x60 PUSH1 0xA0 DUP3 ADD MSTORE DUP3 PUSH1 0xC0 DUP3 ADD MSTORE DUP3 PUSH1 0xE0 DUP3 ADD MSTORE DUP3 PUSH2 0x100 DUP3 ADD MSTORE DUP3 PUSH2 0x120 DUP3 ADD MSTORE DUP3 PUSH2 0x140 DUP3 ADD MSTORE ADD MSTORE PUSH1 0x4 CALLDATALOAD PUSH1 0x0 MSTORE PUSH1 0x6 PUSH1 0x20 MSTORE PUSH1 0x40 PUSH1 0x0 KECCAK256 PUSH1 0xA PUSH1 0x40 MLOAD SWAP2 PUSH2 0x349F DUP4 PUSH2 0x3B1D JUMP JUMPDEST DUP1 SLOAD DUP4 MSTORE PUSH1 0x1 DUP2 ADD SLOAD PUSH1 0x1 PUSH1 0x1 PUSH1 0xA0 SHL SUB AND PUSH1 0x20 DUP5 ADD MSTORE PUSH2 0x34C2 PUSH1 0x2 DUP3 ADD PUSH2 0x3D1E JUMP JUMPDEST PUSH1 0x40 DUP5 ADD MSTORE PUSH1 0x3 DUP2 ADD SLOAD PUSH1 0x60 DUP5 ADD MSTORE PUSH1 0x4 DUP2 ADD SLOAD PUSH1 0x80 DUP5 ADD MSTORE PUSH2 0x34E7 PUSH1 0x5 DUP3 ADD PUSH2 0x3D1E JUMP JUMPDEST PUSH1 0xA0 DUP5 ADD MSTORE PUSH1 0xFF PUSH1 0x6 DUP3 ADD SLOAD DUP2 DUP2 AND ISZERO ISZERO PUSH1 0xC0 DUP7 ADD MSTORE PUSH1 0x8 SHR AND ISZERO ISZERO PUSH1 0xE0 DUP5 ADD MSTORE PUSH1 0x7 DUP2 ADD SLOAD PUSH2 0x100 DUP5 ADD MSTORE PUSH1 0x8 DUP2 ADD SLOAD PUSH2 0x120 DUP5 ADD MSTORE PUSH1 0x9 DUP2 ADD SLOAD PUSH2 0x140 DUP5 ADD MSTORE ADD SLOAD PUSH2 0x160 DUP3 ADD MSTORE PUSH1 0x40 MLOAD DUP1 SWAP2 PUSH1 0x20 DUP3 MSTORE DUP1 MLOAD PUSH1 0x20 DUP4 ADD MSTORE PUSH1 0x1 DUP1 PUSH1 0xA0 SHL SUB PUSH1 0x20 DUP3 ADD MLOAD AND PUSH1 0x40 DUP4 ADD MSTORE PUSH1 0x40 DUP2 ADD MLOAD PUSH2 0x160 PUSH2 0x35A0 PUSH2 0x3576 PUSH2 0x180 SWAP4 DUP5 PUSH1 0x60 DUP9 ADD MSTORE PUSH2 0x1A0 DUP8 ADD SWAP1 PUSH2 0x3C76 JUMP JUMPDEST PUSH1 0x60 DUP6 ADD MLOAD PUSH1 0x80 DUP8 ADD MSTORE PUSH1 0x80 DUP6 ADD MLOAD PUSH1 0xA0 DUP8 ADD MSTORE PUSH1 0xA0 DUP6 ADD MLOAD PUSH1 0x1F NOT DUP8 DUP4 SUB ADD PUSH1 0xC0 DUP9 ADD MSTORE PUSH2 0x3C76 JUMP JUMPDEST SWAP3 PUSH1 0xC0 DUP2 ADD MLOAD ISZERO ISZERO PUSH1 0xE0 DUP7 ADD MSTORE PUSH1 0xE0 DUP2 ADD MLOAD ISZERO ISZERO PUSH2 0x100 DUP7 ADD MSTORE PUSH2 0x100 DUP2 ADD MLOAD PUSH2 0x120 DUP7 ADD MSTORE PUSH2 0x120 DUP2 ADD MLOAD PUSH2 0x140 DUP7 ADD MSTORE PUSH2 0x140 DUP2 ADD MLOAD DUP3 DUP7 ADD MSTORE ADD MLOAD SWAP1 DUP4 ADD MSTORE SUB SWAP1 RETURN JUMPDEST CALLVALUE PUSH2 0x3AE JUMPI PUSH1 0x40 CALLDATASIZE PUSH1 0x3 NOT ADD SLT PUSH2 0x3AE JUMPI PUSH1 0x4 CALLDATALOAD PUSH2 0x3602 PUSH2 0x3C4A JUMP JUMPDEST CALLER PUSH1 0x0 MSTORE PUSH1 0x20 SWAP1 PUSH1 0xF DUP3 MSTORE PUSH1 0xFF PUSH1 0x40 PUSH1 0x0 KECCAK256 SLOAD AND DUP1 ISZERO PUSH2 0x38C9 JUMPI JUMPDEST PUSH2 0x3626 SWAP1 PUSH2 0x3F75 JUMP JUMPDEST PUSH2 0x362E PUSH2 0x3E99 JUMP JUMPDEST DUP3 PUSH1 0x0 MSTORE PUSH1 0x8 DUP3 MSTORE PUSH1 0x40 PUSH1 0x0 KECCAK256 SWAP1 PUSH1 0x6 DUP3 ADD SWAP2 DUP3 SLOAD SWAP1 PUSH1 0xFF DUP3 AND PUSH1 0x3 DUP2 LT ISZERO PUSH2 0x359 JUMPI DUP1 ISZERO SWAP1 DUP2 ISZERO PUSH2 0x38BE JUMPI JUMPDEST POP ISZERO PUSH2 0x3886 JUMPI PUSH1 0x2 DUP2 ADD DUP1 SLOAD PUSH1 0x1 PUSH1 0x1 PUSH1 0xA0 SHL SUB DUP6 DUP2 AND SWAP7 SWAP1 SWAP6 SWAP3 SWAP5 SWAP3 SWAP2 DUP7 AND DUP8 EQ DUP1 ISZERO PUSH2 0x3877 JUMPI JUMPDEST ISZERO PUSH2 0x3832 JUMPI PUSH1 0x1 PUSH1 0x1 PUSH1 0xA8 SHL SUB NOT SWAP1 SWAP3 AND PUSH1 0x8 SWAP2 SWAP1 SWAP2 SHL PUSH2 0x100 PUSH1 0x1 PUSH1 0xA8 SHL SUB AND OR PUSH1 0x2 OR SWAP1 SSTORE PUSH1 0xFF NOT TIMESTAMP PUSH1 0x8 DUP4 ADD SSTORE PUSH1 0x1 DUP3 ADD SLOAD PUSH1 0x0 MSTORE PUSH1 0x7 DUP7 MSTORE PUSH1 0x40 PUSH1 0x0 KECCAK256 PUSH1 0x0 DUP1 DUP1 DUP1 DUP9 PUSH2 0x3706 DUP3 DUP1 DUP1 DUP1 PUSH1 0x9 DUP12 ADD SLOAD PUSH2 0x36F1 PUSH2 0x2710 PUSH2 0x36E9 PUSH1 0x11 SLOAD DUP5 PUSH2 0x40E6 JUMP JUMPDEST DIV DUP1 SWAP3 PUSH2 0x4011 JUMP JUMPDEST SWAP7 PUSH1 0x12 SLOAD AND GAS CALL PUSH2 0x3700 PUSH2 0x401E JUMP JUMPDEST POP PUSH2 0x40F9 JUMP JUMPDEST DUP11 GAS CALL PUSH2 0x3711 PUSH2 0x401E JUMP JUMPDEST POP ISZERO PUSH2 0x37F5 JUMPI PUSH1 0x8 PUSH1 0x6 SWAP2 ADD SWAP2 DUP3 SLOAD AND OR SWAP1 SSTORE DUP4 PUSH1 0x0 MSTORE PUSH1 0xA DUP6 MSTORE PUSH1 0x8 PUSH1 0x40 PUSH1 0x0 KECCAK256 ADD DUP1 SLOAD SWAP3 PUSH1 0x14 DUP5 ADD DUP1 SWAP5 GT PUSH2 0x2798 JUMPI DUP5 SWAP4 DUP5 SWAP3 SSTORE SLOAD AND DUP1 DUP6 EQ PUSH1 0x0 EQ PUSH2 0x37ED JUMPI POP PUSH1 0x3 ADD SLOAD AND JUMPDEST AND PUSH1 0x0 MSTORE PUSH1 0xA DUP3 MSTORE PUSH1 0x8 PUSH1 0x40 PUSH1 0x0 KECCAK256 ADD SWAP1 PUSH1 0x1E DUP3 SLOAD LT ISZERO PUSH1 0x0 EQ PUSH2 0x37C0 JUMPI DUP2 SLOAD PUSH1 0x1D NOT DUP2 ADD SWAP4 SWAP1 DUP5 GT PUSH2 0x2798 JUMPI PUSH32 0xDF0BAF5489595EA17A097D16827D60793E2F57F3B85A982E5D7E02838B841EE6 SWAP4 PUSH1 0x40 SWAP4 SSTORE JUMPDEST DUP3 MLOAD SWAP2 DUP3 MSTORE TIMESTAMP SWAP1 DUP3 ADD MSTORE LOG2 PUSH1 0x1 PUSH1 0x0 SSTORE STOP JUMPDEST PUSH32 0xDF0BAF5489595EA17A097D16827D60793E2F57F3B85A982E5D7E02838B841EE6 SWAP3 PUSH1 0x0 PUSH1 0x40 SWAP4 SSTORE PUSH2 0x37AE JUMP JUMPDEST SWAP2 POP POP PUSH2 0x375A JUMP JUMPDEST PUSH1 0x40 MLOAD PUSH3 0x461BCD PUSH1 0xE5 SHL DUP2 MSTORE PUSH1 0x4 DUP2 ADD DUP9 SWAP1 MSTORE PUSH1 0x15 PUSH1 0x24 DUP3 ADD MSTORE PUSH21 0x15DA5B9B995C881C185E5B595B9D0819985A5B1959 PUSH1 0x5A SHL PUSH1 0x44 DUP3 ADD MSTORE PUSH1 0x64 SWAP1 REVERT JUMPDEST PUSH1 0x40 MLOAD PUSH3 0x461BCD PUSH1 0xE5 SHL DUP2 MSTORE PUSH1 0x4 DUP2 ADD DUP10 SWAP1 MSTORE PUSH1 0x1C PUSH1 0x24 DUP3 ADD MSTORE PUSH32 0x57696E6E6572206D7573742062652061207061727469636970616E7400000000 PUSH1 0x44 DUP3 ADD MSTORE PUSH1 0x64 SWAP1 REVERT JUMPDEST POP DUP6 PUSH1 0x3 DUP6 ADD SLOAD AND DUP8 EQ PUSH2 0x3684 JUMP JUMPDEST PUSH1 0x40 MLOAD PUSH3 0x461BCD PUSH1 0xE5 SHL DUP2 MSTORE PUSH1 0x4 DUP2 ADD DUP7 SWAP1 MSTORE PUSH1 0x10 PUSH1 0x24 DUP3 ADD MSTORE PUSH16 0x2234B9B83ABA32903737BA1037B832B7 PUSH1 0x81 SHL PUSH1 0x44 DUP3 ADD MSTORE PUSH1 0x64 SWAP1 REVERT JUMPDEST PUSH1 0x1 SWAP2 POP EQ DUP8 PUSH2 0x365B JUMP JUMPDEST POP PUSH1 0x1 SLOAD CALLER PUSH1 0x8 SWAP2 SWAP1 SWAP2 SHR PUSH1 0x1 PUSH1 0x1 PUSH1 0xA0 SHL SUB AND EQ PUSH2 0x361D JUMP JUMPDEST CALLVALUE PUSH2 0x3AE JUMPI PUSH1 0x20 DUP1 PUSH1 0x3 NOT CALLDATASIZE ADD SLT PUSH2 0x3AE JUMPI PUSH1 0x4 CALLDATALOAD PUSH1 0x0 MSTORE PUSH1 0xB DUP2 MSTORE PUSH1 0x40 PUSH1 0x0 KECCAK256 SWAP1 PUSH1 0x40 MLOAD SWAP1 DUP2 DUP2 DUP5 SLOAD SWAP2 DUP3 DUP2 MSTORE ADD SWAP4 PUSH1 0x0 MSTORE DUP2 PUSH1 0x0 KECCAK256 SWAP2 PUSH1 0x0 SWAP1 JUMPDEST DUP3 DUP3 LT PUSH2 0x3936 JUMPI PUSH2 0x7E7 DUP6 PUSH2 0x7DB DUP2 DUP10 SUB DUP3 PUSH2 0x3B8C JUMP JUMPDEST DUP4 SLOAD DUP7 MSTORE SWAP5 DUP6 ADD SWAP5 PUSH1 0x1 SWAP4 DUP5 ADD SWAP4 SWAP1 SWAP2 ADD SWAP1 PUSH2 0x391F JUMP JUMPDEST CALLVALUE PUSH2 0x3AE JUMPI PUSH1 0x20 DUP1 PUSH1 0x3 NOT CALLDATASIZE ADD SLT PUSH2 0x3AE JUMPI PUSH1 0x1 PUSH1 0x1 PUSH1 0x40 SHL SUB PUSH1 0x4 CALLDATALOAD DUP2 DUP2 GT PUSH2 0x3AE JUMPI PUSH2 0x397F SWAP1 CALLDATASIZE SWAP1 PUSH1 0x4 ADD PUSH2 0x3BC8 JUMP JUMPDEST CALLER PUSH1 0x0 SWAP1 DUP2 MSTORE PUSH1 0xA DUP5 MSTORE PUSH1 0x40 SWAP1 KECCAK256 SLOAD PUSH1 0x1 PUSH1 0x1 PUSH1 0xA0 SHL SUB AND ISZERO PUSH2 0x3B0F JUMPI JUMPDEST CALLER PUSH1 0x0 MSTORE PUSH1 0xA DUP4 MSTORE PUSH1 0x1 DUP1 PUSH1 0x40 PUSH1 0x0 KECCAK256 ADD SWAP1 DUP3 MLOAD SWAP4 DUP5 GT PUSH2 0x638 JUMPI PUSH2 0x39C2 DUP3 SLOAD PUSH2 0x3CE4 JUMP JUMPDEST PUSH1 0x1F DUP2 GT PUSH2 0x3AC6 JUMPI JUMPDEST POP DUP5 PUSH1 0x1F DUP6 GT PUSH1 0x1 EQ PUSH2 0x3A3F JUMPI SWAP4 DUP1 DUP1 PUSH2 0x3A2F SWAP6 SWAP5 SWAP4 PUSH32 0x9AB5B01C08788936FB2B48DA858665AFE9FA06D32E17DC49E0510C24BA05C983 SWAP8 PUSH1 0x0 SWAP4 PUSH2 0x3A34 JUMPI JUMPDEST POP SHL SWAP2 PUSH1 0x0 NOT SWAP1 PUSH1 0x3 SHL SHR NOT AND OR SWAP1 SSTORE JUMPDEST PUSH1 0x40 MLOAD SWAP2 DUP3 SWAP2 DUP6 DUP4 MSTORE CALLER SWAP6 DUP4 ADD SWAP1 PUSH2 0x3C76 JUMP JUMPDEST SUB SWAP1 LOG2 STOP JUMPDEST DUP7 ADD MLOAD SWAP3 POP DUP10 PUSH2 0x3A0B JUMP JUMPDEST PUSH1 0x1F NOT DUP6 AND SWAP1 DUP4 PUSH1 0x0 MSTORE DUP7 PUSH1 0x0 KECCAK256 SWAP2 PUSH1 0x0 JUMPDEST DUP9 DUP3 DUP3 LT PUSH2 0x3AB2 JUMPI POP POP SWAP2 DUP7 SWAP2 PUSH32 0x9AB5B01C08788936FB2B48DA858665AFE9FA06D32E17DC49E0510C24BA05C983 SWAP8 PUSH2 0x3A2F SWAP8 SWAP7 SWAP6 SWAP5 LT PUSH2 0x3A99 JUMPI JUMPDEST POP POP DUP2 SHL ADD SWAP1 SSTORE PUSH2 0x3A1C JUMP JUMPDEST DUP6 ADD MLOAD PUSH1 0x0 NOT PUSH1 0xF8 DUP5 PUSH1 0x3 SHL AND SHR NOT AND SWAP1 SSTORE DUP8 DUP1 PUSH2 0x3A8D JUMP JUMPDEST DUP8 DUP5 ADD MLOAD DUP6 SSTORE SWAP4 DUP6 ADD SWAP4 SWAP3 DUP4 ADD SWAP3 ADD PUSH2 0x3A51 JUMP JUMPDEST DUP3 PUSH1 0x0 MSTORE DUP6 PUSH1 0x0 KECCAK256 PUSH1 0x1F DUP7 ADD PUSH1 0x5 SHR DUP2 ADD SWAP2 DUP8 DUP8 LT PUSH2 0x3B05 JUMPI JUMPDEST PUSH1 0x1F ADD PUSH1 0x5 SHR ADD SWAP1 DUP3 SWAP1 JUMPDEST DUP3 DUP2 LT PUSH2 0x3AF9 JUMPI POP POP PUSH2 0x39CB JUMP JUMPDEST PUSH1 0x0 DUP2 SSTORE ADD DUP3 SWAP1 PUSH2 0x3AEB JUMP JUMPDEST SWAP1 SWAP2 POP DUP2 SWAP1 PUSH2 0x3AE0 JUMP JUMPDEST PUSH2 0x3B18 CALLER PUSH2 0x4324 JUMP JUMPDEST PUSH2 0x399D JUMP JUMPDEST PUSH2 0x180 DUP2 ADD SWAP1 DUP2 LT PUSH1 0x1 PUSH1 0x1 PUSH1 0x40 SHL SUB DUP3 GT OR PUSH2 0x638 JUMPI PUSH1 0x40 MSTORE JUMP JUMPDEST PUSH2 0x1A0 DUP2 ADD SWAP1 DUP2 LT PUSH1 0x1 PUSH1 0x1 PUSH1 0x40 SHL SUB DUP3 GT OR PUSH2 0x638 JUMPI PUSH1 0x40 MSTORE JUMP JUMPDEST PUSH1 0xE0 DUP2 ADD SWAP1 DUP2 LT PUSH1 0x1 PUSH1 0x1 PUSH1 0x40 SHL SUB DUP3 GT OR PUSH2 0x638 JUMPI PUSH1 0x40 MSTORE JUMP JUMPDEST PUSH2 0x140 DUP2 ADD SWAP1 DUP2 LT PUSH1 0x1 PUSH1 0x1 PUSH1 0x40 SHL SUB DUP3 GT OR PUSH2 0x638 JUMPI PUSH1 0x40 MSTORE JUMP JUMPDEST SWAP1 PUSH1 0x1F DUP1 NOT SWAP2 ADD AND DUP2 ADD SWAP1 DUP2 LT PUSH1 0x1 PUSH1 0x1 PUSH1 0x40 SHL SUB DUP3 GT OR PUSH2 0x638 JUMPI PUSH1 0x40 MSTORE JUMP JUMPDEST PUSH1 0x1 PUSH1 0x1 PUSH1 0x40 SHL SUB DUP2 GT PUSH2 0x638 JUMPI PUSH1 0x1F ADD PUSH1 0x1F NOT AND PUSH1 0x20 ADD SWAP1 JUMP JUMPDEST DUP2 PUSH1 0x1F DUP3 ADD SLT ISZERO PUSH2 0x3AE JUMPI DUP1 CALLDATALOAD SWAP1 PUSH2 0x3BDF DUP3 PUSH2 0x3BAD JUMP JUMPDEST SWAP3 PUSH2 0x3BED PUSH1 0x40 MLOAD SWAP5 DUP6 PUSH2 0x3B8C JUMP JUMPDEST DUP3 DUP5 MSTORE PUSH1 0x20 DUP4 DUP4 ADD ADD GT PUSH2 0x3AE JUMPI DUP2 PUSH1 0x0 SWAP3 PUSH1 0x20 DUP1 SWAP4 ADD DUP4 DUP7 ADD CALLDATACOPY DUP4 ADD ADD MSTORE SWAP1 JUMP JUMPDEST PUSH1 0x20 SWAP1 DUP2 PUSH1 0x40 DUP2 DUP4 ADD SWAP3 DUP3 DUP2 MSTORE DUP6 MLOAD DUP1 SWAP5 MSTORE ADD SWAP4 ADD SWAP2 PUSH1 0x0 JUMPDEST DUP3 DUP2 LT PUSH2 0x3C36 JUMPI POP POP POP POP SWAP1 JUMP JUMPDEST DUP4 MLOAD DUP6 MSTORE SWAP4 DUP2 ADD SWAP4 SWAP3 DUP2 ADD SWAP3 PUSH1 0x1 ADD PUSH2 0x3C28 JUMP JUMPDEST PUSH1 0x24 CALLDATALOAD SWAP1 PUSH1 0x1 PUSH1 0x1 PUSH1 0xA0 SHL SUB DUP3 AND DUP3 SUB PUSH2 0x3AE JUMPI JUMP JUMPDEST PUSH1 0x4 CALLDATALOAD SWAP1 PUSH1 0x1 PUSH1 0x1 PUSH1 0xA0 SHL SUB DUP3 AND DUP3 SUB PUSH2 0x3AE JUMPI JUMP JUMPDEST SWAP2 SWAP1 DUP3 MLOAD SWAP3 DUP4 DUP3 MSTORE PUSH1 0x0 JUMPDEST DUP5 DUP2 LT PUSH2 0x3CA2 JUMPI POP POP DUP3 PUSH1 0x0 PUSH1 0x20 DUP1 SWAP5 SWAP6 DUP5 ADD ADD MSTORE PUSH1 0x1F DUP1 NOT SWAP2 ADD AND ADD ADD SWAP1 JUMP JUMPDEST PUSH1 0x20 DUP2 DUP4 ADD DUP2 ADD MLOAD DUP5 DUP4 ADD DUP3 ADD MSTORE ADD PUSH2 0x3C81 JUMP JUMPDEST DUP1 SLOAD DUP3 LT ISZERO PUSH2 0x3CCE JUMPI PUSH1 0x0 MSTORE PUSH1 0x20 PUSH1 0x0 KECCAK256 ADD SWAP1 PUSH1 0x0 SWAP1 JUMP JUMPDEST PUSH4 0x4E487B71 PUSH1 0xE0 SHL PUSH1 0x0 MSTORE PUSH1 0x32 PUSH1 0x4 MSTORE PUSH1 0x24 PUSH1 0x0 REVERT JUMPDEST SWAP1 PUSH1 0x1 DUP3 DUP2 SHR SWAP3 AND DUP1 ISZERO PUSH2 0x3D14 JUMPI JUMPDEST PUSH1 0x20 DUP4 LT EQ PUSH2 0x3CFE JUMPI JUMP JUMPDEST PUSH4 0x4E487B71 PUSH1 0xE0 SHL PUSH1 0x0 MSTORE PUSH1 0x22 PUSH1 0x4 MSTORE PUSH1 0x24 PUSH1 0x0 REVERT JUMPDEST SWAP2 PUSH1 0x7F AND SWAP2 PUSH2 0x3CF3 JUMP JUMPDEST SWAP1 PUSH1 0x40 MLOAD SWAP2 DUP3 PUSH1 0x0 DUP3 SLOAD SWAP3 PUSH2 0x3D32 DUP5 PUSH2 0x3CE4 JUMP JUMPDEST SWAP1 DUP2 DUP5 MSTORE PUSH1 0x1 SWAP5 DUP6 DUP2 AND SWAP1 DUP2 PUSH1 0x0 EQ PUSH2 0x3DA1 JUMPI POP PUSH1 0x1 EQ PUSH2 0x3D5E JUMPI JUMPDEST POP POP PUSH2 0x3D5C SWAP3 POP SUB DUP4 PUSH2 0x3B8C JUMP JUMPDEST JUMP JUMPDEST SWAP1 SWAP4 SWAP2 POP PUSH1 0x0 MSTORE PUSH1 0x20 SWAP1 DUP2 PUSH1 0x0 KECCAK256 SWAP4 PUSH1 0x0 SWAP2 JUMPDEST DUP2 DUP4 LT PUSH2 0x3D89 JUMPI POP POP PUSH2 0x3D5C SWAP4 POP DUP3 ADD ADD CODESIZE DUP1 PUSH2 0x3D4E JUMP JUMPDEST DUP6 SLOAD DUP9 DUP5 ADD DUP6 ADD MSTORE SWAP5 DUP6 ADD SWAP5 DUP8 SWAP5 POP SWAP2 DUP4 ADD SWAP2 PUSH2 0x3D71 JUMP JUMPDEST SWAP2 POP POP PUSH2 0x3D5C SWAP5 POP PUSH1 0x20 SWAP3 POP PUSH1 0xFF NOT AND DUP3 DUP5 ADD MSTORE ISZERO ISZERO PUSH1 0x5 SHL DUP3 ADD ADD CODESIZE DUP1 PUSH2 0x3D4E JUMP JUMPDEST SWAP1 PUSH1 0x2 DUP3 LT ISZERO PUSH2 0x359 JUMPI MSTORE JUMP JUMPDEST SWAP1 PUSH1 0x7 DUP3 LT ISZERO PUSH2 0x359 JUMPI MSTORE JUMP JUMPDEST SWAP1 PUSH1 0x3 DUP3 LT ISZERO PUSH2 0x359 JUMPI MSTORE JUMP JUMPDEST PUSH1 0x1 SLOAD PUSH1 0x8 SHR PUSH1 0x1 PUSH1 0x1 PUSH1 0xA0 SHL SUB AND CALLER SUB PUSH2 0x3E02 JUMPI JUMP JUMPDEST PUSH1 0x64 PUSH1 0x40 MLOAD PUSH3 0x461BCD PUSH1 0xE5 SHL DUP2 MSTORE PUSH1 0x20 PUSH1 0x4 DUP3 ADD MSTORE PUSH1 0x20 PUSH1 0x24 DUP3 ADD MSTORE PUSH32 0x4F776E61626C653A2063616C6C6572206973206E6F7420746865206F776E6572 PUSH1 0x44 DUP3 ADD MSTORE REVERT JUMPDEST PUSH1 0x0 NOT DUP2 EQ PUSH2 0x2798 JUMPI PUSH1 0x1 ADD SWAP1 JUMP JUMPDEST PUSH1 0xFF PUSH1 0x1 SLOAD AND PUSH2 0x3E61 JUMPI JUMP JUMPDEST PUSH1 0x40 MLOAD PUSH3 0x461BCD PUSH1 0xE5 SHL DUP2 MSTORE PUSH1 0x20 PUSH1 0x4 DUP3 ADD MSTORE PUSH1 0x10 PUSH1 0x24 DUP3 ADD MSTORE PUSH16 0x14185D5CD8589B194E881C185D5CD959 PUSH1 0x82 SHL PUSH1 0x44 DUP3 ADD MSTORE PUSH1 0x64 SWAP1 REVERT JUMPDEST PUSH1 0x2 PUSH1 0x0 SLOAD EQ PUSH2 0x3EAA JUMPI PUSH1 0x2 PUSH1 0x0 SSTORE JUMP JUMPDEST PUSH1 0x40 MLOAD PUSH3 0x461BCD PUSH1 0xE5 SHL DUP2 MSTORE PUSH1 0x20 PUSH1 0x4 DUP3 ADD MSTORE PUSH1 0x1F PUSH1 0x24 DUP3 ADD MSTORE PUSH32 0x5265656E7472616E637947756172643A207265656E7472616E742063616C6C00 PUSH1 0x44 DUP3 ADD MSTORE PUSH1 0x64 SWAP1 REVERT JUMPDEST ISZERO PUSH2 0x3EF6 JUMPI JUMP JUMPDEST PUSH1 0x40 MLOAD PUSH3 0x461BCD PUSH1 0xE5 SHL DUP2 MSTORE PUSH1 0x20 PUSH1 0x4 DUP3 ADD MSTORE PUSH1 0x16 PUSH1 0x24 DUP3 ADD MSTORE PUSH22 0x131A5CDD1A5B99C8191BD95CC81B9BDD08195E1A5CDD PUSH1 0x52 SHL PUSH1 0x44 DUP3 ADD MSTORE PUSH1 0x64 SWAP1 REVERT JUMPDEST ISZERO PUSH2 0x3F3B JUMPI JUMP JUMPDEST PUSH1 0x40 MLOAD PUSH3 0x461BCD PUSH1 0xE5 SHL DUP2 MSTORE PUSH1 0x20 PUSH1 0x4 DUP3 ADD MSTORE PUSH1 0x12 PUSH1 0x24 DUP3 ADD MSTORE PUSH18 0x4C697374696E67206E6F7420616374697665 PUSH1 0x70 SHL PUSH1 0x44 DUP3 ADD MSTORE PUSH1 0x64 SWAP1 REVERT JUMPDEST ISZERO PUSH2 0x3F7C JUMPI JUMP JUMPDEST PUSH1 0x40 MLOAD PUSH3 0x461BCD PUSH1 0xE5 SHL DUP2 MSTORE PUSH1 0x20 PUSH1 0x4 DUP3 ADD MSTORE PUSH1 0xE PUSH1 0x24 DUP3 ADD MSTORE PUSH14 0x139BDD08185D5D1A1BDC9A5E9959 PUSH1 0x92 SHL PUSH1 0x44 DUP3 ADD MSTORE PUSH1 0x64 SWAP1 REVERT JUMPDEST SWAP2 SWAP1 DUP3 ADD DUP1 SWAP3 GT PUSH2 0x2798 JUMPI JUMP JUMPDEST PUSH1 0x2 DUP3 LT ISZERO PUSH2 0x359 JUMPI MSTORE JUMP JUMPDEST PUSH1 0x7 DUP3 LT ISZERO PUSH2 0x359 JUMPI MSTORE JUMP JUMPDEST DUP1 SLOAD PUSH9 0x10000000000000000 DUP2 LT ISZERO PUSH2 0x638 JUMPI PUSH2 0x3FF9 SWAP2 PUSH1 0x1 DUP3 ADD DUP2 SSTORE PUSH2 0x3CB6 JUMP JUMPDEST DUP2 SWAP3 SWAP2 SLOAD SWAP1 PUSH1 0x3 SHL SWAP2 DUP3 SHL SWAP2 PUSH1 0x0 NOT SWAP1 SHL NOT AND OR SWAP1 SSTORE JUMP JUMPDEST SWAP2 SWAP1 DUP3 SUB SWAP2 DUP3 GT PUSH2 0x2798 JUMPI JUMP JUMPDEST RETURNDATASIZE ISZERO PUSH2 0x4049 JUMPI RETURNDATASIZE SWAP1 PUSH2 0x402F DUP3 PUSH2 0x3BAD JUMP JUMPDEST SWAP2 PUSH2 0x403D PUSH1 0x40 MLOAD SWAP4 DUP5 PUSH2 0x3B8C JUMP JUMPDEST DUP3 MSTORE RETURNDATASIZE PUSH1 0x0 PUSH1 0x20 DUP5 ADD RETURNDATACOPY JUMP JUMPDEST PUSH1 0x60 SWAP1 JUMP JUMPDEST ISZERO PUSH2 0x4055 JUMPI JUMP JUMPDEST PUSH1 0x40 MLOAD PUSH3 0x461BCD PUSH1 0xE5 SHL DUP2 MSTORE PUSH1 0x20 PUSH1 0x4 DUP3 ADD MSTORE PUSH1 0x1A PUSH1 0x24 DUP3 ADD MSTORE PUSH32 0x5472616E73616374696F6E20646F6573206E6F74206578697374000000000000 PUSH1 0x44 DUP3 ADD MSTORE PUSH1 0x64 SWAP1 REVERT JUMPDEST ISZERO PUSH2 0x40A1 JUMPI JUMP JUMPDEST PUSH1 0x40 MLOAD PUSH3 0x461BCD PUSH1 0xE5 SHL DUP2 MSTORE PUSH1 0x20 PUSH1 0x4 DUP3 ADD MSTORE PUSH1 0x1A PUSH1 0x24 DUP3 ADD MSTORE PUSH32 0x496E76616C6964207472616E73616374696F6E20737461747573000000000000 PUSH1 0x44 DUP3 ADD MSTORE PUSH1 0x64 SWAP1 REVERT JUMPDEST DUP2 DUP2 MUL SWAP3 SWAP2 DUP2 ISZERO SWAP2 DUP5 DIV EQ OR ISZERO PUSH2 0x2798 JUMPI JUMP JUMPDEST ISZERO PUSH2 0x4100 JUMPI JUMP JUMPDEST PUSH1 0x40 MLOAD PUSH3 0x461BCD PUSH1 0xE5 SHL DUP2 MSTORE PUSH1 0x20 PUSH1 0x4 DUP3 ADD MSTORE PUSH1 0x13 PUSH1 0x24 DUP3 ADD MSTORE PUSH19 0x119959481D1C985B9CD9995C8819985A5B1959 PUSH1 0x6A SHL PUSH1 0x44 DUP3 ADD MSTORE PUSH1 0x64 SWAP1 REVERT JUMPDEST SWAP1 PUSH1 0x0 SWAP2 DUP1 DUP4 MSTORE PUSH1 0x20 PUSH1 0x7 DUP2 MSTORE PUSH1 0x40 DUP1 DUP6 KECCAK256 PUSH1 0x8 DUP2 ADD PUSH1 0x3 PUSH1 0xFF NOT DUP3 SLOAD AND OR SWAP1 SSTORE TIMESTAMP PUSH1 0x7 DUP3 ADD SSTORE PUSH1 0x4 DUP2 ADD SLOAD PUSH2 0x4179 PUSH2 0x2710 PUSH2 0x36E9 PUSH1 0x10 SLOAD DUP5 PUSH2 0x40E6 JUMP JUMPDEST SWAP2 PUSH2 0x4198 DUP9 DUP1 DUP1 DUP1 PUSH1 0x1 DUP1 PUSH1 0xA0 SHL SUB SWAP7 DUP8 PUSH1 0x12 SLOAD AND GAS CALL PUSH2 0x3700 PUSH2 0x401E JUMP JUMPDEST DUP8 DUP1 DUP1 DUP1 PUSH1 0x3 DUP6 ADD SWAP7 DUP7 DUP9 SLOAD AND GAS CALL PUSH2 0x41AF PUSH2 0x401E JUMP JUMPDEST POP ISZERO PUSH2 0x42E8 JUMPI DUP8 PUSH1 0x5 DUP3 ADD SLOAD DUP1 PUSH2 0x428A JUMPI JUMPDEST POP POP PUSH1 0x2 ADD SWAP2 DUP2 DUP4 SLOAD AND DUP9 MSTORE DUP2 PUSH1 0xA SWAP4 DUP5 DUP8 MSTORE PUSH1 0x3 DUP7 DUP12 KECCAK256 ADD PUSH2 0x41E4 DUP2 SLOAD PUSH2 0x3E46 JUMP JUMPDEST SWAP1 SSTORE DUP2 DUP4 SLOAD AND DUP11 MSTORE DUP5 DUP8 MSTORE PUSH1 0x3 DUP7 DUP12 KECCAK256 ADD PUSH2 0x41FF DUP2 SLOAD PUSH2 0x3E46 JUMP JUMPDEST SWAP1 SSTORE SLOAD AND DUP9 MSTORE DUP3 DUP6 MSTORE PUSH1 0x8 DUP5 DUP10 KECCAK256 ADD DUP1 SLOAD SWAP1 DUP5 DUP3 ADD DUP1 SWAP3 GT PUSH2 0x4276 JUMPI SSTORE SLOAD AND DUP7 MSTORE DUP1 DUP4 MSTORE PUSH1 0x8 DUP3 DUP8 KECCAK256 ADD DUP1 SLOAD SWAP2 DUP3 ADD DUP1 SWAP3 GT PUSH2 0x4262 JUMPI PUSH32 0x6AA7274309D76CD1146FD229F234C1325770C94642718BD7F5F10F41FBC44C9E SWAP5 SWAP6 SWAP7 POP SSTORE MLOAD TIMESTAMP DUP2 MSTORE LOG2 JUMP JUMPDEST PUSH4 0x4E487B71 PUSH1 0xE0 SHL DUP8 MSTORE PUSH1 0x11 PUSH1 0x4 MSTORE PUSH1 0x24 DUP8 REVERT JUMPDEST PUSH4 0x4E487B71 PUSH1 0xE0 SHL DUP11 MSTORE PUSH1 0x11 PUSH1 0x4 MSTORE PUSH1 0x24 DUP11 REVERT JUMPDEST DUP2 DUP1 DUP1 SWAP3 DUP7 PUSH1 0x2 DUP8 ADD SLOAD AND GAS CALL PUSH2 0x429F PUSH2 0x401E JUMP JUMPDEST POP ISZERO PUSH2 0x42AC JUMPI DUP8 CODESIZE PUSH2 0x41C1 JUMP JUMPDEST DUP4 MLOAD PUSH3 0x461BCD PUSH1 0xE5 SHL DUP2 MSTORE PUSH1 0x4 DUP2 ADD DUP7 SWAP1 MSTORE PUSH1 0x15 PUSH1 0x24 DUP3 ADD MSTORE PUSH21 0x11195C1BDCDA5D081C99599D5B990819985A5B1959 PUSH1 0x5A SHL PUSH1 0x44 DUP3 ADD MSTORE PUSH1 0x64 SWAP1 REVERT JUMPDEST DUP4 MLOAD PUSH3 0x461BCD PUSH1 0xE5 SHL DUP2 MSTORE PUSH1 0x4 DUP2 ADD DUP7 SWAP1 MSTORE PUSH1 0x15 PUSH1 0x24 DUP3 ADD MSTORE PUSH21 0x14D95B1B195C881C185E5B595B9D0819985A5B1959 PUSH1 0x5A SHL PUSH1 0x44 DUP3 ADD MSTORE PUSH1 0x64 SWAP1 REVERT JUMPDEST PUSH1 0x40 MLOAD PUSH2 0x4330 DUP2 PUSH2 0x3B70 JUMP JUMPDEST PUSH1 0x1 PUSH1 0x1 PUSH1 0xA0 SHL SUB SWAP2 DUP3 AND DUP1 DUP3 MSTORE PUSH1 0x40 MLOAD SWAP1 SWAP2 PUSH1 0x20 SWAP1 PUSH1 0x1 PUSH1 0x1 PUSH1 0x40 SHL SUB DUP3 DUP5 ADD DUP2 DUP2 GT DUP6 DUP3 LT OR PUSH2 0x638 JUMPI PUSH1 0x40 MSTORE PUSH1 0x0 SWAP4 DUP5 DUP2 MSTORE DUP4 DUP4 ADD SWAP1 DUP2 MSTORE PUSH1 0x40 DUP4 ADD DUP6 DUP2 MSTORE PUSH1 0x60 DUP5 ADD SWAP1 DUP7 DUP3 MSTORE PUSH1 0x80 DUP6 ADD SWAP3 DUP8 DUP5 MSTORE PUSH1 0xA0 DUP7 ADD SWAP5 DUP9 DUP7 MSTORE PUSH1 0xC0 DUP8 ADD SWAP7 DUP10 DUP9 MSTORE PUSH1 0xE0 DUP2 ADD SWAP9 DUP11 DUP11 MSTORE PUSH2 0x100 DUP3 ADD SWAP11 DUP1 DUP13 MSTORE PUSH2 0x120 DUP4 ADD SWAP13 DUP14 TIMESTAMP SWAP1 MSTORE DUP2 MSTORE PUSH1 0xA DUP3 MSTORE PUSH1 0x40 DUP2 KECCAK256 SWAP14 DUP15 SWAP4 MLOAD AND PUSH1 0x1 PUSH1 0x1 PUSH1 0x60 SHL SUB PUSH1 0xA0 SHL DUP5 SLOAD AND OR DUP4 SSTORE PUSH1 0x1 DUP1 SWAP4 ADD SWAP5 MLOAD SWAP1 DUP2 MLOAD SWAP5 DUP6 GT PUSH2 0x4533 JUMPI PUSH2 0x43E8 DUP7 SLOAD PUSH2 0x3CE4 JUMP JUMPDEST PUSH1 0x1F DUP2 GT PUSH2 0x44ED JUMPI JUMPDEST POP DUP3 PUSH1 0x1F DUP7 GT PUSH1 0x1 EQ PUSH2 0x4479 JUMPI POP SWAP4 PUSH1 0x9 SWAP14 SWAP13 SWAP12 SWAP10 SWAP8 SWAP6 SWAP4 DUP2 SWAP4 DUP3 SWAP4 PUSH2 0x4462 SWAP14 SWAP12 SWAP10 SWAP8 SWAP5 PUSH2 0x446E JUMPI JUMPDEST POP POP SHL SWAP2 PUSH1 0x0 NOT SWAP1 PUSH1 0x3 SHL SHR NOT AND OR SWAP1 SSTORE JUMPDEST MLOAD PUSH1 0x2 DUP12 ADD SSTORE MLOAD PUSH1 0x3 DUP11 ADD SSTORE MLOAD PUSH1 0x4 DUP10 ADD SSTORE MLOAD PUSH1 0x5 DUP9 ADD SSTORE MLOAD PUSH1 0x6 DUP8 ADD SSTORE MLOAD ISZERO ISZERO PUSH1 0x7 DUP7 ADD SWAP1 PUSH1 0xFF DUP1 NOT DUP4 SLOAD AND SWAP2 ISZERO ISZERO AND OR SWAP1 SSTORE JUMP JUMPDEST MLOAD PUSH1 0x8 DUP5 ADD SSTORE MLOAD SWAP2 ADD SSTORE JUMP JUMPDEST ADD MLOAD SWAP3 POP CODESIZE DUP1 PUSH2 0x441A JUMP JUMPDEST DUP7 DUP3 MSTORE DUP1 DUP3 KECCAK256 SWAP5 SWAP6 SWAP5 SWAP4 SWAP3 SWAP2 PUSH1 0x1F NOT DUP7 AND SWAP2 JUMPDEST DUP3 DUP3 LT PUSH2 0x44D6 JUMPI POP POP SWAP2 PUSH2 0x4462 SWAP12 SWAP10 SWAP8 SWAP6 SWAP4 SWAP2 PUSH1 0x9 SWAP16 SWAP15 SWAP14 SWAP12 SWAP10 SWAP8 SWAP6 DUP1 SWAP5 LT PUSH2 0x44BD JUMPI JUMPDEST POP POP POP DUP2 SHL ADD SWAP1 SSTORE PUSH2 0x442C JUMP JUMPDEST ADD MLOAD PUSH1 0x0 NOT PUSH1 0xF8 DUP5 PUSH1 0x3 SHL AND SHR NOT AND SWAP1 SSTORE CODESIZE DUP1 DUP1 PUSH2 0x44B0 JUMP JUMPDEST DUP1 DUP9 DUP7 SWAP8 DUP3 SWAP5 SWAP8 DUP8 ADD MLOAD DUP2 SSTORE ADD SWAP7 ADD SWAP5 ADD SWAP1 PUSH2 0x448C JUMP JUMPDEST DUP7 DUP3 MSTORE DUP4 DUP3 KECCAK256 PUSH1 0x1F DUP8 ADD PUSH1 0x5 SHR DUP2 ADD SWAP2 DUP6 DUP9 LT PUSH2 0x4529 JUMPI JUMPDEST PUSH1 0x1F ADD PUSH1 0x5 SHR ADD SWAP1 DUP6 SWAP1 JUMPDEST DUP3 DUP2 LT PUSH2 0x451E JUMPI POP POP PUSH2 0x43F1 JUMP JUMPDEST DUP4 DUP2 SSTORE ADD DUP6 SWAP1 PUSH2 0x4510 JUMP JUMPDEST SWAP1 SWAP2 POP DUP2 SWAP1 PUSH2 0x4505 JUMP JUMPDEST PUSH4 0x4E487B71 PUSH1 0xE0 SHL DUP2 MSTORE PUSH1 0x41 PUSH1 0x4 MSTORE PUSH1 0x24 SWAP1 REVERT JUMPDEST PUSH1 0xFF PUSH1 0x1 SLOAD AND ISZERO PUSH2 0x4554 JUMPI JUMP JUMPDEST PUSH1 0x40 MLOAD PUSH3 0x461BCD PUSH1 0xE5 SHL DUP2 MSTORE PUSH1 0x20 PUSH1 0x4 DUP3 ADD MSTORE PUSH1 0x14 PUSH1 0x24 DUP3 ADD MSTORE PUSH20 0x14185D5CD8589B194E881B9BDD081C185D5CD959 PUSH1 0x62 SHL PUSH1 0x44 DUP3 ADD MSTORE PUSH1 0x64 SWAP1 REVERT INVALID LOG2 PUSH5 0x6970667358 0x22 SLT KECCAK256 0xCA SWAP13 EXTCODECOPY BALANCE 0xBB 0xD0 ORIGIN STATICCALL 0xCB 0xB0 MULMOD 0xDC DUP9 DUP15 0xE2 0x25 SUB SLOAD 0x2B 0xCE DUP9 0xE1 0xD3 0xA7 PUSH14 0xA97BA687B2A13064736F6C634300 ADDMOD SGT STOP CALLER "},"methodIdentifiers":{"addAdmin(address)":"70480275","admins(address)":"429b62e5","confirmDelivery(uint256)":"fd84cb97","confirmReceipt(uint256)":"843cba13","createDispute(uint256,string,string)":"7100dc62","createListing(string,uint256,uint256,string,bool)":"ade95202","createTransaction(uint256)":"da165ddb","deleteListing(uint256)":"e6282c6e","disputeFee()":"b9ce896b","disputes(uint256)":"564a565d","emergencyWithdraw()":"db2e21bc","feeRecipient()":"46904840","getDispute(uint256)":"e3a96cbd","getListing(uint256)":"107a274a","getListingTransactions(uint256)":"088efa07","getReview(uint256)":"990581b6","getTotalDisputes()":"97fbc2fb","getTotalListings()":"fbf30c35","getTotalReviews()":"25f60082","getTotalTransactions()":"b5c604ff","getTransaction(uint256)":"33ea3dc8","getUserProfile(address)":"987ee156","getUserReviews(address)":"18d0e8b2","getUserTransactions(address)":"ef925399","incrementViews(uint256)":"d6895db2","isFavorited(address,uint256)":"0e95d338","listingTransactions(uint256,uint256)":"a7ba7edc","listings(uint256)":"de74e57b","minDisputeStake()":"253b8cef","owner()":"8da5cb5b","pause()":"8456cb59","paused()":"5c975abb","platformFee()":"26232a2e","removeAdmin(address)":"1785f53c","renounceOwnership()":"715018a6","resolveDispute(uint256,address)":"0e33599d","reviews(uint256)":"e83ddcea","setDisputeFee(uint256)":"17299c04","setFeeRecipient(address)":"e74b981b","setMinDisputeStake(uint256)":"a60b1b4c","setPlatformFee(uint256)":"12e8e2c3","submitReview(uint256,address,uint8,string)":"3c6bdab3","toggleFavorite(uint256)":"36eeb9a6","transactions(uint256)":"9ace38c2","transferOwnership(address)":"f2fde38b","unpause()":"3f4ba83a","updateListing(uint256,uint256,uint256,string)":"fb49ef17","updateProfile(string)":"009299e3","userFavorites(address,uint256)":"aa070fb5","userProfiles(address)":"332d56d7","userReviews(address,uint256)":"1f4ac129","userTransactions(address,uint256)":"b842ec44","verifyUser(address)":"4d813120"}}}}}