{"contracts/Blockrent.sol":{"Blockrent":{"abi":[{"inputs":[{"internalType":"address","name":"_feeRecipient","type":"address"}],"stateMutability":"nonpayable","type":"constructor"},{"anonymous":false,"inputs":[{"indexed":true,"internalType":"uint256","name":"listingId","type":"uint256"},{"indexed":true,"internalType":"address","name":"owner","type":"address"},{"indexed":false,"internalType":"bool","name":"isForRent","type":"bool"},{"indexed":false,"internalType":"uint256","name":"price","type":"uint256"},{"indexed":false,"internalType":"uint256","name":"deposit","type":"uint256"},{"indexed":false,"internalType":"string","name":"ipfsHash","type":"string"}],"name":"ListingCreated","type":"event"},{"anonymous":false,"inputs":[{"indexed":true,"internalType":"address","name":"previousOwner","type":"address"},{"indexed":true,"internalType":"address","name":"newOwner","type":"address"}],"name":"OwnershipTransferred","type":"event"},{"anonymous":false,"inputs":[{"indexed":false,"internalType":"address","name":"account","type":"address"}],"name":"Paused","type":"event"},{"anonymous":false,"inputs":[{"indexed":false,"internalType":"bool","name":"paused","type":"bool"}],"name":"PausedStatusChanged","type":"event"},{"anonymous":false,"inputs":[{"indexed":true,"internalType":"address","name":"user","type":"address"},{"indexed":true,"internalType":"address","name":"rater","type":"address"},{"indexed":false,"internalType":"uint8","name":"stars","type":"uint8"},{"indexed":false,"internalType":"uint256","name":"transactionId","type":"uint256"}],"name":"RatingGiven","type":"event"},{"anonymous":false,"inputs":[{"indexed":true,"internalType":"uint256","name":"transactionId","type":"uint256"},{"indexed":true,"internalType":"address","name":"participant","type":"address"},{"indexed":false,"internalType":"uint256","name":"timestamp","type":"uint256"}],"name":"TransactionCompleted","type":"event"},{"anonymous":false,"inputs":[{"indexed":true,"internalType":"uint256","name":"transactionId","type":"uint256"},{"indexed":true,"internalType":"uint256","name":"listingId","type":"uint256"},{"indexed":true,"internalType":"address","name":"buyerOrRenter","type":"address"},{"indexed":false,"internalType":"uint8","name":"transactionType","type":"uint8"},{"indexed":false,"internalType":"uint256","name":"pricePaid","type":"uint256"},{"indexed":false,"internalType":"uint256","name":"depositPaid","type":"uint256"}],"name":"TransactionStarted","type":"event"},{"anonymous":false,"inputs":[{"indexed":false,"internalType":"address","name":"account","type":"address"}],"name":"Unpaused","type":"event"},{"inputs":[{"internalType":"address","name":"_admin","type":"address"}],"name":"addAdmin","outputs":[],"stateMutability":"nonpayable","type":"function"},{"inputs":[{"internalType":"address","name":"","type":"address"}],"name":"admins","outputs":[{"internalType":"bool","name":"","type":"bool"}],"stateMutability":"view","type":"function"},{"inputs":[{"internalType":"uint256","name":"_transactionId","type":"uint256"}],"name":"confirmDelivery","outputs":[],"stateMutability":"nonpayable","type":"function"},{"inputs":[{"internalType":"uint256","name":"_transactionId","type":"uint256"}],"name":"confirmTransaction","outputs":[],"stateMutability":"nonpayable","type":"function"},{"inputs":[{"internalType":"bool","name":"_isForRent","type":"bool"},{"internalType":"uint256","name":"_price","type":"uint256"},{"internalType":"uint256","name":"_deposit","type":"uint256"},{"internalType":"string","name":"_ipfsHash","type":"string"}],"name":"createListing","outputs":[{"internalType":"uint256","name":"","type":"uint256"}],"stateMutability":"nonpayable","type":"function"},{"inputs":[{"internalType":"uint256","name":"_listingId","type":"uint256"}],"name":"createTransaction","outputs":[{"internalType":"uint256","name":"","type":"uint256"}],"stateMutability":"payable","type":"function"},{"inputs":[{"internalType":"uint256","name":"_listingId","type":"uint256"}],"name":"deleteListing","outputs":[],"stateMutability":"nonpayable","type":"function"},{"inputs":[],"name":"feeRecipient","outputs":[{"internalType":"address","name":"","type":"address"}],"stateMutability":"view","type":"function"},{"inputs":[{"internalType":"uint256","name":"_listingId","type":"uint256"}],"name":"getListing","outputs":[{"components":[{"internalType":"uint256","name":"id","type":"uint256"},{"internalType":"address","name":"owner","type":"address"},{"internalType":"bool","name":"isForRent","type":"bool"},{"internalType":"uint256","name":"price","type":"uint256"},{"internalType":"uint256","name":"deposit","type":"uint256"},{"internalType":"string","name":"ipfsHash","type":"string"},{"internalType":"bool","name":"isActive","type":"bool"},{"internalType":"uint256","name":"createdAt","type":"uint256"},{"internalType":"uint256","name":"updatedAt","type":"uint256"}],"internalType":"struct Blockrent.Listing","name":"","type":"tuple"}],"stateMutability":"view","type":"function"},{"inputs":[],"name":"getTotalListings","outputs":[{"internalType":"uint256","name":"","type":"uint256"}],"stateMutability":"view","type":"function"},{"inputs":[],"name":"getTotalTransactions","outputs":[{"internalType":"uint256","name":"","type":"uint256"}],"stateMutability":"view","type":"function"},{"inputs":[{"internalType":"uint256","name":"_transactionId","type":"uint256"}],"name":"getTransaction","outputs":[{"components":[{"internalType":"uint256","name":"id","type":"uint256"},{"internalType":"uint256","name":"listingId","type":"uint256"},{"internalType":"address","name":"buyerOrRenter","type":"address"},{"internalType":"address","name":"sellerOrLessor","type":"address"},{"internalType":"enum Blockrent.TransactionType","name":"transactionType","type":"uint8"},{"internalType":"uint256","name":"pricePaid","type":"uint256"},{"internalType":"uint256","name":"depositPaid","type":"uint256"},{"internalType":"uint256","name":"startedAt","type":"uint256"},{"internalType":"uint256","name":"endedAt","type":"uint256"},{"internalType":"enum Blockrent.TransactionStatus","name":"status","type":"uint8"},{"internalType":"bool","name":"buyerConfirmed","type":"bool"},{"internalType":"bool","name":"sellerConfirmed","type":"bool"}],"internalType":"struct Blockrent.Transaction","name":"","type":"tuple"}],"stateMutability":"view","type":"function"},{"inputs":[{"internalType":"address","name":"_user","type":"address"}],"name":"getUserRating","outputs":[{"components":[{"internalType":"address","name":"userWallet","type":"address"},{"internalType":"uint256","name":"ratingCount","type":"uint256"},{"internalType":"uint256","name":"totalRating","type":"uint256"},{"internalType":"uint256","name":"averageRating","type":"uint256"}],"internalType":"struct Blockrent.UserRating","name":"","type":"tuple"}],"stateMutability":"view","type":"function"},{"inputs":[],"name":"isPaused","outputs":[{"internalType":"bool","name":"","type":"bool"}],"stateMutability":"view","type":"function"},{"inputs":[{"internalType":"uint256","name":"","type":"uint256"}],"name":"listings","outputs":[{"internalType":"uint256","name":"id","type":"uint256"},{"internalType":"address","name":"owner","type":"address"},{"internalType":"bool","name":"isForRent","type":"bool"},{"internalType":"uint256","name":"price","type":"uint256"},{"internalType":"uint256","name":"deposit","type":"uint256"},{"internalType":"string","name":"ipfsHash","type":"string"},{"internalType":"bool","name":"isActive","type":"bool"},{"internalType":"uint256","name":"createdAt","type":"uint256"},{"internalType":"uint256","name":"updatedAt","type":"uint256"}],"stateMutability":"view","type":"function"},{"inputs":[],"name":"owner","outputs":[{"internalType":"address","name":"","type":"address"}],"stateMutability":"view","type":"function"},{"inputs":[],"name":"pause","outputs":[],"stateMutability":"nonpayable","type":"function"},{"inputs":[],"name":"paused","outputs":[{"internalType":"bool","name":"","type":"bool"}],"stateMutability":"view","type":"function"},{"inputs":[],"name":"platformFee","outputs":[{"internalType":"uint256","name":"","type":"uint256"}],"stateMutability":"view","type":"function"},{"inputs":[{"internalType":"address","name":"_user","type":"address"},{"internalType":"uint8","name":"_stars","type":"uint8"},{"internalType":"uint256","name":"_transactionId","type":"uint256"}],"name":"rateUser","outputs":[],"stateMutability":"nonpayable","type":"function"},{"inputs":[],"name":"renounceOwnership","outputs":[],"stateMutability":"nonpayable","type":"function"},{"inputs":[{"internalType":"uint256","name":"_newFee","type":"uint256"}],"name":"setPlatformFee","outputs":[],"stateMutability":"nonpayable","type":"function"},{"inputs":[{"internalType":"uint256","name":"","type":"uint256"}],"name":"transactions","outputs":[{"internalType":"uint256","name":"id","type":"uint256"},{"internalType":"uint256","name":"listingId","type":"uint256"},{"internalType":"address","name":"buyerOrRenter","type":"address"},{"internalType":"address","name":"sellerOrLessor","type":"address"},{"internalType":"enum Blockrent.TransactionType","name":"transactionType","type":"uint8"},{"internalType":"uint256","name":"pricePaid","type":"uint256"},{"internalType":"uint256","name":"depositPaid","type":"uint256"},{"internalType":"uint256","name":"startedAt","type":"uint256"},{"internalType":"uint256","name":"endedAt","type":"uint256"},{"internalType":"enum Blockrent.TransactionStatus","name":"status","type":"uint8"},{"internalType":"bool","name":"buyerConfirmed","type":"bool"},{"internalType":"bool","name":"sellerConfirmed","type":"bool"}],"stateMutability":"view","type":"function"},{"inputs":[{"internalType":"address","name":"newOwner","type":"address"}],"name":"transferOwnership","outputs":[],"stateMutability":"nonpayable","type":"function"},{"inputs":[],"name":"unpause","outputs":[],"stateMutability":"nonpayable","type":"function"},{"inputs":[{"internalType":"address","name":"","type":"address"}],"name":"userRatings","outputs":[{"internalType":"address","name":"userWallet","type":"address"},{"internalType":"uint256","name":"ratingCount","type":"uint256"},{"internalType":"uint256","name":"totalRating","type":"uint256"},{"internalType":"uint256","name":"averageRating","type":"uint256"}],"stateMutability":"view","type":"function"}],"evm":{"bytecode":{"linkReferences":{},"object":"6080346100e557601f611f6b38819003918201601f19168301916001600160401b038311848410176100ea578084926020946040528339810103126100e557516001600160a01b0390818116908190036100e5576001600081815581546001600160a81b0319811633600881811b610100600160a81b0316929092179094556040519591901c16907f8be0079c531659141344cd1fd0a4f28419497f9722a3daafe3b4186f6b6457e09080a360fa60085560018060a01b031960095416176009553360005260076020526040600020600160ff19825416179055611e6a90816101018239f35b600080fd5b634e487b7160e01b600052604160045260246000fdfe608080604052600436101561001357600080fd5b60003560e01c908163107a274a146117845750806312e8e2c31461172657806326232a2e1461170857806332de5c321461134957806333ea3dc8146111855780633f4ba83a146110c6578063429b62e514611087578063460168c314610fe15780634690484014610fb85780635c975abb146109fd5780635d66bf8114610ca05780637048027514610c5b578063715018a614610bfa5780638456cb5914610b765780638da5cb5b14610b49578063900f58fc14610aea5780639ace38c214610a20578063b187bd26146109fd578063b5c604ff146109df578063c01a8c8414610906578063da165ddb146104f4578063de74e57b14610448578063e6282c6e14610330578063f2fde38b1461025c578063fbf30c351461023e5763fd84cb971461013d57600080fd5b3461023957602036600319011261023957600435610159611b58565b600081815260056020526040902060038101546001600160a01b031633036102035760080190815460ff811660068110156101ed57806101a291159081156101e2575b50611bf6565b62ff0000198116620100001780845560081c60ff16156101ce57506101c79150611c63565b6001600055005b62ff00ff19166201000117909155506101c7565b60019150143861019c565b634e487b7160e01b600052602160045260246000fd5b60405162461bcd60e51b815260206004820152600e60248201526d2737ba103a34329039b2b63632b960911b6044820152606490fd5b600080fd5b34610239576000366003190112610239576020600254604051908152f35b34610239576020366003190112610239576102756119c3565b61027d611ab9565b6001600160a01b038181169182156102dc5760018054610100600160a81b03198116600893841b610100600160a81b031617909155901c167f8be0079c531659141344cd1fd0a4f28419497f9722a3daafe3b4186f6b6457e0600080a3005b60405162461bcd60e51b815260206004820152602660248201527f4f776e61626c653a206e6577206f776e657220697320746865207a65726f206160448201526564647265737360d01b6064820152608490fd5b3461023957602036600319011261023957610349611b58565b6004356000526004602052604060002060018060a01b0380600183015416331490811561042e575b811561041d575b50156103e75760058101805460ff8116156103a25760ff1916905542600791909101556001600055005b60405162461bcd60e51b815260206004820152601860248201527f4c697374696e6720616c726561647920696e61637469766500000000000000006044820152606490fd5b60405162461bcd60e51b815260206004820152600e60248201526d139bdd08185d5d1a1bdc9a5e995960921b6044820152606490fd5b905060015460081c16331482610378565b905033600052600760205260ff6040600020541690610371565b346102395760203660031901126102395760043560005260046020526040600020805460018201549160028101546003820154916104dd61048b60048301611a13565b60ff60058401541694600760068501549401549460ff604051998a998a5260018060a01b03811660208b015260a01c1615156040890152606088015260808701526101208060a08801528601906118d5565b92151560c085015260e08401526101008301520390f35b602036600319011261023957610508611b14565b610510611b58565b600435600052600460205260406000206040519061052d82611915565b8054825260018101546001600160a01b038116602084015260a01c60ff1615156040830152600281015460608301526003810154608083015261057260048201611a13565b60a0830152600760ff6005830154161591821560c0850152600681015460e085015201546101008301526108cc5760208101516001600160a01b031633146108875760408101511561087d576105d16060820151608083015190611bae565b80341061084157600160035401908160035560018060a01b036020840151166040840151151580600014610839576001905b6060860151901561082e576106446080870151925b6040519461062586611932565b8786526004356020870152336040870152606086015260808501611bd1565b60a083015260c08201524260e08201526000610100820152600061012082015260006101408201526000610160820152826000526005602052604060002081518155602082015160018201556002810160018060a01b036040840151166bffffffffffffffffffffffff60a01b825416179055600381019060018060a01b0360608401511691805460808501519360028510156101ed5760089460ff60a01b9060a01b16916affffffffffffffffffffff60a81b161717905560a0830151600482015560c0830151600582015560e08301516006820155610100830151600782015501906101208101519060068210156101ed57825460ff62ff000061016061ff00610140860151151560081b16940151151560101b1693169062ffffff191617171790558034116107f4575b5081604060209301511515806000146107ec576001915b606081015191156107e35760800151905b60ff604051931683528483015260408201523390827f3738bfa4d5b8b8ee563925f2578177975fb0a68ceb47f9ecfc8088d98894b6de606060043593a46001600055604051908152f35b50600090610799565b600091610788565b60008080610803819434611be9565b818115610825575b3390f1156108195782610771565b6040513d6000823e3d90fd5b506108fc61080b565b610644600092610618565b600090610603565b60405162461bcd60e51b8152602060048201526014602482015273125b9cdd59999a58da595b9d081c185e5b595b9d60621b6044820152606490fd5b60608101516105d1565b60405162461bcd60e51b815260206004820152601b60248201527f43616e6e6f742062757920796f7572206f776e206c697374696e6700000000006044820152606490fd5b60405162461bcd60e51b81526020600482015260126024820152714c697374696e67206e6f742061637469766560701b6044820152606490fd5b3461023957602036600319011261023957600435610922611b58565b600081815260056020526040902060028101546001600160a01b031633036109aa5760080190815460ff811660068110156101ed578061096a911590811561099f5750611bf6565b61ff001981166101001780845560101c60ff161561098d57506101c79150611c63565b61ffff191661010117909155506101c7565b60019150148561019c565b60405162461bcd60e51b815260206004820152600d60248201526c2737ba103a343290313abcb2b960991b6044820152606490fd5b34610239576000366003190112610239576020600354604051908152f35b3461023957600036600319011261023957602060ff600154166040519015158152f35b34610239576020366003190112610239576004356000526005602052610180604060002060ff81549160018101549060018060a01b0380600283015416906003830154610aa960048501549160058601549360068701549560086007890154980154986040519b8c5260208c015260408b0152811660608a01528760808a019160a01c166119a9565b60a087015260c086015260e0850152610100840152610ace61012084018383166119b6565b818160081c16151561014084015260101c161515610160820152f35b346102395760203660031901126102395760806001600160a01b0380610b0e6119c3565b166000526006602052604060002090815416906001810154906003600282015491015491604051938452602084015260408301526060820152f35b346102395760003660031901126102395760015460405160089190911c6001600160a01b03168152602090f35b3461023957600036600319011261023957610b8f611ab9565b610b97611b14565b600160ff19815416176001557f62e78cea01bee320cd4e420270b5ea74000d11b0c9f74754ebdbfc544b05a2586020604051338152a17f9a506b30e47f3823b09f67e4c0dfa5c3d8023b71825b7ceaa97677129128c9c5602060405160018152a1005b3461023957600036600319011261023957610c13611ab9565b60018054610100600160a81b0319811690915560009060081c6001600160a01b03167f8be0079c531659141344cd1fd0a4f28419497f9722a3daafe3b4186f6b6457e08280a3005b3461023957602036600319011261023957610c746119c3565b610c7c611ab9565b6001600160a01b03166000908152600760205260409020805460ff19166001179055005b3461023957606036600319011261023957610cb96119c3565b602480359160ff83168093036102395760443590600184101580610fad575b15610f7857816000526020906005825260406000209060405191610cfb83611932565b8054835260018101548484015260018060a01b03928360028301541690604081019182526008600384015493610d4360ff6060850196898116885260a01c1660808501611bd1565b600481015460a0840152600581015460c0840152600681015460e0840152600781015461010084015201549061016060ff610120830193610d8682821686611bdd565b818160081c16151561014085015260101c161515910152516006811015610f6357600203610f1f57839051163381149182610f0f575b8215610eee575b505015610eaa5716928360005260068252604060002090846bffffffffffffffffffffffff60a01b835416178255600182019081549160018301809311610e95578290556002830190610e17888354611bae565b809255606482029180830460641490151715610e81578215610e6d575090600391049101556040519384528301527fe0f1b844b1cbdfe7975a9e07bb900ec797799e17c626a8dc9996eb3bbe715d0460403393a3005b634e487b7160e01b60009081526012600452fd5b634e487b7160e01b60009081526011600452fd5b50634e487b7160e01b60009081526011600452fd5b60405162461bcd60e51b815260048101849052601b818701527f496e76616c696420726174696e67207061727469636970616e747300000000006044820152606490fd5b5184163314915081610f03575b508780610dc3565b90508282161487610efb565b9150838251168484161491610dbc565b60405162461bcd60e51b8152600481018690526019818901527f5472616e73616374696f6e206e6f7420636f6d706c65746564000000000000006044820152606490fd5b87634e487b7160e01b60005260216004526000fd5b60405162461bcd60e51b815260206004820152600e818501526d496e76616c696420726174696e6760901b6044820152606490fd5b506005841115610cd8565b34610239576000366003190112610239576009546040516001600160a01b039091168152602090f35b34610239576020366003190112610239576080610ffc6119c3565b6000606060405161100c8161194f565b828152826020820152826040820152015260018060a01b038091166000526006602052604060002090604051906110428261194f565b82541691828252600181015460208301908152606060036002840154936040860194855201549301928352604051938452516020840152516040830152516060820152f35b34610239576020366003190112610239576001600160a01b036110a86119c3565b166000526007602052602060ff604060002054166040519015158152f35b34610239576000366003190112610239576110df611ab9565b60015460ff8116156111495760ff19166001557f5db9ee0a495bf2e6ff9c91a7834c1ba4fdd244a5e8aa4e537bd38aeae4b073aa6020604051338152a17f9a506b30e47f3823b09f67e4c0dfa5c3d8023b71825b7ceaa97677129128c9c5602060405160008152a1005b60405162461bcd60e51b815260206004820152601460248201527314185d5cd8589b194e881b9bdd081c185d5cd95960621b6044820152606490fd5b346102395760203660031901126102395760006101606040516111a781611932565b8281528260208201528260408201528260608201528260808201528260a08201528260c08201528260e082015282610100820152826101208201528261014082015201526004356000526005602052610180604060002060ff60086040519261120f84611932565b805484526001810154602085015260028101546001600160a01b039081166040860152600382015490811660608601526112519060a01c841660808601611bd1565b600481015460a0850152600581015460c0850152600681015460e08501526007810154610100850152015461128c8282166101208501611bdd565b818160081c16151561014084015260101c16151561016082015261016060405191805183526020810151602084015260018060a01b03604082015116604084015260018060a01b0360608201511660608401526112f1608082015160808501906119a9565b60a081015160a084015260c081015160c084015260e081015160e084015261010081015161010084015261132f6101208201516101208501906119b6565b610140810151151561014084015201511515610160820152f35b346102395760803660031901126102395760043580151581036102395760643567ffffffffffffffff811161023957366023820112156102395780600401356113918161198d565b9161139f604051938461196b565b8183523660248383010111610239578160009260246020930183860137830101526113c8611b14565b6113d0611b58565b602435156116c3578051156116895760016002540190816002556040516113f681611915565b8281523360208201528315156040820152602435606082015260443560808201528160a0820152600160c08201524260e0820152426101008201528260005260046020526040600020815181556001810160018060a01b0360208401511681549060ff60a01b6040860151151560a01b16916affffffffffffffffffffff60a81b1617179055606082015160028201556080820151600382015560a08201519182519267ffffffffffffffff8411611673576114b560048401546119d9565b601f8111611628575b50916020969186938890601f871160011461158e5791867f1fd8b16cf502b97cf63737d65468b4fad7b5000e89a7881d7d8ef3986471e4cb969761010093600795600092611583575b50508160011b916000199060031b1c19161760048501555b6005840160c0820151151560ff8019835416911617905560e08101516006850155015191015560405190151581526024358682015260443560408201526080606082015280611573339560808301906118d5565b0390a36001600055604051908152f35b015190508c80611507565b959060048401600052896000209660005b601f198416811061160e5750827f1fd8b16cf502b97cf63737d65468b4fad7b5000e89a7881d7d8ef3986471e4cb97986007959360019361010096601f198116106115f5575b505050811b01600485015561151f565b015160001960f88460031b161c191690558c80806115e5565b8282015189556001909801978a9750918b01918b0161159f565b600484016000526020600020601f860160051c81019160208710611669575b601f0160051c01905b81811061165d57506114be565b60008155600101611650565b9091508190611647565b634e487b7160e01b600052604160045260246000fd5b60405162461bcd60e51b815260206004820152601260248201527112541194c81a185cda081c995c5d5a5c995960721b6044820152606490fd5b60405162461bcd60e51b815260206004820152601c60248201527f5072696365206d7573742062652067726561746572207468616e2030000000006044820152606490fd5b34610239576000366003190112610239576020600854604051908152f35b3461023957602036600319011261023957600435611742611ab9565b6103e8811161175057600855005b60405162461bcd60e51b815260206004820152600c60248201526b08ccaca40e8dede40d0d2ced60a31b6044820152606490fd5b346102395760209081600319360112610239576117a081611915565b60008152600082820152600060408201526000606082015260006080820152606060a0820152600060c0820152600060e082015260006101008092015260043560005260048252604060002090604051916117fa83611915565b805483526001810154918484019060018060a01b0393848116835260ff604087019160a01c16151581526002840154606087019081526003850154906080880191825261184960048701611a13565b9260a0890193845260ff6005880154169760c08a019815158952600760068901549860e08c01998a52015496868b019788526040519b8c9b818d5251908c0152511660408a015251151560608901525160808801525160a087015251926118be610120948560c08901526101408801906118d5565b9451151560e0870152519085015251908301520390f35b919082519283825260005b848110611901575050826000602080949584010152601f8019910116010190565b6020818301810151848301820152016118e0565b610120810190811067ffffffffffffffff82111761167357604052565b610180810190811067ffffffffffffffff82111761167357604052565b6080810190811067ffffffffffffffff82111761167357604052565b90601f8019910116810190811067ffffffffffffffff82111761167357604052565b67ffffffffffffffff811161167357601f01601f191660200190565b9060028210156101ed5752565b9060068210156101ed5752565b600435906001600160a01b038216820361023957565b90600182811c92168015611a09575b60208310146119f357565b634e487b7160e01b600052602260045260246000fd5b91607f16916119e8565b9060405191826000825492611a27846119d9565b908184526001948581169081600014611a965750600114611a53575b5050611a519250038361196b565b565b9093915060005260209081600020936000915b818310611a7e575050611a5193508201013880611a43565b85548884018501529485019487945091830191611a66565b915050611a5194506020925060ff191682840152151560051b8201013880611a43565b60015460081c6001600160a01b03163303611ad057565b606460405162461bcd60e51b815260206004820152602060248201527f4f776e61626c653a2063616c6c6572206973206e6f7420746865206f776e65726044820152fd5b60ff60015416611b2057565b60405162461bcd60e51b815260206004820152601060248201526f14185d5cd8589b194e881c185d5cd95960821b6044820152606490fd5b600260005414611b69576002600055565b60405162461bcd60e51b815260206004820152601f60248201527f5265656e7472616e637947756172643a207265656e7472616e742063616c6c006044820152606490fd5b91908201809211611bbb57565b634e487b7160e01b600052601160045260246000fd5b60028210156101ed5752565b60068210156101ed5752565b91908203918211611bbb57565b15611bfd57565b60405162461bcd60e51b815260206004820152600e60248201526d496e76616c69642073746174757360901b6044820152606490fd5b3d15611c5e573d90611c448261198d565b91611c52604051938461196b565b82523d6000602084013e565b606090565b6000908082526020600581526040928381206008810160ff19906002828254161790554260078301556004928383015493600854808602908682041486151715611e2157612710611cb691048096611be9565b8280808060018060a01b03998a600954165af1611cd1611c33565b5015611de85782808080938960038a0154165af1611ced611c33565b5015611dac57908791600585015480611d48575b5060018501548252865220600501805490911690556002015493514281529316927f1b11d90ea8d39e379445d60e49af9daf202f00be86c0b27c4c5b1c62a88e8de09190a3565b8280809550809394928960028a0154165af1611d62611c33565b5015611d715790879138611d01565b875162461bcd60e51b8152908101869052601560248201527411195c1bdcda5d081c99599d5b990819985a5b1959605a1b6044820152606490fd5b875162461bcd60e51b8152908101869052601660248201527514d95b1b195c881d1c985b9cd9995c8819985a5b195960521b6044820152606490fd5b885162461bcd60e51b81528083018890526013602482015272119959481d1c985b9cd9995c8819985a5b1959606a1b6044820152606490fd5b634e487b7160e01b835260118252602483fdfea264697066735822122051f24ef639b945b0c2fb57917c44747317ee050def96c4f2e9f62e8950f79ad464736f6c63430008130033","opcodes":"PUSH1 0x80 CALLVALUE PUSH2 0xE5 JUMPI PUSH1 0x1F PUSH2 0x1F6B CODESIZE DUP2 SWAP1 SUB SWAP2 DUP3 ADD PUSH1 0x1F NOT AND DUP4 ADD SWAP2 PUSH1 0x1 PUSH1 0x1 PUSH1 0x40 SHL SUB DUP4 GT DUP5 DUP5 LT OR PUSH2 0xEA JUMPI DUP1 DUP5 SWAP3 PUSH1 0x20 SWAP5 PUSH1 0x40 MSTORE DUP4 CODECOPY DUP2 ADD SUB SLT PUSH2 0xE5 JUMPI MLOAD PUSH1 0x1 PUSH1 0x1 PUSH1 0xA0 SHL SUB SWAP1 DUP2 DUP2 AND SWAP1 DUP2 SWAP1 SUB PUSH2 0xE5 JUMPI PUSH1 0x1 PUSH1 0x0 DUP2 DUP2 SSTORE DUP2 SLOAD PUSH1 0x1 PUSH1 0x1 PUSH1 0xA8 SHL SUB NOT DUP2 AND CALLER PUSH1 0x8 DUP2 DUP2 SHL PUSH2 0x100 PUSH1 0x1 PUSH1 0xA8 SHL SUB AND SWAP3 SWAP1 SWAP3 OR SWAP1 SWAP5 SSTORE PUSH1 0x40 MLOAD SWAP6 SWAP2 SWAP1 SHR AND SWAP1 PUSH32 0x8BE0079C531659141344CD1FD0A4F28419497F9722A3DAAFE3B4186F6B6457E0 SWAP1 DUP1 LOG3 PUSH1 0xFA PUSH1 0x8 SSTORE PUSH1 0x1 DUP1 PUSH1 0xA0 SHL SUB NOT PUSH1 0x9 SLOAD AND OR PUSH1 0x9 SSTORE CALLER PUSH1 0x0 MSTORE PUSH1 0x7 PUSH1 0x20 MSTORE PUSH1 0x40 PUSH1 0x0 KECCAK256 PUSH1 0x1 PUSH1 0xFF NOT DUP3 SLOAD AND OR SWAP1 SSTORE PUSH2 0x1E6A SWAP1 DUP2 PUSH2 0x101 DUP3 CODECOPY RETURN JUMPDEST PUSH1 0x0 DUP1 REVERT JUMPDEST PUSH4 0x4E487B71 PUSH1 0xE0 SHL PUSH1 0x0 MSTORE PUSH1 0x41 PUSH1 0x4 MSTORE PUSH1 0x24 PUSH1 0x0 REVERT INVALID PUSH1 0x80 DUP1 PUSH1 0x40 MSTORE PUSH1 0x4 CALLDATASIZE LT ISZERO PUSH2 0x13 JUMPI PUSH1 0x0 DUP1 REVERT JUMPDEST PUSH1 0x0 CALLDATALOAD PUSH1 0xE0 SHR SWAP1 DUP2 PUSH4 0x107A274A EQ PUSH2 0x1784 JUMPI POP DUP1 PUSH4 0x12E8E2C3 EQ PUSH2 0x1726 JUMPI DUP1 PUSH4 0x26232A2E EQ PUSH2 0x1708 JUMPI DUP1 PUSH4 0x32DE5C32 EQ PUSH2 0x1349 JUMPI DUP1 PUSH4 0x33EA3DC8 EQ PUSH2 0x1185 JUMPI DUP1 PUSH4 0x3F4BA83A EQ PUSH2 0x10C6 JUMPI DUP1 PUSH4 0x429B62E5 EQ PUSH2 0x1087 JUMPI DUP1 PUSH4 0x460168C3 EQ PUSH2 0xFE1 JUMPI DUP1 PUSH4 0x46904840 EQ PUSH2 0xFB8 JUMPI DUP1 PUSH4 0x5C975ABB EQ PUSH2 0x9FD JUMPI DUP1 PUSH4 0x5D66BF81 EQ PUSH2 0xCA0 JUMPI DUP1 PUSH4 0x70480275 EQ PUSH2 0xC5B JUMPI DUP1 PUSH4 0x715018A6 EQ PUSH2 0xBFA JUMPI DUP1 PUSH4 0x8456CB59 EQ PUSH2 0xB76 JUMPI DUP1 PUSH4 0x8DA5CB5B EQ PUSH2 0xB49 JUMPI DUP1 PUSH4 0x900F58FC EQ PUSH2 0xAEA JUMPI DUP1 PUSH4 0x9ACE38C2 EQ PUSH2 0xA20 JUMPI DUP1 PUSH4 0xB187BD26 EQ PUSH2 0x9FD JUMPI DUP1 PUSH4 0xB5C604FF EQ PUSH2 0x9DF JUMPI DUP1 PUSH4 0xC01A8C84 EQ PUSH2 0x906 JUMPI DUP1 PUSH4 0xDA165DDB EQ PUSH2 0x4F4 JUMPI DUP1 PUSH4 0xDE74E57B EQ PUSH2 0x448 JUMPI DUP1 PUSH4 0xE6282C6E EQ PUSH2 0x330 JUMPI DUP1 PUSH4 0xF2FDE38B EQ PUSH2 0x25C JUMPI DUP1 PUSH4 0xFBF30C35 EQ PUSH2 0x23E JUMPI PUSH4 0xFD84CB97 EQ PUSH2 0x13D JUMPI PUSH1 0x0 DUP1 REVERT JUMPDEST CALLVALUE PUSH2 0x239 JUMPI PUSH1 0x20 CALLDATASIZE PUSH1 0x3 NOT ADD SLT PUSH2 0x239 JUMPI PUSH1 0x4 CALLDATALOAD PUSH2 0x159 PUSH2 0x1B58 JUMP JUMPDEST PUSH1 0x0 DUP2 DUP2 MSTORE PUSH1 0x5 PUSH1 0x20 MSTORE PUSH1 0x40 SWAP1 KECCAK256 PUSH1 0x3 DUP2 ADD SLOAD PUSH1 0x1 PUSH1 0x1 PUSH1 0xA0 SHL SUB AND CALLER SUB PUSH2 0x203 JUMPI PUSH1 0x8 ADD SWAP1 DUP2 SLOAD PUSH1 0xFF DUP2 AND PUSH1 0x6 DUP2 LT ISZERO PUSH2 0x1ED JUMPI DUP1 PUSH2 0x1A2 SWAP2 ISZERO SWAP1 DUP2 ISZERO PUSH2 0x1E2 JUMPI JUMPDEST POP PUSH2 0x1BF6 JUMP JUMPDEST PUSH3 0xFF0000 NOT DUP2 AND PUSH3 0x10000 OR DUP1 DUP5 SSTORE PUSH1 0x8 SHR PUSH1 0xFF AND ISZERO PUSH2 0x1CE JUMPI POP PUSH2 0x1C7 SWAP2 POP PUSH2 0x1C63 JUMP JUMPDEST PUSH1 0x1 PUSH1 0x0 SSTORE STOP JUMPDEST PUSH3 0xFF00FF NOT AND PUSH3 0x10001 OR SWAP1 SWAP2 SSTORE POP PUSH2 0x1C7 JUMP JUMPDEST PUSH1 0x1 SWAP2 POP EQ CODESIZE PUSH2 0x19C JUMP JUMPDEST PUSH4 0x4E487B71 PUSH1 0xE0 SHL PUSH1 0x0 MSTORE PUSH1 0x21 PUSH1 0x4 MSTORE PUSH1 0x24 PUSH1 0x0 REVERT JUMPDEST PUSH1 0x40 MLOAD PUSH3 0x461BCD PUSH1 0xE5 SHL DUP2 MSTORE PUSH1 0x20 PUSH1 0x4 DUP3 ADD MSTORE PUSH1 0xE PUSH1 0x24 DUP3 ADD MSTORE PUSH14 0x2737BA103A34329039B2B63632B9 PUSH1 0x91 SHL PUSH1 0x44 DUP3 ADD MSTORE PUSH1 0x64 SWAP1 REVERT JUMPDEST PUSH1 0x0 DUP1 REVERT JUMPDEST CALLVALUE PUSH2 0x239 JUMPI PUSH1 0x0 CALLDATASIZE PUSH1 0x3 NOT ADD SLT PUSH2 0x239 JUMPI PUSH1 0x20 PUSH1 0x2 SLOAD PUSH1 0x40 MLOAD SWAP1 DUP2 MSTORE RETURN JUMPDEST CALLVALUE PUSH2 0x239 JUMPI PUSH1 0x20 CALLDATASIZE PUSH1 0x3 NOT ADD SLT PUSH2 0x239 JUMPI PUSH2 0x275 PUSH2 0x19C3 JUMP JUMPDEST PUSH2 0x27D PUSH2 0x1AB9 JUMP JUMPDEST PUSH1 0x1 PUSH1 0x1 PUSH1 0xA0 SHL SUB DUP2 DUP2 AND SWAP2 DUP3 ISZERO PUSH2 0x2DC JUMPI PUSH1 0x1 DUP1 SLOAD PUSH2 0x100 PUSH1 0x1 PUSH1 0xA8 SHL SUB NOT DUP2 AND PUSH1 0x8 SWAP4 DUP5 SHL PUSH2 0x100 PUSH1 0x1 PUSH1 0xA8 SHL SUB AND OR SWAP1 SWAP2 SSTORE SWAP1 SHR AND PUSH32 0x8BE0079C531659141344CD1FD0A4F28419497F9722A3DAAFE3B4186F6B6457E0 PUSH1 0x0 DUP1 LOG3 STOP JUMPDEST PUSH1 0x40 MLOAD PUSH3 0x461BCD PUSH1 0xE5 SHL DUP2 MSTORE PUSH1 0x20 PUSH1 0x4 DUP3 ADD MSTORE PUSH1 0x26 PUSH1 0x24 DUP3 ADD MSTORE PUSH32 0x4F776E61626C653A206E6577206F776E657220697320746865207A65726F2061 PUSH1 0x44 DUP3 ADD MSTORE PUSH6 0x646472657373 PUSH1 0xD0 SHL PUSH1 0x64 DUP3 ADD MSTORE PUSH1 0x84 SWAP1 REVERT JUMPDEST CALLVALUE PUSH2 0x239 JUMPI PUSH1 0x20 CALLDATASIZE PUSH1 0x3 NOT ADD SLT PUSH2 0x239 JUMPI PUSH2 0x349 PUSH2 0x1B58 JUMP JUMPDEST PUSH1 0x4 CALLDATALOAD PUSH1 0x0 MSTORE PUSH1 0x4 PUSH1 0x20 MSTORE PUSH1 0x40 PUSH1 0x0 KECCAK256 PUSH1 0x1 DUP1 PUSH1 0xA0 SHL SUB DUP1 PUSH1 0x1 DUP4 ADD SLOAD AND CALLER EQ SWAP1 DUP2 ISZERO PUSH2 0x42E JUMPI JUMPDEST DUP2 ISZERO PUSH2 0x41D JUMPI JUMPDEST POP ISZERO PUSH2 0x3E7 JUMPI PUSH1 0x5 DUP2 ADD DUP1 SLOAD PUSH1 0xFF DUP2 AND ISZERO PUSH2 0x3A2 JUMPI PUSH1 0xFF NOT AND SWAP1 SSTORE TIMESTAMP PUSH1 0x7 SWAP2 SWAP1 SWAP2 ADD SSTORE PUSH1 0x1 PUSH1 0x0 SSTORE STOP JUMPDEST PUSH1 0x40 MLOAD PUSH3 0x461BCD PUSH1 0xE5 SHL DUP2 MSTORE PUSH1 0x20 PUSH1 0x4 DUP3 ADD MSTORE PUSH1 0x18 PUSH1 0x24 DUP3 ADD MSTORE PUSH32 0x4C697374696E6720616C726561647920696E6163746976650000000000000000 PUSH1 0x44 DUP3 ADD MSTORE PUSH1 0x64 SWAP1 REVERT JUMPDEST PUSH1 0x40 MLOAD PUSH3 0x461BCD PUSH1 0xE5 SHL DUP2 MSTORE PUSH1 0x20 PUSH1 0x4 DUP3 ADD MSTORE PUSH1 0xE PUSH1 0x24 DUP3 ADD MSTORE PUSH14 0x139BDD08185D5D1A1BDC9A5E9959 PUSH1 0x92 SHL PUSH1 0x44 DUP3 ADD MSTORE PUSH1 0x64 SWAP1 REVERT JUMPDEST SWAP1 POP PUSH1 0x1 SLOAD PUSH1 0x8 SHR AND CALLER EQ DUP3 PUSH2 0x378 JUMP JUMPDEST SWAP1 POP CALLER PUSH1 0x0 MSTORE PUSH1 0x7 PUSH1 0x20 MSTORE PUSH1 0xFF PUSH1 0x40 PUSH1 0x0 KECCAK256 SLOAD AND SWAP1 PUSH2 0x371 JUMP JUMPDEST CALLVALUE PUSH2 0x239 JUMPI PUSH1 0x20 CALLDATASIZE PUSH1 0x3 NOT ADD SLT PUSH2 0x239 JUMPI PUSH1 0x4 CALLDATALOAD PUSH1 0x0 MSTORE PUSH1 0x4 PUSH1 0x20 MSTORE PUSH1 0x40 PUSH1 0x0 KECCAK256 DUP1 SLOAD PUSH1 0x1 DUP3 ADD SLOAD SWAP2 PUSH1 0x2 DUP2 ADD SLOAD PUSH1 0x3 DUP3 ADD SLOAD SWAP2 PUSH2 0x4DD PUSH2 0x48B PUSH1 0x4 DUP4 ADD PUSH2 0x1A13 JUMP JUMPDEST PUSH1 0xFF PUSH1 0x5 DUP5 ADD SLOAD AND SWAP5 PUSH1 0x7 PUSH1 0x6 DUP6 ADD SLOAD SWAP5 ADD SLOAD SWAP5 PUSH1 0xFF PUSH1 0x40 MLOAD SWAP10 DUP11 SWAP10 DUP11 MSTORE PUSH1 0x1 DUP1 PUSH1 0xA0 SHL SUB DUP2 AND PUSH1 0x20 DUP12 ADD MSTORE PUSH1 0xA0 SHR AND ISZERO ISZERO PUSH1 0x40 DUP10 ADD MSTORE PUSH1 0x60 DUP9 ADD MSTORE PUSH1 0x80 DUP8 ADD MSTORE PUSH2 0x120 DUP1 PUSH1 0xA0 DUP9 ADD MSTORE DUP7 ADD SWAP1 PUSH2 0x18D5 JUMP JUMPDEST SWAP3 ISZERO ISZERO PUSH1 0xC0 DUP6 ADD MSTORE PUSH1 0xE0 DUP5 ADD MSTORE PUSH2 0x100 DUP4 ADD MSTORE SUB SWAP1 RETURN JUMPDEST PUSH1 0x20 CALLDATASIZE PUSH1 0x3 NOT ADD SLT PUSH2 0x239 JUMPI PUSH2 0x508 PUSH2 0x1B14 JUMP JUMPDEST PUSH2 0x510 PUSH2 0x1B58 JUMP JUMPDEST PUSH1 0x4 CALLDATALOAD PUSH1 0x0 MSTORE PUSH1 0x4 PUSH1 0x20 MSTORE PUSH1 0x40 PUSH1 0x0 KECCAK256 PUSH1 0x40 MLOAD SWAP1 PUSH2 0x52D DUP3 PUSH2 0x1915 JUMP JUMPDEST DUP1 SLOAD DUP3 MSTORE PUSH1 0x1 DUP2 ADD SLOAD PUSH1 0x1 PUSH1 0x1 PUSH1 0xA0 SHL SUB DUP2 AND PUSH1 0x20 DUP5 ADD MSTORE PUSH1 0xA0 SHR PUSH1 0xFF AND ISZERO ISZERO PUSH1 0x40 DUP4 ADD MSTORE PUSH1 0x2 DUP2 ADD SLOAD PUSH1 0x60 DUP4 ADD MSTORE PUSH1 0x3 DUP2 ADD SLOAD PUSH1 0x80 DUP4 ADD MSTORE PUSH2 0x572 PUSH1 0x4 DUP3 ADD PUSH2 0x1A13 JUMP JUMPDEST PUSH1 0xA0 DUP4 ADD MSTORE PUSH1 0x7 PUSH1 0xFF PUSH1 0x5 DUP4 ADD SLOAD AND ISZERO SWAP2 DUP3 ISZERO PUSH1 0xC0 DUP6 ADD MSTORE PUSH1 0x6 DUP2 ADD SLOAD PUSH1 0xE0 DUP6 ADD MSTORE ADD SLOAD PUSH2 0x100 DUP4 ADD MSTORE PUSH2 0x8CC JUMPI PUSH1 0x20 DUP2 ADD MLOAD PUSH1 0x1 PUSH1 0x1 PUSH1 0xA0 SHL SUB AND CALLER EQ PUSH2 0x887 JUMPI PUSH1 0x40 DUP2 ADD MLOAD ISZERO PUSH2 0x87D JUMPI PUSH2 0x5D1 PUSH1 0x60 DUP3 ADD MLOAD PUSH1 0x80 DUP4 ADD MLOAD SWAP1 PUSH2 0x1BAE JUMP JUMPDEST DUP1 CALLVALUE LT PUSH2 0x841 JUMPI PUSH1 0x1 PUSH1 0x3 SLOAD ADD SWAP1 DUP2 PUSH1 0x3 SSTORE PUSH1 0x1 DUP1 PUSH1 0xA0 SHL SUB PUSH1 0x20 DUP5 ADD MLOAD AND PUSH1 0x40 DUP5 ADD MLOAD ISZERO ISZERO DUP1 PUSH1 0x0 EQ PUSH2 0x839 JUMPI PUSH1 0x1 SWAP1 JUMPDEST PUSH1 0x60 DUP7 ADD MLOAD SWAP1 ISZERO PUSH2 0x82E JUMPI PUSH2 0x644 PUSH1 0x80 DUP8 ADD MLOAD SWAP3 JUMPDEST PUSH1 0x40 MLOAD SWAP5 PUSH2 0x625 DUP7 PUSH2 0x1932 JUMP JUMPDEST DUP8 DUP7 MSTORE PUSH1 0x4 CALLDATALOAD PUSH1 0x20 DUP8 ADD MSTORE CALLER PUSH1 0x40 DUP8 ADD MSTORE PUSH1 0x60 DUP7 ADD MSTORE PUSH1 0x80 DUP6 ADD PUSH2 0x1BD1 JUMP JUMPDEST PUSH1 0xA0 DUP4 ADD MSTORE PUSH1 0xC0 DUP3 ADD MSTORE TIMESTAMP PUSH1 0xE0 DUP3 ADD MSTORE PUSH1 0x0 PUSH2 0x100 DUP3 ADD MSTORE PUSH1 0x0 PUSH2 0x120 DUP3 ADD MSTORE PUSH1 0x0 PUSH2 0x140 DUP3 ADD MSTORE PUSH1 0x0 PUSH2 0x160 DUP3 ADD MSTORE DUP3 PUSH1 0x0 MSTORE PUSH1 0x5 PUSH1 0x20 MSTORE PUSH1 0x40 PUSH1 0x0 KECCAK256 DUP2 MLOAD DUP2 SSTORE PUSH1 0x20 DUP3 ADD MLOAD PUSH1 0x1 DUP3 ADD SSTORE PUSH1 0x2 DUP2 ADD PUSH1 0x1 DUP1 PUSH1 0xA0 SHL SUB PUSH1 0x40 DUP5 ADD MLOAD AND PUSH12 0xFFFFFFFFFFFFFFFFFFFFFFFF PUSH1 0xA0 SHL DUP3 SLOAD AND OR SWAP1 SSTORE PUSH1 0x3 DUP2 ADD SWAP1 PUSH1 0x1 DUP1 PUSH1 0xA0 SHL SUB PUSH1 0x60 DUP5 ADD MLOAD AND SWAP2 DUP1 SLOAD PUSH1 0x80 DUP6 ADD MLOAD SWAP4 PUSH1 0x2 DUP6 LT ISZERO PUSH2 0x1ED JUMPI PUSH1 0x8 SWAP5 PUSH1 0xFF PUSH1 0xA0 SHL SWAP1 PUSH1 0xA0 SHL AND SWAP2 PUSH11 0xFFFFFFFFFFFFFFFFFFFFFF PUSH1 0xA8 SHL AND OR OR SWAP1 SSTORE PUSH1 0xA0 DUP4 ADD MLOAD PUSH1 0x4 DUP3 ADD SSTORE PUSH1 0xC0 DUP4 ADD MLOAD PUSH1 0x5 DUP3 ADD SSTORE PUSH1 0xE0 DUP4 ADD MLOAD PUSH1 0x6 DUP3 ADD SSTORE PUSH2 0x100 DUP4 ADD MLOAD PUSH1 0x7 DUP3 ADD SSTORE ADD SWAP1 PUSH2 0x120 DUP2 ADD MLOAD SWAP1 PUSH1 0x6 DUP3 LT ISZERO PUSH2 0x1ED JUMPI DUP3 SLOAD PUSH1 0xFF PUSH3 0xFF0000 PUSH2 0x160 PUSH2 0xFF00 PUSH2 0x140 DUP7 ADD MLOAD ISZERO ISZERO PUSH1 0x8 SHL AND SWAP5 ADD MLOAD ISZERO ISZERO PUSH1 0x10 SHL AND SWAP4 AND SWAP1 PUSH3 0xFFFFFF NOT AND OR OR OR SWAP1 SSTORE DUP1 CALLVALUE GT PUSH2 0x7F4 JUMPI JUMPDEST POP DUP2 PUSH1 0x40 PUSH1 0x20 SWAP4 ADD MLOAD ISZERO ISZERO DUP1 PUSH1 0x0 EQ PUSH2 0x7EC JUMPI PUSH1 0x1 SWAP2 JUMPDEST PUSH1 0x60 DUP2 ADD MLOAD SWAP2 ISZERO PUSH2 0x7E3 JUMPI PUSH1 0x80 ADD MLOAD SWAP1 JUMPDEST PUSH1 0xFF PUSH1 0x40 MLOAD SWAP4 AND DUP4 MSTORE DUP5 DUP4 ADD MSTORE PUSH1 0x40 DUP3 ADD MSTORE CALLER SWAP1 DUP3 PUSH32 0x3738BFA4D5B8B8EE563925F2578177975FB0A68CEB47F9ECFC8088D98894B6DE PUSH1 0x60 PUSH1 0x4 CALLDATALOAD SWAP4 LOG4 PUSH1 0x1 PUSH1 0x0 SSTORE PUSH1 0x40 MLOAD SWAP1 DUP2 MSTORE RETURN JUMPDEST POP PUSH1 0x0 SWAP1 PUSH2 0x799 JUMP JUMPDEST PUSH1 0x0 SWAP2 PUSH2 0x788 JUMP JUMPDEST PUSH1 0x0 DUP1 DUP1 PUSH2 0x803 DUP2 SWAP5 CALLVALUE PUSH2 0x1BE9 JUMP JUMPDEST DUP2 DUP2 ISZERO PUSH2 0x825 JUMPI JUMPDEST CALLER SWAP1 CALL ISZERO PUSH2 0x819 JUMPI DUP3 PUSH2 0x771 JUMP JUMPDEST PUSH1 0x40 MLOAD RETURNDATASIZE PUSH1 0x0 DUP3 RETURNDATACOPY RETURNDATASIZE SWAP1 REVERT JUMPDEST POP PUSH2 0x8FC PUSH2 0x80B JUMP JUMPDEST PUSH2 0x644 PUSH1 0x0 SWAP3 PUSH2 0x618 JUMP JUMPDEST PUSH1 0x0 SWAP1 PUSH2 0x603 JUMP JUMPDEST PUSH1 0x40 MLOAD PUSH3 0x461BCD PUSH1 0xE5 SHL DUP2 MSTORE PUSH1 0x20 PUSH1 0x4 DUP3 ADD MSTORE PUSH1 0x14 PUSH1 0x24 DUP3 ADD MSTORE PUSH20 0x125B9CDD59999A58DA595B9D081C185E5B595B9D PUSH1 0x62 SHL PUSH1 0x44 DUP3 ADD MSTORE PUSH1 0x64 SWAP1 REVERT JUMPDEST PUSH1 0x60 DUP2 ADD MLOAD PUSH2 0x5D1 JUMP JUMPDEST PUSH1 0x40 MLOAD PUSH3 0x461BCD PUSH1 0xE5 SHL DUP2 MSTORE PUSH1 0x20 PUSH1 0x4 DUP3 ADD MSTORE PUSH1 0x1B PUSH1 0x24 DUP3 ADD MSTORE PUSH32 0x43616E6E6F742062757920796F7572206F776E206C697374696E670000000000 PUSH1 0x44 DUP3 ADD MSTORE PUSH1 0x64 SWAP1 REVERT JUMPDEST PUSH1 0x40 MLOAD PUSH3 0x461BCD PUSH1 0xE5 SHL DUP2 MSTORE PUSH1 0x20 PUSH1 0x4 DUP3 ADD MSTORE PUSH1 0x12 PUSH1 0x24 DUP3 ADD MSTORE PUSH18 0x4C697374696E67206E6F7420616374697665 PUSH1 0x70 SHL PUSH1 0x44 DUP3 ADD MSTORE PUSH1 0x64 SWAP1 REVERT JUMPDEST CALLVALUE PUSH2 0x239 JUMPI PUSH1 0x20 CALLDATASIZE PUSH1 0x3 NOT ADD SLT PUSH2 0x239 JUMPI PUSH1 0x4 CALLDATALOAD PUSH2 0x922 PUSH2 0x1B58 JUMP JUMPDEST PUSH1 0x0 DUP2 DUP2 MSTORE PUSH1 0x5 PUSH1 0x20 MSTORE PUSH1 0x40 SWAP1 KECCAK256 PUSH1 0x2 DUP2 ADD SLOAD PUSH1 0x1 PUSH1 0x1 PUSH1 0xA0 SHL SUB AND CALLER SUB PUSH2 0x9AA JUMPI PUSH1 0x8 ADD SWAP1 DUP2 SLOAD PUSH1 0xFF DUP2 AND PUSH1 0x6 DUP2 LT ISZERO PUSH2 0x1ED JUMPI DUP1 PUSH2 0x96A SWAP2 ISZERO SWAP1 DUP2 ISZERO PUSH2 0x99F JUMPI POP PUSH2 0x1BF6 JUMP JUMPDEST PUSH2 0xFF00 NOT DUP2 AND PUSH2 0x100 OR DUP1 DUP5 SSTORE PUSH1 0x10 SHR PUSH1 0xFF AND ISZERO PUSH2 0x98D JUMPI POP PUSH2 0x1C7 SWAP2 POP PUSH2 0x1C63 JUMP JUMPDEST PUSH2 0xFFFF NOT AND PUSH2 0x101 OR SWAP1 SWAP2 SSTORE POP PUSH2 0x1C7 JUMP JUMPDEST PUSH1 0x1 SWAP2 POP EQ DUP6 PUSH2 0x19C JUMP JUMPDEST PUSH1 0x40 MLOAD PUSH3 0x461BCD PUSH1 0xE5 SHL DUP2 MSTORE PUSH1 0x20 PUSH1 0x4 DUP3 ADD MSTORE PUSH1 0xD PUSH1 0x24 DUP3 ADD MSTORE PUSH13 0x2737BA103A343290313ABCB2B9 PUSH1 0x99 SHL PUSH1 0x44 DUP3 ADD MSTORE PUSH1 0x64 SWAP1 REVERT JUMPDEST CALLVALUE PUSH2 0x239 JUMPI PUSH1 0x0 CALLDATASIZE PUSH1 0x3 NOT ADD SLT PUSH2 0x239 JUMPI PUSH1 0x20 PUSH1 0x3 SLOAD PUSH1 0x40 MLOAD SWAP1 DUP2 MSTORE RETURN JUMPDEST CALLVALUE PUSH2 0x239 JUMPI PUSH1 0x0 CALLDATASIZE PUSH1 0x3 NOT ADD SLT PUSH2 0x239 JUMPI PUSH1 0x20 PUSH1 0xFF PUSH1 0x1 SLOAD AND PUSH1 0x40 MLOAD SWAP1 ISZERO ISZERO DUP2 MSTORE RETURN JUMPDEST CALLVALUE PUSH2 0x239 JUMPI PUSH1 0x20 CALLDATASIZE PUSH1 0x3 NOT ADD SLT PUSH2 0x239 JUMPI PUSH1 0x4 CALLDATALOAD PUSH1 0x0 MSTORE PUSH1 0x5 PUSH1 0x20 MSTORE PUSH2 0x180 PUSH1 0x40 PUSH1 0x0 KECCAK256 PUSH1 0xFF DUP2 SLOAD SWAP2 PUSH1 0x1 DUP2 ADD SLOAD SWAP1 PUSH1 0x1 DUP1 PUSH1 0xA0 SHL SUB DUP1 PUSH1 0x2 DUP4 ADD SLOAD AND SWAP1 PUSH1 0x3 DUP4 ADD SLOAD PUSH2 0xAA9 PUSH1 0x4 DUP6 ADD SLOAD SWAP2 PUSH1 0x5 DUP7 ADD SLOAD SWAP4 PUSH1 0x6 DUP8 ADD SLOAD SWAP6 PUSH1 0x8 PUSH1 0x7 DUP10 ADD SLOAD SWAP9 ADD SLOAD SWAP9 PUSH1 0x40 MLOAD SWAP12 DUP13 MSTORE PUSH1 0x20 DUP13 ADD MSTORE PUSH1 0x40 DUP12 ADD MSTORE DUP2 AND PUSH1 0x60 DUP11 ADD MSTORE DUP8 PUSH1 0x80 DUP11 ADD SWAP2 PUSH1 0xA0 SHR AND PUSH2 0x19A9 JUMP JUMPDEST PUSH1 0xA0 DUP8 ADD MSTORE PUSH1 0xC0 DUP7 ADD MSTORE PUSH1 0xE0 DUP6 ADD MSTORE PUSH2 0x100 DUP5 ADD MSTORE PUSH2 0xACE PUSH2 0x120 DUP5 ADD DUP4 DUP4 AND PUSH2 0x19B6 JUMP JUMPDEST DUP2 DUP2 PUSH1 0x8 SHR AND ISZERO ISZERO PUSH2 0x140 DUP5 ADD MSTORE PUSH1 0x10 SHR AND ISZERO ISZERO PUSH2 0x160 DUP3 ADD MSTORE RETURN JUMPDEST CALLVALUE PUSH2 0x239 JUMPI PUSH1 0x20 CALLDATASIZE PUSH1 0x3 NOT ADD SLT PUSH2 0x239 JUMPI PUSH1 0x80 PUSH1 0x1 PUSH1 0x1 PUSH1 0xA0 SHL SUB DUP1 PUSH2 0xB0E PUSH2 0x19C3 JUMP JUMPDEST AND PUSH1 0x0 MSTORE PUSH1 0x6 PUSH1 0x20 MSTORE PUSH1 0x40 PUSH1 0x0 KECCAK256 SWAP1 DUP2 SLOAD AND SWAP1 PUSH1 0x1 DUP2 ADD SLOAD SWAP1 PUSH1 0x3 PUSH1 0x2 DUP3 ADD SLOAD SWAP2 ADD SLOAD SWAP2 PUSH1 0x40 MLOAD SWAP4 DUP5 MSTORE PUSH1 0x20 DUP5 ADD MSTORE PUSH1 0x40 DUP4 ADD MSTORE PUSH1 0x60 DUP3 ADD MSTORE RETURN JUMPDEST CALLVALUE PUSH2 0x239 JUMPI PUSH1 0x0 CALLDATASIZE PUSH1 0x3 NOT ADD SLT PUSH2 0x239 JUMPI PUSH1 0x1 SLOAD PUSH1 0x40 MLOAD PUSH1 0x8 SWAP2 SWAP1 SWAP2 SHR PUSH1 0x1 PUSH1 0x1 PUSH1 0xA0 SHL SUB AND DUP2 MSTORE PUSH1 0x20 SWAP1 RETURN JUMPDEST CALLVALUE PUSH2 0x239 JUMPI PUSH1 0x0 CALLDATASIZE PUSH1 0x3 NOT ADD SLT PUSH2 0x239 JUMPI PUSH2 0xB8F PUSH2 0x1AB9 JUMP JUMPDEST PUSH2 0xB97 PUSH2 0x1B14 JUMP JUMPDEST PUSH1 0x1 PUSH1 0xFF NOT DUP2 SLOAD AND OR PUSH1 0x1 SSTORE PUSH32 0x62E78CEA01BEE320CD4E420270B5EA74000D11B0C9F74754EBDBFC544B05A258 PUSH1 0x20 PUSH1 0x40 MLOAD CALLER DUP2 MSTORE LOG1 PUSH32 0x9A506B30E47F3823B09F67E4C0DFA5C3D8023B71825B7CEAA97677129128C9C5 PUSH1 0x20 PUSH1 0x40 MLOAD PUSH1 0x1 DUP2 MSTORE LOG1 STOP JUMPDEST CALLVALUE PUSH2 0x239 JUMPI PUSH1 0x0 CALLDATASIZE PUSH1 0x3 NOT ADD SLT PUSH2 0x239 JUMPI PUSH2 0xC13 PUSH2 0x1AB9 JUMP JUMPDEST PUSH1 0x1 DUP1 SLOAD PUSH2 0x100 PUSH1 0x1 PUSH1 0xA8 SHL SUB NOT DUP2 AND SWAP1 SWAP2 SSTORE PUSH1 0x0 SWAP1 PUSH1 0x8 SHR PUSH1 0x1 PUSH1 0x1 PUSH1 0xA0 SHL SUB AND PUSH32 0x8BE0079C531659141344CD1FD0A4F28419497F9722A3DAAFE3B4186F6B6457E0 DUP3 DUP1 LOG3 STOP JUMPDEST CALLVALUE PUSH2 0x239 JUMPI PUSH1 0x20 CALLDATASIZE PUSH1 0x3 NOT ADD SLT PUSH2 0x239 JUMPI PUSH2 0xC74 PUSH2 0x19C3 JUMP JUMPDEST PUSH2 0xC7C PUSH2 0x1AB9 JUMP JUMPDEST PUSH1 0x1 PUSH1 0x1 PUSH1 0xA0 SHL SUB AND PUSH1 0x0 SWAP1 DUP2 MSTORE PUSH1 0x7 PUSH1 0x20 MSTORE PUSH1 0x40 SWAP1 KECCAK256 DUP1 SLOAD PUSH1 0xFF NOT AND PUSH1 0x1 OR SWAP1 SSTORE STOP JUMPDEST CALLVALUE PUSH2 0x239 JUMPI PUSH1 0x60 CALLDATASIZE PUSH1 0x3 NOT ADD SLT PUSH2 0x239 JUMPI PUSH2 0xCB9 PUSH2 0x19C3 JUMP JUMPDEST PUSH1 0x24 DUP1 CALLDATALOAD SWAP2 PUSH1 0xFF DUP4 AND DUP1 SWAP4 SUB PUSH2 0x239 JUMPI PUSH1 0x44 CALLDATALOAD SWAP1 PUSH1 0x1 DUP5 LT ISZERO DUP1 PUSH2 0xFAD JUMPI JUMPDEST ISZERO PUSH2 0xF78 JUMPI DUP2 PUSH1 0x0 MSTORE PUSH1 0x20 SWAP1 PUSH1 0x5 DUP3 MSTORE PUSH1 0x40 PUSH1 0x0 KECCAK256 SWAP1 PUSH1 0x40 MLOAD SWAP2 PUSH2 0xCFB DUP4 PUSH2 0x1932 JUMP JUMPDEST DUP1 SLOAD DUP4 MSTORE PUSH1 0x1 DUP2 ADD SLOAD DUP5 DUP5 ADD MSTORE PUSH1 0x1 DUP1 PUSH1 0xA0 SHL SUB SWAP3 DUP4 PUSH1 0x2 DUP4 ADD SLOAD AND SWAP1 PUSH1 0x40 DUP2 ADD SWAP2 DUP3 MSTORE PUSH1 0x8 PUSH1 0x3 DUP5 ADD SLOAD SWAP4 PUSH2 0xD43 PUSH1 0xFF PUSH1 0x60 DUP6 ADD SWAP7 DUP10 DUP2 AND DUP9 MSTORE PUSH1 0xA0 SHR AND PUSH1 0x80 DUP6 ADD PUSH2 0x1BD1 JUMP JUMPDEST PUSH1 0x4 DUP2 ADD SLOAD PUSH1 0xA0 DUP5 ADD MSTORE PUSH1 0x5 DUP2 ADD SLOAD PUSH1 0xC0 DUP5 ADD MSTORE PUSH1 0x6 DUP2 ADD SLOAD PUSH1 0xE0 DUP5 ADD MSTORE PUSH1 0x7 DUP2 ADD SLOAD PUSH2 0x100 DUP5 ADD MSTORE ADD SLOAD SWAP1 PUSH2 0x160 PUSH1 0xFF PUSH2 0x120 DUP4 ADD SWAP4 PUSH2 0xD86 DUP3 DUP3 AND DUP7 PUSH2 0x1BDD JUMP JUMPDEST DUP2 DUP2 PUSH1 0x8 SHR AND ISZERO ISZERO PUSH2 0x140 DUP6 ADD MSTORE PUSH1 0x10 SHR AND ISZERO ISZERO SWAP2 ADD MSTORE MLOAD PUSH1 0x6 DUP2 LT ISZERO PUSH2 0xF63 JUMPI PUSH1 0x2 SUB PUSH2 0xF1F JUMPI DUP4 SWAP1 MLOAD AND CALLER DUP2 EQ SWAP2 DUP3 PUSH2 0xF0F JUMPI JUMPDEST DUP3 ISZERO PUSH2 0xEEE JUMPI JUMPDEST POP POP ISZERO PUSH2 0xEAA JUMPI AND SWAP3 DUP4 PUSH1 0x0 MSTORE PUSH1 0x6 DUP3 MSTORE PUSH1 0x40 PUSH1 0x0 KECCAK256 SWAP1 DUP5 PUSH12 0xFFFFFFFFFFFFFFFFFFFFFFFF PUSH1 0xA0 SHL DUP4 SLOAD AND OR DUP3 SSTORE PUSH1 0x1 DUP3 ADD SWAP1 DUP2 SLOAD SWAP2 PUSH1 0x1 DUP4 ADD DUP1 SWAP4 GT PUSH2 0xE95 JUMPI DUP3 SWAP1 SSTORE PUSH1 0x2 DUP4 ADD SWAP1 PUSH2 0xE17 DUP9 DUP4 SLOAD PUSH2 0x1BAE JUMP JUMPDEST DUP1 SWAP3 SSTORE PUSH1 0x64 DUP3 MUL SWAP2 DUP1 DUP4 DIV PUSH1 0x64 EQ SWAP1 ISZERO OR ISZERO PUSH2 0xE81 JUMPI DUP3 ISZERO PUSH2 0xE6D JUMPI POP SWAP1 PUSH1 0x3 SWAP2 DIV SWAP2 ADD SSTORE PUSH1 0x40 MLOAD SWAP4 DUP5 MSTORE DUP4 ADD MSTORE PUSH32 0xE0F1B844B1CBDFE7975A9E07BB900EC797799E17C626A8DC9996EB3BBE715D04 PUSH1 0x40 CALLER SWAP4 LOG3 STOP JUMPDEST PUSH4 0x4E487B71 PUSH1 0xE0 SHL PUSH1 0x0 SWAP1 DUP2 MSTORE PUSH1 0x12 PUSH1 0x4 MSTORE REVERT JUMPDEST PUSH4 0x4E487B71 PUSH1 0xE0 SHL PUSH1 0x0 SWAP1 DUP2 MSTORE PUSH1 0x11 PUSH1 0x4 MSTORE REVERT JUMPDEST POP PUSH4 0x4E487B71 PUSH1 0xE0 SHL PUSH1 0x0 SWAP1 DUP2 MSTORE PUSH1 0x11 PUSH1 0x4 MSTORE REVERT JUMPDEST PUSH1 0x40 MLOAD PUSH3 0x461BCD PUSH1 0xE5 SHL DUP2 MSTORE PUSH1 0x4 DUP2 ADD DUP5 SWAP1 MSTORE PUSH1 0x1B DUP2 DUP8 ADD MSTORE PUSH32 0x496E76616C696420726174696E67207061727469636970616E74730000000000 PUSH1 0x44 DUP3 ADD MSTORE PUSH1 0x64 SWAP1 REVERT JUMPDEST MLOAD DUP5 AND CALLER EQ SWAP2 POP DUP2 PUSH2 0xF03 JUMPI JUMPDEST POP DUP8 DUP1 PUSH2 0xDC3 JUMP JUMPDEST SWAP1 POP DUP3 DUP3 AND EQ DUP8 PUSH2 0xEFB JUMP JUMPDEST SWAP2 POP DUP4 DUP3 MLOAD AND DUP5 DUP5 AND EQ SWAP2 PUSH2 0xDBC JUMP JUMPDEST PUSH1 0x40 MLOAD PUSH3 0x461BCD PUSH1 0xE5 SHL DUP2 MSTORE PUSH1 0x4 DUP2 ADD DUP7 SWAP1 MSTORE PUSH1 0x19 DUP2 DUP10 ADD MSTORE PUSH32 0x5472616E73616374696F6E206E6F7420636F6D706C6574656400000000000000 PUSH1 0x44 DUP3 ADD MSTORE PUSH1 0x64 SWAP1 REVERT JUMPDEST DUP8 PUSH4 0x4E487B71 PUSH1 0xE0 SHL PUSH1 0x0 MSTORE PUSH1 0x21 PUSH1 0x4 MSTORE PUSH1 0x0 REVERT JUMPDEST PUSH1 0x40 MLOAD PUSH3 0x461BCD PUSH1 0xE5 SHL DUP2 MSTORE PUSH1 0x20 PUSH1 0x4 DUP3 ADD MSTORE PUSH1 0xE DUP2 DUP6 ADD MSTORE PUSH14 0x496E76616C696420726174696E67 PUSH1 0x90 SHL PUSH1 0x44 DUP3 ADD MSTORE PUSH1 0x64 SWAP1 REVERT JUMPDEST POP PUSH1 0x5 DUP5 GT ISZERO PUSH2 0xCD8 JUMP JUMPDEST CALLVALUE PUSH2 0x239 JUMPI PUSH1 0x0 CALLDATASIZE PUSH1 0x3 NOT ADD SLT PUSH2 0x239 JUMPI PUSH1 0x9 SLOAD PUSH1 0x40 MLOAD PUSH1 0x1 PUSH1 0x1 PUSH1 0xA0 SHL SUB SWAP1 SWAP2 AND DUP2 MSTORE PUSH1 0x20 SWAP1 RETURN JUMPDEST CALLVALUE PUSH2 0x239 JUMPI PUSH1 0x20 CALLDATASIZE PUSH1 0x3 NOT ADD SLT PUSH2 0x239 JUMPI PUSH1 0x80 PUSH2 0xFFC PUSH2 0x19C3 JUMP JUMPDEST PUSH1 0x0 PUSH1 0x60 PUSH1 0x40 MLOAD PUSH2 0x100C DUP2 PUSH2 0x194F JUMP JUMPDEST DUP3 DUP2 MSTORE DUP3 PUSH1 0x20 DUP3 ADD MSTORE DUP3 PUSH1 0x40 DUP3 ADD MSTORE ADD MSTORE PUSH1 0x1 DUP1 PUSH1 0xA0 SHL SUB DUP1 SWAP2 AND PUSH1 0x0 MSTORE PUSH1 0x6 PUSH1 0x20 MSTORE PUSH1 0x40 PUSH1 0x0 KECCAK256 SWAP1 PUSH1 0x40 MLOAD SWAP1 PUSH2 0x1042 DUP3 PUSH2 0x194F JUMP JUMPDEST DUP3 SLOAD AND SWAP2 DUP3 DUP3 MSTORE PUSH1 0x1 DUP2 ADD SLOAD PUSH1 0x20 DUP4 ADD SWAP1 DUP2 MSTORE PUSH1 0x60 PUSH1 0x3 PUSH1 0x2 DUP5 ADD SLOAD SWAP4 PUSH1 0x40 DUP7 ADD SWAP5 DUP6 MSTORE ADD SLOAD SWAP4 ADD SWAP3 DUP4 MSTORE PUSH1 0x40 MLOAD SWAP4 DUP5 MSTORE MLOAD PUSH1 0x20 DUP5 ADD MSTORE MLOAD PUSH1 0x40 DUP4 ADD MSTORE MLOAD PUSH1 0x60 DUP3 ADD MSTORE RETURN JUMPDEST CALLVALUE PUSH2 0x239 JUMPI PUSH1 0x20 CALLDATASIZE PUSH1 0x3 NOT ADD SLT PUSH2 0x239 JUMPI PUSH1 0x1 PUSH1 0x1 PUSH1 0xA0 SHL SUB PUSH2 0x10A8 PUSH2 0x19C3 JUMP JUMPDEST AND PUSH1 0x0 MSTORE PUSH1 0x7 PUSH1 0x20 MSTORE PUSH1 0x20 PUSH1 0xFF PUSH1 0x40 PUSH1 0x0 KECCAK256 SLOAD AND PUSH1 0x40 MLOAD SWAP1 ISZERO ISZERO DUP2 MSTORE RETURN JUMPDEST CALLVALUE PUSH2 0x239 JUMPI PUSH1 0x0 CALLDATASIZE PUSH1 0x3 NOT ADD SLT PUSH2 0x239 JUMPI PUSH2 0x10DF PUSH2 0x1AB9 JUMP JUMPDEST PUSH1 0x1 SLOAD PUSH1 0xFF DUP2 AND ISZERO PUSH2 0x1149 JUMPI PUSH1 0xFF NOT AND PUSH1 0x1 SSTORE PUSH32 0x5DB9EE0A495BF2E6FF9C91A7834C1BA4FDD244A5E8AA4E537BD38AEAE4B073AA PUSH1 0x20 PUSH1 0x40 MLOAD CALLER DUP2 MSTORE LOG1 PUSH32 0x9A506B30E47F3823B09F67E4C0DFA5C3D8023B71825B7CEAA97677129128C9C5 PUSH1 0x20 PUSH1 0x40 MLOAD PUSH1 0x0 DUP2 MSTORE LOG1 STOP JUMPDEST PUSH1 0x40 MLOAD PUSH3 0x461BCD PUSH1 0xE5 SHL DUP2 MSTORE PUSH1 0x20 PUSH1 0x4 DUP3 ADD MSTORE PUSH1 0x14 PUSH1 0x24 DUP3 ADD MSTORE PUSH20 0x14185D5CD8589B194E881B9BDD081C185D5CD959 PUSH1 0x62 SHL PUSH1 0x44 DUP3 ADD MSTORE PUSH1 0x64 SWAP1 REVERT JUMPDEST CALLVALUE PUSH2 0x239 JUMPI PUSH1 0x20 CALLDATASIZE PUSH1 0x3 NOT ADD SLT PUSH2 0x239 JUMPI PUSH1 0x0 PUSH2 0x160 PUSH1 0x40 MLOAD PUSH2 0x11A7 DUP2 PUSH2 0x1932 JUMP JUMPDEST DUP3 DUP2 MSTORE DUP3 PUSH1 0x20 DUP3 ADD MSTORE DUP3 PUSH1 0x40 DUP3 ADD MSTORE DUP3 PUSH1 0x60 DUP3 ADD MSTORE DUP3 PUSH1 0x80 DUP3 ADD MSTORE DUP3 PUSH1 0xA0 DUP3 ADD MSTORE DUP3 PUSH1 0xC0 DUP3 ADD MSTORE DUP3 PUSH1 0xE0 DUP3 ADD MSTORE DUP3 PUSH2 0x100 DUP3 ADD MSTORE DUP3 PUSH2 0x120 DUP3 ADD MSTORE DUP3 PUSH2 0x140 DUP3 ADD MSTORE ADD MSTORE PUSH1 0x4 CALLDATALOAD PUSH1 0x0 MSTORE PUSH1 0x5 PUSH1 0x20 MSTORE PUSH2 0x180 PUSH1 0x40 PUSH1 0x0 KECCAK256 PUSH1 0xFF PUSH1 0x8 PUSH1 0x40 MLOAD SWAP3 PUSH2 0x120F DUP5 PUSH2 0x1932 JUMP JUMPDEST DUP1 SLOAD DUP5 MSTORE PUSH1 0x1 DUP2 ADD SLOAD PUSH1 0x20 DUP6 ADD MSTORE PUSH1 0x2 DUP2 ADD SLOAD PUSH1 0x1 PUSH1 0x1 PUSH1 0xA0 SHL SUB SWAP1 DUP2 AND PUSH1 0x40 DUP7 ADD MSTORE PUSH1 0x3 DUP3 ADD SLOAD SWAP1 DUP2 AND PUSH1 0x60 DUP7 ADD MSTORE PUSH2 0x1251 SWAP1 PUSH1 0xA0 SHR DUP5 AND PUSH1 0x80 DUP7 ADD PUSH2 0x1BD1 JUMP JUMPDEST PUSH1 0x4 DUP2 ADD SLOAD PUSH1 0xA0 DUP6 ADD MSTORE PUSH1 0x5 DUP2 ADD SLOAD PUSH1 0xC0 DUP6 ADD MSTORE PUSH1 0x6 DUP2 ADD SLOAD PUSH1 0xE0 DUP6 ADD MSTORE PUSH1 0x7 DUP2 ADD SLOAD PUSH2 0x100 DUP6 ADD MSTORE ADD SLOAD PUSH2 0x128C DUP3 DUP3 AND PUSH2 0x120 DUP6 ADD PUSH2 0x1BDD JUMP JUMPDEST DUP2 DUP2 PUSH1 0x8 SHR AND ISZERO ISZERO PUSH2 0x140 DUP5 ADD MSTORE PUSH1 0x10 SHR AND ISZERO ISZERO PUSH2 0x160 DUP3 ADD MSTORE PUSH2 0x160 PUSH1 0x40 MLOAD SWAP2 DUP1 MLOAD DUP4 MSTORE PUSH1 0x20 DUP2 ADD MLOAD PUSH1 0x20 DUP5 ADD MSTORE PUSH1 0x1 DUP1 PUSH1 0xA0 SHL SUB PUSH1 0x40 DUP3 ADD MLOAD AND PUSH1 0x40 DUP5 ADD MSTORE PUSH1 0x1 DUP1 PUSH1 0xA0 SHL SUB PUSH1 0x60 DUP3 ADD MLOAD AND PUSH1 0x60 DUP5 ADD MSTORE PUSH2 0x12F1 PUSH1 0x80 DUP3 ADD MLOAD PUSH1 0x80 DUP6 ADD SWAP1 PUSH2 0x19A9 JUMP JUMPDEST PUSH1 0xA0 DUP2 ADD MLOAD PUSH1 0xA0 DUP5 ADD MSTORE PUSH1 0xC0 DUP2 ADD MLOAD PUSH1 0xC0 DUP5 ADD MSTORE PUSH1 0xE0 DUP2 ADD MLOAD PUSH1 0xE0 DUP5 ADD MSTORE PUSH2 0x100 DUP2 ADD MLOAD PUSH2 0x100 DUP5 ADD MSTORE PUSH2 0x132F PUSH2 0x120 DUP3 ADD MLOAD PUSH2 0x120 DUP6 ADD SWAP1 PUSH2 0x19B6 JUMP JUMPDEST PUSH2 0x140 DUP2 ADD MLOAD ISZERO ISZERO PUSH2 0x140 DUP5 ADD MSTORE ADD MLOAD ISZERO ISZERO PUSH2 0x160 DUP3 ADD MSTORE RETURN JUMPDEST CALLVALUE PUSH2 0x239 JUMPI PUSH1 0x80 CALLDATASIZE PUSH1 0x3 NOT ADD SLT PUSH2 0x239 JUMPI PUSH1 0x4 CALLDATALOAD DUP1 ISZERO ISZERO DUP2 SUB PUSH2 0x239 JUMPI PUSH1 0x64 CALLDATALOAD PUSH8 0xFFFFFFFFFFFFFFFF DUP2 GT PUSH2 0x239 JUMPI CALLDATASIZE PUSH1 0x23 DUP3 ADD SLT ISZERO PUSH2 0x239 JUMPI DUP1 PUSH1 0x4 ADD CALLDATALOAD PUSH2 0x1391 DUP2 PUSH2 0x198D JUMP JUMPDEST SWAP2 PUSH2 0x139F PUSH1 0x40 MLOAD SWAP4 DUP5 PUSH2 0x196B JUMP JUMPDEST DUP2 DUP4 MSTORE CALLDATASIZE PUSH1 0x24 DUP4 DUP4 ADD ADD GT PUSH2 0x239 JUMPI DUP2 PUSH1 0x0 SWAP3 PUSH1 0x24 PUSH1 0x20 SWAP4 ADD DUP4 DUP7 ADD CALLDATACOPY DUP4 ADD ADD MSTORE PUSH2 0x13C8 PUSH2 0x1B14 JUMP JUMPDEST PUSH2 0x13D0 PUSH2 0x1B58 JUMP JUMPDEST PUSH1 0x24 CALLDATALOAD ISZERO PUSH2 0x16C3 JUMPI DUP1 MLOAD ISZERO PUSH2 0x1689 JUMPI PUSH1 0x1 PUSH1 0x2 SLOAD ADD SWAP1 DUP2 PUSH1 0x2 SSTORE PUSH1 0x40 MLOAD PUSH2 0x13F6 DUP2 PUSH2 0x1915 JUMP JUMPDEST DUP3 DUP2 MSTORE CALLER PUSH1 0x20 DUP3 ADD MSTORE DUP4 ISZERO ISZERO PUSH1 0x40 DUP3 ADD MSTORE PUSH1 0x24 CALLDATALOAD PUSH1 0x60 DUP3 ADD MSTORE PUSH1 0x44 CALLDATALOAD PUSH1 0x80 DUP3 ADD MSTORE DUP2 PUSH1 0xA0 DUP3 ADD MSTORE PUSH1 0x1 PUSH1 0xC0 DUP3 ADD MSTORE TIMESTAMP PUSH1 0xE0 DUP3 ADD MSTORE TIMESTAMP PUSH2 0x100 DUP3 ADD MSTORE DUP3 PUSH1 0x0 MSTORE PUSH1 0x4 PUSH1 0x20 MSTORE PUSH1 0x40 PUSH1 0x0 KECCAK256 DUP2 MLOAD DUP2 SSTORE PUSH1 0x1 DUP2 ADD PUSH1 0x1 DUP1 PUSH1 0xA0 SHL SUB PUSH1 0x20 DUP5 ADD MLOAD AND DUP2 SLOAD SWAP1 PUSH1 0xFF PUSH1 0xA0 SHL PUSH1 0x40 DUP7 ADD MLOAD ISZERO ISZERO PUSH1 0xA0 SHL AND SWAP2 PUSH11 0xFFFFFFFFFFFFFFFFFFFFFF PUSH1 0xA8 SHL AND OR OR SWAP1 SSTORE PUSH1 0x60 DUP3 ADD MLOAD PUSH1 0x2 DUP3 ADD SSTORE PUSH1 0x80 DUP3 ADD MLOAD PUSH1 0x3 DUP3 ADD SSTORE PUSH1 0xA0 DUP3 ADD MLOAD SWAP2 DUP3 MLOAD SWAP3 PUSH8 0xFFFFFFFFFFFFFFFF DUP5 GT PUSH2 0x1673 JUMPI PUSH2 0x14B5 PUSH1 0x4 DUP5 ADD SLOAD PUSH2 0x19D9 JUMP JUMPDEST PUSH1 0x1F DUP2 GT PUSH2 0x1628 JUMPI JUMPDEST POP SWAP2 PUSH1 0x20 SWAP7 SWAP2 DUP7 SWAP4 DUP9 SWAP1 PUSH1 0x1F DUP8 GT PUSH1 0x1 EQ PUSH2 0x158E JUMPI SWAP2 DUP7 PUSH32 0x1FD8B16CF502B97CF63737D65468B4FAD7B5000E89A7881D7D8EF3986471E4CB SWAP7 SWAP8 PUSH2 0x100 SWAP4 PUSH1 0x7 SWAP6 PUSH1 0x0 SWAP3 PUSH2 0x1583 JUMPI JUMPDEST POP POP DUP2 PUSH1 0x1 SHL SWAP2 PUSH1 0x0 NOT SWAP1 PUSH1 0x3 SHL SHR NOT AND OR PUSH1 0x4 DUP6 ADD SSTORE JUMPDEST PUSH1 0x5 DUP5 ADD PUSH1 0xC0 DUP3 ADD MLOAD ISZERO ISZERO PUSH1 0xFF DUP1 NOT DUP4 SLOAD AND SWAP2 AND OR SWAP1 SSTORE PUSH1 0xE0 DUP2 ADD MLOAD PUSH1 0x6 DUP6 ADD SSTORE ADD MLOAD SWAP2 ADD SSTORE PUSH1 0x40 MLOAD SWAP1 ISZERO ISZERO DUP2 MSTORE PUSH1 0x24 CALLDATALOAD DUP7 DUP3 ADD MSTORE PUSH1 0x44 CALLDATALOAD PUSH1 0x40 DUP3 ADD MSTORE PUSH1 0x80 PUSH1 0x60 DUP3 ADD MSTORE DUP1 PUSH2 0x1573 CALLER SWAP6 PUSH1 0x80 DUP4 ADD SWAP1 PUSH2 0x18D5 JUMP JUMPDEST SUB SWAP1 LOG3 PUSH1 0x1 PUSH1 0x0 SSTORE PUSH1 0x40 MLOAD SWAP1 DUP2 MSTORE RETURN JUMPDEST ADD MLOAD SWAP1 POP DUP13 DUP1 PUSH2 0x1507 JUMP JUMPDEST SWAP6 SWAP1 PUSH1 0x4 DUP5 ADD PUSH1 0x0 MSTORE DUP10 PUSH1 0x0 KECCAK256 SWAP7 PUSH1 0x0 JUMPDEST PUSH1 0x1F NOT DUP5 AND DUP2 LT PUSH2 0x160E JUMPI POP DUP3 PUSH32 0x1FD8B16CF502B97CF63737D65468B4FAD7B5000E89A7881D7D8EF3986471E4CB SWAP8 SWAP9 PUSH1 0x7 SWAP6 SWAP4 PUSH1 0x1 SWAP4 PUSH2 0x100 SWAP7 PUSH1 0x1F NOT DUP2 AND LT PUSH2 0x15F5 JUMPI JUMPDEST POP POP POP DUP2 SHL ADD PUSH1 0x4 DUP6 ADD SSTORE PUSH2 0x151F JUMP JUMPDEST ADD MLOAD PUSH1 0x0 NOT PUSH1 0xF8 DUP5 PUSH1 0x3 SHL AND SHR NOT AND SWAP1 SSTORE DUP13 DUP1 DUP1 PUSH2 0x15E5 JUMP JUMPDEST DUP3 DUP3 ADD MLOAD DUP10 SSTORE PUSH1 0x1 SWAP1 SWAP9 ADD SWAP8 DUP11 SWAP8 POP SWAP2 DUP12 ADD SWAP2 DUP12 ADD PUSH2 0x159F JUMP JUMPDEST PUSH1 0x4 DUP5 ADD PUSH1 0x0 MSTORE PUSH1 0x20 PUSH1 0x0 KECCAK256 PUSH1 0x1F DUP7 ADD PUSH1 0x5 SHR DUP2 ADD SWAP2 PUSH1 0x20 DUP8 LT PUSH2 0x1669 JUMPI JUMPDEST PUSH1 0x1F ADD PUSH1 0x5 SHR ADD SWAP1 JUMPDEST DUP2 DUP2 LT PUSH2 0x165D JUMPI POP PUSH2 0x14BE JUMP JUMPDEST PUSH1 0x0 DUP2 SSTORE PUSH1 0x1 ADD PUSH2 0x1650 JUMP JUMPDEST SWAP1 SWAP2 POP DUP2 SWAP1 PUSH2 0x1647 JUMP JUMPDEST PUSH4 0x4E487B71 PUSH1 0xE0 SHL PUSH1 0x0 MSTORE PUSH1 0x41 PUSH1 0x4 MSTORE PUSH1 0x24 PUSH1 0x0 REVERT JUMPDEST PUSH1 0x40 MLOAD PUSH3 0x461BCD PUSH1 0xE5 SHL DUP2 MSTORE PUSH1 0x20 PUSH1 0x4 DUP3 ADD MSTORE PUSH1 0x12 PUSH1 0x24 DUP3 ADD MSTORE PUSH18 0x12541194C81A185CDA081C995C5D5A5C9959 PUSH1 0x72 SHL PUSH1 0x44 DUP3 ADD MSTORE PUSH1 0x64 SWAP1 REVERT JUMPDEST PUSH1 0x40 MLOAD PUSH3 0x461BCD PUSH1 0xE5 SHL DUP2 MSTORE PUSH1 0x20 PUSH1 0x4 DUP3 ADD MSTORE PUSH1 0x1C PUSH1 0x24 DUP3 ADD MSTORE PUSH32 0x5072696365206D7573742062652067726561746572207468616E203000000000 PUSH1 0x44 DUP3 ADD MSTORE PUSH1 0x64 SWAP1 REVERT JUMPDEST CALLVALUE PUSH2 0x239 JUMPI PUSH1 0x0 CALLDATASIZE PUSH1 0x3 NOT ADD SLT PUSH2 0x239 JUMPI PUSH1 0x20 PUSH1 0x8 SLOAD PUSH1 0x40 MLOAD SWAP1 DUP2 MSTORE RETURN JUMPDEST CALLVALUE PUSH2 0x239 JUMPI PUSH1 0x20 CALLDATASIZE PUSH1 0x3 NOT ADD SLT PUSH2 0x239 JUMPI PUSH1 0x4 CALLDATALOAD PUSH2 0x1742 PUSH2 0x1AB9 JUMP JUMPDEST PUSH2 0x3E8 DUP2 GT PUSH2 0x1750 JUMPI PUSH1 0x8 SSTORE STOP JUMPDEST PUSH1 0x40 MLOAD PUSH3 0x461BCD PUSH1 0xE5 SHL DUP2 MSTORE PUSH1 0x20 PUSH1 0x4 DUP3 ADD MSTORE PUSH1 0xC PUSH1 0x24 DUP3 ADD MSTORE PUSH12 0x8CCACA40E8DEDE40D0D2CED PUSH1 0xA3 SHL PUSH1 0x44 DUP3 ADD MSTORE PUSH1 0x64 SWAP1 REVERT JUMPDEST CALLVALUE PUSH2 0x239 JUMPI PUSH1 0x20 SWAP1 DUP2 PUSH1 0x3 NOT CALLDATASIZE ADD SLT PUSH2 0x239 JUMPI PUSH2 0x17A0 DUP2 PUSH2 0x1915 JUMP JUMPDEST PUSH1 0x0 DUP2 MSTORE PUSH1 0x0 DUP3 DUP3 ADD MSTORE PUSH1 0x0 PUSH1 0x40 DUP3 ADD MSTORE PUSH1 0x0 PUSH1 0x60 DUP3 ADD MSTORE PUSH1 0x0 PUSH1 0x80 DUP3 ADD MSTORE PUSH1 0x60 PUSH1 0xA0 DUP3 ADD MSTORE PUSH1 0x0 PUSH1 0xC0 DUP3 ADD MSTORE PUSH1 0x0 PUSH1 0xE0 DUP3 ADD MSTORE PUSH1 0x0 PUSH2 0x100 DUP1 SWAP3 ADD MSTORE PUSH1 0x4 CALLDATALOAD PUSH1 0x0 MSTORE PUSH1 0x4 DUP3 MSTORE PUSH1 0x40 PUSH1 0x0 KECCAK256 SWAP1 PUSH1 0x40 MLOAD SWAP2 PUSH2 0x17FA DUP4 PUSH2 0x1915 JUMP JUMPDEST DUP1 SLOAD DUP4 MSTORE PUSH1 0x1 DUP2 ADD SLOAD SWAP2 DUP5 DUP5 ADD SWAP1 PUSH1 0x1 DUP1 PUSH1 0xA0 SHL SUB SWAP4 DUP5 DUP2 AND DUP4 MSTORE PUSH1 0xFF PUSH1 0x40 DUP8 ADD SWAP2 PUSH1 0xA0 SHR AND ISZERO ISZERO DUP2 MSTORE PUSH1 0x2 DUP5 ADD SLOAD PUSH1 0x60 DUP8 ADD SWAP1 DUP2 MSTORE PUSH1 0x3 DUP6 ADD SLOAD SWAP1 PUSH1 0x80 DUP9 ADD SWAP2 DUP3 MSTORE PUSH2 0x1849 PUSH1 0x4 DUP8 ADD PUSH2 0x1A13 JUMP JUMPDEST SWAP3 PUSH1 0xA0 DUP10 ADD SWAP4 DUP5 MSTORE PUSH1 0xFF PUSH1 0x5 DUP9 ADD SLOAD AND SWAP8 PUSH1 0xC0 DUP11 ADD SWAP9 ISZERO ISZERO DUP10 MSTORE PUSH1 0x7 PUSH1 0x6 DUP10 ADD SLOAD SWAP9 PUSH1 0xE0 DUP13 ADD SWAP10 DUP11 MSTORE ADD SLOAD SWAP7 DUP7 DUP12 ADD SWAP8 DUP9 MSTORE PUSH1 0x40 MLOAD SWAP12 DUP13 SWAP12 DUP2 DUP14 MSTORE MLOAD SWAP1 DUP13 ADD MSTORE MLOAD AND PUSH1 0x40 DUP11 ADD MSTORE MLOAD ISZERO ISZERO PUSH1 0x60 DUP10 ADD MSTORE MLOAD PUSH1 0x80 DUP9 ADD MSTORE MLOAD PUSH1 0xA0 DUP8 ADD MSTORE MLOAD SWAP3 PUSH2 0x18BE PUSH2 0x120 SWAP5 DUP6 PUSH1 0xC0 DUP10 ADD MSTORE PUSH2 0x140 DUP9 ADD SWAP1 PUSH2 0x18D5 JUMP JUMPDEST SWAP5 MLOAD ISZERO ISZERO PUSH1 0xE0 DUP8 ADD MSTORE MLOAD SWAP1 DUP6 ADD MSTORE MLOAD SWAP1 DUP4 ADD MSTORE SUB SWAP1 RETURN JUMPDEST SWAP2 SWAP1 DUP3 MLOAD SWAP3 DUP4 DUP3 MSTORE PUSH1 0x0 JUMPDEST DUP5 DUP2 LT PUSH2 0x1901 JUMPI POP POP DUP3 PUSH1 0x0 PUSH1 0x20 DUP1 SWAP5 SWAP6 DUP5 ADD ADD MSTORE PUSH1 0x1F DUP1 NOT SWAP2 ADD AND ADD ADD SWAP1 JUMP JUMPDEST PUSH1 0x20 DUP2 DUP4 ADD DUP2 ADD MLOAD DUP5 DUP4 ADD DUP3 ADD MSTORE ADD PUSH2 0x18E0 JUMP JUMPDEST PUSH2 0x120 DUP2 ADD SWAP1 DUP2 LT PUSH8 0xFFFFFFFFFFFFFFFF DUP3 GT OR PUSH2 0x1673 JUMPI PUSH1 0x40 MSTORE JUMP JUMPDEST PUSH2 0x180 DUP2 ADD SWAP1 DUP2 LT PUSH8 0xFFFFFFFFFFFFFFFF DUP3 GT OR PUSH2 0x1673 JUMPI PUSH1 0x40 MSTORE JUMP JUMPDEST PUSH1 0x80 DUP2 ADD SWAP1 DUP2 LT PUSH8 0xFFFFFFFFFFFFFFFF DUP3 GT OR PUSH2 0x1673 JUMPI PUSH1 0x40 MSTORE JUMP JUMPDEST SWAP1 PUSH1 0x1F DUP1 NOT SWAP2 ADD AND DUP2 ADD SWAP1 DUP2 LT PUSH8 0xFFFFFFFFFFFFFFFF DUP3 GT OR PUSH2 0x1673 JUMPI PUSH1 0x40 MSTORE JUMP JUMPDEST PUSH8 0xFFFFFFFFFFFFFFFF DUP2 GT PUSH2 0x1673 JUMPI PUSH1 0x1F ADD PUSH1 0x1F NOT AND PUSH1 0x20 ADD SWAP1 JUMP JUMPDEST SWAP1 PUSH1 0x2 DUP3 LT ISZERO PUSH2 0x1ED JUMPI MSTORE JUMP JUMPDEST SWAP1 PUSH1 0x6 DUP3 LT ISZERO PUSH2 0x1ED JUMPI MSTORE JUMP JUMPDEST PUSH1 0x4 CALLDATALOAD SWAP1 PUSH1 0x1 PUSH1 0x1 PUSH1 0xA0 SHL SUB DUP3 AND DUP3 SUB PUSH2 0x239 JUMPI JUMP JUMPDEST SWAP1 PUSH1 0x1 DUP3 DUP2 SHR SWAP3 AND DUP1 ISZERO PUSH2 0x1A09 JUMPI JUMPDEST PUSH1 0x20 DUP4 LT EQ PUSH2 0x19F3 JUMPI JUMP JUMPDEST PUSH4 0x4E487B71 PUSH1 0xE0 SHL PUSH1 0x0 MSTORE PUSH1 0x22 PUSH1 0x4 MSTORE PUSH1 0x24 PUSH1 0x0 REVERT JUMPDEST SWAP2 PUSH1 0x7F AND SWAP2 PUSH2 0x19E8 JUMP JUMPDEST SWAP1 PUSH1 0x40 MLOAD SWAP2 DUP3 PUSH1 0x0 DUP3 SLOAD SWAP3 PUSH2 0x1A27 DUP5 PUSH2 0x19D9 JUMP JUMPDEST SWAP1 DUP2 DUP5 MSTORE PUSH1 0x1 SWAP5 DUP6 DUP2 AND SWAP1 DUP2 PUSH1 0x0 EQ PUSH2 0x1A96 JUMPI POP PUSH1 0x1 EQ PUSH2 0x1A53 JUMPI JUMPDEST POP POP PUSH2 0x1A51 SWAP3 POP SUB DUP4 PUSH2 0x196B JUMP JUMPDEST JUMP JUMPDEST SWAP1 SWAP4 SWAP2 POP PUSH1 0x0 MSTORE PUSH1 0x20 SWAP1 DUP2 PUSH1 0x0 KECCAK256 SWAP4 PUSH1 0x0 SWAP2 JUMPDEST DUP2 DUP4 LT PUSH2 0x1A7E JUMPI POP POP PUSH2 0x1A51 SWAP4 POP DUP3 ADD ADD CODESIZE DUP1 PUSH2 0x1A43 JUMP JUMPDEST DUP6 SLOAD DUP9 DUP5 ADD DUP6 ADD MSTORE SWAP5 DUP6 ADD SWAP5 DUP8 SWAP5 POP SWAP2 DUP4 ADD SWAP2 PUSH2 0x1A66 JUMP JUMPDEST SWAP2 POP POP PUSH2 0x1A51 SWAP5 POP PUSH1 0x20 SWAP3 POP PUSH1 0xFF NOT AND DUP3 DUP5 ADD MSTORE ISZERO ISZERO PUSH1 0x5 SHL DUP3 ADD ADD CODESIZE DUP1 PUSH2 0x1A43 JUMP JUMPDEST PUSH1 0x1 SLOAD PUSH1 0x8 SHR PUSH1 0x1 PUSH1 0x1 PUSH1 0xA0 SHL SUB AND CALLER SUB PUSH2 0x1AD0 JUMPI JUMP JUMPDEST PUSH1 0x64 PUSH1 0x40 MLOAD PUSH3 0x461BCD PUSH1 0xE5 SHL DUP2 MSTORE PUSH1 0x20 PUSH1 0x4 DUP3 ADD MSTORE PUSH1 0x20 PUSH1 0x24 DUP3 ADD MSTORE PUSH32 0x4F776E61626C653A2063616C6C6572206973206E6F7420746865206F776E6572 PUSH1 0x44 DUP3 ADD MSTORE REVERT JUMPDEST PUSH1 0xFF PUSH1 0x1 SLOAD AND PUSH2 0x1B20 JUMPI JUMP JUMPDEST PUSH1 0x40 MLOAD PUSH3 0x461BCD PUSH1 0xE5 SHL DUP2 MSTORE PUSH1 0x20 PUSH1 0x4 DUP3 ADD MSTORE PUSH1 0x10 PUSH1 0x24 DUP3 ADD MSTORE PUSH16 0x14185D5CD8589B194E881C185D5CD959 PUSH1 0x82 SHL PUSH1 0x44 DUP3 ADD MSTORE PUSH1 0x64 SWAP1 REVERT JUMPDEST PUSH1 0x2 PUSH1 0x0 SLOAD EQ PUSH2 0x1B69 JUMPI PUSH1 0x2 PUSH1 0x0 SSTORE JUMP JUMPDEST PUSH1 0x40 MLOAD PUSH3 0x461BCD PUSH1 0xE5 SHL DUP2 MSTORE PUSH1 0x20 PUSH1 0x4 DUP3 ADD MSTORE PUSH1 0x1F PUSH1 0x24 DUP3 ADD MSTORE PUSH32 0x5265656E7472616E637947756172643A207265656E7472616E742063616C6C00 PUSH1 0x44 DUP3 ADD MSTORE PUSH1 0x64 SWAP1 REVERT JUMPDEST SWAP2 SWAP1 DUP3 ADD DUP1 SWAP3 GT PUSH2 0x1BBB JUMPI JUMP JUMPDEST PUSH4 0x4E487B71 PUSH1 0xE0 SHL PUSH1 0x0 MSTORE PUSH1 0x11 PUSH1 0x4 MSTORE PUSH1 0x24 PUSH1 0x0 REVERT JUMPDEST PUSH1 0x2 DUP3 LT ISZERO PUSH2 0x1ED JUMPI MSTORE JUMP JUMPDEST PUSH1 0x6 DUP3 LT ISZERO PUSH2 0x1ED JUMPI MSTORE JUMP JUMPDEST SWAP2 SWAP1 DUP3 SUB SWAP2 DUP3 GT PUSH2 0x1BBB JUMPI JUMP JUMPDEST ISZERO PUSH2 0x1BFD JUMPI JUMP JUMPDEST PUSH1 0x40 MLOAD PUSH3 0x461BCD PUSH1 0xE5 SHL DUP2 MSTORE PUSH1 0x20 PUSH1 0x4 DUP3 ADD MSTORE PUSH1 0xE PUSH1 0x24 DUP3 ADD MSTORE PUSH14 0x496E76616C696420737461747573 PUSH1 0x90 SHL PUSH1 0x44 DUP3 ADD MSTORE PUSH1 0x64 SWAP1 REVERT JUMPDEST RETURNDATASIZE ISZERO PUSH2 0x1C5E JUMPI RETURNDATASIZE SWAP1 PUSH2 0x1C44 DUP3 PUSH2 0x198D JUMP JUMPDEST SWAP2 PUSH2 0x1C52 PUSH1 0x40 MLOAD SWAP4 DUP5 PUSH2 0x196B JUMP JUMPDEST DUP3 MSTORE RETURNDATASIZE PUSH1 0x0 PUSH1 0x20 DUP5 ADD RETURNDATACOPY JUMP JUMPDEST PUSH1 0x60 SWAP1 JUMP JUMPDEST PUSH1 0x0 SWAP1 DUP1 DUP3 MSTORE PUSH1 0x20 PUSH1 0x5 DUP2 MSTORE PUSH1 0x40 SWAP3 DUP4 DUP2 KECCAK256 PUSH1 0x8 DUP2 ADD PUSH1 0xFF NOT SWAP1 PUSH1 0x2 DUP3 DUP3 SLOAD AND OR SWAP1 SSTORE TIMESTAMP PUSH1 0x7 DUP4 ADD SSTORE PUSH1 0x4 SWAP3 DUP4 DUP4 ADD SLOAD SWAP4 PUSH1 0x8 SLOAD DUP1 DUP7 MUL SWAP1 DUP7 DUP3 DIV EQ DUP7 ISZERO OR ISZERO PUSH2 0x1E21 JUMPI PUSH2 0x2710 PUSH2 0x1CB6 SWAP2 DIV DUP1 SWAP7 PUSH2 0x1BE9 JUMP JUMPDEST DUP3 DUP1 DUP1 DUP1 PUSH1 0x1 DUP1 PUSH1 0xA0 SHL SUB SWAP10 DUP11 PUSH1 0x9 SLOAD AND GAS CALL PUSH2 0x1CD1 PUSH2 0x1C33 JUMP JUMPDEST POP ISZERO PUSH2 0x1DE8 JUMPI DUP3 DUP1 DUP1 DUP1 SWAP4 DUP10 PUSH1 0x3 DUP11 ADD SLOAD AND GAS CALL PUSH2 0x1CED PUSH2 0x1C33 JUMP JUMPDEST POP ISZERO PUSH2 0x1DAC JUMPI SWAP1 DUP8 SWAP2 PUSH1 0x5 DUP6 ADD SLOAD DUP1 PUSH2 0x1D48 JUMPI JUMPDEST POP PUSH1 0x1 DUP6 ADD SLOAD DUP3 MSTORE DUP7 MSTORE KECCAK256 PUSH1 0x5 ADD DUP1 SLOAD SWAP1 SWAP2 AND SWAP1 SSTORE PUSH1 0x2 ADD SLOAD SWAP4 MLOAD TIMESTAMP DUP2 MSTORE SWAP4 AND SWAP3 PUSH32 0x1B11D90EA8D39E379445D60E49AF9DAF202F00BE86C0B27C4C5B1C62A88E8DE0 SWAP2 SWAP1 LOG3 JUMP JUMPDEST DUP3 DUP1 DUP1 SWAP6 POP DUP1 SWAP4 SWAP5 SWAP3 DUP10 PUSH1 0x2 DUP11 ADD SLOAD AND GAS CALL PUSH2 0x1D62 PUSH2 0x1C33 JUMP JUMPDEST POP ISZERO PUSH2 0x1D71 JUMPI SWAP1 DUP8 SWAP2 CODESIZE PUSH2 0x1D01 JUMP JUMPDEST DUP8 MLOAD PUSH3 0x461BCD PUSH1 0xE5 SHL DUP2 MSTORE SWAP1 DUP2 ADD DUP7 SWAP1 MSTORE PUSH1 0x15 PUSH1 0x24 DUP3 ADD MSTORE PUSH21 0x11195C1BDCDA5D081C99599D5B990819985A5B1959 PUSH1 0x5A SHL PUSH1 0x44 DUP3 ADD MSTORE PUSH1 0x64 SWAP1 REVERT JUMPDEST DUP8 MLOAD PUSH3 0x461BCD PUSH1 0xE5 SHL DUP2 MSTORE SWAP1 DUP2 ADD DUP7 SWAP1 MSTORE PUSH1 0x16 PUSH1 0x24 DUP3 ADD MSTORE PUSH22 0x14D95B1B195C881D1C985B9CD9995C8819985A5B1959 PUSH1 0x52 SHL PUSH1 0x44 DUP3 ADD MSTORE PUSH1 0x64 SWAP1 REVERT JUMPDEST DUP9 MLOAD PUSH3 0x461BCD PUSH1 0xE5 SHL DUP2 MSTORE DUP1 DUP4 ADD DUP9 SWAP1 MSTORE PUSH1 0x13 PUSH1 0x24 DUP3 ADD MSTORE PUSH19 0x119959481D1C985B9CD9995C8819985A5B1959 PUSH1 0x6A SHL PUSH1 0x44 DUP3 ADD MSTORE PUSH1 0x64 SWAP1 REVERT JUMPDEST PUSH4 0x4E487B71 PUSH1 0xE0 SHL DUP4 MSTORE PUSH1 0x11 DUP3 MSTORE PUSH1 0x24 DUP4 REVERT INVALID LOG2 PUSH5 0x6970667358 0x22 SLT KECCAK256 MLOAD CALLCODE 0x4E 0xF6 CODECOPY 0xB9 GASLIMIT 0xB0 0xC2 0xFB JUMPI SWAP2 PUSH29 0x44747317EE050DEF96C4F2E9F62E8950F79AD464736F6C634300081300 CALLER "},"methodIdentifiers":{"addAdmin(address)":"70480275","admins(address)":"429b62e5","confirmDelivery(uint256)":"fd84cb97","confirmTransaction(uint256)":"c01a8c84","createListing(bool,uint256,uint256,string)":"32de5c32","createTransaction(uint256)":"da165ddb","deleteListing(uint256)":"e6282c6e","feeRecipient()":"46904840","getListing(uint256)":"107a274a","getTotalListings()":"fbf30c35","getTotalTransactions()":"b5c604ff","getTransaction(uint256)":"33ea3dc8","getUserRating(address)":"460168c3","isPaused()":"b187bd26","listings(uint256)":"de74e57b","owner()":"8da5cb5b","pause()":"8456cb59","paused()":"5c975abb","platformFee()":"26232a2e","rateUser(address,uint8,uint256)":"5d66bf81","renounceOwnership()":"715018a6","setPlatformFee(uint256)":"12e8e2c3","transactions(uint256)":"9ace38c2","transferOwnership(address)":"f2fde38b","unpause()":"3f4ba83a","userRatings(address)":"900f58fc"}}}}}