{
  "_format": "hh-sol-artifact-1",
  "contractName": "BlockrentV2",
  "sourceName": "contracts/BlockrentV2.sol",
  "abi": [
    {
      "inputs": [
        {
          "internalType": "address",
          "name": "_feeRecipient",
          "type": "address"
        }
      ],
      "stateMutability": "nonpayable",
      "type": "constructor"
    },
    {
      "anonymous": false,
      "inputs": [
        {
          "indexed": true,
          "internalType": "uint256",
          "name": "disputeId",
          "type": "uint256"
        },
        {
          "indexed": true,
          "internalType": "uint256",
          "name": "transactionId",
          "type": "uint256"
        },
        {
          "indexed": true,
          "internalType": "address",
          "name": "initiator",
          "type": "address"
        },
        {
          "indexed": false,
          "internalType": "string",
          "name": "reason",
          "type": "string"
        }
      ],
      "name": "DisputeCreated",
      "type": "event"
    },
    {
      "anonymous": false,
      "inputs": [
        {
          "indexed": true,
          "internalType": "uint256",
          "name": "disputeId",
          "type": "uint256"
        },
        {
          "indexed": false,
          "internalType": "address",
          "name": "winner",
          "type": "address"
        },
        {
          "indexed": false,
          "internalType": "uint256",
          "name": "timestamp",
          "type": "uint256"
        }
      ],
      "name": "DisputeResolved",
      "type": "event"
    },
    {
      "anonymous": false,
      "inputs": [
        {
          "indexed": true,
          "internalType": "uint256",
          "name": "listingId",
          "type": "uint256"
        },
        {
          "indexed": true,
          "internalType": "address",
          "name": "owner",
          "type": "address"
        },
        {
          "indexed": false,
          "internalType": "string",
          "name": "category",
          "type": "string"
        },
        {
          "indexed": false,
          "internalType": "uint256",
          "name": "price",
          "type": "uint256"
        },
        {
          "indexed": false,
          "internalType": "uint256",
          "name": "deposit",
          "type": "uint256"
        },
        {
          "indexed": false,
          "internalType": "string",
          "name": "ipfsHash",
          "type": "string"
        },
        {
          "indexed": false,
          "internalType": "bool",
          "name": "isForRent",
          "type": "bool"
        }
      ],
      "name": "ListingCreated",
      "type": "event"
    },
    {
      "anonymous": false,
      "inputs": [
        {
          "indexed": true,
          "internalType": "uint256",
          "name": "listingId",
          "type": "uint256"
        },
        {
          "indexed": true,
          "internalType": "address",
          "name": "owner",
          "type": "address"
        }
      ],
      "name": "ListingDeleted",
      "type": "event"
    },
    {
      "anonymous": false,
      "inputs": [
        {
          "indexed": true,
          "internalType": "uint256",
          "name": "listingId",
          "type": "uint256"
        },
        {
          "indexed": false,
          "internalType": "uint256",
          "name": "newPrice",
          "type": "uint256"
        },
        {
          "indexed": false,
          "internalType": "uint256",
          "name": "newDeposit",
          "type": "uint256"
        },
        {
          "indexed": false,
          "internalType": "string",
          "name": "newIpfsHash",
          "type": "string"
        }
      ],
      "name": "ListingUpdated",
      "type": "event"
    },
    {
      "anonymous": false,
      "inputs": [
        {
          "indexed": true,
          "internalType": "address",
          "name": "from",
          "type": "address"
        },
        {
          "indexed": true,
          "internalType": "address",
          "name": "to",
          "type": "address"
        },
        {
          "indexed": true,
          "internalType": "uint256",
          "name": "transactionId",
          "type": "uint256"
        },
        {
          "indexed": false,
          "internalType": "string",
          "name": "ipfsHash",
          "type": "string"
        }
      ],
      "name": "MessageSent",
      "type": "event"
    },
    {
      "anonymous": false,
      "inputs": [
        {
          "indexed": true,
          "internalType": "address",
          "name": "previousOwner",
          "type": "address"
        },
        {
          "indexed": true,
          "internalType": "address",
          "name": "newOwner",
          "type": "address"
        }
      ],
      "name": "OwnershipTransferred",
      "type": "event"
    },
    {
      "anonymous": false,
      "inputs": [
        {
          "indexed": false,
          "internalType": "address",
          "name": "account",
          "type": "address"
        }
      ],
      "name": "Paused",
      "type": "event"
    },
    {
      "anonymous": false,
      "inputs": [
        {
          "indexed": true,
          "internalType": "uint256",
          "name": "reviewId",
          "type": "uint256"
        },
        {
          "indexed": true,
          "internalType": "uint256",
          "name": "transactionId",
          "type": "uint256"
        },
        {
          "indexed": true,
          "internalType": "address",
          "name": "reviewer",
          "type": "address"
        },
        {
          "indexed": false,
          "internalType": "address",
          "name": "reviewee",
          "type": "address"
        },
        {
          "indexed": false,
          "internalType": "uint8",
          "name": "rating",
          "type": "uint8"
        },
        {
          "indexed": false,
          "internalType": "string",
          "name": "ipfsHash",
          "type": "string"
        }
      ],
      "name": "ReviewSubmitted",
      "type": "event"
    },
    {
      "anonymous": false,
      "inputs": [
        {
          "indexed": true,
          "internalType": "uint256",
          "name": "transactionId",
          "type": "uint256"
        },
        {
          "indexed": false,
          "internalType": "uint256",
          "name": "timestamp",
          "type": "uint256"
        }
      ],
      "name": "TransactionCompleted",
      "type": "event"
    },
    {
      "anonymous": false,
      "inputs": [
        {
          "indexed": true,
          "internalType": "uint256",
          "name": "transactionId",
          "type": "uint256"
        },
        {
          "indexed": true,
          "internalType": "address",
          "name": "confirmer",
          "type": "address"
        },
        {
          "indexed": false,
          "internalType": "bool",
          "name": "isBuyer",
          "type": "bool"
        }
      ],
      "name": "TransactionConfirmed",
      "type": "event"
    },
    {
      "anonymous": false,
      "inputs": [
        {
          "indexed": true,
          "internalType": "uint256",
          "name": "transactionId",
          "type": "uint256"
        },
        {
          "indexed": true,
          "internalType": "uint256",
          "name": "listingId",
          "type": "uint256"
        },
        {
          "indexed": true,
          "internalType": "address",
          "name": "buyer",
          "type": "address"
        },
        {
          "indexed": false,
          "internalType": "address",
          "name": "seller",
          "type": "address"
        },
        {
          "indexed": false,
          "internalType": "uint256",
          "name": "amount",
          "type": "uint256"
        },
        {
          "indexed": false,
          "internalType": "uint8",
          "name": "transactionType",
          "type": "uint8"
        }
      ],
      "name": "TransactionStarted",
      "type": "event"
    },
    {
      "anonymous": false,
      "inputs": [
        {
          "indexed": false,
          "internalType": "address",
          "name": "account",
          "type": "address"
        }
      ],
      "name": "Unpaused",
      "type": "event"
    },
    {
      "anonymous": false,
      "inputs": [
        {
          "indexed": true,
          "internalType": "address",
          "name": "user",
          "type": "address"
        },
        {
          "indexed": false,
          "internalType": "string",
          "name": "ipfsHash",
          "type": "string"
        }
      ],
      "name": "UserProfileUpdated",
      "type": "event"
    },
    {
      "inputs": [
        {
          "internalType": "address",
          "name": "_admin",
          "type": "address"
        }
      ],
      "name": "addAdmin",
      "outputs": [],
      "stateMutability": "nonpayable",
      "type": "function"
    },
    {
      "inputs": [
        {
          "internalType": "address",
          "name": "",
          "type": "address"
        }
      ],
      "name": "admins",
      "outputs": [
        {
          "internalType": "bool",
          "name": "",
          "type": "bool"
        }
      ],
      "stateMutability": "view",
      "type": "function"
    },
    {
      "inputs": [
        {
          "internalType": "uint256",
          "name": "_transactionId",
          "type": "uint256"
        }
      ],
      "name": "confirmDelivery",
      "outputs": [],
      "stateMutability": "nonpayable",
      "type": "function"
    },
    {
      "inputs": [
        {
          "internalType": "uint256",
          "name": "_transactionId",
          "type": "uint256"
        }
      ],
      "name": "confirmReceipt",
      "outputs": [],
      "stateMutability": "nonpayable",
      "type": "function"
    },
    {
      "inputs": [
        {
          "internalType": "uint256",
          "name": "_transactionId",
          "type": "uint256"
        },
        {
          "internalType": "string",
          "name": "_reason",
          "type": "string"
        },
        {
          "internalType": "string",
          "name": "_evidenceIpfsHash",
          "type": "string"
        }
      ],
      "name": "createDispute",
      "outputs": [
        {
          "internalType": "uint256",
          "name": "",
          "type": "uint256"
        }
      ],
      "stateMutability": "payable",
      "type": "function"
    },
    {
      "inputs": [
        {
          "internalType": "string",
          "name": "_category",
          "type": "string"
        },
        {
          "internalType": "uint256",
          "name": "_price",
          "type": "uint256"
        },
        {
          "internalType": "uint256",
          "name": "_deposit",
          "type": "uint256"
        },
        {
          "internalType": "string",
          "name": "_ipfsHash",
          "type": "string"
        },
        {
          "internalType": "bool",
          "name": "_isForRent",
          "type": "bool"
        }
      ],
      "name": "createListing",
      "outputs": [
        {
          "internalType": "uint256",
          "name": "",
          "type": "uint256"
        }
      ],
      "stateMutability": "nonpayable",
      "type": "function"
    },
    {
      "inputs": [
        {
          "internalType": "uint256",
          "name": "_listingId",
          "type": "uint256"
        }
      ],
      "name": "createTransaction",
      "outputs": [
        {
          "internalType": "uint256",
          "name": "",
          "type": "uint256"
        }
      ],
      "stateMutability": "payable",
      "type": "function"
    },
    {
      "inputs": [
        {
          "internalType": "uint256",
          "name": "_listingId",
          "type": "uint256"
        }
      ],
      "name": "deleteListing",
      "outputs": [],
      "stateMutability": "nonpayable",
      "type": "function"
    },
    {
      "inputs": [],
      "name": "disputeFee",
      "outputs": [
        {
          "internalType": "uint256",
          "name": "",
          "type": "uint256"
        }
      ],
      "stateMutability": "view",
      "type": "function"
    },
    {
      "inputs": [
        {
          "internalType": "uint256",
          "name": "",
          "type": "uint256"
        }
      ],
      "name": "disputes",
      "outputs": [
        {
          "internalType": "uint256",
          "name": "id",
          "type": "uint256"
        },
        {
          "internalType": "uint256",
          "name": "transactionId",
          "type": "uint256"
        },
        {
          "internalType": "address",
          "name": "initiator",
          "type": "address"
        },
        {
          "internalType": "address",
          "name": "defendant",
          "type": "address"
        },
        {
          "internalType": "string",
          "name": "reason",
          "type": "string"
        },
        {
          "internalType": "string",
          "name": "ipfsHash",
          "type": "string"
        },
        {
          "internalType": "enum BlockrentV2.DisputeStatus",
          "name": "status",
          "type": "uint8"
        },
        {
          "internalType": "address",
          "name": "winner",
          "type": "address"
        },
        {
          "internalType": "uint256",
          "name": "createdAt",
          "type": "uint256"
        },
        {
          "internalType": "uint256",
          "name": "resolvedAt",
          "type": "uint256"
        }
      ],
      "stateMutability": "view",
      "type": "function"
    },
    {
      "inputs": [],
      "name": "emergencyWithdraw",
      "outputs": [],
      "stateMutability": "nonpayable",
      "type": "function"
    },
    {
      "inputs": [],
      "name": "feeRecipient",
      "outputs": [
        {
          "internalType": "address",
          "name": "",
          "type": "address"
        }
      ],
      "stateMutability": "view",
      "type": "function"
    },
    {
      "inputs": [
        {
          "internalType": "uint256",
          "name": "_disputeId",
          "type": "uint256"
        }
      ],
      "name": "getDispute",
      "outputs": [
        {
          "components": [
            {
              "internalType": "uint256",
              "name": "id",
              "type": "uint256"
            },
            {
              "internalType": "uint256",
              "name": "transactionId",
              "type": "uint256"
            },
            {
              "internalType": "address",
              "name": "initiator",
              "type": "address"
            },
            {
              "internalType": "address",
              "name": "defendant",
              "type": "address"
            },
            {
              "internalType": "string",
              "name": "reason",
              "type": "string"
            },
            {
              "internalType": "string",
              "name": "ipfsHash",
              "type": "string"
            },
            {
              "internalType": "enum BlockrentV2.DisputeStatus",
              "name": "status",
              "type": "uint8"
            },
            {
              "internalType": "address",
              "name": "winner",
              "type": "address"
            },
            {
              "internalType": "uint256",
              "name": "createdAt",
              "type": "uint256"
            },
            {
              "internalType": "uint256",
              "name": "resolvedAt",
              "type": "uint256"
            }
          ],
          "internalType": "struct BlockrentV2.Dispute",
          "name": "",
          "type": "tuple"
        }
      ],
      "stateMutability": "view",
      "type": "function"
    },
    {
      "inputs": [
        {
          "internalType": "uint256",
          "name": "_listingId",
          "type": "uint256"
        }
      ],
      "name": "getListing",
      "outputs": [
        {
          "components": [
            {
              "internalType": "uint256",
              "name": "id",
              "type": "uint256"
            },
            {
              "internalType": "address",
              "name": "owner",
              "type": "address"
            },
            {
              "internalType": "string",
              "name": "category",
              "type": "string"
            },
            {
              "internalType": "uint256",
              "name": "price",
              "type": "uint256"
            },
            {
              "internalType": "uint256",
              "name": "deposit",
              "type": "uint256"
            },
            {
              "internalType": "string",
              "name": "ipfsHash",
              "type": "string"
            },
            {
              "internalType": "bool",
              "name": "isForRent",
              "type": "bool"
            },
            {
              "internalType": "bool",
              "name": "isActive",
              "type": "bool"
            },
            {
              "internalType": "uint256",
              "name": "views",
              "type": "uint256"
            },
            {
              "internalType": "uint256",
              "name": "favorites",
              "type": "uint256"
            },
            {
              "internalType": "uint256",
              "name": "createdAt",
              "type": "uint256"
            },
            {
              "internalType": "uint256",
              "name": "updatedAt",
              "type": "uint256"
            }
          ],
          "internalType": "struct BlockrentV2.Listing",
          "name": "",
          "type": "tuple"
        }
      ],
      "stateMutability": "view",
      "type": "function"
    },
    {
      "inputs": [
        {
          "internalType": "uint256",
          "name": "_listingId",
          "type": "uint256"
        }
      ],
      "name": "getListingTransactions",
      "outputs": [
        {
          "internalType": "uint256[]",
          "name": "",
          "type": "uint256[]"
        }
      ],
      "stateMutability": "view",
      "type": "function"
    },
    {
      "inputs": [
        {
          "internalType": "uint256",
          "name": "_reviewId",
          "type": "uint256"
        }
      ],
      "name": "getReview",
      "outputs": [
        {
          "components": [
            {
              "internalType": "uint256",
              "name": "id",
              "type": "uint256"
            },
            {
              "internalType": "uint256",
              "name": "transactionId",
              "type": "uint256"
            },
            {
              "internalType": "address",
              "name": "reviewer",
              "type": "address"
            },
            {
              "internalType": "address",
              "name": "reviewee",
              "type": "address"
            },
            {
              "internalType": "uint8",
              "name": "rating",
              "type": "uint8"
            },
            {
              "internalType": "string",
              "name": "ipfsHash",
              "type": "string"
            },
            {
              "internalType": "uint256",
              "name": "timestamp",
              "type": "uint256"
            }
          ],
          "internalType": "struct BlockrentV2.Review",
          "name": "",
          "type": "tuple"
        }
      ],
      "stateMutability": "view",
      "type": "function"
    },
    {
      "inputs": [],
      "name": "getTotalDisputes",
      "outputs": [
        {
          "internalType": "uint256",
          "name": "",
          "type": "uint256"
        }
      ],
      "stateMutability": "view",
      "type": "function"
    },
    {
      "inputs": [],
      "name": "getTotalListings",
      "outputs": [
        {
          "internalType": "uint256",
          "name": "",
          "type": "uint256"
        }
      ],
      "stateMutability": "view",
      "type": "function"
    },
    {
      "inputs": [],
      "name": "getTotalReviews",
      "outputs": [
        {
          "internalType": "uint256",
          "name": "",
          "type": "uint256"
        }
      ],
      "stateMutability": "view",
      "type": "function"
    },
    {
      "inputs": [],
      "name": "getTotalTransactions",
      "outputs": [
        {
          "internalType": "uint256",
          "name": "",
          "type": "uint256"
        }
      ],
      "stateMutability": "view",
      "type": "function"
    },
    {
      "inputs": [
        {
          "internalType": "uint256",
          "name": "_transactionId",
          "type": "uint256"
        }
      ],
      "name": "getTransaction",
      "outputs": [
        {
          "components": [
            {
              "internalType": "uint256",
              "name": "id",
              "type": "uint256"
            },
            {
              "internalType": "uint256",
              "name": "listingId",
              "type": "uint256"
            },
            {
              "internalType": "address",
              "name": "buyer",
              "type": "address"
            },
            {
              "internalType": "address",
              "name": "seller",
              "type": "address"
            },
            {
              "internalType": "enum BlockrentV2.TransactionType",
              "name": "txType",
              "type": "uint8"
            },
            {
              "internalType": "uint256",
              "name": "price",
              "type": "uint256"
            },
            {
              "internalType": "uint256",
              "name": "deposit",
              "type": "uint256"
            },
            {
              "internalType": "uint256",
              "name": "startedAt",
              "type": "uint256"
            },
            {
              "internalType": "uint256",
              "name": "completedAt",
              "type": "uint256"
            },
            {
              "internalType": "enum BlockrentV2.TransactionStatus",
              "name": "status",
              "type": "uint8"
            },
            {
              "internalType": "bool",
              "name": "buyerConfirmed",
              "type": "bool"
            },
            {
              "internalType": "bool",
              "name": "sellerConfirmed",
              "type": "bool"
            },
            {
              "internalType": "uint256",
              "name": "escrowAmount",
              "type": "uint256"
            }
          ],
          "internalType": "struct BlockrentV2.Transaction",
          "name": "",
          "type": "tuple"
        }
      ],
      "stateMutability": "view",
      "type": "function"
    },
    {
      "inputs": [
        {
          "internalType": "address",
          "name": "_user",
          "type": "address"
        }
      ],
      "name": "getUserProfile",
      "outputs": [
        {
          "components": [
            {
              "internalType": "address",
              "name": "wallet",
              "type": "address"
            },
            {
              "internalType": "string",
              "name": "ipfsHash",
              "type": "string"
            },
            {
              "internalType": "uint256",
              "name": "totalListings",
              "type": "uint256"
            },
            {
              "internalType": "uint256",
              "name": "completedTransactions",
              "type": "uint256"
            },
            {
              "internalType": "uint256",
              "name": "totalReviews",
              "type": "uint256"
            },
            {
              "internalType": "uint256",
              "name": "ratingSum",
              "type": "uint256"
            },
            {
              "internalType": "uint256",
              "name": "averageRating",
              "type": "uint256"
            },
            {
              "internalType": "bool",
              "name": "isVerified",
              "type": "bool"
            },
            {
              "internalType": "uint256",
              "name": "reputationScore",
              "type": "uint256"
            },
            {
              "internalType": "uint256",
              "name": "joinedAt",
              "type": "uint256"
            }
          ],
          "internalType": "struct BlockrentV2.UserProfile",
          "name": "",
          "type": "tuple"
        }
      ],
      "stateMutability": "view",
      "type": "function"
    },
    {
      "inputs": [
        {
          "internalType": "address",
          "name": "_user",
          "type": "address"
        }
      ],
      "name": "getUserReviews",
      "outputs": [
        {
          "internalType": "uint256[]",
          "name": "",
          "type": "uint256[]"
        }
      ],
      "stateMutability": "view",
      "type": "function"
    },
    {
      "inputs": [
        {
          "internalType": "address",
          "name": "_user",
          "type": "address"
        }
      ],
      "name": "getUserTransactions",
      "outputs": [
        {
          "internalType": "uint256[]",
          "name": "",
          "type": "uint256[]"
        }
      ],
      "stateMutability": "view",
      "type": "function"
    },
    {
      "inputs": [
        {
          "internalType": "uint256",
          "name": "_listingId",
          "type": "uint256"
        }
      ],
      "name": "incrementViews",
      "outputs": [],
      "stateMutability": "nonpayable",
      "type": "function"
    },
    {
      "inputs": [
        {
          "internalType": "address",
          "name": "_user",
          "type": "address"
        },
        {
          "internalType": "uint256",
          "name": "_listingId",
          "type": "uint256"
        }
      ],
      "name": "isFavorited",
      "outputs": [
        {
          "internalType": "bool",
          "name": "",
          "type": "bool"
        }
      ],
      "stateMutability": "view",
      "type": "function"
    },
    {
      "inputs": [
        {
          "internalType": "uint256",
          "name": "",
          "type": "uint256"
        },
        {
          "internalType": "uint256",
          "name": "",
          "type": "uint256"
        }
      ],
      "name": "listingTransactions",
      "outputs": [
        {
          "internalType": "uint256",
          "name": "",
          "type": "uint256"
        }
      ],
      "stateMutability": "view",
      "type": "function"
    },
    {
      "inputs": [
        {
          "internalType": "uint256",
          "name": "",
          "type": "uint256"
        }
      ],
      "name": "listings",
      "outputs": [
        {
          "internalType": "uint256",
          "name": "id",
          "type": "uint256"
        },
        {
          "internalType": "address",
          "name": "owner",
          "type": "address"
        },
        {
          "internalType": "string",
          "name": "category",
          "type": "string"
        },
        {
          "internalType": "uint256",
          "name": "price",
          "type": "uint256"
        },
        {
          "internalType": "uint256",
          "name": "deposit",
          "type": "uint256"
        },
        {
          "internalType": "string",
          "name": "ipfsHash",
          "type": "string"
        },
        {
          "internalType": "bool",
          "name": "isForRent",
          "type": "bool"
        },
        {
          "internalType": "bool",
          "name": "isActive",
          "type": "bool"
        },
        {
          "internalType": "uint256",
          "name": "views",
          "type": "uint256"
        },
        {
          "internalType": "uint256",
          "name": "favorites",
          "type": "uint256"
        },
        {
          "internalType": "uint256",
          "name": "createdAt",
          "type": "uint256"
        },
        {
          "internalType": "uint256",
          "name": "updatedAt",
          "type": "uint256"
        }
      ],
      "stateMutability": "view",
      "type": "function"
    },
    {
      "inputs": [],
      "name": "minDisputeStake",
      "outputs": [
        {
          "internalType": "uint256",
          "name": "",
          "type": "uint256"
        }
      ],
      "stateMutability": "view",
      "type": "function"
    },
    {
      "inputs": [],
      "name": "owner",
      "outputs": [
        {
          "internalType": "address",
          "name": "",
          "type": "address"
        }
      ],
      "stateMutability": "view",
      "type": "function"
    },
    {
      "inputs": [],
      "name": "pause",
      "outputs": [],
      "stateMutability": "nonpayable",
      "type": "function"
    },
    {
      "inputs": [],
      "name": "paused",
      "outputs": [
        {
          "internalType": "bool",
          "name": "",
          "type": "bool"
        }
      ],
      "stateMutability": "view",
      "type": "function"
    },
    {
      "inputs": [],
      "name": "platformFee",
      "outputs": [
        {
          "internalType": "uint256",
          "name": "",
          "type": "uint256"
        }
      ],
      "stateMutability": "view",
      "type": "function"
    },
    {
      "inputs": [
        {
          "internalType": "address",
          "name": "_admin",
          "type": "address"
        }
      ],
      "name": "removeAdmin",
      "outputs": [],
      "stateMutability": "nonpayable",
      "type": "function"
    },
    {
      "inputs": [],
      "name": "renounceOwnership",
      "outputs": [],
      "stateMutability": "nonpayable",
      "type": "function"
    },
    {
      "inputs": [
        {
          "internalType": "uint256",
          "name": "_disputeId",
          "type": "uint256"
        },
        {
          "internalType": "address",
          "name": "_winner",
          "type": "address"
        }
      ],
      "name": "resolveDispute",
      "outputs": [],
      "stateMutability": "nonpayable",
      "type": "function"
    },
    {
      "inputs": [
        {
          "internalType": "uint256",
          "name": "",
          "type": "uint256"
        }
      ],
      "name": "reviews",
      "outputs": [
        {
          "internalType": "uint256",
          "name": "id",
          "type": "uint256"
        },
        {
          "internalType": "uint256",
          "name": "transactionId",
          "type": "uint256"
        },
        {
          "internalType": "address",
          "name": "reviewer",
          "type": "address"
        },
        {
          "internalType": "address",
          "name": "reviewee",
          "type": "address"
        },
        {
          "internalType": "uint8",
          "name": "rating",
          "type": "uint8"
        },
        {
          "internalType": "string",
          "name": "ipfsHash",
          "type": "string"
        },
        {
          "internalType": "uint256",
          "name": "timestamp",
          "type": "uint256"
        }
      ],
      "stateMutability": "view",
      "type": "function"
    },
    {
      "inputs": [
        {
          "internalType": "uint256",
          "name": "_newFee",
          "type": "uint256"
        }
      ],
      "name": "setDisputeFee",
      "outputs": [],
      "stateMutability": "nonpayable",
      "type": "function"
    },
    {
      "inputs": [
        {
          "internalType": "address",
          "name": "_newRecipient",
          "type": "address"
        }
      ],
      "name": "setFeeRecipient",
      "outputs": [],
      "stateMutability": "nonpayable",
      "type": "function"
    },
    {
      "inputs": [
        {
          "internalType": "uint256",
          "name": "_newStake",
          "type": "uint256"
        }
      ],
      "name": "setMinDisputeStake",
      "outputs": [],
      "stateMutability": "nonpayable",
      "type": "function"
    },
    {
      "inputs": [
        {
          "internalType": "uint256",
          "name": "_newFee",
          "type": "uint256"
        }
      ],
      "name": "setPlatformFee",
      "outputs": [],
      "stateMutability": "nonpayable",
      "type": "function"
    },
    {
      "inputs": [
        {
          "internalType": "uint256",
          "name": "_transactionId",
          "type": "uint256"
        },
        {
          "internalType": "address",
          "name": "_reviewee",
          "type": "address"
        },
        {
          "internalType": "uint8",
          "name": "_rating",
          "type": "uint8"
        },
        {
          "internalType": "string",
          "name": "_reviewIpfsHash",
          "type": "string"
        }
      ],
      "name": "submitReview",
      "outputs": [
        {
          "internalType": "uint256",
          "name": "",
          "type": "uint256"
        }
      ],
      "stateMutability": "nonpayable",
      "type": "function"
    },
    {
      "inputs": [
        {
          "internalType": "uint256",
          "name": "_listingId",
          "type": "uint256"
        }
      ],
      "name": "toggleFavorite",
      "outputs": [],
      "stateMutability": "nonpayable",
      "type": "function"
    },
    {
      "inputs": [
        {
          "internalType": "uint256",
          "name": "",
          "type": "uint256"
        }
      ],
      "name": "transactions",
      "outputs": [
        {
          "internalType": "uint256",
          "name": "id",
          "type": "uint256"
        },
        {
          "internalType": "uint256",
          "name": "listingId",
          "type": "uint256"
        },
        {
          "internalType": "address",
          "name": "buyer",
          "type": "address"
        },
        {
          "internalType": "address",
          "name": "seller",
          "type": "address"
        },
        {
          "internalType": "enum BlockrentV2.TransactionType",
          "name": "txType",
          "type": "uint8"
        },
        {
          "internalType": "uint256",
          "name": "price",
          "type": "uint256"
        },
        {
          "internalType": "uint256",
          "name": "deposit",
          "type": "uint256"
        },
        {
          "internalType": "uint256",
          "name": "startedAt",
          "type": "uint256"
        },
        {
          "internalType": "uint256",
          "name": "completedAt",
          "type": "uint256"
        },
        {
          "internalType": "enum BlockrentV2.TransactionStatus",
          "name": "status",
          "type": "uint8"
        },
        {
          "internalType": "bool",
          "name": "buyerConfirmed",
          "type": "bool"
        },
        {
          "internalType": "bool",
          "name": "sellerConfirmed",
          "type": "bool"
        },
        {
          "internalType": "uint256",
          "name": "escrowAmount",
          "type": "uint256"
        }
      ],
      "stateMutability": "view",
      "type": "function"
    },
    {
      "inputs": [
        {
          "internalType": "address",
          "name": "newOwner",
          "type": "address"
        }
      ],
      "name": "transferOwnership",
      "outputs": [],
      "stateMutability": "nonpayable",
      "type": "function"
    },
    {
      "inputs": [],
      "name": "unpause",
      "outputs": [],
      "stateMutability": "nonpayable",
      "type": "function"
    },
    {
      "inputs": [
        {
          "internalType": "uint256",
          "name": "_listingId",
          "type": "uint256"
        },
        {
          "internalType": "uint256",
          "name": "_newPrice",
          "type": "uint256"
        },
        {
          "internalType": "uint256",
          "name": "_newDeposit",
          "type": "uint256"
        },
        {
          "internalType": "string",
          "name": "_newIpfsHash",
          "type": "string"
        }
      ],
      "name": "updateListing",
      "outputs": [],
      "stateMutability": "nonpayable",
      "type": "function"
    },
    {
      "inputs": [
        {
          "internalType": "string",
          "name": "_ipfsHash",
          "type": "string"
        }
      ],
      "name": "updateProfile",
      "outputs": [],
      "stateMutability": "nonpayable",
      "type": "function"
    },
    {
      "inputs": [
        {
          "internalType": "address",
          "name": "",
          "type": "address"
        },
        {
          "internalType": "uint256",
          "name": "",
          "type": "uint256"
        }
      ],
      "name": "userFavorites",
      "outputs": [
        {
          "internalType": "bool",
          "name": "",
          "type": "bool"
        }
      ],
      "stateMutability": "view",
      "type": "function"
    },
    {
      "inputs": [
        {
          "internalType": "address",
          "name": "",
          "type": "address"
        }
      ],
      "name": "userProfiles",
      "outputs": [
        {
          "internalType": "address",
          "name": "wallet",
          "type": "address"
        },
        {
          "internalType": "string",
          "name": "ipfsHash",
          "type": "string"
        },
        {
          "internalType": "uint256",
          "name": "totalListings",
          "type": "uint256"
        },
        {
          "internalType": "uint256",
          "name": "completedTransactions",
          "type": "uint256"
        },
        {
          "internalType": "uint256",
          "name": "totalReviews",
          "type": "uint256"
        },
        {
          "internalType": "uint256",
          "name": "ratingSum",
          "type": "uint256"
        },
        {
          "internalType": "uint256",
          "name": "averageRating",
          "type": "uint256"
        },
        {
          "internalType": "bool",
          "name": "isVerified",
          "type": "bool"
        },
        {
          "internalType": "uint256",
          "name": "reputationScore",
          "type": "uint256"
        },
        {
          "internalType": "uint256",
          "name": "joinedAt",
          "type": "uint256"
        }
      ],
      "stateMutability": "view",
      "type": "function"
    },
    {
      "inputs": [
        {
          "internalType": "address",
          "name": "",
          "type": "address"
        },
        {
          "internalType": "uint256",
          "name": "",
          "type": "uint256"
        }
      ],
      "name": "userReviews",
      "outputs": [
        {
          "internalType": "uint256",
          "name": "",
          "type": "uint256"
        }
      ],
      "stateMutability": "view",
      "type": "function"
    },
    {
      "inputs": [
        {
          "internalType": "address",
          "name": "",
          "type": "address"
        },
        {
          "internalType": "uint256",
          "name": "",
          "type": "uint256"
        }
      ],
      "name": "userTransactions",
      "outputs": [
        {
          "internalType": "uint256",
          "name": "",
          "type": "uint256"
        }
      ],
      "stateMutability": "view",
      "type": "function"
    },
    {
      "inputs": [
        {
          "internalType": "address",
          "name": "_user",
          "type": "address"
        }
      ],
      "name": "verifyUser",
      "outputs": [],
      "stateMutability": "nonpayable",
      "type": "function"
    },
    {
      "stateMutability": "payable",
      "type": "receive"
    }
  ],
  "bytecode": "0x6080346200014757601f620048b938819003918201601f19168301916001600160401b038311848410176200014c578084926020946040528339810103126200014757516001600160a01b038082169182900362000147576001600081815581546001600160a81b0319811633600881811b610100600160a81b0316929092179094556040519491901c16907f8be0079c531659141344cd1fd0a4f28419497f9722a3daafe3b4186f6b6457e09080a360fa6010556064601155662386f26fc10000601355811562000105575060018060a01b0319601254161760125533600052600f6020526040600020600160ff198254161790556040516147569081620001638239f35b62461bcd60e51b815260206004820152601560248201527f496e76616c69642066656520726563697069656e7400000000000000000000006044820152606490fd5b600080fd5b634e487b7160e01b600052604160045260246000fdfe6080604052600436101561001b575b361561001957600080fd5b005b60003560e01c80629299e3146139b2578063088efa07146139485780630e33599d146135e65780630e95d338146118f9578063107a274a1461341857806312e8e2c3146133b157806317299c04146133425780631785f53c1461330057806318d0e8b2146132885780631f4ac1291461323e578063253b8cef1461322057806325f600821461320257806326232a2e146131e4578063332d56d71461312657806333ea3dc814612f4357806336eeb9a614612e8e5780633c6bdab3146128cc5780633f4ba83a14612875578063429b62e514612836578063469048401461280d5780634d8131201461270b578063564a565d1461263a5780635c975abb1461261757806370480275146125d25780637100dc6214611f32578063715018a614611ed1578063843cba1314611dac5780638456cb5914611d535780638da5cb5b14611d2657806397fbc2fb14611d08578063987ee15614611b85578063990581b614611a755780639ace38c2146119a0578063a60b1b4c1461197f578063a7ba7edc14611946578063aa070fb5146118f9578063ade952021461135d578063b5c604ff1461133f578063b842ec44146112e7578063b9ce896b146112c9578063d6895db214611279578063da165ddb14610d3e578063db2e21bc14610ce3578063de74e57b14610bfd578063e3a96cbd14610a44578063e6282c6e14610914578063e74b981b14610895578063e83ddcea14610802578063ef9253991461077a578063f2fde38b146106a6578063fb49ef17146103d1578063fbf30c35146103b35763fd84cb970361000e57346103ae5760203660031901126103ae57600435610282613efe565b806003541015806103a5575b610297906140b3565b600081815260076020526040902060038101546001600160a01b0316330361036f5760080190815460ff8116600781101561035957806102e0911590811561034e575b506140ff565b60ff6201000062ff00001983161780855560405160008152847f48811540d7faefcd39140a2dfe56c4e6d976f20e7f822c59146c3425574c9de760203393a360081c161561033a575061033391506141e1565b6001600055005b62ff00ff1916620100011790915550610333565b6002915014386102da565b634e487b7160e01b600052602160045260246000fd5b60405162461bcd60e51b815260206004820152600e60248201526d2737ba103a34329039b2b63632b960911b6044820152606490fd5b5080151561028e565b600080fd5b346103ae5760003660031901126103ae576020600254604051908152f35b346103ae5760803660031901126103ae576001600160401b036004356044356024356064358481116103ae5761040b903690600401613c2d565b8360025410158061069d575b61042090613f54565b836000526020926006845260019560018060a01b0387604060002001541633036106645761044c613efe565b856000526006855260406000209061046d60ff600684015460081c16613f99565b84610659575b8261064e575b8351806104d6575b5050916104ce917fd58daec305e21025d3c652c2a5930691b363f20ba0ab4e38e7a10d31f5bc531c959493600a429101556040519485948552840152606060408401526060830190613cdb565b0390a2600055005b60058301918111610638576104eb8254613d49565b601f81116105ef575b5086601f82116001146105605791817fd58daec305e21025d3c652c2a5930691b363f20ba0ab4e38e7a10d31f5bc531c98979694926104ce9694600091610555575b50600019600383901b1c1916908b1b1790555b91939495819350610481565b90508501518c610536565b908991601f1982169084600052896000209160005b8181106105d857509183916104ce9896947fd58daec305e21025d3c652c2a5930691b363f20ba0ab4e38e7a10d31f5bc531c9c9b9a989694106105bf575b5050811b019055610549565b87015160001960f88460031b161c191690558c806105b3565b8983015184558d9590930192918b01918b01610575565b8260005287600020601f830160051c81019189841061062e575b601f0160051c01908a905b8281106106225750506104f4565b60008155018a90610614565b9091508190610609565b634e487b7160e01b600052604160045260246000fd5b826004830155610479565b846003830155610473565b60405162461bcd60e51b81526004810186905260116024820152702737ba103634b9ba34b7339037bbb732b960791b6044820152606490fd5b50831515610417565b346103ae5760203660031901126103ae576106bf613cc5565b6106c7613e50565b6001600160a01b038181169182156107265760018054610100600160a81b03198116600893841b610100600160a81b031617909155901c167f8be0079c531659141344cd1fd0a4f28419497f9722a3daafe3b4186f6b6457e0600080a3005b60405162461bcd60e51b815260206004820152602660248201527f4f776e61626c653a206e6577206f776e657220697320746865207a65726f206160448201526564647265737360d01b6064820152608490fd5b346103ae576020806003193601126103ae576001600160a01b0361079c613cc5565b16600052600c8152604060002090604051908181845491828152019360005281600020916000905b8282106107eb576107e7856107db81890382613bf1565b60405191829182613c74565b0390f35b8354865294850194600193840193909101906107c4565b346103ae5760203660031901126103ae5760043560005260096020526040600020805460018201549161088b60018060a01b039160ff8360028301541693600383015490600561085460048601613d83565b940154956040519889988952602089015260408801528116606087015260a01c16608085015260e060a085015260e0840190613cdb565b9060c08301520390f35b346103ae5760203660031901126103ae576108ae613cc5565b6108b6613e50565b6001600160a01b031680156108dd576001600160601b0360a01b6012541617601255600080f35b60405162461bcd60e51b815260206004820152600f60248201526e496e76616c6964206164647265737360881b6044820152606490fd5b346103ae5760203660031901126103ae5760043580600254101580610a3b575b61093d90613f54565b610945613efe565b6000818152600660205260409020600181015461097e90336001600160a01b0391821614908115610a21575b8115610a10575b50613fda565b60068101805460ff8160081c16156109cb5761ff0019169055600a4291015533907f5832f888aea12cc23bd891f2d9fd4bd01b8ce0e22898b6e7cee1519f5bd46954600080a36001600055005b60405162461bcd60e51b815260206004820152601860248201527f4c697374696e6720616c726561647920696e61637469766500000000000000006044820152606490fd5b905060015460081c16331484610978565b905033600052600f60205260ff6040600020541690610971565b50801515610934565b346103ae5760203660031901126103ae576000610120604051610a6681613bd5565b82815282602082015282604082015282606082015260606080820152606060a08201528260c08201528260e08201528261010082015201526004356000526008602052604060002060405190610abb82613bd5565b805482526001810154602083015260028101546001600160a01b0390811660408401526003820154166060830152610af560048201613d83565b6080830152610b0660058201613d83565b60a083015260068101549060ff82169160038310156103595760089260c085015260018060a01b0390831c1660e084015260078101546101008401520154610120820152604051809160208252805160208301526020810151604083015260018060a01b03604082015116606083015260018060a01b0360608201511660808301526080810151610120610bc1610bab610140938460a0880152610160870190613cdb565b60a0850151868203601f190160c0880152613cdb565b92610bd460c082015160e0870190613e43565b60e08101516001600160a01b031661010086810191909152810151828601520151908301520390f35b346103ae5760203660031901126103ae5760043560005260066020526020604060002080549060018060a01b03600182015416610c3c60028301613d83565b91600381015492600482015460ff610cb1610c5960058601613d83565b96600686015497600787015494610c99600889015497600a60098b01549a01549a6040519e8f9e8f908152015260408d61018091829101528d0190613cdb565b9260608c015260808b015289820360a08b0152613cdb565b95818116151560c089015260081c16151560e08701526101008601526101208501526101408401526101608301520390f35b346103ae5760003660031901126103ae57610cfc613e50565b610d046146d7565b600080808060018060a01b0360015460081c164790828215610d35575bf115610d2957005b6040513d6000823e3d90fd5b506108fc610d21565b60203660031901126103ae57610d52613eba565b610d5a613efe565b60043560025410158061126e575b610d7190613f54565b60043560005260066020526040600020610e2c60405191610d9183613b82565b8054835260018101546001600160a01b03166020840152610db460028201613d83565b60408401526003810154606084015260048101546080840152610dd960058201613d83565b60a0840152600a60ff6006830154818116151560c087015260081c161515918260e08601526007810154610100860152600881015461012086015260098101546101408601520154610160840152613f99565b60208101516001600160a01b031633146112305760c08101511561122557610e5d6060820151608083015190614017565b905b8134106111e957600160035401908160035560018060a01b0360208201511660c08201511515806000146111e1576001905b606084015190156111d657610ed26080850151925b60405194610eb386613b9e565b8786526004356020870152336040870152606086015260808501614024565b60a083015260c08201524260e082015260006101008201526000610120820152600061014082015260006101608201528361018082015282600052600760205260406000209080518255602081015160018301556002820160018060a01b036040830151166001600160601b0360a01b8254161790556003820160018060a01b03606083015116815490608084015160028110156103595760ff60a01b9060a01b16916affffffffffffffffffffff60a81b161717905560a0810151600483015560c0810151600583015560e081015160068301556101008101516007830155600882019061012081015190600782101561035957825461014082015161ff0090151560081b1660ff9390931661ffff19909116179190911782556009916101809190610160820151151562ff000082549160101b169062ff000019161790550151910155600435600052600b60205261103082604060002061403c565b33600052600c60205261104782604060002061403c565b60018060a01b03602082015116600052600c60205261106a82604060002061403c565b336000908152600a60205260409020546001600160a01b0316156111c8575b6020818101516001600160a01b039081166000908152600a90925260409091205416156111ac575b823411611158575b60ff60209360c083015115611138575b8483015160c0909301516001600160a01b039093169215611130576001905b604051938452858401521660408201523390827f10e80a6583a36b89b60b030b8faa55077a2f7bf0c58a8eb95bfa1240e413e540606060043593a46001600055604051908152f35b6000906110e8565b60043560005260068552600660406000200161ff001981541690556110c9565b60008080806111678734614076565b335af1611172614083565b506110b95760405162461bcd60e51b815260206004820152600d60248201526c1499599d5b990819985a5b1959609a1b6044820152606490fd5b60208101516111c3906001600160a01b03166144b4565b6110b1565b6111d1336144b4565b611089565b610ed2600092610ea6565b600090610e91565b60405162461bcd60e51b8152602060048201526014602482015273125b9cdd59999a58da595b9d081c185e5b595b9d60621b6044820152606490fd5b606081015190610e5f565b60405162461bcd60e51b815260206004820152601660248201527543616e6e6f7420627579206f776e206c697374696e6760501b6044820152606490fd5b506004351515610d68565b346103ae5760203660031901126103ae57600435806002541015806112c0575b6112a290613f54565b600052600660205260076040600020016112bc8154613eab565b9055005b50801515611299565b346103ae5760003660031901126103ae576020601154604051908152f35b346103ae5760403660031901126103ae57611300613cc5565b6001600160a01b03166000908152600c60205260409020805460243591908210156103ae5760209161133191613d1b565b90546040519160031b1c8152f35b346103ae5760003660031901126103ae576020600354604051908152f35b346103ae5760a03660031901126103ae576004356001600160401b0381116103ae5761138d903690600401613c2d565b6064356001600160401b0381116103ae576113ac903690600401613c2d565b60843580151581036103ae576113c0613eba565b6113c8613efe565b602435156118b45781511561187a578251156118415760016002540191826002556040516113f581613b82565b838152336020820152846040820152602435606082015260443560808201528160a082015282151560c0820152600160e08201526000610100820152600061012082015242610140820152426101608201528360005260066020526040600020908051825560018060a01b0360208201511660018301906001600160601b0360a01b82541617905560408101518051906001600160401b0382116106385781906114a26002860154613d49565b601f81116117ee575b50602090601f831160011461177c57600092611771575b50508160011b916000199060031b1c19161760028301555b606081015160038301556080810151600483015560a08101518051906001600160401b038211610638576115116005850154613d49565b601f811161172a575b509160209793918795938990601f8311600114611686577fd6e852c76ffba725da83cab24d7f612da35831a32996662fc0bda02035f67117969593836116529694600a946101609460009261167b575b50508160011b916000199060031b1c19161760058501555b6115c0600685016115a560c08401511515829060ff801983541691151516179055565b60e0830151815461ff00191690151560081b61ff0016179055565b6101008101516007850155610120810151600885015561014081015160098501550151910155336000908152600a895260409020546001600160a01b03161561166d575b33600052600a8852600260406000200161161e8154613eab565b90556116356040519360a0855260a0850190613cdb565b906024358985015260443560408501528382036060850152613cdb565b93151560808201528033940390a36001600055604051908152f35b611676336144b4565b611604565b015190508e8061156a565b60058594939298979695016000528a6000209060005b601f1984168110611710575092600183610160937fd6e852c76ffba725da83cab24d7f612da35831a32996662fc0bda02035f671179a9b611652999897600a97601f198116106116f7575b505050811b016005850155611582565b015160001960f88460031b161c191690558e80806116e7565b818a01518355988c01988b98506001909201918c0161169c565b600585016000526020600020601f840160051c81016020851061176a575b601f830160051c8201811061175e57505061151a565b60008155600101611748565b5080611748565b0151905088806114c2565b9250600285016000526020600020906000935b601f19841685106117d3576001945083601f198116106117ba575b505050811b0160028301556114da565b015160001960f88460031b161c191690558880806117aa565b8181015183556020948501946001909301929091019061178f565b909150600285016000526020600020601f840160051c81016020851061183a575b90849392915b601f830160051c8201811061182b5750506114ab565b60008155859450600101611815565b508061180f565b60405162461bcd60e51b815260206004820152601160248201527010d85d1959dbdc9e481c995c5d5a5c9959607a1b6044820152606490fd5b60405162461bcd60e51b815260206004820152601260248201527112541194c81a185cda081c995c5d5a5c995960721b6044820152606490fd5b60405162461bcd60e51b815260206004820152601c60248201527f5072696365206d7573742062652067726561746572207468616e2030000000006044820152606490fd5b346103ae5760403660031901126103ae576001600160a01b0361191a613cc5565b16600052600e6020526040600020602435600052602052602060ff604060002054166040519015158152f35b346103ae5760403660031901126103ae57602435600435600052600b602052604060002080548210156103ae5760209161133191613d1b565b346103ae5760203660031901126103ae57611998613e50565b600435601355005b346103ae5760203660031901126103ae5760043560005260076020526101a0604060002080549060ff60018201549160018060a01b03806002830154169060038301546004840154611a2e600586015492600687015494600788015496600960088a01549901549a6040519c8d5260208d015260408c0152811660608b01528760808b019160a01c16613e29565b60a088015260c087015260e0860152610100850152611a536101208501838316613e36565b818160081c16151561014085015260101c161515610160830152610180820152f35b346103ae576020806003193601126103ae57600060c0604051611a9781613bba565b8281528284820152826040820152826060820152826080820152606060a0820152015260043560005260098152604060002060405190611ad682613bba565b80548252611b7a60018201549184840192835260ff60018060a01b0380600284015416906040870191825260038401549181606089019181851683528560808b019560a01c1685526005611b2c60048901613d83565b9760a08c0198895201549860c08b01998a526040519b8c9b818d5251908c01525160408b01525116606089015251166080870152511660a08501525160e060c0850152610100840190613cdb565b905160e08301520390f35b346103ae5760203660031901126103ae57611b9e613cc5565b6000610120604051611baf81613bd5565b828152606060208201528260408201528260608201528260808201528260a08201528260c08201528260e082015282610100820152015260018060a01b0316600052600a6020526040600020600960405191611c0a83613bd5565b80546001600160a01b03168352611c2360018201613d83565b6020840152600281015460408401526003810154606084015260048101546080840152600581015460a0840152600681015460c084015260ff600782015416151560e08401526008810154610100840152015461012082015260405180916020825260018060a01b0381511660208301526020810151610120611cb461014092836040870152610160860190613cdb565b926040810151606086015260608101516080860152608081015160a086015260a081015160c086015260c081015160e086015260e08101511515610100860152610100810151828601520151908301520390f35b346103ae5760003660031901126103ae576020600454604051908152f35b346103ae5760003660031901126103ae5760015460405160089190911c6001600160a01b03168152602090f35b346103ae5760003660031901126103ae57611d6c613e50565b611d74613eba565b600160ff19815416176001557f62e78cea01bee320cd4e420270b5ea74000d11b0c9f74754ebdbfc544b05a2586020604051338152a1005b346103ae5760203660031901126103ae57600435611dc8613efe565b80600354101580611ec8575b611ddd906140b3565b600081815260076020526040902060028101546001600160a01b03163303611e935760080190815460ff811660078110156103595780611e259115908115611e8857506140ff565b60ff61010061ff001983161780855560405160018152847f48811540d7faefcd39140a2dfe56c4e6d976f20e7f822c59146c3425574c9de760203393a360101c1615611e76575061033391506141e1565b61ffff19166101021790915550610333565b6001915014856102da565b60405162461bcd60e51b815260206004820152600d60248201526c2737ba103a343290313abcb2b960991b6044820152606490fd5b50801515611dd4565b346103ae5760003660031901126103ae57611eea613e50565b60018054610100600160a81b0319811690915560009060081c6001600160a01b03167f8be0079c531659141344cd1fd0a4f28419497f9722a3daafe3b4186f6b6457e08280a3005b60603660031901126103ae576024356001600160401b0381116103ae57611f5d903690600401613c2d565b6044356001600160401b0381116103ae57611f7c903690600401613c2d565b90611f85613efe565b6004356003541015806125c7575b611f9c906140b3565b6004356000526007602052604060002090600960405192611fbc84613b9e565b805484526001810154602085015260028101546001600160a01b03908116604086015260038201549081166060860152611fff9060a01c60ff1660808601614024565b600481015460a0850152600581015460c0850152600681015460e0850152600781015461010085015260ff600882015461203f8282166101208801614030565b818160081c16151561014087015260101c161515610160850152015461018083015260018060a01b03604083015116331480156125b1575b1561256c57610120820151600781101561035957158015612554575b801561253c575b156124f75760135434106124b257600480546001019081905560408301519092906001600160a01b03163381036124aa5750606001516001600160a01b0316925b604051936120e885613bd5565b838552600435602086015233604086015260018060a01b0316606085015281608085015260a0840152600060c0840152600060e084015242610100840152600061012084015281600052600860205260406000209280518455602081015160018501556002840160018060a01b03604083015116906001600160601b0360a01b9182825416179055600385019060018060a01b036060840151169082541617905560808101518051906001600160401b0382116106385781906121ae6004880154613d49565b601f8111612457575b50602090601f83116001146123e5576000926123da575b50508160011b916000199060031b1c19161760048501555b60a08101518051906001600160401b03821161063857819061220b6005880154613d49565b601f8111612387575b50602090601f83116001146123155760009261230a575b50508160011b916000199060031b1c19161760058501555b600684019360c082015191600383101561035957855460e08201516001600160a81b031990911660ff9490941693909317600893841b610100600160a81b03161790955560209460ff199290610120906101008101516007850155015191015560043560005260078452600460086040600020019182541617905560405190838252827f187cf2180cf205abb3a86a43c8a0e9e92ffdc0d1029d2982b525b335a50efe513393806122fa6004359589830190613cdb565b0390a46001600055604051908152f35b01519050868061222b565b9250600587016000526020600020906000935b601f198416851061236c576001945083601f19811610612353575b505050811b016005850155612243565b015160001960f88460031b161c19169055868080612343565b81810151835560209485019460019093019290910190612328565b909150600587016000526020600020601f840160051c8101602085106123d3575b90849392915b601f830160051c820181106123c4575050612214565b600081558594506001016123ae565b50806123a8565b0151905086806121ce565b9250600487016000526020600020906000935b601f198416851061243c576001945083601f19811610612423575b505050811b0160048501556121e6565b015160001960f88460031b161c19169055868080612413565b818101518355602094850194600190930192909101906123f8565b909150600487016000526020600020601f840160051c8101602085106124a3575b90849392915b601f830160051c820181106124945750506121b7565b6000815585945060010161247e565b5080612478565b9050926120db565b60405162461bcd60e51b815260206004820152601a60248201527f496e73756666696369656e742064697370757465207374616b650000000000006044820152606490fd5b60405162461bcd60e51b815260206004820152601f60248201527f43616e6e6f7420646973707574652074686973207472616e73616374696f6e006044820152606490fd5b5061012082015160078110156103595760021461209a565b50610120820151600781101561035957600114612093565b60405162461bcd60e51b815260206004820152601d60248201527f4e6f742061207472616e73616374696f6e207061727469636970616e740000006044820152606490fd5b5060608201516001600160a01b03163314612077565b506004351515611f93565b346103ae5760203660031901126103ae576125eb613cc5565b6125f3613e50565b6001600160a01b03166000908152600f60205260409020805460ff19166001179055005b346103ae5760003660031901126103ae57602060ff600154166040519015158152f35b346103ae5760203660031901126103ae5760043560005260086020526040600020805460018201549160018060a01b0390816002820154169082600382015416926126e161268a60048401613d83565b6126d361269960058601613d83565b9160068601549760086007880154970154976040519b8c9b8c5260208c015260408b015260608a01526101408060808b0152890190613cdb565b9087820360a0890152613cdb565b936126f260c0870160ff8316613e43565b60081c1660e08501526101008401526101208301520390f35b346103ae5760203660031901126103ae57612724613cc5565b33600052600f60205260ff6040600020541680156127f3575b61274690613fda565b6001600160a01b039081166000818152600a6020526040902054909116156127ae57600052600a6020526008604060002060078101600160ff1982541617905501805490603282018092116127985755005b634e487b7160e01b600052601160045260246000fd5b60405162461bcd60e51b815260206004820152601b60248201527f557365722070726f66696c6520646f6573206e6f7420657869737400000000006044820152606490fd5b506001543360089190911c6001600160a01b03161461273d565b346103ae5760003660031901126103ae576012546040516001600160a01b039091168152602090f35b346103ae5760203660031901126103ae576001600160a01b03612857613cc5565b16600052600f602052602060ff604060002054166040519015158152f35b346103ae5760003660031901126103ae5761288e613e50565b6128966146d7565b60ff19600154166001557f5db9ee0a495bf2e6ff9c91a7834c1ba4fdd244a5e8aa4e537bd38aeae4b073aa6020604051338152a1005b346103ae5760803660031901126103ae576128e5613caf565b6044359060ff821682036103ae576064356001600160401b0381116103ae57612912903690600401613c2d565b9061291b613efe565b600435600354101580612e83575b612932906140b3565b600160ff8416101580612e75575b15612e3b57600435600052600760205260406000206040519061296282613b9e565b805482526001810154602083015260028101546001600160a01b0390811660408401908152600383015491821660608501908152939092916129ad9060a01c60ff1660808301614024565b600482015460a0820152600582015460c0820152600682015460e08201526007820154610100820152610180600960088401549360ff6101208501956129f582821688614030565b818160081c16151561014087015260101c161515610160850152015491015251600781101561035957600303612df657516001600160a01b03163381149182612ddf575b8215612db0575b505015612d6b576001600554019182600555604051612a5e81613bba565b8381526004356020820152336040820152606081019060018060a01b0384168252608081019160ff8716835260a08201908482524260c084015286600052600960205260406000209383518555602084015160018601556002850160018060a01b036040860151166001600160601b0360a01b825416179055600385019160018060a01b0390511682549160ff60a01b905160a01b16916affffffffffffffffffffff60a81b1617179055518051906001600160401b03821161063857612b286004850154613d49565b601f8111612d24575b50602090601f8311600114612caf5791806005949260c094600092612ca4575b50508160011b916000199060031b1c19161760048501555b015191015560018060a01b038216600052600d602052612b8d83604060002061403c565b6001600160a01b0382166000908152600a60205260409020600481018054612bb490613eab565b80915560058201612bc960ff88168254614017565b809155606481029080820460641490151715612798578115612c8e57046006820155600460ff86161015612c4e575b5060ff6020946040519360018060a01b03168452168483015260606040830152827fe06ea7268e18017dcc290da09c39c540fdbc5fa9430c2694e80f21bb6d63fb863393806122fa600435956060830190613cdb565b60021960ff86160160ff81116127985760ff60059116029460ff861695860361279857602095612c85600860ff9401918254614017565b90559450612bf8565b634e487b7160e01b600052601260045260246000fd5b015190508a80612b51565b906004850160005260206000209160005b601f1985168110612d0c5750926005949260019260c09583601f19811610612cf3575b505050811b016004850155612b69565b015160001960f88460031b161c191690558a8080612ce3565b91926020600181928685015181550194019201612cc0565b600485016000526020600020601f840160051c810160208510612d64575b601f830160051c82018110612d58575050612b31565b60008155600101612d42565b5080612d42565b60405162461bcd60e51b815260206004820152601b60248201527f496e76616c696420726576696577207061727469636970616e747300000000006044820152606490fd5b516001600160a01b03163314915081612dcc575b508480612a40565b6001600160a01b03831614905084612dc4565b80516001600160a01b038581169116149250612a39565b60405162461bcd60e51b815260206004820152601960248201527f5472616e73616374696f6e206e6f7420636f6d706c65746564000000000000006044820152606490fd5b60405162461bcd60e51b8152602060048201526012602482015271526174696e67206d75737420626520312d3560701b6044820152606490fd5b50600560ff84161115612940565b506004351515612929565b346103ae576020806003193601126103ae5760069060043580600254101580612f3a575b612ebb90613f54565b33600052600e8252604060002081600052825260ff6040600020541633600052600e83526040600020826000528352612f05811560406000209060ff801983541691151516179055565b15612f26576000525260086040600020018054801561279857600019019055005b505260086040600020016112bc8154613eab565b50801515612eb2565b346103ae5760203660031901126103ae576000610180604051612f6581613b9e565b8281528260208201528260408201528260608201528260808201528260a08201528260c08201528260e082015282610100820152826101208201528261014082015282610160820152015260043560005260076020526101a06040600020600960405191612fd283613b9e565b805483526001810154602084015260028101546001600160a01b039081166040850152600382015490811660608501526130159060a01c60ff1660808501614024565b600481015460a0840152600581015460c0840152600681015460e0840152600781015461010084015260ff60088201546130558282166101208701614030565b818160081c16151561014086015260101c161515610160840152015461018082015261018060405191805183526020810151602084015260018060a01b03604082015116604084015260018060a01b0360608201511660608401526130c260808201516080850190613e29565b60a081015160a084015260c081015160c084015260e081015160e0840152610100810151610100840152613100610120820151610120850190613e36565b610140810151151561014084015261016081015115156101608401520151610180820152f35b346103ae5760203660031901126103ae576001600160a01b0380613148613cc5565b16600052600a60205260406000209081541661316660018301613d83565b916002810154906003810154906004810154600582015460068301549060ff6007850154169260096008860154950154956131b36040519a8b9a8b526101408060208d01528b0190613cdb565b9760408a01526060890152608088015260a087015260c0860152151560e08501526101008401526101208301520390f35b346103ae5760003660031901126103ae576020601054604051908152f35b346103ae5760003660031901126103ae576020600554604051908152f35b346103ae5760003660031901126103ae576020601354604051908152f35b346103ae5760403660031901126103ae57613257613cc5565b6001600160a01b03166000908152600d60205260409020805460243591908210156103ae5760209161133191613d1b565b346103ae576020806003193601126103ae576001600160a01b036132aa613cc5565b16600052600d8152604060002090604051908181845491828152019360005281600020916000905b8282106132e9576107e7856107db81890382613bf1565b8354865294850194600193840193909101906132d2565b346103ae5760203660031901126103ae57613319613cc5565b613321613e50565b6001600160a01b03166000908152600f60205260409020805460ff19169055005b346103ae5760203660031901126103ae5760043561335e613e50565b6101f4811161336c57601155005b60405162461bcd60e51b815260206004820152601c60248201527f44697370757465206665652063616e6e6f7420657863656564203525000000006044820152606490fd5b346103ae5760203660031901126103ae576004356133cd613e50565b6103e881116133db57601055005b60405162461bcd60e51b81526020600482015260156024820152744665652063616e6e6f74206578636565642031302560581b6044820152606490fd5b346103ae5760203660031901126103ae57600061016060405161343a81613b82565b82815282602082015260606040820152826060820152826080820152606060a08201528260c08201528260e0820152826101008201528261012082015282610140820152015260043560005260066020526040600020600a6040519161349f83613b82565b8054835260018101546001600160a01b031660208401526134c260028201613d83565b604084015260038101546060840152600481015460808401526134e760058201613d83565b60a084015260ff6006820154818116151560c086015260081c16151560e084015260078101546101008401526008810154610120840152600981015461014084015201546101608201526040518091602082528051602083015260018060a01b03602082015116604083015260408101516101606135a0613576610180938460608801526101a0870190613cdb565b60608501516080870152608085015160a087015260a0850151601f198783030160c0880152613cdb565b9260c0810151151560e086015260e08101511515610100860152610100810151610120860152610120810151610140860152610140810151828601520151908301520390f35b346103ae5760403660031901126103ae57600435613602613caf565b336000526020600f815260ff60406000205416801561392e575b61362590613fda565b61362d613efe565b826000526008918282526040600020600681019081549460ff86166003811015610359578015908115613923575b50156138eb576002820180546001600160a01b0386811698909492918516891480156138dc575b1561389757829185939160018593015460005260078a5260406000209086600983019283549a8b15156136b49061414b565b6011546136c1908d61418c565b61271090049b8c6136d191614076565b6001600160a81b031990941660089d909d1b610100600160a81b03169c909c17600217909b55909960ff19919042828801550190815416600617905560009055541680891460001461388f575060030154165b86600052600a86528160406000200154601481018091116127985787600052600a8752826040600020015481106138545790839188600052600a885283604060002001551660005260406000200192601e8454101560001461383c578354601d19810191908211612798576137b860008080808099988199988299988399555b601254165af16137b2614083565b5061419f565b865af16137c3614083565b5015613800577fdf0baf5489595ea17a097d16827d60793e2f57f3b85a982e5d7e02838b841ee69160409182519182524290820152a26001600055005b6064906040519062461bcd60e51b82526004820152601560248201527415da5b9b995c881c185e5b595b9d0819985a5b1959605a1b6044820152fd5b600093906137b88580808080988198828099556137a4565b60405162461bcd60e51b815260048101889052601360248201527252657075746174696f6e206f766572666c6f7760681b6044820152606490fd5b915050613724565b60405162461bcd60e51b815260048101899052601c60248201527f57696e6e6572206d7573742062652061207061727469636970616e74000000006044820152606490fd5b50846003840154168914613682565b60405162461bcd60e51b815260048101869052601060248201526f2234b9b83aba32903737ba1037b832b760811b6044820152606490fd5b60019150148861365b565b506001543360089190911c6001600160a01b03161461361c565b346103ae576020806003193601126103ae57600435600052600b8152604060002090604051908181845491828152019360005281600020916000905b82821061399b576107e7856107db81890382613bf1565b835486529485019460019384019390910190613984565b346103ae576020806003193601126103ae576001600160401b036004358181116103ae576139e4903690600401613c2d565b336000908152600a845260409020546001600160a01b031615613b74575b33600052600a835260018060406000200190825193841161063857613a278254613d49565b601f8111613b2b575b5084601f8511600114613aa457938080613a949594937f9ab5b01c08788936fb2b48da858665afe9fa06d32e17dc49e0510c24ba05c98397600093613a99575b501b916000199060031b1c19161790555b6040519182918583523395830190613cdb565b0390a2005b860151925089613a70565b601f1985169083600052866000209160005b88828210613b175750509186917f9ab5b01c08788936fb2b48da858665afe9fa06d32e17dc49e0510c24ba05c98397613a949796959410613afe575b5050811b019055613a81565b85015160001960f88460031b161c191690558780613af2565b878401518555938501939283019201613ab6565b8260005285600020601f860160051c810191878710613b6a575b601f0160051c019082905b828110613b5e575050613a30565b60008155018290613b50565b9091508190613b45565b613b7d336144b4565b613a02565b61018081019081106001600160401b0382111761063857604052565b6101a081019081106001600160401b0382111761063857604052565b60e081019081106001600160401b0382111761063857604052565b61014081019081106001600160401b0382111761063857604052565b90601f801991011681019081106001600160401b0382111761063857604052565b6001600160401b03811161063857601f01601f191660200190565b81601f820112156103ae57803590613c4482613c12565b92613c526040519485613bf1565b828452602083830101116103ae57816000926020809301838601378301015290565b6020908160408183019282815285518094520193019160005b828110613c9b575050505090565b835185529381019392810192600101613c8d565b602435906001600160a01b03821682036103ae57565b600435906001600160a01b03821682036103ae57565b919082519283825260005b848110613d07575050826000602080949584010152601f8019910116010190565b602081830181015184830182015201613ce6565b8054821015613d335760005260206000200190600090565b634e487b7160e01b600052603260045260246000fd5b90600182811c92168015613d79575b6020831014613d6357565b634e487b7160e01b600052602260045260246000fd5b91607f1691613d58565b9060405191826000825492613d9784613d49565b908184526001948581169081600014613e065750600114613dc3575b5050613dc192500383613bf1565b565b9093915060005260209081600020936000915b818310613dee575050613dc193508201013880613db3565b85548884018501529485019487945091830191613dd6565b915050613dc194506020925060ff191682840152151560051b8201013880613db3565b9060028210156103595752565b9060078210156103595752565b9060038210156103595752565b60015460081c6001600160a01b03163303613e6757565b606460405162461bcd60e51b815260206004820152602060248201527f4f776e61626c653a2063616c6c6572206973206e6f7420746865206f776e65726044820152fd5b60001981146127985760010190565b60ff60015416613ec657565b60405162461bcd60e51b815260206004820152601060248201526f14185d5cd8589b194e881c185d5cd95960821b6044820152606490fd5b600260005414613f0f576002600055565b60405162461bcd60e51b815260206004820152601f60248201527f5265656e7472616e637947756172643a207265656e7472616e742063616c6c006044820152606490fd5b15613f5b57565b60405162461bcd60e51b8152602060048201526016602482015275131a5cdd1a5b99c8191bd95cc81b9bdd08195e1a5cdd60521b6044820152606490fd5b15613fa057565b60405162461bcd60e51b81526020600482015260126024820152714c697374696e67206e6f742061637469766560701b6044820152606490fd5b15613fe157565b60405162461bcd60e51b815260206004820152600e60248201526d139bdd08185d5d1a1bdc9a5e995960921b6044820152606490fd5b9190820180921161279857565b60028210156103595752565b60078210156103595752565b8054680100000000000000008110156106385761405e91600182018155613d1b565b819291549060031b91821b91600019901b1916179055565b9190820391821161279857565b3d156140ae573d9061409482613c12565b916140a26040519384613bf1565b82523d6000602084013e565b606090565b156140ba57565b60405162461bcd60e51b815260206004820152601a60248201527f5472616e73616374696f6e20646f6573206e6f742065786973740000000000006044820152606490fd5b1561410657565b60405162461bcd60e51b815260206004820152601a60248201527f496e76616c6964207472616e73616374696f6e207374617475730000000000006044820152606490fd5b1561415257565b60405162461bcd60e51b81526020600482015260126024820152714e6f2066756e647320696e20657363726f7760701b6044820152606490fd5b8181029291811591840414171561279857565b156141a657565b60405162461bcd60e51b8152602060048201526013602482015272119959481d1c985b9cd9995c8819985a5b1959606a1b6044820152606490fd5b6000818152602090600782526040908181209060098201916142058354151561414b565b6004928382015461422661271061421e6010548461418c565b048092614076565b60058401549385600894858301600360ff1982541617905542600784015555600281019260018060a01b03948585541688526003600a93848d52818c8b200161426f8154613eab565b90550192868454168952808c5260038b8a200161428c8154613eab565b90558686541690818a52808d52828c8b200154918183018093116144a15785548916808c52828f528d8c20850154808401959493929190861061448d578f8f8e858893868352522001548410614448578c52818f528d8c208401548510614404578b528d528b8a208201558354871689528a89200155601254879384938493849389929161432891869182918291829188165af16137b2614083565b54165af1614334614083565b50156143c9578261436f575b5050505050907f6aa7274309d76cd1146fd229f234c1325770c94642718bd7f5f10f41fbc44c9e9151428152a2565b83928392839254165af1614381614083565b50156143905780808080614340565b82606492519162461bcd60e51b8352820152601560248201527411195c1bdcda5d081c99599d5b990819985a5b1959605a1b6044820152fd5b855162461bcd60e51b8152808601889052601560248201527414d95b1b195c881c185e5b595b9d0819985a5b1959605a1b6044820152606490fd5b508c5162461bcd60e51b8152808d018f9052601a60248201527f53656c6c65722072657075746174696f6e206f766572666c6f770000000000006044820152606490fd5b50508c5162461bcd60e51b8152808d018f9052601960248201527f42757965722072657075746174696f6e206f766572666c6f77000000000000006044820152606490fd5b50634e487b7160e01b8c5260118d5260248cfd5b634e487b7160e01b8b5260118c5260248bfd5b6040516144c081613bd5565b6001600160a01b0391821680825260405190916020906001600160401b038284018181118582101761063857604052600093848152838301908152604083018581526060840190868252608085019287845260a086019488865260c087019689885260e08101988a8a5261010082019a808c5261012083019c8d4290528152600a8252604081209d8e9351166001600160601b0360a01b845416178355600180930194519081519485116146c3576145788654613d49565b601f811161467d575b5082601f861160011461460957509360099d9c9b99979593819382936145f29d9b9997946145fe575b50501b916000199060031b1c19161790555b5160028b01555160038a0155516004890155516005880155516006870155511515600786019060ff801983541691151516179055565b51600884015551910155565b0151925038806145aa565b868252808220949594939291601f198616915b828210614666575050916145f29b999795939160099f9e9d9b99979580941061464d575b505050811b0190556145bc565b015160001960f88460031b161c19169055388080614640565b80888697829497870151815501960194019061461c565b868252838220601f870160051c8101918588106146b9575b601f0160051c019085905b8281106146ae575050614581565b8381550185906146a0565b9091508190614695565b634e487b7160e01b81526041600452602490fd5b60ff60015416156146e457565b60405162461bcd60e51b815260206004820152601460248201527314185d5cd8589b194e881b9bdd081c185d5cd95960621b6044820152606490fdfea2646970667358221220d2e53f4d77e1456b2acf568096b561d181ec6bd545fca432ca9190a478c323ef64736f6c63430008130033",
  "linkReferences": {},
  "deployedLinkReferences": {}
}